:100000000C94F2000C9413010C9413010C94130142
:100010000C9413010C9413010C9413010C94130110
:100020000C9413010C9413010C9413010C94130100
:100030000C9413010C9413010C9413010C941301F0
:100040000C9413010C9413010C9413010C941301E0
:100050000C9413010C9413010C9413010C941301D0
:100060000C9413010C9413010C9413010C941301C0
:100070000C9413010C9413010C9413010C941301B0
:100080000C9413010C9413010C9413010C941301A0
:100090000C9413010C9413010C9413010C94130190
:1000A0000C9413010C9413010C9413010C94130180
:1000B0000C9413010C9413010C9413010C94130170
:1000C0000C9413010C9413010C9413010C94130160
:1000D0000C9413010C9413010C9413010C94130150
:1000E0000C9413010C9413010C9413010C94130140
:1000F0000C9413010C9413010C9413010C94130130
:100100000C9413010C9413010C9413010C9413011F
:100110000C9413010C9413010C9413010C9413010F
:100120000C9413010C9413010C9413010C941301FF
:100130000C9413010C9413010C9413010C941301EF
:100140000C9413010C9413010C9413010C941301DF
:100150000C9413010C9413010C9413010C941301CF
:100160000C9413010C9413010C9413010C941301BF
:100170000C9413010C9413010C9413010C941301AF
:100180000C9413010C9413010C9413010C9413019F
:100190000C9413010C9413010C9413010C9413018F
:1001A0000C9413010C9413010C9413010C9413017F
:1001B0000C9413010C9413010C9413010C9413016F
:1001C0000C9413010C9413010C94640F0C942F10D5
:1001D0000C94C20E0C9443100C943E0F0C94C80E59
:1001E0000C94CE0E11241FBECFEFCDBFDFE3DEBFD8
:1001F00000E00CBF12E2A0E0B0E2ECE9FCE200E0BB
:100200000BBF02C007900D92A631B107D9F722E2C9
:10021000A6E1B2E201C01D92A238B207E1F70E9446
:100220002F120C944C160C940000829580FB87953D
:1002300087F908952F923F924F925F926F927F922B
:100240008F929F92AF92BF92CF92DF92EF92FF92E6
:100250000F931F93CF93DF93CDB7DEB72B97CDBF0F
:10026000DEBF3E2C4F2C502E612E722E3D834E83CE
:100270005F8389839A836B837C83212C912C1986DD
:100280001886B0E0A0E01A861B86812C222D392D1D
:10029000498558856B2F7A2F8A859B85A32CB42C92
:1002A000C52CD62CE72CFD800E811F810E94521395
:1002B000C1F4882D90E02B96CDBFDEBFDF91CF91AA
:1002C0001F910F91FF90EF90DF90CF90BF90AF9074
:1002D0009F908F907F906F905F904F903F902F9066
:1002E0000895E981FA818191E983FA83EB81FC81A8
:1002F0009191EB83FC838927882A222D392D49850A
:1003000058856B2F7A2F8A859B85A1E00E943D132B
:10031000222E932E49875887B62FA72F8A879B872F
:10032000B5CFCF93DF93DC01FB0190818585881FDA
:100330008827881F238140E8249F90011124822769
:10034000929590FB979597F989273196ED019D013C
:100350002D5E3F4F91919993C217D307D9F75396CA
:100360008C93DF91CF9108952F923F924F925F929D
:100370006F927F928F929F92AF92BF92CF92DF92B5
:10038000EF92FF920F931F93CF93DF93CDB7DEB71A
:100390002A97CDBFDEBF3E2C4F2C502E1B832C83C3
:1003A000832E4D835E833C0169837A83212C912CBB
:1003B00018861F82B0E0A0E019861A86222D392DFA
:1003C00048855F816B2F7A2F89859A85A32CB42C61
:1003D000C52CDB80EC80F82C0D811E810E9452130D
:1003E000B1F42A96CDBFDEBFDF91CF911F910F915F
:1003F000FF90EF90DF90CF90BF90AF909F908F9045
:100400007F906F905F904F903F902F900895F301F1
:1004100081913F01E981FA819191E983FA83930106
:10042000215031098927F9018083222D392D4885F2
:100430005F816B2F7A2F89859A85A1E00E943D13F9
:10044000222E932E48875F83B62FA72F89879A87FE
:10045000B5CF2F923F924F925F926F927F928F9281
:100460009F92AF92BF92CF92DF92EF92FF920F9343
:100470001F93CF93DF93CDB7DEB7A897CDBFDEBF75
:1004800089879A876D877E87EB8AFC8A0D8B1E8B06
:100490002F8B388F498F5A8FF6012EAC3FAC2196A7
:1004A0004FAC219722965FAC229723966FAC23978F
:1004B00024967FAC249725968FAC259726969FACE3
:1004C00026979101A201B301C401A0E00E945B1331
:1004D00009F089C08CE0A985BA8501900D928A95B2
:1004E000E1F78CE08F8784E1A82EB12CC12CD12CB0
:1004F000E12CF12C00E010E09101A201B301C40154
:100500000E947D122B8F3C8F4D8F5E8F6F8F78A353
:1005100089A39AA39101A201B301C401A0E00E94A2
:100520005B1309F062C02B863C86488A598AF62DF7
:10053000B72D8A8AE92D2B8D3C8D4D8D5E8D6F8D6B
:1005400078A189A19AA1AB84BC84C888D988EF2EF0
:10055000FB2E0A891E2F0E94491329833A834B835D
:100560005C836D837E838F8398879101A201B301A1
:10057000C401A0E00E945B1309F441C029813A81C3
:100580004B815C816D817E818F819885AB88BC8831
:10059000CD88DE88EF88F88C098D1A8D0E94521361
:1005A00071F5E985FA85319683E1DF011D928A951F
:1005B000E9F781E0E985FA858083A896CDBFDEBFA3
:1005C000DF91CF911F910F91FF90EF90DF90CF902F
:1005D000BF90AF909F908F907F906F905F904F9063
:1005E0003F902F9008951F867ECFBCE0BB871C866E
:1005F000188A198AF0E0B0E01A8AE0E09CCF24E182
:1006000030E040E050E060E070E080E090E0AF84F7
:10061000B12CC12CD12CE12CF12C00E010E00E9477
:10062000491319014BA35CA36DA37EA38FA398A7C5
:100630002B893C894D895E896F89788D898D9A8D4A
:10064000AB8CBC8CCD8CDE8CEF8CF8A009A11AA1F0
:100650000E944913AB84BC84C888D988EF2EFB2E36
:100660000A891E2F0E943413F22FE32F2A016B8771
:100670007C87B82FA92F8F84912C310191014BA138
:100680005CA16DA17EA18FA198A5AF2EBE2E6201A7
:10069000EB84FC840B2F1A2F0E94521309F010F5E3
:1006A0006D857E8589819A81680F791FA101898571
:1006B0009A85880D991DA896CDBFDEBFDF91CF9199
:1006C0001F910F91FF90EF90DF90CF90BF90AF9070
:1006D0009F908F907F906F905F904F903F902F9062
:1006E0000C948A132F2E3E2E2F2F3E2FA2016B85A6
:1006F0007C858B2F9A2FA0E00E945B1369F06D859B
:100700007E85A981BA816A0F7B1FA10189859A859F
:10071000880D991D0E948A13820C931CE985FA8525
:100720008E0E9F1EA3014219530970E060E0C401C0
:100730000E94931381E0D4018C933FCF2F923F927C
:100740004F925F926F927F928F929F92AF92BF92E1
:10075000CF92DF92EF92FF920F931F93CF93DF938D
:10076000CDB7DEB72C97CDBFDEBF2C0169877A8766
:1007700017010B871C8739014A012AA13BA14CA113
:100780005DA16EA17FA184E1A82EB12CC12CD12C3A
:10079000E12CF12C00E010E088A599A50E947D12C3
:1007A000E92F29833A834B835C836D837E838F8318
:1007B00098875101CB84DC84730184010E94521319
:1007C00001F5F201319683E1DF011D928A95E9F787
:1007D00081E0F20180832C96CDBFDEBFDF91CF9107
:1007E0001F910F91FF90EF90DF90CF90BF90AF904F
:1007F0009F908F907F906F905F904F903F902F9041
:10080000089591014B855C85B301C401A980BA802C
:10081000CB80DC80ED80FE800F811E2F0E9449136B
:10082000B22F132FE985FA8529813A81E20FF31F50
:100830002B2F312FA3E10E945B1341F038F084E1AC
:10084000D20101900D928A95E1F7C5CF6B2E712EE2
:10085000A301BF01C2010E948A134201860C971CAA
:1008600044E150E04619570970E060E0C4010E947D
:10087000931381E0D4018C93AECF2F923F924F928D
:100880005F926F927F928F929F92AF92BF92CF9220
:10089000DF92EF92FF920F931F93CF93DF93CDB729
:1008A000DEB7CA5CD109CDBFDEBFC058DF4F888339
:1008B000C058D040CD57DF4F9883C358D040C7535E
:1008C000DF4F6883C95CD040C653DF4F7883CA5C72
:1008D000D040CF57DF4F4883C158D040CC57DF4F6F
:1008E0005883C458D040C957DF4FC882C758D0403A
:1008F000C857DF4FD882C858D040C757DF4FE8826B
:10090000C958D040C657DF4FF882CA58D040C557A3
:10091000DF4F0883CB58D040C457DF4F1883CC58E3
:10092000D040C357DF4F2883CD58D040C257DF4F48
:100930003883CE58D040C154DF4FA882CF5BD0401F
:10094000C054DF4FB882C05CD040C052DF4F8881B6
:10095000C05ED040CB55DF4F8883C55AD040CF51C1
:10096000DF4F9881C15ED040CA55DF4F9883C65A89
:10097000D040CE51DF4FA881C25ED040C955DF4F75
:10098000A883C75AD040CD51DF4FB881C35ED04055
:10099000C855DF4FB883C85AD040CC51DF4FE881EB
:1009A000C45ED040C755DF4FE883C95AD040CB5111
:1009B000DF4FF881C55ED040C655DF4FF883CA5A75
:1009C000D040CA51DF4F8881C65ED040C555DF4F49
:1009D0008883CB5AD040C951DF4F9881C75ED04041
:1009E000C455DF4F9883CC5AD040F4E1AF2EB12CE0
:1009F000C12CD12CE12CF12C00E010E0C957DF4FC5
:100A00002881C758D040C857DF4F3881C858D040D8
:100A1000C757DF4F4881C958D040C657DF4F58816C
:100A2000CA58D040C557DF4F6881CB58D040C45713
:100A3000DF4F7881CC58D040C357DF4F8881CD58E5
:100A4000D040C257DF4F9881CE58D0400E94D71275
:100A5000EC962FAFEC97532EED964FAFED97EE96A9
:100A60005FAFEE97EF966FAFEF97C158DF4F788388
:100A7000CF57D0403C01A1E00E943D13C355DF4F4A
:100A80002883CD5AD040C255DF4F3883CE5AD0404C
:100A9000C155DF4F4883CF5AD040C055DF4F5883F0
:100AA000C05BD040CF54DF4F6883C15BD040CE5491
:100AB000DF4F7883C25BD040CD54DF4F8883C35B68
:100AC000D040CC54DF4F9883C45BD040C957DF4F30
:100AD0002881C758D040C857DF4F3881C858D04008
:100AE000C757DF4F4881C958D040C657DF4F58819C
:100AF000CA58D040C557DF4F6881CB58D040C45743
:100B0000DF4F7881CC58D040C357DF4F8881CD5814
:100B1000D040C257DF4F9881CE58D0400E94D512A6
:100B2000A0E00E945B1309F468C6C355DF4FA8819B
:100B3000CD5AD040CB56DF4FA883C559D040C255BF
:100B4000DF4FB881CE5AD040CA56DF4FB883C6595E
:100B5000D040C155DF4FE881CF5AD040C956DF4F52
:100B6000E883C759D040C055DF4FF881C05BD04003
:100B7000C856DF4FF883C859D040CF54DF4F888123
:100B8000C15BD040C756DF4F8883C959D040CE548F
:100B9000DF4F9881C25BD040C656DF4F9883CA5959
:100BA000D040CD54DF4FA881C35BD040C556DF4F46
:100BB000A883CB59D040CC54DF4FB881C45BD04020
:100BC000C456DF4FB883CC59D040CB55DF4F288176
:100BD000C55AD040CA55DF4F3881C65AD040C95592
:100BE000DF4F4881C75AD040C855DF4F5881C85A97
:100BF000D040C755DF4F6881C95AD040C655DF4F36
:100C00007881CA5AD040C555DF4F8881CB5AD04031
:100C1000C455DF4F9881CC5AD040ACE00E943D13C0
:100C2000E4E1AE2EB12CC12CD12CE12CF12C00E052
:100C300010E00E94D7121901442E852E962EB72F50
:100C4000F82FE92FA1E00E943D13CF53DF4F2883F7
:100C5000C15CD040CE53DF4F3883C25CD040CD530F
:100C6000DF4F4883C35CD040CC53DF4F5883C45C14
:100C7000D040CB53DF4F6883C55CD040CA53DF4FB1
:100C80007883C65CD040C953DF4F8883C75CD040AF
:100C9000C853DF4F9883C85CD040EC962FADEC97DB
:100CA000352DED964FADED97EE965FADEE97EF9645
:100CB0006FADEF97C158DF4F7881CF57D040C30158
:100CC000A2E00E943D13C356DF4F2883CD59D04088
:100CD000C256DF4F3883CE59D040C156DF4F4883CC
:100CE000CF59D040C056DF4F5883C05AD040CF555F
:100CF000DF4F6883C15AD040CE55DF4F7883C25A48
:100D0000D040CD55DF4F8883C35AD040CC55DF4FFC
:100D10009883C45AD0405101C42CD82CE92CFB2E06
:100D20000F2F1E2F0E94521340F5C356DF4F28820B
:100D3000CD59D040C256DF4F3882CE59D040C1562F
:100D4000DF4F4882CF59D040C056DF4F8882C05A0B
:100D5000D040CF55DF4F9882C15AD040CE55DF4F9B
:100D6000B883C25AD040CD55DF4FF883C35AD04024
:100D7000CC55DF4FE883C45AD040FE01EB59FF4FFA
:100D80001192119212E1DF01812F1D928A95E9F7EC
:100D900080E1C651DF4FE881F981CA5ED040DE01B3
:100DA000AB59BF4F01900D928A95E1F7CE018B5957
:100DB0009F4F0E94880EFE01EF5AFF4F1192119231
:100DC000DF01812F1D928A95E9F719A61AA6FE0167
:100DD000BB96DF01812F1D928A95E9F784E1FA968F
:100DE000DE01DD9601900D928A95E1F719821A8253
:100DF000FE013396DF011D921A95E9F71F921F92AB
:100E00001F921F921F921F921F921F92C851DF4F75
:100E1000C880D980C85ED040CB55DF4FE880C55A26
:100E2000D040CA55DF4FF880C65AD040C955DF4F71
:100E30000881C75AD040C855DF4F1881C85AD040E2
:100E4000C755DF4F2881C95AD040C655DF4F38817A
:100E5000CA5AD040C555DF4F4881CB5AD040C455FF
:100E6000DF4F5881CC5AD040C154DF4F6881CF5BEF
:100E7000D040C054DF4F7881C05CD040CE01019695
:100E80000E942902CDBFDEBFC451DF4F8881998106
:100E9000CC5ED040892B09F0EAC4CF57DF4FF881F0
:100EA000C158D040C354DF4FF883CD5BD040CC57FE
:100EB000DF4F8881C458D040C254DF4F8883CE5B57
:100EC000D040CF57DF4FB881C158D040CB57DF4F0C
:100ED000B883C558D040CC57DF4FE881C458D040C4
:100EE000CA57DF4FE883C658D040C058DF4FF8815B
:100EF000C058D040CF57DF4FF883C158D040CD57AE
:100F0000DF4F8881C358D040CE57DF4F8883C25807
:100F1000D040C957DF4F9881C758D040CD57DF4FD9
:100F20009883C358D040C857DF4FA881C858D040D5
:100F3000CC57DF4FA883C458D040C757DF4FB88184
:100F4000C958D040C157DF4FB883CF58D040C6579B
:100F5000DF4FE881CA58D040C057DF4FE883C059FF
:100F6000D040C557DF4FF881CB58D040CF56DF4F28
:100F7000F883C159D040C457DF4F8881CC58D04046
:100F8000CE56DF4F8883C259D040C357DF4F988178
:100F9000CD58D040CD56DF4F9883C359D040C2576B
:100FA000DF4FA881CE58D040CC56DF4FA883C4591C
:100FB000D040812C912CEC961FAEEC97ED961FAE95
:100FC000ED97EE961FAEEE97EF961FAEEF97C158D6
:100FD000DF4F1882CF57D040C058DF4F1882C0581B
:100FE000D0401E01B9E22B0E311C3E01EDE36E0E26
:100FF000711C2E01F1E54F0E511CCE018196EB962E
:101000008EAF9FAFEB97B301C1010E949101CB5608
:10101000DF4F2881C559D040CA56DF4F3881C659A5
:10102000D040C956DF4F4881C759D040C856DF4F1E
:101030005881C859D040C756DF4F6881C959D04040
:10104000C656DF4F7881CA59D040C556DF4F8881D8
:10105000CB59D040C456DF4F9881CC59D040540171
:10106000EC96CFACEC97ED96DFACED97EE96EFAC4F
:10107000EE97EF96FFACEF97C158DF4F0881CF573F
:10108000D040C058DF4F1881C058D0400E94521342
:1010900009F008F4C6C08CE0C851DF4FE881F9813F
:1010A000C85ED040DE01559601900D928A95E1F719
:1010B000EB96AEADBFADEB97E8E01D92EA95E9F790
:1010C00044E1E42EF12C00E010E020E030E040E0CC
:1010D00050E0B301CE0145960E94B40120E030E01B
:1010E00040E050E0B101CE0145960E94B401CE012E
:1010F00045960E94880E20E030E040E050E0B301C9
:10110000CE0145960E94B40120E030E040E050E07E
:10111000B101CE0145960E94B401CB56DF4F288124
:10112000C559D040CA56DF4F3881C659D040C9563C
:10113000DF4F4881C759D040C856DF4F5881C85942
:10114000D040C756DF4F6881C959D040C656DF4FDF
:101150007881CA59D040C556DF4F8881CB59D040DD
:10116000C456DF4F9881CC59D040AFEF0E943D1359
:10117000EC96CFACEC97ED96DFACED97EE96EFAC3E
:10118000EE97EF96FFACEF97C158DF4F0881CF572E
:10119000D040C058DF4F1881C058D0400E94521331
:1011A00009F07DC3CD57DF4FC880C358D040CC571E
:1011B000DF4FD880C458D040C157DF4F0881CF5887
:1011C000D040C057DF4F1881C059D040CF56DF4FB5
:1011D0002881C159D040CE56DF4F3881C259D04006
:1011E000CD56DF4F4881C359D040CC56DF4F588190
:1011F000C459D0407601CB57DF4F68817981C558FB
:10120000D040CE0145960E94B401A601BE016B5E9E
:101210007F4FCF57DF4F88819981C158D0400E94BE
:101220008A139401EC964FADEC97ED965FADED9778
:10123000EE966FADEE97EF967FADEF97C158DF4F0B
:101240008881CF57D040C058DF4F9881C058D040D8
:10125000A0E00E945B1309F4C2C0C355DF4F288190
:10126000CD5AD040C255DF4F3881CE5AD040C155FB
:10127000DF4F4881CF5AD040C055DF4F5881C05B07
:10128000D040CF54DF4F6881C15BD040CE54DF4F98
:101290007881C25BD040CD54DF4F8881C35BD040A2
:1012A000CC54DF4F9881C45BD0405401EC96CFAC56
:1012B000EC97ED96DFACED97EE96EFACEE97EF96F0
:1012C000FFACEF97C158DF4F0881CF57D040C058CF
:1012D000DF4F1881C058D0400E94521308F47FC0DD
:1012E0009401A601B701C801AFEF0E943D139F937F
:1012F0008F937F936F935F934F933F932F93C95730
:10130000DF4FE880C758D040C857DF4FF880C85833
:10131000D040C757DF4F0881C958D040C657DF4F6C
:101320001881CA58D040C557DF4F2881CB58D040CC
:10133000C457DF4F3881CC58D040C357DF4F488166
:10134000CD58D040C257DF4F5881CE58D040C354FB
:10135000DF4F6881CD5BD040C254DF4F7881CE5BD8
:10136000D040CE0145960E949E0324E1E22EF12C4E
:1013700000E010E020E030E040E050E0B201CE01BB
:1013800045960E94B40120E030E040E050E0B10119
:10139000CE0145960E94B401CE0145960E94880E6A
:1013A00020E030E040E050E0B201CE0145960E94DE
:1013B000B40120E030E040E050E0B101CE014596BC
:1013C0000E94B40120E030E040E050E0BE016B5EDE
:1013D0007F4FCE0101960E94B401CDBFDEBF9401C4
:1013E000EC964FADEC97ED965FADED97EE966FAD49
:1013F000EE97EF967FADEF97C158DF4F8881CF57BB
:10140000D040C058DF4F9881C058D040A1E00E9422
:101410003D13CB54DF4F2883C55BD040CA54DF4F08
:101420003883C65BD040C954DF4F4883C75BD04088
:10143000C854DF4F5883C85BD040C754DF4F688320
:10144000C95BD040C654DF4F7883CA5BD040C554D7
:10145000DF4F8883CB5BD040C454DF4F9883CC5B95
:10146000D0404901EC964FAFEC97ED965FAFED970A
:10147000EE966FAFEE97EF967FAFEF97C158DF4FC5
:101480008883CF57D040C058DF4F9883C058D04092
:10149000CF53DF4FA880C15CD040CE53DF4FB88020
:1014A000C25CD040CD53DF4FC880C35CD040CC532A
:1014B000DF4FD880C45CD040CB53DF4FE880C55CA1
:1014C000D040CA53DF4FF880C65CD040C953DF4FCD
:1014D0000881C75CD040C853DF4F1881C85CD0403A
:1014E0000E94521308F07DC09F93C158DF4F98812E
:1014F000CF57D0409F93EF96AFADEF97AF93EE9657
:10150000BFADEE97BF93ED96EFADED97EF93EC96F1
:10151000FFADEC97FF939F928F92C851DF4FC88029
:10152000D980C85ED040CB55DF4FE880C55AD04047
:10153000CA55DF4FF880C65AD040C955DF4F0881E1
:10154000C75AD040C855DF4F1881C85AD040C75538
:10155000DF4F2881C95AD040C655DF4F3881CA5A5B
:10156000D040C555DF4F4881CB5AD040C455DF4FDE
:101570005881CC5AD040C154DF4F6881CF5BD040F6
:10158000C054DF4F7881C05CD040CE0145960E94A8
:10159000290294E1E92EF12C00E010E020E030E097
:1015A00040E050E0B101CE0145960E94B401CE0169
:1015B00045960E94880E20E030E040E050E0B10106
:1015C000CE0145960E94B40120E030E040E050E0BA
:1015D000BE016B5E7F4FCE0101960E94B401CDBF6C
:1015E000DEBFCD57DF4F2881C358D040CC57DF4FE7
:1015F0003881C458D040C157DF4F4881CF58D040C0
:10160000C057DF4F5881C059D040CF56DF4F688157
:10161000C159D040CE56DF4F7881C259D040CD5607
:10162000DF4F8881C359D040CC56DF4F9881C459D1
:10163000D040ACEE0E943D13CD57DF4F2883C358F6
:10164000D040CC57DF4F3883C458D040C157DF4F0C
:101650004883CF58D040C057DF4F5883C059D0403F
:10166000CF56DF4F6883C159D040CE56DF4F7883C5
:10167000C259D040CD56DF4F8883C359D040CC5695
:10168000DF4F9883C459D040CB57DF4FA881B98131
:10169000C558D0405496CB57DF4FA883B983C5585F
:1016A000D040CF57DF4FE881F981C158D0407496C0
:1016B000CF57DF4FE883F983C158D040F62DE72D8F
:1016C00031011201CB54DF4F2881C55BD040CA5491
:1016D000DF4F3881C65BD040C954DF4F4881C75BBC
:1016E000D040C854DF4F5881C85BD040C754DF4F4B
:1016F0006881C95BD040C654DF4F7881CA5BD04057
:10170000C554DF4F8881CB5BD040C454DF4F9881F4
:10171000CC5BD040C356DF4FA880CD59D040C256D5
:10172000DF4FB880CE59D040C156DF4FC880CF5967
:10173000D040C056DF4FD880C05AD040CF55DF4F81
:10174000E880C15AD040CE55DF4FF880C25AD04011
:10175000CD55DF4F0881C35AD040CC55DF4F18819B
:10176000C45AD0400E94521309F096C084E1E82E7A
:10177000F12C00E010E020E030E040E050E0BE015D
:101780006B597F4FCE0101960E94B401CE010196A4
:101790000E94880E20E030E040E050E0BE016B592E
:1017A0007F4FCE0101960E94B40188E0FE01319680
:1017B000C753DF4FA881C95CD040C653DF4FB88103
:1017C000CA5CD04001900D928A95E1F7C653DF4F75
:1017D000CDBFDEBFDF91CF911F910F91FF90EF90B2
:1017E000DF90CF90BF90AF909F908F907F906F9041
:1017F0005F904F903F902F900895EC96EFADEC974F
:10180000CB56DF4FE883C559D040CA56DF4F5882C8
:10181000C659D040ED96FFADED97C956DF4FF8831E
:10182000C759D040EE968FADEE97C856DF4F8883EC
:10183000C859D040EF969FADEF97C756DF4F9883BA
:10184000C959D040C158DF4FA881CF57D040C656A4
:10185000DF4FA883CA59D040C556DF4F6882CB59A5
:10186000D040C456DF4F7882CC59D040AEC9C05862
:10187000DF4F9881C058D040C354DF4F9883CD5B71
:10188000D040CD57DF4FA881C358D040C254DF4F5E
:10189000A883CE5BD04015CB4F2E5E2EB4CB34E167
:1018A000C32ED12C00E010E020E030E040E050E01A
:1018B000A1CC2F923F924F925F926F927F928F9224
:1018C0009F92AF92BF92CF92DF92EF92FF920F93CF
:1018D0001F93CF93DF93CDB7DEB76197CDBFDEBF48
:1018E0001C01FB01942EB52FC986DA86EB86FC8697
:1018F0000D871E872F87388B8FA1898B48A459A409
:101900006AA47BA48CA41DA50EA5F9A8EAA8DBA84F
:10191000CCA829853A854B855C856D857E858F852C
:101920009889A8E00E943D1320833183428353832A
:1019300064837583868397831F9281E08F93CF9210
:10194000DF92EF92FF920F931F938F927F926F928D
:101950005F924F9299899F93C984DA84EB84FC84C7
:101960000D851E852F853889492D5B2FBE016F5F40
:101970007F4FC1010E943D04A985BA85A20DB31D08
:1019800088E0FE01319601900D928A95E1F7CDBF76
:10199000DEBF90E080E06196CDBFDEBFDF91CF91EA
:1019A0001F910F91FF90EF90DF90CF90BF90AF907D
:1019B0009F908F907F906F905F904F903F902F906F
:1019C00008952F923F924F925F926F927F928F92E3
:1019D0009F92AF92BF92CF92DF92EF92FF920F93BE
:1019E0001F93CF93DF93CDB7DEB76197CDBFDEBF37
:1019F000F82FE92F3B012901BA2D3B2C54014FA1AF
:101A0000498758A55A8789A58B87AAA5AC874BA576
:101A10004D875CA55E878DA58F87AEA5A88B4FA54A
:101A2000498B98A889A82AA82B2F332DA601B70186
:101A3000C801A7E00E945B1309F008F471C0A8EF89
:101A40000E943D1369017A018B019C01D301CC9264
:101A50001196DC92119712964C9312971396FC9262
:101A6000139714966C93149715961C9315971696C6
:101A70008C93169717963C931F921F922F928F92DA
:101A80009F92B989BF93B889BF93BF85BF93BE8525
:101A9000BF93BD85BF93BC85BF93BB85BF93BA85FC
:101AA000BF93B985BF93A201BE016F5F7F4F8F2F98
:101AB0009E2F0E943D04F3018081918128E0E22E57
:101AC000F12C00E010E020E030E040E050E0BE010A
:101AD0006F5F7F4F840D951D0E941A0121E030E059
:101AE000CDBFDEBF892B11F430E020E08827992795
:101AF000821B930B6196CDBFDEBFDF91CF911F910B
:101B00000F91FF90EF90DF90CF90BF90AF909F909C
:101B10008F907F906F905F904F903F902F9008959F
:101B20008FEF9FEFE7CFEF92FF920F931F93CF932B
:101B3000DF93EC018C010C5E1F4F80E1E82E82E206
:101B4000F82EF80182918F011F928F93FF92EF92EE
:101B50000E949A130F900F900F900F900C171D0773
:101B600081F78AE090E0DF91CF911F910F91FF9074
:101B7000EF900C94AC13982F929596959695937040
:101B8000282F22952695277092279170880F892BF0
:101B90008F770895482F50E060E2869F90011124CE
:101BA000922F907468E0869F900111242072922BEE
:101BB00060E8869F90011124922B9A01220F331F17
:101BC0002071922B9A01359527952870922B9A01B6
:101BD000E3E035952795EA95E1F72470922BF5E03F
:101BE00055954795FA95E1F74270942B881F882701
:101BF000881F892B08958F39910559F048E2489F35
:101C00009001499F300D1124C9016FE970E00E94D5
:101C1000691208954F925F926F927F928F929F9276
:101C2000AF92BF92CF92DF92EF92FF920F931F93EA
:101C3000CF93DF93CDB7DEB76497CDBFDEBF2C0166
:101C4000CE0101965C0184E1F50111928A95E9F7D4
:101C50007201D12CC12CF70181917F01682E712C6A
:101C600010E000E0C8018C0D9D1D0E94FB0DAC0131
:101C70009C0197FF02C0295F3F4F83E03595279570
:101C80008A95E1F73327F501E20FF31FC301002E18
:101C900002C0959587950A94E2F780FB882480F826
:101CA000912C93E0220F331F9A95E1F7421B530BBF
:101CB000940101C0220F4A95EAF780818227808330
:101CC0000F5F1F4F0830110569F6F8E0CF0ED11CE9
:101CD00080EAC816D10409F0BECF84E1F501D20133
:101CE00001900D928A95E1F76496CDBFDEBFDF913A
:101CF000CF911F910F91FF90EF90DF90CF90BF9009
:101D0000AF909F908F907F906F905F904F900895CD
:101D1000DF92EF92FF920F931F93CF93DF93EC012B
:101D200000E510E035E7D32E7C0184E1E80EF11CDC
:101D300088818D2588838D2D0E94CA0D9B899827C7
:101D40009B8B8D2D0E94BB0DD82EDE01ED91CD0118
:101D50000197F0E0EE0FFF1FE050F04E2081FC01F4
:101D60002083EA16FB0691F7CE010E940A0E01506D
:101D70001109F1F6DF91CF911F910F91FF90EF9034
:101D8000DF900895809318229093192280E008959F
:101D9000809316229093172280E008957F928F926D
:101DA0009F92AF92BF92CF92DF92EF92FF920F93EA
:101DB0001F93CF93DF93CDB7DEB7A897CDBFDEBF1C
:101DC000AC01C62E19821A82FE0133968EE1DF0124
:101DD0001D928A95E9F719A21AA21BA21CA21DA2A4
:101DE0001EA21FA218A6812C86E0982E7724739439
:101DF000F4017582809119228F93809118228F931C
:101E0000809117228F93809116228F931F921F9299
:101E10001F921F921F921F921F921F921F921F923A
:101E2000B12CA12CD12CE12CF12C00E010E020E011
:101E300030E0BE016F5D7F4FCE0101960E94590CCC
:101E4000D40116967C92AE014F5F5F4F69A182E785
:101E50000E940010CDBFDEBF80E0A896CDBFDEBFE0
:101E6000DF91CF911F910F91FF90EF90DF90CF9076
:101E7000BF90AF909F908F907F900895CF93DF9306
:101E8000CDB7DEB76097CDBFDEBF9C0119821A8245
:101E9000FE0133968EE0DF011D928A95E9F72093CB
:101EA000182230931922205F3F4F2093162230933F
:101EB000172260E0CE0101960E94CE0E6096CDBF43
:101EC000DEBFDF91CF91089581E00895282F80E053
:101ED00046EA615008F40895E22FF92F919189277D
:101EE00028E030E087FF08C0880F8427215031099F
:101EF000C9F72E2F9F2FEDCF880FF8CF9C01FA0145
:101F0000DB0150E040E0421753071CF090E080E016
:101F100008958C9111969C91119760ED690F6A302C
:101F200078F4608390ED980F9A30D0F48295807F9A
:101F30009081892B80834F5F5F4F31961296E3CF5C
:101F40006FEB690F663018F497539083EBCF6FE90E
:101F5000690F663018F081E090E008959755F5CF4D
:101F60009FEB980F963040F48753990B64E0880FED
:101F7000991F6A95E1F7DCCF9FE9980F963058F7E3
:101F80008755990BF3CFDB0160917A2270917B2208
:101F900060317105D4F4A03CB105B8F496E0969F89
:101FA000F001979FF00D1124E65EFD4D8083A18323
:101FB000B2834383548325836F5F7F4F60937A227C
:101FC00070937B2290E080E0089581E090E0089596
:101FD00020E00C94C30F44E65FE070E060E086E729
:101FE0000E94E80F43E450E170E060E087E70E9460
:101FF000E80F4FE250E170E060E089E70C94E80FF1
:10200000FF920F931F93CF93DF93162FF42E052F7C
:102010000E948411CF2DD02FCE01810F911D8C01F4
:10202000C017D10741F48AE0DF91CF911F910F9142
:10203000FF900C948411E991E295EF70F0E0E0508C
:10204000FE4D80810E948411FE013197E081EF7086
:10205000F0E0E050FE4D80810E948411E1CFCF93EB
:10206000DF930F92CDB7DEB780917A228983AE01DC
:102070004F5F5F4F61E082E70E94001080E00F90A9
:10208000DF91CF910895CF93DF93CDB7DEB7E0977F
:10209000CDBFDEBF20917A2230917B22B901772714
:1020A00040E056E0842F90E08617970784F0622F77
:1020B000660F620FAE014F5F5F4F82E70E94001014
:1020C00080E0E096CDBFDEBFDF91CF910895FC01A7
:1020D000EE0FFF1FE80FF91FA1E0B0E0AC0FBD1F2E
:1020E000EA0FFB1F589FD001599FB00D1124A65E27
:1020F000BD4D8C91808311968C911197818315969B
:102100008C9182834F5FCECFAF92BF92CF92DF92FE
:10211000EF92FF920F931F93CF93DF93CDB7DEB76C
:10212000C154D240CDBFDEBF0E947D1140917A22C2
:1021300050917B222AE132E210E000E004171507FB
:102140000CF48EC04017510709F47BC026E0209F95
:10215000C001219F900D11249C01265E3D4D790107
:10216000D90115968C9180FF21C0CF57DE4F188280
:10217000C158D1400E947D1189830E947D118A83BC
:10218000AE014F575E4FBE016F5F7F4F81E090E021
:102190000E947E0F892B09F054C0CF57DE4F8881F3
:1021A000C158D14090E0F701818392839E012F5F57
:1021B0003F4F5901F12CE12C26E0209FC001219FC7
:1021C000900D1124DC01A55EBD4D6D01D6018D91F0
:1021D0009C91880F991FE816F90608F44CC00E94DC
:1021E0007D118A3011F08D3061F526E0209FC0010D
:1021F000219F900D11248C01065E1D4DF801F18088
:10220000AE014F575E4FBE016F5F7F4F8F2D9281A2
:102210000E947E0F892BA9F4D8011396ED91FC91B1
:102220006F2DCE018F579E4F1995CF5BDD4F888361
:10223000C154D240AE014F5B5D4F61E08AE70E941E
:102240000010CF5BDD4FCDBFDEBFDF91CF911F917F
:102250000F91FF90EF90DF90CF90BF90AF900895D7
:102260002A5F3F4FF90136979081981709F46ECF96
:102270000F5F1F4F63CF0E947D118A3011F38D30A5
:1022800001F3F50181935F01FFEFEF1AFF0A9ECF83
:10229000E0E4F6E088E0818384E08283E0EAF8E02D
:1022A00083E085838BE086831782848180618483C9
:1022B0008481886084830895CF93DF930F920F9277
:1022C000CDB7DEB7FC0169837A8390E080E0298195
:1022D0003A812817390711F480E008C02091A1083D
:1022E00027FF09C08091A008808381E00F900F90A4
:1022F000DF91CF9108950196EACF8091A10887FFE1
:10230000FCCF8091A00808959091A10895FFFCCF83
:102310008093A0080895FC01608371834283148632
:102320001386168615860895FC0162830895FC01C4
:10233000958526859F5F937081E0921301C080E0B0
:1023400008951F93CF93DF93EC01162F0E949711EE
:10235000882379F09D85FE01E90FF11D17839F5FAA
:1023600093709D87E881F98193819C7F2A81922BCC
:102370009383DF91CF911F910895FC01238594856C
:1023800081E0291301C080E00895FC018485DF010C
:10239000A80FB11D13968C9194859F5F93709487BD
:1023A0000895FC0183858F5F83702485A081B181AE
:1023B0009C91821749F02385DF01A20FB11D13966E
:1023C0009C93838781E0089580E00895CF93DF9305
:1023D000FC0186859585A081B181981309C013966B
:1023E0008C9113978C7F13968C93DF91CF910895E6
:1023F0008685EF01C80FD11D8F818C9386858F5FF5
:1024000083708687F2CFFC01CB01248170FF04C06A
:1024100021602483808308952E7FFBCFFC0184817B
:1024200080FF04C0808190E091600895808190E0F9
:1024300008951092520010925500809150008860CB
:10244000809350008091510083FFFCCF88ED84BFC2
:1024500083E08093400088E08093500008950E94BC
:1024600019120E94481181E08093010688E60E94BB
:10247000841185E60E9484118CE60E9484118CE60A
:102480000E9484118FE60E9484118AE00E948411C8
:102490000E94EB0F42EC5EE060E170E08BE60E9490
:1024A000E80F48EC5EE060E170E08EE60E94E80F25
:1024B0004EEC5EE060E170E080E70E94E80F4EE3E2
:1024C0005FE060E270E085E60E94E80F0E94841001
:1024D000FDCF97FB072E16F4009407D077FD09D0A7
:1024E0000E94671307FC05D03EF4909581959F4F9D
:1024F0000895709561957F4F0895DF93CF931F9353
:102500000F939A9DF02D219FF00D8B9DF00D8A9DCC
:10251000E02DF10D039FF00D029FE00DF11D4E9D8A
:10252000E00DF11D5E9DF00D4F9DF00D7F936F93BB
:10253000BF92AF925F934F93D5010E947B138B01A3
:10254000AC01D7010E947B13EB01E80FF91FD60104
:102550000E94CC122F913F91D6010E947B13C60F8F
:10256000D71FE81FF91FAF91BF910E94CC122F9186
:102570003F910E947B13C60FD71FE81FF91FD6019A
:102580000E947B13E60FF71F9801BE01CF010F9148
:102590001F91CF91DF9108950E947B13460F571F23
:1025A000C81FD91F08F431960895689401C0E894B3
:1025B0008F929F92CF93DF930E94E312DF91CF918E
:1025C0009F908F90089588249924F401E401B0E449
:1025D0009F93AA279A158B049C04ED05FE05CF0551
:1025E000D007A10798F4AD2FDC2FCF2FFE2FE92DB8
:1025F000982C892E982F872F762F652F542F432FB5
:10260000322F2227B85031F7BF9127C01B2EBF9120
:10261000BB27220F331F441F551F661F771F881FBC
:10262000991F881C991CEE1FFF1FCC1FDD1FAA1FBE
:10263000BB1F8A149B04EC05FD05CE05DF05A00732
:10264000B10748F08A189B08EC09FD09CE09DF099B
:10265000A00BB10B21601A94E1F62EF49401AF01A6
:10266000BE01CD01000C08952A0D3B1D4C1D5D1DC2
:102670006E1D7F1D801F911F08950024A7FD0094EB
:102680002A0F301D401D501D601D701D801D901DA6
:1026900008952A193B094C095D096E097F09800BD1
:1026A000910B08952A153B054C055D056E057F05C8
:1026B0008007910708950024A7FD00942A1730058C
:1026C0004005500560057005800590050895AA1B1A
:1026D000BB1B51E107C0AA1FBB1FA617B70710F00D
:1026E000A61BB70B881F991F5A95A9F7809590953F
:1026F000BC01CD010895A29FB001B39FC001A39F6B
:10270000700D811D1124911DB29F700D811D11242A
:10271000911D0895FB01DC0102C001900D92415012
:102720005040D8F70895DC0101C06D9341505040EE
:10273000E0F70895CF93DF93CDB7DEB7FE0136966D
:1027400061917191AF0180917E2290917F220E94D0
:10275000B213DF91CF91089560917E2270917F2214
:102760000C94BE152F923F924F925F926F927F9280
:102770008F929F92AF92BF92CF92DF92EF92FF9291
:102780000F931F93CF93DF93CDB7DEB72F97CDBFB6
:10279000DEBF7C013B018A01DC0116961D921C9272
:1027A000179713968C9181FFD0C19AE0292EFE01D4
:1027B00031964F01D70113969C91F30193FD8591BA
:1027C00093FF81913F01882309F444C1853239F494
:1027D00093FD859193FF81913F01853229F4B701E3
:1027E00090E00E94BE15E6CFB12C412C512CBFE1E8
:1027F000B51538F08B3209F188F4803201F183325B
:1028000021F157FC3AC020ED280F2A3040F556FE42
:102810001FC0B29C200D1124B22E06C08D3291F043
:10282000803379F7689450F8F30193FD859193FF15
:1028300081913F018111DBCF20C0689451F86894E9
:1028400052F8F2CF689453F8EFCF689454F8ECCF75
:10285000429C200D1124422E689455F8E5CF8E320B
:1028600029F456FCF7C0689456F8DECF8C3619F47C
:10287000689457F8D9CF8836B9F2982F9F7D955430
:102880009330C0F08336A1F18337C1F1833509F06D
:102890005BC0D801CD90DD908D016B2D70E056FCB2
:1028A00002C06FEF7FEFC6010E94A8155C0168941B
:1028B00057F80AC00C5F1F4FEFE3E983AA24A394E3
:1028C000B12C6401E89457F853FC04C04A141B046B
:1028D00009F018F5342CA114B10431F5332009F4B2
:1028E00069CFB70180E290E00E94BE153A94F6CF1E
:1028F000D8018C9189830E5F1F4FE0CFF801C19002
:10290000D1908F016B2D70E056FC02C06FEF7FEF0E
:10291000C6010E94B3155C01D5CFB70180E290E0FB
:102920000E94BE154A94D2CFF60157FC859157FEFE
:1029300081916F01B70190E00E94BE1531103A9469
:10294000B1E0AB1AB108C7CF843619F0893609F067
:1029500071C0F80157FE67C06191719181919191A9
:102960008F01E52DEF76DE2E97FF09C090958095BB
:10297000709561957F4F8F4F9F4F6894D7F82AE0ED
:1029800030E0A4010E94EE15C82EC818AC2C5D2CB6
:10299000D6FE0CC0E89450F8CB1440F4D4FE05C029
:1029A000D2FC03C05D2D5E7E552EAB2C54FEA5C01F
:1029B000FE01EC0DF11D8081803309F097C0652D7B
:1029C000697E562E752D7870372E53FCA5C050FEAB
:1029D0009FC0BC2CA41410F4B40CBA1854FEA2C0AE
:1029E000B70180E390E00E94BE1552FE07C088E761
:1029F00051FC88E590E0B7010E94BE15CB1408F4A5
:102A00009DC0CA94D12C8FEFC81AD80AC80CD91C03
:102A1000D6018E916D01B70190E00E94BE158C1415
:102A20009D04B1F75BCF61917191072E000C880B6B
:102A3000990B96CFD52CE894D4F82AE08537B9F1D4
:102A4000F52DF97FDF2E803731F1E8F4883531F14B
:102A50008F3661F1F701868197812F96CDBFDEBF5A
:102A6000DF91CF911F910F91FF90EF90DF90CF906A
:102A7000BF90AF909F908F907F906F905F904F909E
:102A80003F902F900895883729F7D4FE02C06894AC
:102A9000D2F820E10CC06894D4F8F7CF54FE03C0FC
:102AA0002F2F2660D22E20E132E002C028E030E055
:102AB000F801D7FE15C041915191619171914C87F8
:102AC0005D876E877F878F01A4016C857D858E85EC
:102AD0009F850E94EE15C82EC818E894D7F856CFE7
:102AE00081919191AC0170E060E0E9CF52FC02C0AD
:102AF000A39468CFA394A39465CF852D867809F419
:102B000061CFF6CFB70180E290E00E94BE15A3949A
:102B1000A414C0F3312C62CF342C3A18A41408F456
:102B20005DCFF8CF852D867809F468CF8BE251FE12
:102B300080E257FC8DE2B70190E05ECFB70180E301
:102B400090E00E94BE15BA9459CF8FEF9FEF85CFCA
:102B5000FC010590615070400110D8F78095909568
:102B60008E0F9F1F0895FC0161507040019001106D
:102B7000D8F7809590958E0F9F1F08950F931F9300
:102B8000CF93DF93182F092FEB018B8181FD09C0B3
:102B90001FEF0FEF812F902FDF91CF911F910F919A
:102BA000089582FF14C02E813F818C819D8128175A
:102BB00039073CF4E881F981CF0101968883998334
:102BC00010838E819F8101968E839F83E3CFE8855A
:102BD000F985812F1995892BA1F3DACFFA01AA275C
:102BE000283051F1203181F1E8946F936E7F6E5F50
:102BF0007F4F8F4F9F4FAF4FB1E03ED0B4E03CD0FE
:102C0000670F781F891F9A1FA11D680F791F8A1FE0
:102C1000911DA11D6A0F711D811D911DA11D20D047
:102C200009F468943F912AE0269F11243019305D01
:102C30003193DEF6CF010895462F4770405D4193F2
:102C4000B3E00FD0C9F7F6CF462F4F70405D4A333F
:102C500018F0495D31FD4052419302D0A9F7EACF07
:102C6000B4E0A6959795879577956795BA95C9F736
:102C700000976105710508959B01AC010A2E069429
:102C80005795479537952795BA95C9F7620F731FE2
:0C2C9000841F951FA01D0895F894FFCF2D
:102C9C00EE00ED00EB00E000E200E100E400EF00EC
:102CAC00E700EA00E800E500E900EC00E300E600DC
:102CBC00DE00DD00DB00D000D200D100D400DF004C
:102CCC00D700DA00D800D500D900DC00D300D6003C
:102CDC00BE00BD00BB00B000B200B100B400BF002C
:102CEC00B700BA00B800B500B900BC00B300B6001C
:102CFC000E000D000B0000000200010004000F008C
:102D0C0007000A000800050009000C00030006007B
:102D1C002E002D002B0020002200210024002F006B
:102D2C0027002A002800250029002C00230026005B
:102D3C001E001D001B0010001200110014001F00CB
:102D4C0017001A001800150019001C0013001600BB
:102D5C004E004D004B0040004200410044004F002B
:102D6C0047004A004800450049004C00430046001B
:102D7C00FE00FD00FB00F000F200F100F400FF008B
:102D8C00F700FA00F800F500F900FC00F300F6007B
:102D9C007E007D007B0070007200710074007F006B
:102DAC0077007A007800750079007C00730076005B
:102DBC00AE00AD00AB00A000A200A100A400AF00CB
:102DCC00A700AA00A800A500A900AC00A300A600BB
:102DDC008E008D008B0080008200810084008F00AB
:102DEC0087008A008800850089008C00830086009B
:102DFC005E005D005B0050005200510054005F000B
:102E0C0057005A005800550059005C0053005600FA
:102E1C009E009D009B0090009200910094009F00EA
:102E2C0097009A009800950099009C0093009600DA
:102E3C00CE00CD00CB00C000C200C100C400CF004A
:102E4C00C700CA00C800C500C900CC00C300C6003A
:102E5C003E003D003B0030003200310034003F00AA
:102E6C0037003A003800350039003C00330036009A
:102E7C006E006D006B0060006200610064006F000A
:102E8C0067006A006800650069006C0063006600FA
:102E9C003031323334353637383941424344454684
:062EAC0025303258200021
:00000001FF
