:020000040800F2
:1000000000300020A92A0008F12A0008F12A00087F
:10001000F12A0008F12A0008F12A00080000000077
:10002000000000000000000000000000F12A0008AD
:10003000F12A000800000000F12A0008F12A000857
:1000400000000000000000000000000000000000B0
:1000500000000000000000000000000000000000A0
:100060000000000000000000000000000000000090
:100070000000000000000000000000000000000080
:100080000000000000000000000000000000000070
:100090000000000000000000000000000000000060
:1000A0000000000000000000000000000000000050
:1000B0000000000000000000000000000000000040
:1000C0000000000000000000000000000000000030
:1000D0000000000000000000000000000000000020
:1000E0000000000000000000000000000000000010
:1000F0000000000000000000000000000000000000
:1001000000000000000000000000000000000000EF
:1001100000000000000000000000000000000000DF
:1001200000000000000000000000000000000000CF
:1001300000000000000000000000000000000000BF
:1001400000000000000000000000000000000000AF
:10015000000000000000000000000000000000009F
:10016000000000000000000000000000000000008F
:10017000000000000000000000000000000000007F
:08018000000000000000000077
:1001880010B5054C237833B9044B13B10448AFF3C9
:1001980000800123237010BD90070020000000009C
:1001A800682B000808B5034B1BB103490348AFF39C
:1001B800008008BD0000000094070020682B00089C
:1001C800F8B50546DDE90806144650EA0602069F1A
:1001D80027D0B7008200121847EA907746EB070647
:1001E800B70047EA92779200B2F10C0047F1FF3668
:1001F800B34208BF844233D00C3443F10003A41A3D
:1002080063EB070314273A46944273F100024FF058
:10021800000614D33A460144A819BDE8F84002F094
:1002280089BC3E687A68BF68AF6008276A603A464A
:10023800944273F100022E604FF00C06EAD2234379
:1002480008D126443A1B0021A81902F081FC012399
:10025800AB55F8BD01442246A81902F06BFCF0E743
:10026800002301222B606B60AB60EB602B612A706E
:10027800F8BD00BF2DE9F04FBFB0489C499D1F91C4
:1002880017926119674A149441F10001CDE915509C
:10029800A2FB013020F0030303EB9003C91A631A91
:1002A8004FF0CC3065F1000503FB00F002FB0500C0
:1002B800A3FB0234204403F003020524A2FB042418
:1002C80052184FEA930343EA807344F100014C9CAF
:1002D800129413F101084FEA90004D9C139440F1D9
:1002E80000090A43129A0CBFCDE90730CDE9078906
:1002F80012F10C07139A42F10006B919494A41F163
:100308000001A2FB01CE2EF0030C0CEB9E0CA1EB1E
:100318000C01B7EB010C4FF0CC3166F1000601FB84
:100328000CF102FB0611ACFB022C01EB0C06910848
:1003380041EA8671B2084E1CDDE94F540C9642F131
:100348000006023340F100008B420E9370EB02036B
:100358000F90EB6828680D9638BFCDE90E126968D2
:10036800AA6820AE002524950FC620A800F096FDA7
:100378000DF1800CBCE80F00CDE93C55CDE92F55B7
:10038800CDE92755CDE931552595269529953395FC
:100398002AAD0FC54E9B3668186859689A68129B33
:1003A8002E60082B139B0DF1E40E73F10003AEE8E9
:1003B800070080F0E483DDE91232134340F0A8839C
:1003C800129BC3F1080239ABD819002102F0C0FB17
:1003D80039AA0123D3550E9B0F9A013B62F1000203
:1003E80098451093119279EB0203DDE9162338BF83
:1003F800CDE91089002C18BF1346143B0B93149BAE
:1004080014330993159B4FF0000943F10003CDE91C
:1004180005990DF1A80B0A93C8462FAC0DF1940A63
:10042800C5E000BFCDCCCCCCDBF801302360DBF8D5
:1004380005306360DBF80930A360DBF80D30E3605A
:100448009BF8113023749BF8123063749BF81330B7
:10045800A374079BE2749945089B78EB0303C0F0EB
:10046800C58059EA080379D0059BDDE91410B3F17A
:100478001402069B43F1FF33984208BF914200F0F3
:100488008D83099B142B0A9B73F10003C0F02F8303
:100498000B9E30687168B268F36834AD0FC5306977
:1004A8002860DAE900633598DAF80850DAF80C10B1
:1004B800369A19935840379BD4F800C01C9581EAA6
:1004C80003076A40389BDAF810501B9134991A9543
:1004D8006B407140654669403491A168CDF860C0B1
:1004E8004A403692E268D4F804C01E9157406546E7
:1004F800379727691D9268407B40359034A8389318
:1005080000F0CCFC359B19981B9A1E99DDF868C041
:1005180058406840369B1C9D35905D40379B534042
:100528001D9A5A40389B379269408CEA0305349BE0
:1005380036915E40189B5E40399B34965E403A9BEC
:10054800399658403B9B3A9059403C9B3B915A40C6
:100558003D9B3C927D4038955D403D950C9B19F143
:10056800010648F100059E420D9B75EB0303B14659
:10057800A846C0F0D380059A069B143243F10003C5
:100588000693099B0592143B09930A9B0B9A63F106
:1005980000030A93109BB342119B02F11402AB4172
:1005A8000B92C0F008815346DA46A3461C469BF8D6
:1005B80003209BF800109BF80D30D20142EAD312B9
:1005C800CB0043EA51135A400BF10203E31A022B02
:1005D800D2B23FF629AF5B46611E0BF1130513F843
:1005E800010F01F8010FAB42F9D132E74E9B2668A3
:1005F800596818689A68DBF80870189634AB07C30E
:10060800DBE9005308463499199569407140A6689A
:1006180034917A4061681A9158407240DBE9035C72
:1006280048403692D4E90312359081EA05003790A4
:1006380082EA0C00389034A81E931D911C92CDF8C4
:100648006CC000F02BFC35981E9B1A991C9A4340ED
:100658004B403593369B1D995F40379B6B404B4011
:1006680037931B99389B4B4053407E40199A3893D7
:10067800349B3696189E534073403493079B5A1EFA
:10068800089B43F1FF33434508BF4A4500F05A82AF
:1006980014270026BE4618973046059A179B1990CE
:1006A80003EB020C27F003056544614634AA51F8B0
:1006B800043B1068A94283EA000342F8043BF6D1E0
:1006C800BA07199827F0030320D034AA189FD15CE1
:1006D8001CF803204A4034A9CA54591C46F10002A8
:1006E800B942824112D234AD023346F100026D5C48
:1006F8001CF80160BB4285EA060534AE8241755498
:1007080004D2F15C1CF803204A40F254169B059869
:10071800724634A9181802F00DFAA2E64E9B4A99BF
:10072800009334A8DDE91223CDE90265FFF748FDFF
:100738002168349B626836981B914B403493359BF3
:100748001A9253403593A368199358403690E3683A
:10075800379858401F46379023693898189358405F
:10076800389034A800F09AFB34981B991A9A199B70
:100778004840359934905140369A35915A40379BC4
:10078800369283EA070C389F189BCDF8DCC07B4073
:100798001F463893399B584039903A9841403A91CE
:1007A8003B994A403B923C9A8CEA02033C933D9B1E
:1007B8005F403D97DFE60E9B9E420F9B9D4180F078
:1007C8006F81059B149A0699D21A0592159A62EBC5
:1007D80001024D460692D94646469B4641E0D4F86A
:1007E8000130CAF80030D4F80530CAF80430D4F81B
:1007F8000930CAF80830D4F80D30CAF80C30637CD8
:100808008AF81030A37C8AF81130E37C8AF8123019
:10081800079B8AF813209D42089B76EB0303C0F0E0
:1008280092800C9B15F1010846F1000798450D9B35
:1008380077EB030345463E462FD3059B143B0593B0
:10084800069B63F100030693DDE90E13BB4208BF64
:10085800414552460BF1140BCA4600F02181A146CE
:100868001446627B2178E378D20942EAC3124B0925
:1008780043EAC1035A40A31CAAEB0303022BD2B2DA
:10088800ADD823460AF1FF3104F1130713F8010F1D
:1008980001F8010F9F42F9D1BAE74E9B4A9900939C
:1008A80034A8DDE91223CDE90287FFF789FCDAF8DD
:1008B8000010349BDAF80420369811914B40349399
:1008C800359BDAF81010109253403593DAF8083057
:1008D8000B9358403690DAF80C3037980993584003
:1008E800379038980A914840389034A800F0D6FAE2
:1008F80034981199109A0B9BDDF8E0C0484035995F
:1009080034905140369A359182EA030E379B099A02
:10091800CDF8D8E053400A9A379382EA0C0C399AFA
:10092800CDF8E0C0504039903A9841403A913B990F
:100938008EEA01023B923C9A53403C933D9B8CEAE1
:1009480003033D9379E74E9BD4F808809A681868AA
:100958005968DAF800E0CDF828E034AB07C3D4E9E9
:10096800001335980993584088EA0203349A119184
:100978004A4071464A403492DAF80820DAF80410FE
:1009880015925340D4E9037C3693DAE903324840A0
:10099800359083EA0700379082EA0C00389034A833
:1009A800189114931092CDF82CC000F077FA35986E
:1009B800099B1899159A5840414035913699149BCE
:1009C80088EA010888EA02023692379A1199574054
:1009D8007B400B9A3793389B5340109A5340389377
:1009E800349B4B400A994B403493079B5A1E089BF3
:1009F80043F1FF33B34208BFAA4200F08F804FF0A3
:100A0800140E4FF0000CCDE909CE7046179B0B90E1
:100A180003EB0B082EF003074744414634AA51F86C
:100A2800043B1068B94283EA000342F8043BF6D15C
:100A38001EF0030F0B982EF0030329D034AADDF81B
:100A480028E0D15C18F80320099F4A4034A9CA5409
:100A5800591C4CF100027145BA4119D202334CF1CC
:100A680000020DF1D00C73451CF8017018F801C094
:100A78008CEA07070DF1D00C0CF80170099FBA41F8
:100A880006D21CF8031018F803204A400CF803207B
:100A9800169B024634A903EB0B0002F04BF8C0E6A4
:100AA800DDE9391220983B9B4140399122982199E0
:100AB80043405140CDE93A133C9A23993D9B4A4023
:100AC80024993C924B4039A83D9300F0E7F9DDE9C1
:100AD80039122098414021983991424039AB3A92D5
:100AE80003CB1F9B186059603FB0BDE8F08F099D8C
:100AF8000B992A4634A802F01DF834ABC5F114024C
:100B08005819002102F024F834AA01235355C8E4E7
:100B1800129A4A993CA802F00DF851E4DDE9052C37
:100B280052EA0C0347D0069912BF96464FF0010EC1
:100B38004FF0000C042A71F10003104625D3CDE9CB
:100B4800091263E7059A149B06999B1A159A18933C
:100B580062EB010053EA00022AD019BF1F4606467D
:100B680001270026042B9E4670F10003BFF495ADC3
:100B7800179A059900231E4602EB010CA5E54A9B2E
:100B880018685968734603C325E40A92069A0992BD
:100B9800179A00239C4602EB0B084FE70023CDE988
:100BA8003433CDE93633389301238DF8D03078E4E7
:100BB8004FF0000EAAE500206AE700BFF0B58DB03F
:100BC800DDE9124314F10806CDE9004343F10003BF
:100BD8004B60149B0E60DDE916670293199B069320
:100BE8001A9B0793012308930AA9CDE904670546D0
:100BF800FFF740FB0AAB03CB2B19285100205960A3
:100C08000DB0F0BD2DE970488DB0DDE91242082C19
:100C18001D4672F1000330D3DDE916BC083C42F1F1
:100C2800FF32199BCDE904BC0C6000944A6007931D
:100C3800189B0693149B0E46CDE9012300232A46F0
:100C48000AA90893FFF716FB33680A980B99EA1864
:100C5800EB58526843404A401343C3F307201843F4
:100C6800C3F30742104340EA1360C0B2003818BF0C
:100C7800012040420DB0BDE870884FF0FF30F9E721
:100C88002DE9F04F002287B0CDE90122CDE90322FA
:100C98008446441E804805924FF0070E80FB0213DD
:100CA800D517C5EB231505EB850302F12808C5EB1D
:100CB8004313D51A4FEAE87680FB0813C6EB2316D0
:100CC80006EB860302F15007C6EB431314F8011F25
:100CD800A8EB030680FB0738FB17C3EB28130DF1BD
:100CE800180808EBE608C1F3400906F0070609FAF8
:100CF80006F906AE06EBE50601F0010B16F814AC92
:100D080005F007050BFA05F585EA0A0506F8145CEF
:100D180003EB8305C3EB4513FB1A06AD05EBE306AE
:100D2800C1F3800702F1780503F007039F4080FBB9
:100D3800053A18F8143C89EA0309EB17C3EB2A13A0
:100D480008F8149C03EB8308C3EB4813EB1A06ADB1
:100D580005EBE30502F1A00903F00703C1F3C0089E
:100D680008FA03F880FB093A16F8143C5F404FEA8A
:100D7800E973C3EB2A1306F8147C03EB8306C3EB71
:100D88004613A9EB030306AE06EBE30602F1C80916
:100D980003F00703C1F300179F4080FB093A15F8D9
:100DA800143C88EA03084FEAE973C3EB2A1305F8F1
:100DB800148C03EB8305C3EB4513A9EB030306ADC2
:100DC80005EBE30502F1F00903F00703C1F340184E
:100DD80008FA03F880FB093A16F8143C5F404FEA1A
:100DE800E973C3EB2A1306F8147C03EB8306C3EB01
:100DF8004613A9EB030315F8149C06AE06EBE307AC
:100E080088EA090805F8148C17F8145CC1F38016F1
:100E180003F0070306FA03F36B40BEF19F0F4FEA96
:100E2800E11607F8143C2ED002F58C7180FB0135D1
:100E3800CB17C3EB251303EB8305C3EB4513CB1A81
:100E480006A901EBE30103F0070311F8145C9E40C7
:100E58000EF1080E6E40BEF1A70F01F8146C02F5F2
:100E6800A0727FF41BAF01AC0FCCCCF80000206857
:100E7800CCF80410CCF80820CCF80C30CCF81000D2
:100E880007B0BDE8F08F9DF8173021F07F01594079
:100E98008DF81710E7E700BF4FD1C2192DE9F047C9
:100EA800234C81464FF050087527461E00F1130564
:100EB8007B01F90001F0200103F040037A000B43A5
:100EC80002F0100043EAC71379104FEAE70A034318
:100ED80001F008014FEA671E0B430AF0040A99F86B
:100EE800001099F813C0C7F3401043EA0A030EF044
:100EF800020E80EA971043EA0E03794083EA0C0356
:100F0800024389F8133089F8001002F07F0733464E
:100F180013F8012F54F822201A70AB42F8D1484632
:100F2800FFF7AEFEB8F10108C2D1BDE8F08700BFF7
:100F380000000020024B002018805880704700BF36
:100F480000040020194A131A0333022B30B40AD9BB
:100F5800056844688168C368C2E90154C2E903139B
:100F6800002030BC7047437804785371C378817887
:100F7800D3714379147104795372C379917181796A
:100F8800D372437A14729172047A817A5373C37A52
:100F9800057B14739173447B817BD373C37B157476
:100FA80054749174D374002030BC7047000400203E
:100FB80070B5264C01782588B9B304F114032B4485
:100FC80000F1020CA3EB0C0C4A1EBCF1020FD2B2CA
:100FD8002FD9052A2DD98A08013AD2B200F1050E77
:100FE8000EEB820E421C52F804CB43F804CB724538
:100FF800F9D131F0FC0201F0FC0316D05A1CD2B230
:1010080004EB050C0CEB030E865C8EF81460914221
:101018000BD9104402336244DBB246781675994204
:1010280003D99C4483788CF814302944218000200B
:1010380070BD00F1010C944410F8012F03F8012B46
:101048006045F9D129442180002070BD00040020AA
:1010580070B5274C01786588C1B304F58A732B44B1
:1010680000F1020CA3EB0C0C4A1EBCF1020FD2B229
:1010780030D9052A2ED98A08013AD2B200F1050ED4
:101088000EEB820E421C52F804CB43F804CB724597
:10109800F9D131F0FC0201F0FC0317D05A1CD2B28E
:1010A80004EB050C0CEB030E865C8EF81461914280
:1010B8000CD9104402336244DBB2467882F81461DA
:1010C800994203D99C4483788CF81431294461806F
:1010D800002070BD00F1010C944410F8012F03F8B2
:1010E800012B6045F9D129446180002070BD00BF03
:1010F8000004002030B50024ADF5137D21460546D7
:101108004FF403720FA80E9401F022FD0022002371
:10111800CDE90C2300F0ECFB144A0795131D089346
:101128005388049302F58A730694059402931388EE
:1011380000930CA9143201940EA8FFF73FFD00F0AC
:10114800DFFBBDF830300BAA5BBA02217220ADF884
:101158002C3000F00DFB9DF830100EAA722000F024
:1011680007FB20460DF5137D30BD00BF00040020AD
:101178001D490B1A03330022022B10B40A804A803F
:101188000CD9046843688268C1E90143C368C1E9AE
:101198000323103010BC0021FFF7ACBF437804785C
:1011A8004B71C3788278CB7143790C7104794B7297
:1011B800C3798A718279CB72437A0C72047A4B7341
:1011C800C37A8A72827ACB73437B0C738A73047BEB
:1011D800827B4B74C37B0C748A74CB7410BC002163
:1011E8001030FFF787BF00BF0004002030B500248F
:1011F800ADF50D7D214605464FF4FE720DA80C9401
:1012080001F0A6FC00220023CDE90A2300F070FBC0
:10121800144B06951A1D07925A88049203F58A7290
:10122800059402921A8800920AA92246143301945E
:101238000CA8FFF7E7FC00F063FBBDF8283009AA0B
:101248005BBA02217220ADF8243000F091FA9DF8C3
:1012580028100CAA722000F08BFA20460DF50D7D9F
:1012680030BD00BF0004002008B500F09FFA00F070
:10127800DDFA00F017FB682000F066FB652000F03F
:1012880063FB6C2000F060FB6C2000F05DFB6F20BE
:1012980000F05AFB0A2000F057FB00F0DBF8134A75
:1012A8000021722000F00CF9114A2021652000F07D
:1012B80007F9104A10216B2000F002F90E4A11219B
:1012C800702000F0FDF80D4A1121612000F0F8F8B7
:1012D8000B4A10216E2000F0F3F80A4A102164200E
:1012E80000F0EEF800F008F9FCE700BF3D0F000839
:1012F800791100084D0F0008B90F000859100008AF
:10130800FD100008F51100080120704738B50A4B98
:101318000A4D1C78722000F017FB230904F00F0413
:10132800E85C00F011FB285D00F00EFB0A2000F0DD
:101338000BFB002038BD00BF14060020802B0008DE
:10134800F0B51B4E35788DB0ADB10022134606EBD3
:10135800031103EB4303303301326B44D2B20C79EF
:101368008868097C03F8304CAA4203F82F0C03F86C
:101378002E1C1346EBDB05EB45077220FFB200F08D
:10138800E3FA7DB16D460B4E2F4415F8014B230946
:1013980004F00F04F05C00F0D7FA305D00F0D4FAE6
:1013A800BD42F2D10A2000F0CFFA00200DB0F0BD06
:1013B80014060020802B0008002849DD10B501EB39
:1013C800400E13E0A0F14103052B2DD83738C3B2E6
:1013D800ACF13000C4B2092C137015D843EA0013DD
:1013E800DBB20231714502F8013B1BD0487891F815
:1013F80000C0A0F13003DBB2092BE3D81370ACF1C5
:101408003000C4B2092CE9D9ACF14100052813D841
:10141800ACF1370C43EA0C130231DBB2714502F828
:10142800013BE3D1002010BDA0F16103052B0DD8CD
:101438005738C3B21370E2E7ACF16100052805D84C
:10144800ACF1570C43EA0C13DBB2CAE7012010BD1C
:1014580000207047164B1A680F2A27DC154810B46D
:1014680003EB02110024C1E90240501C4FF0760C36
:10147800102881F804C00C74186015D003EB001014
:10148800772101710C490474C0E90241911C1029AB
:10149800196009D003EB01117920087107480C7411
:1014A800C1E9024003321A6010BC7047704700BFA0
:1014B800140600201113000849130008151300082A
:1014C80010B40C4C23680F2B10DCBF290ED804EB8A
:1014D800031C01338CF8040000208CF810002360F2
:1014E800CCF8081010BCCCF80C207047012010BCB8
:1014F800704700BF140600202DE9F0419A4EADF563
:10150800107D00F005FA3368002B40F3F98032793A
:10151800824200F0F880012B6DD0327D824200F0CB
:10152800F580022B67D096F82420824200F0F180E3
:10153800032B60D096F83420824200F0ED80042B13
:1015480059D096F84420824200F0E980052B52D009
:1015580096F85420824200F0E580062B4BD096F88E
:101568006420824200F0E180072B44D096F8742072
:10157800824200F0DD80082B3DD096F8842082421C
:1015880000F0D980092B36D096F89420824200F0DA
:10159800D5800A2B2FD096F8A420824200F0D18063
:1015A8000B2B28D096F8B420824200F0CD800C2B6B
:1015B80021D096F8C420824200F0C9800D2B1AD0A1
:1015C80096F8D420824200F0C5800E2B13D096F8EE
:1015D800E420824200F0C1800F2B0CD096F8F42052
:1015E800824200F0BD804FF01008984506D10DF5F5
:1015F800107DBDE8F08198469845F8D006EB0813B1
:101608004FEA08181A7CD20719D49B685B0044D0AB
:1016180030AD002406EB080707E00D28E7D0BB68CB
:1016280005F8010BB4EB430F37D200F071F90A2823
:1016380004F10104F1D10DF5107DBDE8F08100F051
:1016480067F9044600F064F9A0F13003DBB2092B16
:101658000CD9A0F14103DBB2052B48D9A0F16103F5
:10166800DBB2052BC3D8A0F15703DBB2A4F13002DB
:10167800D1B2092937D9A4F14102D2B2052A3AD9FF
:10168800A4F16102D2B2052AB1D8573C43EA041347
:10169800DBB206EB08029360B8E700F039F90A28D4
:1016A80001D00D28A3D146446A46B46830A9204623
:1016B800FFF782FE00289AD1E1B2F3682B4D684605
:1016C800984704467A2000F03FF9C4F3071304F062
:1016D8000F04E85C00F038F9285D00F035F90A20BD
:1016E80000F032F983E743EA0213DBB2D1E7A0F155
:1016F8003703DBB2BAE7373C43EA0413DBB2C8E787
:101708004FF0000878E74FF0000877E74FF001083E
:1017180074E74FF0020871E74FF003086EE74FF0E7
:1017280004086BE74FF0050868E74FF0060865E71F
:101738004FF0070862E74FF008085FE74FF0090825
:101748005CE74FF00A0859E74FF00B0856E74FF0EF
:101758000C0853E74FF00D0850E74FF00E084DE71F
:101768004FF00F084AE700BF14060020802B00083E
:1017780070B50E46144600F0E7F87EB10A4D2644CF
:1017880023781B09E85C00F0DFF814F8013B03F04C
:101798000F03E85C00F0D8F8A642F1D1BDE870402C
:1017A8000A2000F0D1B800BF802B000870B596B0B1
:1017B800002403224FF4A0230CA8CDE90C23012513
:1017C8001094149400F0D2F821460F2302A8CDE912
:1017D8000235CDE90444069400F092FC114B124EF8
:1017E8005A6942F400225A615B69089503F40023A0
:1017F80001934FF4C04307A930460793019B09940E
:1018080003230A9300F064FD2A4630464FF4005142
:1018180000F05AFE2A464FF48041304600F054FE4C
:1018280016B070BD001002400008004810B5012233
:1018380088B04FF4C06002210323CDE90201CDE94D
:101848000423154C07230693636943F4003363614B
:10185800636903F4003302A900934FF09040009BA2
:1018680000F036FDA2690D480D4B036042F480423A
:10187800A261A26902F4804200230C2101924FF474
:101888001644C0E90143C0E90333C0E90513019ACE
:1018980000F076FE08B010BD0010024018070020C6
:1018A80000380140114B30B55A6942F400325A6190
:1018B8005B6989B003F40033019302A900224FF059
:1018C80090404FF4805401250323CDE90423CDE94A
:1018D8000245019B00F0FCFC00224FF480514FF0C0
:1018E800904000F0F1FD09B030BD00BF001002408B
:1018F80001224FF480514FF0904000F0E5BD00BF49
:1019080000224FF480514FF0904000F0DDBD00BF41
:1019180030B50B4D0B4C83B003E0236A43F008034A
:10192800236241F2883301220DF10701284601F0B4
:101938000DF80028F1D19DF8070003B030BD00BFB5
:10194800180700200038014000B583B0844641F2F2
:10195800883301220DF1070103488DF807C000F014
:101968005FFF03B05DF804FB180700202DE9F04184
:101978000468E50782B040D5A64A536803F00C0313
:10198800042B28D0536803F00C03082B20D0A2495D
:1019980047680B688668B7F5803F03F1010200F0DD
:1019A800B082002F00F0E6829A4DB7F5A02F2F687D
:1019B80000F0988327F480372F602F6827F480275A
:1019C8002F60944FFD6A25F00F053543FD62A5E2AF
:1019D8005368D903DBD54FF4003393FAA3F28D4A49
:1019E800116893FAA3F3B3FA83F303F01F030122F8
:1019F80002FA03F30B4240F07F82A20759D5854BC8
:101A08005A6812F00C0F00F004825A6802F00C02B7
:101A1800082A00F0FA8102690124002A00F0E28213
:101A280094FAA4F3B3FA83F303F1845303F584130C
:101A38009B0079491C600D682B190B60022393FAEF
:101A4800A3F2744E376893FAA3F2B2FA82F202F064
:101A58001F0204FA02F23A421DD1EF1893FAA3F2D8
:101A6800D6F800C093FAA3F2B2FA82F202F01F028B
:101A780004FA02F212EA0C0F0CD1EF1C93FAA3F24B
:101A8800326893FAA3F3B3FA83F303F01F039C407D
:101A980014425BD00F605F4CF822216892FAA2F2E0
:101AA8004369B2FA82F2934021F0F80213432360AB
:101AB8000468270751D582690124002A40F0C081B3
:101AC80094FAA4F1554BB1FA81F10B449B005249A9
:101AD8001A600D682B190B60022393FAA3F293FA8C
:101AE800A3F293FAA3F24B4E776A93FAA3F2B2FAEF
:101AF80082F202F01F0204FA02F23A422CD0EF18E6
:101B080093FAA3F293FAA3F293FAA3F2D6F824C0B5
:101B180093FAA3F2B2FA82F202F01F0204FA02F276
:101B280012EA0C0F00F0CB82EF1C93FAA3F293FA9F
:101B3800A3F293FAA3F2726A93FAA3F3B3FA83F3C4
:101B480003F01F039C40144200F0B98204350320BF
:101B58000D6002B0BDE8F081046866077CD52D4BA6
:101B6800DA69D50000F1B581DA6942F08052DA61AC
:101B7800DB6903F080530193019B0125284E264918
:101B880032680B6812F4807218D1346803F1010CC2
:101B980044F48074346003F16607C1F800C06346FA
:101BA80005E00133BB424FF0010200F08582346842
:101BB800E405F6D5002A00F08B820B60C768012F78
:101BC80003F1010400F04C8267B1124A052F166A2E
:101BD80000F0808226F001061662166A26F00406D6
:101BE800166242E2DFF82CE003F59C52DEF8203062
:101BF80023F00103CEF82030DEF8203023F0040370
:101C0800CEF820300A324FF0020C0C604FF0010879
:101C18000DE000BF001002408807002020819010CE
:101C280000700040013494424FF0010761D09CFAE3
:101C3800ACF39CFAACF3DEF820609CFAACF3B3FA90
:101C480083F303F01F0308FA03F33342EAD107B121
:101C58000C60002D40F03682C369002B00F0D18063
:101C6800C14A516801F00C01082900F0E580022BF7
:101C78004FF0807342D093FAA3F3B3FA83F303F1DE
:101C8800845303F584139B00B849002018600C683E
:101C9800601C4FF00073086093FAA3F0166893FA7B
:101CA800A3F0B0FA80F000F01F00012505FA00F05B
:101CB800304200F0A680A61C93FAA3F0176893FAA6
:101CC800A3F0B0FA80F000F01F0005FA00F03842E7
:101CD80000F09680E61C93FAA3F0126893FAA3F337
:101CE800B3FA83F303F01F039D40154200F0888088
:101CF800043403200C6002B0BDE8F08193FAA3F32A
:101D0800B3FA83F303F1845303F584139B009749D3
:101D180000241C600D686B1C0B604FF0007393FA75
:101D2800A3F4176893FAA3F4B4FA84F404F01F0434
:101D3800012606FA04F43C421ED0AF1C93FAA3F421
:101D4800D2F800C093FAA3F4B4FA84F404F01F04A0
:101D580006FA04F414EA0C0F0DD0EF1C93FAA3F45E
:101D6800126893FAA3F3B3FA83F303F01F039E40B8
:101D780016427FF4EBAE0F607B4C436A6268006AE0
:101D880022F474120343134363604FF0807393FA91
:101D9800A3F3B3FA83F303F1845303F584139B008D
:101DA800012018600D682B180B604FF0007393FA30
:101DB800A3F2266893FAA3F2B2FA82F202F01F02A3
:101DC80000FA02F232421CD1AE1C93FAA3F2276841
:101DD80093FAA3F2B2FA82F202F01F0200FA02F2B8
:101DE8003A420DD1EE1C93FAA3F2226893FAA3F3B8
:101DF800B3FA83F303F01F03984010423FF4A6AEF2
:101E08000E60002002B0BDE8F0815B68DB033FF59F
:101E180002AE022393FAA3F2534A116893FAA3F38A
:101E2800B3FA83F303F01F03012202FA03F30B4210
:101E380051D0036993424ED0012002B0BDE8F08131
:101E480094FAA4F24A4B4949B2FA82F213449B002D
:101E58001C600D682B190B60022393FAA3F293FA06
:101E6800A3F293FAA3F2404F7E6A93FAA3F2B2FA6E
:101E780082F202F01F0204FA02F232427FF46CAEE0
:101E8800EE1893FAA3F293FAA3F293FAA3F2D7F80F
:101E980024C093FAA3F2B2FA82F202F01F0204FA03
:101EA80002F212EA0C0F11D1EE1C93FAA3F293FA84
:101EB800A3F293FAA3F27A6A93FAA3F3B3FA83F339
:101EC80003F01F039C4014423FF440AE04680E60C8
:101ED80043E6002552E6244DF822296892FAA2F238
:101EE8004369B2FA82F221F0F80193400B432707C5
:101EF8002B607FF532AEDEE54368002B7FF47DADC5
:101F08009AE707F1804707F588373D6845F480353B
:101F18003D60FD6A25F00F053543FD62DFF8488016
:101F28000A6003F166074FF0000C4FF400354FF0DC
:101F3800010E04E00132BA424FF0010C4DD095FA7F
:101F4800A5F3D8F8006095FAA5F3B3FA83F303F084
:101F58001F030EFA03F33342ECD0BCF1000F3FF439
:101F68004CAD0A6049E500BF001002408807002018
:101F780020819010DFF880C103F1660EDCF8003094
:101F880023F48033CCF80030DCF8003023F48023CD
:101F9800CCF80030DCF82C3023F00F033343CCF8B6
:101FA8002C304FF400350A604FF0010804E001328C
:101FB80072454FF0010710D095FAA5F3DCF80060E0
:101FC80095FAA5F3B3FA83F303F01F0308FA03F3B2
:101FD8003342ECD1002FC4D10FE503200A6002B0D0
:101FE800BDE8F08194FAA4F3B3FA83F303F18453C0
:101FF80003F584139B0041491A600D682B190B6087
:10200800022393FAA3F23C4E376893FAA3F2B2FA8A
:1020180082F202F01F0204FA02F23A426AD0EF1882
:1020280093FAA3F2D6F800C093FAA3F2B2FA82F2B6
:1020380002F01F0204FA02F212EA0C0F0DD0EF1C94
:1020480093FAA3F2326893FAA3F3B3FA83F303F093
:102058001F039C4014427FF479AD04680F6028E5A3
:10206800254E326A42F00102326203F59C52DFF8D3
:1020780088E00C600A324FF000084FF0020C01278C
:1020880005E0013494424FF001083FF432AE9CFA67
:10209800ACF39CFAACF3DEF820609CFAACF3B3FA2C
:1020A80083F303F01F0307FA03F33342E9D0B8F1CF
:1020B800000F7FF4CDADCCE50B600320A2E60468E9
:1020C8000F604AE50C4AD36923F08053D361C3E516
:1020D800634673E546F004061662166A46F0010682
:1020E8001662C2E747F480272F602F6847F48037CD
:1020F8002F6066E40468DCE40010024088070020D2
:10210800704A136803F007038B420BD2136823F05D
:1021180007030B431360136803F007038B4201D0D6
:10212800012070470368F0B49D0706D5664C8568A2
:10213800626822F0F0022A436260DC0732D5446804
:10214800012C00F08C80022C59D0022292FAA2F5C0
:102158005D4F3E6892FAA2F2B2FA82F202F01F02D2
:10216800012505FA02F232422CD07A68574E22F045
:10217800030222437A6035686A1C05F59C554FF0C6
:10218800000C32600A3505E0013295424FF0010C2F
:1021980000F093807C6814F00C0FF5D1BCF1000FAF
:1021A80000D03260474C226802F007028A420CD9FC
:1021B800226822F007020A432260226802F007021E
:1021C8008A4202D00120F0BC70475A0706D53E4922
:1021D800C4684A6822F4E06222434A6013F00803A4
:1021E8000AD0394A0169536823F4605343EAC103AA
:1021F8000020F0BC536070471846F0BC70474FF0A1
:10220800007292FAA2F4304F3D6892FAA2F2B2FA42
:1022180082F202F01F02012404FA02F22A42D1D00B
:102228007A682A4E22F0030242F002027A60356888
:102238006C1C05F59C554FF0000C34600A3504E021
:102248000134A5424FF0010C37D07A6802F00C0235
:10225800082AF5D1BCF1000FA4D03460A2E74FF4EE
:10226800003292FAA2F5184F3D6892FAA2F2B2FA39
:1022780082F202F01F0204FA02F22A42A2D07A681D
:10228800124E22F0030242F001027A6035686C1C9B
:1022980005F59C554FF0000C34600A3504E0013414
:1022A800A5424FF0010C08D07A6802F00C02042A0B
:1022B800F5D1BCF1000FD0D174E735600320F0BC34
:1022C800704700BF0020024000100240880700202D
:1022D8002DE9F04F0D6883B0002D00F09380744E07
:1022E80000234FF0010808FA03F717EA050C00F07D
:1022F80084804C6824F01009B9F1020F00F0858041
:10230800D0F800B04FEA430E032202FA0EF204F0AE
:10231800030A2BEA020B09F1FF390AFA0EFA4AEA14
:102328000B0AB9F1010F6FEA0202C0F800A040F2EF
:102338009580C7683A408F6807FA0EF71743E2009E
:10234800C7605AD55B4FBA6942F00102BA61BA69EF
:1023580002F001020192019A23F0030202F1804285
:1023680002F5803203F00307D2F808E0BF004FF00F
:102378000F0909FA07F9B0F1904F2EEA090E19D0A2
:10238800DFF83491484500F08680DFF83091484501
:1023980000F08680DFF82891484575D0DFF8249151
:1023A80048450CBF4FF004094FF0050909FA07F733
:1023B8004EEA070EC2F808E032686FEA0C0714F418
:1023C800803F0CBF3A404CEA02023260726814F453
:1023D800003F0CBF3A404CEA02027260B26814F443
:1023E800801F0CBF3A404CEA0202B260F268A402B5
:1023F80054BF3A404CEA0202F260013335FA03F264
:102408007FF471AF03B0BDE8F08F4FEAD30900EB5A
:1024180089090A69D9F820A003F0070E4FEA8E0E41
:102428004FF00F0B02FA0EF20BFA0EFE2AEA0E0A12
:1024380042EA0A02C9F82020D0F800A04FEA430E69
:10244800032202FA0EF204F003092AEA020A09FA40
:102458000EF949EA0A09D243C0F80090D0F808A05A
:10246800D1F80C900AEA020A09FA0EF949EA0A09AF
:10247800C0F80890D0F8049029EA070927099F4076
:1024880047EA0907476054E74FF0030909FA07F7D5
:102498004EEA070E8EE708FA07F74EEA070E89E7B5
:1024A8004FF0020909FA07F74EEA070E82E700BF64
:1024B80000040140001002400004004800080048E1
:1024C800000C0048001000480AB181617047816221
:1024D800704700BFF0B40168284F0025C5663E6804
:1024E8000B68721C1B0784463A600FD506F1007012
:1024F8000130134604E0013383424FF0010522D036
:10250800CC69A402F7D50DB13B601A460B68580791
:102518000ED5002007E00132931B013BB3F1007F89
:102528004FF0010023D2CB695B02F4D500B13A60C9
:1025380020238CF869308CF86A3000238CF86830D6
:102548000020F0BC70470A683B6022F4D0720A6031
:102558008B6823F001038B60202200238CF869200C
:102568008CF868308CF86A200320F0BC70470B6840
:102578003A6023F4D0730B60EAE700BF88070020B5
:10258800002800F0F68030B490F8693003F0FF02BC
:10259800002B3CD003680569242280F8692019685B
:1025A800826821F0010119601C68C16924F4164C85
:1025B80044692A4322432CF00C0C0A4342EA0C02D9
:1025C8001A605A68C468056A22F4405222435A6065
:1025D8009C68826924F430642A432243894C9A60B7
:1025E800A34217D0884A934229D0884A934200F0E0
:1025F8009F80874A934267D0864A934200F084803E
:10260800B1F5004F00F0E380012030BC704780F83E
:102618006820BFE7804A126B02F00302013A022ADF
:1026280034D9B1F5004F00F0C3804168754C4A08B1
:1026380002F5E102B2FBF1F292B2E26017E002F5B4
:10264800E632126B02F44032B2F5003F64D04AD849
:1026580012B1B2F5803FD3D1B1F5004F7BD04168BC
:102668004A0802F5E102B2FBF1F292B2DA605A6866
:1026780022F490425A609A6822F02A029A601A68F4
:1026880042F0010230BC1A60FFF724BF634CB1F579
:10269800004FA25C00F09E80082AB5D801A151F82D
:1026A80022F000BF6726000833260008FB26000832
:1026B80011260008672600081126000811260008C0
:1026C800112600082727000802F5E232126B02F4EF
:1026D8004012B2F5001F1FD04DD8002ABCD0B2F569
:1026E800801FB9D08CE7B2F5403F89D1B1F5004FD2
:1026F80057D041684A0802F5740202F51052B2FB3D
:10270800F1F292B2DA60B2E702F5E032126B02F44B
:102718004002B2F5000F32D1B1F5004F3CD041680C
:102728004A0802F50042B2FBF1F292B2DA609EE783
:1027380002F5E432126B02F44022B2F5002FEBD01E
:1027480005D8002A88D0B2F5802F85D058E7B2F591
:10275800402FCBD054E741684A0802F56102B2FB2A
:10276800F1F222F00F0189B2C2F342020A43DA60A1
:102778007DE701207047B2F5401FB7D040E707D882
:10278800002A3FF469AFB2F5800F3FF465AF37E731
:10279800B2F5400FAAD033E741684A0802F5803203
:1027A800DDE741684A0802F1F47202F59042D6E783
:1027B80041684A0802F56102B2FBF1F222F00F010A
:1027C80089B2C2F342020A430E49CA604FE70022A7
:1027D800DA6019E7082AFAD801A151F822F000BFF7
:1027E8005F270008B9270008AB270008D72700088B
:1027F8005F270008D7270008D7270008D727000831
:10280800A12700080038014000440040004800406B
:10281800004C00400050004000100240902B00087F
:10282800F0B490F86940202C78D100294AD0002AC9
:1028380048D0844618469CF86830012B6ED0012396
:102848008CF868300023CCF86C303F4FACF850203F
:1028580021238CF86930ACF852203D68BCF852202E
:10286800DCF800306C1C92B23C60DAB1BCF8522043
:10287800013A92B20026ACF85220421C25D1DA69FE
:102888001206FCD506B13C60DCF80820B2F5805F82
:102898003AD011F8012B1A85BCF852203C6892B244
:1028A800002AE3D10021461C3BD1DA695006FCD549
:1028B80001B13C60002020238CF869308CF8680056
:1028C800F0BC70470120F0BC7047DA691206D9D411
:1028D80098B30134621B013A90424FF00106CCD202
:1028E8003C601A6822F4D0721A609A682021002489
:1028F80022F001029A608CF869108CF868408CF814
:102908006A100320F0BC7047DCF81020002AC0D100
:1029180031F8022BC2F308021A85BDE70220F0BC89
:102928007047DA695206C3D450B10134621B013AC8
:1029380090424FF00101B6D2D2E7002ED0D1D0E7B5
:102948000029CDD1CDE700BF88070020F0B590F869
:102958006A40202C54D1002950D0002A4ED08446F9
:1029680018469CF86830012B4AD00123DFF82CE187
:102978008CF86830DCF80030DCF80850DEF80060CD
:102988004FF0FF341C620024CCF86C4022248CF8F1
:102998006A40B5F5805F06F10104ACF85820ACF840
:1029A8005A20CEF8004069D065B3BCF85C50BCF83A
:1029B8005A2092B2002A5AD0BCF85A20013A92B250
:1029C8000027ACF85A20421C24D1DA699206FCD5BB
:1029D8000FB1CEF80040DCF80820B2F5805F39D09E
:1029E8009B8C2B4001F8013BBCF85A309BB2002B62
:1029F8003DD0DCF80030DEF80040DDE70120F0BD16
:102A08000220F0BDDCF81020002A3FD07F25ACF86A
:102A18005C50CCE7DA699206DAD400283AD001345F
:102A2800A21B013A90424FF00107CCD2CEF80040E9
:102A38001A6822F4D0721A609A682021002422F0C1
:102A480001029A608CF869108CF868408CF86A105A
:102A58000320F0BDDCF81020002AC1D19B8C2B404C
:102A680021F8023BBCF85A309BB2002BC1D10020A0
:102A780020238CF86A308CF86800F0BDDCF8102050
:102A880022B940F2FF15ACF85C5090E7FF25ACF88E
:102A98005C508CE7002FC9D1CAE700BF8807002027
:102AA800002103E00B4B5B58435004310A480B4BA1
:102AB80042189A42F6D30A4A02E00023136004320D
:102AC800084B9A42F9D3AFF3008000F00FF8FEF7F5
:102AD800CBFBFEE79C2B0008000000200004002030
:102AE80000040020AC070020FEE7000070B50D4D83
:102AF8000D4C641BA4100026A64209D10B4D0C4CAA
:102B080000F02EF8641BA4100026A64205D170BD63
:102B180055F8043B98470136EEE755F8043B9847CB
:102B28000136F2E7942B0008942B0008942B000838
:102B3800982B00080A44914200F1FF3300D17047F6
:102B480010B511F8014B03F8014F9142F9D110BDAE
:102B580002440346934200D1704703F8011BF9E78A
:102B6800F8B500BFF8BC08BC9E467047F8B500BF72
:082B7800F8BC08BC9E46704742
:102B800030313233343536373839414243444546A3
:042B90000408020033
:042B9400AD01000887
:042B980089010008A7
:102B9C00EE000000ED000000EB000000E000000083
:102BAC00E2000000E1000000E4000000EF00000083
:102BBC00E7000000EA000000E8000000E50000006B
:102BCC00E9000000EC000000E3000000E60000005B
:102BDC00DE000000DD000000DB000000D000000083
:102BEC00D2000000D1000000D4000000DF00000083
:102BFC00D7000000DA000000D8000000D50000006B
:102C0C00D9000000DC000000D3000000D60000005A
:102C1C00BE000000BD000000BB000000B0000000C2
:102C2C00B2000000B1000000B4000000BF000000C2
:102C3C00B7000000BA000000B8000000B5000000AA
:102C4C00B9000000BC000000B3000000B60000009A
:102C5C000E0000000D0000000B0000000000000042
:102C6C000200000001000000040000000F00000042
:102C7C00070000000A00000008000000050000002A
:102C8C00090000000C00000003000000060000001A
:102C9C002E0000002D0000002B0000002000000082
:102CAC002200000021000000240000002F00000082
:102CBC00270000002A00000028000000250000006A
:102CCC00290000002C00000023000000260000005A
:102CDC001E0000001D0000001B0000001000000082
:102CEC001200000011000000140000001F00000082
:102CFC00170000001A00000018000000150000006A
:102D0C00190000001C000000130000001600000059
:102D1C004E0000004D0000004B0000004000000081
:102D2C004200000041000000440000004F00000081
:102D3C00470000004A000000480000004500000069
:102D4C00490000004C000000430000004600000059
:102D5C00FE000000FD000000FB000000F000000081
:102D6C00F2000000F1000000F4000000FF00000081
:102D7C00F7000000FA000000F8000000F500000069
:102D8C00F9000000FC000000F3000000F600000059
:102D9C007E0000007D0000007B0000007000000041
:102DAC007200000071000000740000007F00000041
:102DBC00770000007A000000780000007500000029
:102DCC00790000007C000000730000007600000019
:102DDC00AE000000AD000000AB000000A000000041
:102DEC00A2000000A1000000A4000000AF00000041
:102DFC00A7000000AA000000A8000000A500000029
:102E0C00A9000000AC000000A3000000A600000018
:102E1C008E0000008D0000008B0000008000000080
:102E2C008200000081000000840000008F00000080
:102E3C00870000008A000000880000008500000068
:102E4C00890000008C000000830000008600000058
:102E5C005E0000005D0000005B0000005000000000
:102E6C005200000051000000540000005F00000000
:102E7C00570000005A0000005800000055000000E8
:102E8C00590000005C0000005300000056000000D8
:102E9C009E0000009D0000009B00000090000000C0
:102EAC009200000091000000940000009F000000C0
:102EBC00970000009A0000009800000095000000A8
:102ECC00990000009C000000930000009600000098
:102EDC00CE000000CD000000CB000000C0000000C0
:102EEC00C2000000C1000000C4000000CF000000C0
:102EFC00C7000000CA000000C8000000C5000000A8
:102F0C00C9000000CC000000C3000000C600000097
:102F1C003E0000003D0000003B00000030000000BF
:102F2C003200000031000000340000003F000000BF
:102F3C00370000003A0000003800000035000000A7
:102F4C00390000003C000000330000003600000097
:102F5C006E0000006D0000006B00000060000000BF
:102F6C006200000061000000640000006F000000BF
:102F7C00670000006A0000006800000065000000A7
:102F8C00690000006C000000630000006600000097
:0400000508002AA91C
:00000001FF
