:020000040800F2
:10000000003000200D1B0008551B0008551B000880
:10001000551B0008551B0008551B00080000000078
:10002000000000000000000000000000551B000858
:10003000551B000800000000551B0008551B000858
:1000400000000000000000000000000000000000B0
:1000500000000000000000000000000000000000A0
:100060000000000000000000000000000000000090
:100070000000000000000000000000000000000080
:100080000000000000000000000000000000000070
:100090000000000000000000000000000000000060
:1000A0000000000000000000000000000000000050
:1000B0000000000000000000000000000000000040
:1000C0000000000000000000000000000000000030
:1000D0000000000000000000000000000000000020
:1000E0000000000000000000000000000000000010
:1000F0000000000000000000000000000000000000
:1001000000000000000000000000000000000000EF
:1001100000000000000000000000000000000000DF
:1001200000000000000000000000000000000000CF
:1001300000000000000000000000000000000000BF
:1001400000000000000000000000000000000000AF
:10015000000000000000000000000000000000009F
:10016000000000000000000000000000000000008F
:10017000000000000000000000000000000000007F
:08018000000000000000000077
:1001900001F0FF01102A2BDB10F0070F08D010F838
:1001A000013B013A8B422DD010F0070F42B3F6D13C
:1001B000F0B441EA012141EA014122F007047FF055
:1001C00000070023F0E80256083C85EA010586EAAC
:1001D000010685FA47F5A3FA87F586FA47F6A5FAE8
:1001E00087F68EB9EED1F0BC01F0FF0102F00702F4
:1001F00032B110F8013B013A83EA010313B1F8D19F
:100200000020704701387047002D06BF354603387F
:10021000073815F0010F07D1013015F4807F02BFB8
:10022000013015F4C03F0130F0BC0138704700BF09
:1002300010B5054C237833B9044B13B10448AFF320
:1002400000800123237010BDF8030020000000008F
:10025000F02A000808B5034B1BB103490348AFF36C
:10026000008008BD00000000FC030020F02A000808
:1002700070B5064E051F00F10C0455F8041F3046FA
:1002800001F0BAFCA542F8D170BD00BF432B0008B5
:100290002DE9F0410746069800254FEAC00CC90039
:1002A000D200DB002E4628466C1C27FA04F402EB31
:1002B000060E04F0010404FA0EF405F1020E27FA0A
:1002C0000EFE03EB06080EF0010E0EFA08FE44EADD
:1002D0000E0427FA05FE01EB06080EF0010E0EFAD9
:1002E00008FE44EA0E0405F1030E27FA0EFE0CEB9D
:1002F00006080EF0010E0EFA08FE013644EA0E045E
:10030000082E40EA040005F10405CDD1BDE8F081D6
:100310002DE9F04F03688F88B1F806808D89CE896A
:100320008DB01BBA089343681BBA099383681BBA44
:100330000A93C3681BBA0B930B885BBA9BB20693F4
:100340004B885BBA9BB207930B895BBA9BB2059350
:100350004B895BBA9BB27FBA98FA98F803936DBA4F
:10036000524B049376BA1446BFB21FFA88F8ADB266
:10037000B6B24FF0000908990A98099A01EA0003F9
:1003800053400B9A03EA020C8CEA010143EA010C88
:100390008CEA00004240534009930B404340D24353
:1003A0000B9143480A9349464FF0010A089201F025
:1003B00023FC08A8FFF75CFF0898CDF800A00223F3
:1003C00003220021FFF764FF4FF0020B0890032384
:1003D0000998CDF800B000225146FFF759FF0323DA
:1003E000099000930A98002352465946FFF750FFA0
:1003F00000235A460A9000930B9853460321FFF7B7
:1004000047FF49460B902B4801F0F6FB08A8FFF781
:100410002FFF0A9B0498DDF818C0DDF81CE048EABD
:1004200007425A40099B0A9246EA0541594010F892
:10043000013B04900B9809914340A80340EA9500C2
:1004400080B20690300140EA1630D14403F10043F7
:1004500080B2B9F1280F039E059DCDF80C80059759
:100460000B930790F046674685D10898E070050E1B
:100470002570050C6570050A080E2071080C607166
:10048000E171080A110E2172110C6172E272110AF7
:100490001A0E22731A0C62731A0AA570A071A17247
:1004A000A273E3730DB0BDE8F08F00BF082B000806
:1004B000492B0008582B000870B500249C4200D13D
:1004C00070BD0D5D165D754005550134F6E7F0B55C
:1004D00085B06D460346013A481ECF1D2C4610F8E4
:1004E000016F12F801CF874286EA0C0605F8016B0E
:1004F000F5D18868C96802AA03C21546224603CA14
:10050000AA4218605960144603F10803F6D105B0F9
:10051000F0BDF7B56D460446CE1D08462A46037861
:1005200010F8017F5B0043EAD713864205F8013BD0
:10053000F5D10B78C979DB0903EB430303EBC30364
:1005400083EA41038DF80730134603CB20606160D6
:1005500003B0F0BD37B50C4605466846FFF7D9FF36
:10056000621E6B46681E073412F8015F13F8011B08
:10057000A24281EA050100F8011FF5D103B030BDA8
:100580002DE9F04188B00D46804604AE8868C96800
:100590001F46334603C3144619462A46E81D1378FE
:1005A00012F801CF5B0043EADC13824201F8013B01
:1005B000F5D1EB792A785B0043EAD2138DF81F302E
:1005C000B4462A460DF1200E634603CB73451060F6
:1005D00051609C4602F10802F6D1AFB910223946AB
:1005E000304601F001FB80238DF8103096E80F00B3
:1005F0006C4684E80F001023224629464046FFF748
:100600005BFF08B0BDE8F081102F12D03A462146BA
:10061000304601F0DBFA07F120036B448022781C9E
:1006200003F8102C0021C7F10F02304401F0DCFA6E
:10063000DCE7224602F11007344610685168234671
:1006400003C30832BA421C46F7D1CFE72DE9F04F79
:100650008DB01F46DDE9188383468A462BB9B8F171
:100660000F0F40F2D580A8F1100808AB02F1100678
:100670001C46106851681D4603C50832B2422B461D
:10068000F7D104AD514620462A46FFF741FE95E8D2
:10069000030002AB169E83E803003744102EA7EB3D
:1006A000060966D802A90846FFF754FF320701D1B0
:1006B000169B1BB902A90846FFF74CFFB8F1000FC3
:1006C00007D102A90846FFF745FF02A90846FFF730
:1006D00041FF33464A4629462046FFF751FF02AA0A
:1006E00021462046FFF7F3FE2A4651462046FFF7F3
:1006F0000FFE179B434447460193C344019B102FB1
:10070000A3EB0709ABEB070649D8B8F1000F20D0DF
:1007100002A90846FFF71EFF3B0703D002A90846BF
:10072000FFF718FF199B002B5CD030463B464A462A
:100730002946FFF7C1FE2046FFF722FF3E4402AAEA
:1007400021462046FFF7C3FE2A4651462046FFF7C2
:10075000DFFD199B002B51D02B4603CBA342306009
:1007600071601D4606F10806F6D100200DB0BDE807
:10077000F08F10234A4629462046FFF701FF02A9C1
:100780000846FFF7C6FE02AA21462046FFF79FFE55
:100790002A4651462046FFF7BBFD103E7EE702A9E0
:1007A0000846FFF7B6FE199BA3B110234A46294617
:1007B0003046FFF781FE2046FFF7E2FE02AA2146FF
:1007C0002046FFF784FE2A4651462046FFF7A0FD4B
:1007D000103F93E74A46102329463046FFF76CFE48
:1007E0003246E8E74A463B4629463046FFF764FE74
:1007F00032462046FFF7C4FEB944A0E7102229463E
:10080000484601F0D3F9003818BF01204042ADE757
:100810004FF0FF30AAE730B585B0089B099C13F173
:10082000100544F10004C1E900540121CDE9023171
:100830000C9B01920093DDE90F210A9BFFF706FF55
:10084000002005B030BD70B4039A049CB2F11006CC
:1008500044F1FF34C1E9006400211D46059B049565
:10086000CDE90521079A0392DDE9092170BCFFF764
:10087000EDBE0000024B002018805880704700BF7A
:1008800064000020054A431E0F3013F8011F02F8D0
:10089000011B8342F9D10020704700BF680000208F
:1008A00070B5094904780B46051933F8142B134425
:1008B000A84203D122440A80002070BD10F8016FC5
:1008C00003F8016BF4E700BF6400002070B509492C
:1008D00004784B8801F58A721A440519A84203D19D
:1008E00023444B80002070BD10F8016F02F8016BAB
:1008F000F4E700BF6400002030B50024ADF5137D9F
:10090000214605464FF403720FA80E9401F06CF9CE
:1009100000220023CDE90C2300F096FA144A069435
:10092000131DCDE907535388CDE9043402F58A73CA
:10093000029313880CA9CDE9003414320EA8FFF7F6
:100940006AFF00F088FABDF830300BAA5BBA0221CA
:100950007220ADF82C3000F01BF99DF830100EAA73
:10096000722000F015F920460DF5137D30BD00BF53
:100970006400002038B5074B0025044610211D8077
:100980005D80FFF77FFF294604F11000BDE8384085
:10099000FFF7B2BF6400002030B50024ADF50D7D37
:1009A000214605464FF4FE720DA80C9401F01CF987
:1009B00000220023CDE90A2300F046FA144B1A1D49
:1009C000CDE906525A88CDE9042403F58A720292D1
:1009D0001A880AA9CDE90024143322460CA8FFF78F
:1009E00032FF00F038FABDF8283009AA5BBA0221BC
:1009F0007220ADF8243000F0CBF89DF828100CAA36
:100A0000722000F0C5F820460DF50D7D30BD00BF09
:100A10006400002008B500F075F900F0B3F900F0AB
:100A2000EFF9682000F038FA652000F035FA6C2004
:100A300000F032FA6C2000F02FFA6F2000F02CFA50
:100A40000A2000F029FA00F08DF8134A00217220E4
:100A500000F084F8114A2021652000F07FF8104A48
:100A600010216B2000F07AF80E4A1121702000F05E
:100A700075F80D4A1121612000F070F80B4A102121
:100A80006E2000F06BF80A4A1021642000F066F82E
:100A900000F0D8F8FCE700BF7508000875090008E9
:100AA00085080008A1080008CD080008F90800081A
:100AB0009909000801207047F0B500254F1C8542B8
:100AC00001DB002021E017F8154011F81530A4F1E2
:100AD0003006F6B2092E0CD81670A3F13004E6B237
:100AE000092E15D8137843EA041313700135013227
:100AF000E5E7A4F14106052E02D8373C1470ECE777
:100B0000A4F16106052E01D90120F0BD573CF5E79F
:100B1000A3F14104052C02D8A3F13704E2E7A3F1C5
:100B20006104052CF0D81478573B44EA0313DCE742
:100B300070B5094E34680F2C0BDCBF2909D806EBC1
:100B40000415C5E90212013428712B7434600020A9
:100B500070BD0120FCE700BF780200200023FFF7F2
:100B6000E7BF000008B5074A00217620FFF7F6FF2F
:100B7000054A7720FFF7F2FFBDE80840034A7920D5
:100B8000FFF7ECBFB50A0008F50B0008D10B000811
:100B9000F8B514460E4600F07FF90C4F651EC4F1FF
:100BA000010463199E4204DCBDE8F8400A2000F00D
:100BB00073B915F8013F1B09F85C00F06DF92B784B
:100BC00003F00F03F85C00F067F9EAE7302B000848
:100BD00007B5074B0DF107021B688DF8073001219F
:100BE0007220FFF7D5FF002003B05DF804FB00BFC3
:100BF0007802002070B5124C21688CB0CDB2002074
:100C0000C3B2AB4200F1010009DB01EB41016A46CE
:100C1000C9B27220FFF7BCFF00200CB070BD03EB1F
:100C20004302303204EB03136A441E7902F8306C3D
:100C30009E681B7C02F82F6C02F82E3CE0E700BF98
:100C4000780200202DE9F0412D4DADF5127D00F028
:100C500009F92A46002352F8041B994240DC3BD094
:100C600005EB03141E01237CDB0713D500238DF84D
:100C7000083000F0F7F88DF8C80000F0F3F802AA89
:100C80008DF8C90032A90120FFF716FF20BB9DF89F
:100C90000830A36032AF002405EB0608D8F808300E
:100CA000B4EB430F22D300F0DDF80A2801D00D2861
:100CB00012D1354402AAAC6832A92046FFF7FCFEE7
:100CC00050B9E1B2EB6802A8984701AA8DF8040078
:100CD00001217A20FFF75CFF0DF5127DBDE8F08160
:100CE0001C01A45C8442BBD00133B6E700F0BAF823
:100CF0000A28F1D00D28EFD007F8010B0134CDE719
:100D00007802002070B596B0002403264FF4A0238B
:100D10000CA80125CDE90C631094149400F0D4F8CC
:100D20000F23214602A8CDE90235CDE904440694FB
:100D300000F026FB114B5A6942F400225A615B69AC
:100D4000CDE9094603F400230D4C0193019B07A94B
:100D50004FF4C0432046CDE9073500F0B7FB2A46E3
:100D600020464FF4005100F073FC2A464FF48041B6
:100D7000204600F06DFC16B070BD00BF00100240B0
:100D80000008004810B54FF4C06288B00223CDE9D6
:100D9000032301210323CDE90513164C07230793F1
:100DA000636943F400336361636903F400330193BF
:100DB00003A94FF09040019B00F088FB0E48DFF83C
:100DC0003CC04FF41643C0E900C30023C0E902331E
:100DD000036183610C234361A36943F48043A361EE
:100DE000A36903F480430293029B00F089FD08B0DD
:100DF00010BD00BF001002407C03002000380140FD
:100E0000104B30B55A6942F400325A615B6987B0C1
:100E100003F400330093009B4FF480540123CDE989
:100E200001430025032301A94FF09040CDE903536E
:100E300000F04CFB2A4621464FF0904000F008FCA1
:100E400007B030BD0010024001224FF480514FF036
:100E5000904000F0FDBB00224FF480514FF09040D5
:100E600000F0F6BB37B50A4D0A4C41F28833012237
:100E70000DF10701284600F0C3FD18B99DF80700E1
:100E800003B030BD236A43F008032362EDE700BFDF
:100E90007C0300200038014007B541F288338DF80B
:100EA000070001220DF10701024800F053FD03B0D5
:100EB0005DF804FB7C030020024B1868421C1A609A
:100EC000704700BFEC03002003682DE9F743D90702
:100ED000044611D423689A0700F1868023681E0710
:100EE00000F1F48023685D0700F13B81E269002A8C
:100EF00040F0C281002021E0B6494B6803F00C03AA
:100F0000042B07D04B6803F00C03082B19D14B6856
:100F1000DB0316D54FF4003393FAA3F2096893FA72
:100F2000A3F3B3FA83F303F01F03012202FA03F3DE
:100F30000B42CFD06368002BCCD1012003B0BDE8B9
:100F4000F0836268B2F5803F24D10B6843F48033AC
:100F50000B60CB6AA06823F00F030343CB624AB354
:100F6000FFF7AAFF4FF400360546012796FAA6F3CD
:100F70000A6896FAA6F3B3FA83F303F01F0307FA9D
:100F800003F31342A6D1FFF797FF431B642BEDD960
:100F90000320D3E70B6832B923F480330B600B686E
:100FA00023F48023D4E7B2F5A02FF5D143F48023B6
:100FB0000B60CAE7FFF780FF4FF4003605460127B4
:100FC00096FAA6F30A6896FAA6F3B3FA83F303F047
:100FD0001F0307FA03F313423FF47CAFFFF76CFFE4
:100FE000431B642BECD9D3E77A494B6813F00C0F01
:100FF00007D04B6803F00C03082B21D14B68DF03AB
:101000001ED4022393FAA3F2086893FAA3F3B3FA67
:1010100083F303F01F03012202FA03F3034202D019
:101020002369934289D10868F82292FAA2F263698F
:10103000B2FA82F2934020F0F80213430B604DE7BE
:101040002269012502B395FAA5F3B3FA83F303F1FC
:10105000845303F584139B0002271D60FFF72CFFC8
:10106000064697FAA7F30A6897FAA7F3B3FA83F349
:1010700003F01F0305FA03F31342D4D1FFF71CFF5B
:10108000831B022BEDD983E795FAA5F3B3FA83F31B
:1010900003F1845303F584139B0002271A60FFF7C2
:1010A0000BFF064697FAA7F30A6897FAA7F3B3FA75
:1010B00083F303F01F0305FA03F313423FF40EAF6B
:1010C000FFF7FAFE831B022BECD961E7A269414DC1
:1010D0004148012112B391FAA1F3B3FA83F3034417
:1010E0009B0002261960FFF7E7FE074696FAA6F373
:1010F00096FAA6F396FAA6F36A6A96FAA6F3B3FAF4
:1011000083F303F01F0301FA03F313427FF4EAAE03
:10111000FFF7D2FEC31B022BE8D939E791FAA1F3FE
:10112000B3FA83F303449B0002261A60FFF7C4FE60
:10113000074696FAA6F396FAA6F396FAA6F36A6A13
:1011400096FAA6F3B3FA83F303F01F0301FA03F34D
:1011500013423FF4C7AEFFF7AFFEC31B022BE8D923
:1011600016E71C49CB69D8003AD4CB6943F08053C9
:10117000CB61CB6903F080530193019B0125174E8E
:101180003368DA052ED5E368012B3BD10B6A43F0B7
:1011900001030B62FFF790FE022607464FF001089D
:1011A00041F2883996FAA6F396FAA6F30A6A96FAF5
:1011B000A6F3B3FA83F303F01F0308FA03F3134211
:1011C00054D0002D3FF492AECB6923F08053CB6115
:1011D0008CE600BF0010024020819010007000409B
:1011E0000025CCE7336843F480733360FFF764FE77
:1011F00007463368DB05C6D4FFF75EFEC01B6428D4
:10120000F7D9C5E623BB0B6A23F001030B620B6A17
:1012100023F004030B62FFF74FFE022607464FF050
:10122000010841F2883996FAA6F396FAA6F30A6AFB
:1012300096FAA6F3B3FA83F303F01F0308FA03F355
:101240001342BED0FFF738FEC01B4845EBD99FE6DE
:10125000052B0B6A03D143F004030B6296E723F0DE
:1012600001030B620B6A23F0040392E7FFF724FEED
:10127000C01B484596D98BE640494B6803F00C03E8
:10128000082B3FF45AAE022A4FF0807351D193FAE3
:10129000A3F3B3FA83F303F1845303F584139B00A0
:1012A00000221A60FFF708FE4FF00077064601257E
:1012B00097FAA7F30A6897FAA7F3B3FA83F303F050
:1012C0001F0305FA03F313422DD1D4E908034A683A
:1012D000034322F4741213434B604FF0807393FA6C
:1012E000A3F3B3FA83F303F1845303F584139B0050
:1012F00001261D60FFF7E0FD4FF00075044695FAEA
:10130000A5F30A6895FAA5F3B3FA83F303F01F0374
:1013100006FA03F313427FF4EDADFFF7CDFD001B9A
:101320000228ECD934E6FFF7C7FD831B022BBFD997
:101330002EE693FAA3F3B3FA83F303F1845303F590
:1013400084139B0000221A60FFF7B6FD4FF0007572
:101350000446012695FAA5F30A6895FAA5F3B3FAAF
:1013600083F303F01F0306FA03F313423FF4C2AD05
:10137000FFF7A2FD001B0228ECD909E6001002408D
:10138000504AF8B5136803F007038B4204461BD399
:101390002268900724D4D2072AD44A4A136803F05B
:1013A00007038B427AD82068430700F1828010F04F
:1013B000080014D0444A2169536823F4605343EA77
:1013C000C103536000200AE0136823F007030B43B6
:1013D0001360136803F007038B42D9D00120F8BDD6
:1013E0003948A568436823F0F0032B434360D2E7F4
:1013F0006268354D012A27D14FF4003393FAA3F0E8
:10140000286893FAA3F3B3FA83F303F01F0302FAF5
:1014100003F30342E2D06B6823F0030313436B60D2
:10142000FFF74AFD6368012B064641F288371ED15B
:101430006B6803F00C03042BAFD0FFF73DFD801B5E
:10144000B842F5D90320CAE7022A0CBF4FF0007357
:10145000022393FAA3F02E6893FAA3F3B3FA83F36B
:1014600003F01F03012000FA03F33342D2E7022BFB
:101470000FD16B6803F00C03082B8ED0FFF71CFD17
:10148000801BB842F5D9DDE7FFF716FD801BB84297
:10149000D8D86B6813F00C0FF6D17EE7136823F0F1
:1014A00007030B431360136803F007038B4295D1C6
:1014B00079E70549E3684A6822F4E0621A434A6022
:1014C00075E700BF00200240001002402DE9F74FF1
:1014D000DFF870815C4C00234FF001090A6832FA92
:1014E00003F502D103B0BDE8F08F09FA03FA1AEA56
:1014F000020200F09D804D6825F0100EBEF1020F33
:1015000014D14FEAD30C00EB8C0C03F0070BDCF882
:1015100020604FEA8B0B0F2707FA0BF726EA070725
:101520000E6906FA0BF63E43CCF82060D0F800B006
:101530004FEA430C032606FA0CF72BEA070BFE438F
:1015400005F0030707FA0CF70EF1FF3E47EA0B0719
:10155000BEF1010F076010D8876806EA070ECF6852
:1015600007FA0CF747EA0E078760476827EA0A0E72
:101570002F099F4047EA0E074760C76837408E68CB
:1015800006FA0CF63E43C660EE0051D5D8F8186056
:1015900046F00106C8F81860D8F8186023F0030771
:1015A00007F1804706F0010607F58037019603F042
:1015B000030E019EBE684FEA8E0E4FF00F0C0CFA20
:1015C0000EFCB0F1904F26EA0C0C33D01F4EB04207
:1015D00032D006F58066B04230D006F58066B04263
:1015E0002ED006F58066B0420CBF0426052606FA0A
:1015F0000EF646EA0C06BE602668D74315F4803F17
:101600000CBF3E4016432660666815F4003F0CBFD1
:101610003E4016436660A66815F4801F0CBF3E402E
:101620001643A660E668AD0254BF3E401643E6602E
:10163000013353E70026DAE70126D8E70226D6E78A
:101640000326D4E7001002400004014000040048D3
:101650000AB1816170478162704700000268816849
:10166000C36930B5056914682943456924F41644F3
:10167000294324F00C041943214311605168C468C4
:10168000056A21F44051214351609468816924F432
:10169000306429432143916062498A4216D101F5A1
:1016A0005841096B01F003010139022900F2B280AF
:1016B0005D4CB3F5004F615C77D1082972D8DFE843
:1016C00001F0ACAC2471AC717171A40057498A422D
:1016D0002CD101F5E631096B01F44031B1F5003F41
:1016E00000F090800BD8002900F09480B1F5803F85
:1016F00000F09080B3F5004F54D0012015E0B1F513
:10170000403FF7D1B3F5004F66D141684B0803F174
:10171000F47303F59043B3FBF1F300209BB223F085
:101720000F01C3F342030B43D36030BD40498A42EB
:1017300010D101F5E431096B01F44021B1F5002F1E
:1017400060D004D8002965D0B1F5802FD0E7B1F57D
:10175000402FD6E737498A4210D101F5E231096BB3
:1017600001F44011B1F5001F4CD004D8002951D02C
:10177000B1F5801FBCE7B1F5401FC2E72E498A4290
:10178000B8D101F5E031096B01F44001B1F5000F6A
:1017900038D004D800293DD0B1F5800FA8E7B1F5C5
:1017A000400FAEE701200023B9E70829A5D801A31F
:1017B00053F821F0F1170008F1170008D9170008B5
:1017C000FB160008F1170008FB160008FB160008BE
:1017D000FB160008FB17000841684B0803F574036B
:1017E00003F51053B3FBF1F39BB2D36000209CE7E9
:1017F00041684B0803F5E103F4E741684B0803F542
:101800000043EFE7B3F5004FF7D141684B0803F50C
:10181000803380E7B3F5004FEAD141684B0803F508
:10182000610378E700380140402B00080044004085
:1018300000480040004C0040005000402DE9F041BD
:10184000DDF81880044616461F462568EB6931EA24
:1018500003030CBF01230023B34201D0002016E094
:10186000B8F1FF3FF2D0B8F1000F12D12B6823F48A
:10187000D0732B60AB6823F00103AB60202384F8A6
:10188000693084F86A30002384F868300320BDE8AA
:10189000F081FFF711FBC01B4045D6D9E6E773B5D1
:1018A00004460021C166FFF707FB266833681A0764
:1018B000054616D433685B070AD56FF07E43009364
:1018C00000222B464FF480012046FFF7B7FFA0B956
:1018D0002023002084F8693084F8680084F86A3096
:1018E0000CE06FF07E4300930A4603464FF400116C
:1018F0002046FFF7A3FF0028DCD0032002B070BD14
:1019000038B5044620B390F8693003F0FF020BB9F4
:1019100080F868202568242384F869302B6823F038
:1019200001032B602046FFF799FE012810D06B6859
:1019300023F490436B60AB6823F02A03AB602B6801
:1019400043F001032B602046BDE83840FFF7A7BFF6
:10195000012038BDF7B51E4690F86930202B0D46A2
:10196000044611464AD1002D46D0002A44D090F8B2
:101970006830012B42D0012380F868300023C36611
:10198000212380F86930FFF797FAA4F85010074632
:10199000A4F85210B4F8522092B262B900963B46B5
:1019A00040212046FFF74AFF98B9202384F8693088
:1019B00084F868000EE0B4F852200096013A92B222
:1019C000A4F852203B46002280212046FFF736FF34
:1019D00010B1032003B0F0BDA3682268B3F5805FA7
:1019E00007D123692BB935F8023BC3F308031385EC
:1019F000D0E715F8013BFAE70120EBE70220E9E721
:101A00002DE9F3411E4690F86A30202B0D4604461E
:101A100011465CD1002D58D0002A56D090F868307D
:101A2000012B54D0012380F8683003684FF0FF3257
:101A30001A620023C366222380F86A30FFF73CFA5B
:101A4000A368A4F85810B3F5805F8046A4F85A1034
:101A500015D123698BB940F2FF13A4F85C30B4F8B8
:101A60005C70B4F85A0080B280B9202384F86A30E0
:101A700084F8680002B0BDE8F081FF23EDE7002B99
:101A8000EDD12369002BF8D07F23E6E7B4F85A2084
:101A90000096013A92B2A4F85A204346002220212F
:101AA0002046FFF7CBFEA0B9A2682368B2F5805F9D
:101AB00006D1226922B99B8C3B4025F8023BD0E736
:101AC0009B8C3B4005F8013BCBE70120D2E702208D
:101AD000D0E70320CEE700000A4A116808B50346A4
:101AE00009B9094911601068694603448B4206D957
:101AF00000F032F80C2303604FF0FF3008BD136094
:101B0000FCE700BFF403002028040020002103E0CC
:101B10000B4B5B58435004310A480B4B42189A4216
:101B2000F6D30A4A02E0002313600432084B9A42BB
:101B3000F9D3AFF3008000F015F8FEF76BFFFEE776
:101B40000C2C00080000002064000020640000202D
:101B500024040020FEE70000014B1868704700BF16
:101B60000000002070B50D4D0D4C641BA410002624
:101B7000A64209D10B4D0C4C00F0BAFF641BA41017
:101B80000026A64205D170BD55F8043B98470136A2
:101B9000EEE755F8043B98470136F2E7042C0008BD
:101BA000042C0008042C0008082C000810B501398A
:101BB0000244904201D1002005E0037811F8014F62
:101BC000A34201D0181B10BD0130F2E70A44914234
:101BD00000F1FF3300D1704710B511F8014B03F845
:101BE000014F9142F9D110BD02440346934200D106
:101BF000704703F8011BF9E70FB40A4B13B51C68D3
:101C000024B1A36913B9204600F066F805AB049A25
:101C1000A1680193204600F081F902B0BDE81040B0
:101C200004B0704700000020002310B50446C0E94E
:101C30000033C0E90433836081814366C2818361DC
:101C4000194608225C30FFF7CFFF054B6362054B56
:101C5000A362054BE362054B2462236310BD00BF02
:101C60009D210008BF210008F72100081B22000861
:101C7000014900F0AFB800BFED24000870B568223C
:101C80004D1E55430E4605F1740100F0C5F804469B
:101C900040B10021C0E900160C30A06005F16802D7
:101CA000FFF7A2FF204670BD014800F0B3B800BFA7
:101CB00015040020014800F0AEB800BF1504002054
:101CC000014800F0A7B800BF16040020014800F04A
:101CD000A2B800BF1604002010B50446FFF7F0FFBD
:101CE000A3691BB1BDE81040FFF7F0BFC4E9123390
:101CF0002365134B134A1B68A262A34204BF01234E
:101D0000A361204600F020F86060204600F01CF837
:101D1000A060204600F018F80022E060042160680E
:101D2000FFF782FFA06801220921FFF77DFFE0682D
:101D300002221221FFF778FF0123A361D2E700BF3F
:101D40006C2B0008711C0008F8B50746FFF7ACFFC4
:101D50001E4B1E68B36913B93046FFF7BDFF483606
:101D6000D6E90134013B03D533680BB33668F7E796
:101D7000B4F90C50D5B9164BE36004F15800656610
:101D800000F047F8FFF796FFC4E90155C4E9045590
:101D90002560A5610822294604F15C00FFF724FFB5
:101DA000C4E90D55C4E912552046F8BD6834D9E799
:101DB00004213846FFF762FF044630600028D5D181
:101DC000FFF778FF0C233B60EEE700BF6C2B0008A9
:101DD0000100FFFF2DE9F8430646884600F148045C
:101DE0000027D4E90195B9F1010905D52468002C33
:101DF000F7D13846BDE8F883AB89012B07D9B5F98F
:101E00000E30013303D029463046C04707436835BA
:101E1000E9E7704770477047F8B5CD1C25F003051A
:101E200008350C2D38BF0C25002D064601DBA942D4
:101E300003D90C2333600020F8BD00F00BFC2149CE
:101E40000A6814469CB9204F3B6823B921463046A6
:101E500000F094F938602946304600F08FF9431CB1
:101E600023D10C233360304600F0FAFBE3E723680C
:101E70005B1B17D40B2B03D923601C44256004E0A3
:101E80006368A2420CBF0B605360304600F0E8FB71
:101E900004F10B00231D20F00700C21ACCD01B1A3E
:101EA000A350C9E722466468CCE7C41C24F00304AD
:101EB000A042E3D0211A304600F060F90130DDD1B4
:101EC000CFE700BF180400201C0400209368013BEA
:101ED000002B10B4936007DA9469A34201DB0A294E
:101EE00002D110BC00F09EB91368581C1060197024
:101EF000084610BC7047F8B506460F461446D5187C
:101F0000AC4201D1002007E014F8011B3A463046EC
:101F1000FFF7DCFF431CF3D1F8BD00002DE9F04FC3
:101F20000D469DB014469846064618B183690BB914
:101F3000FFF7D2FE894B9D421BD175686B6ED907A6
:101F400005D4AB899A0502D4A86DFFF763FFAB896E
:101F50001B0701D52B69EBB92946304600F0C6F9BD
:101F6000C0B16B6EDC070ED54FF0FF301DB0BDE881
:101F7000F08F7B4B9D4201D1B568DFE7794B9D42E5
:101F800008BFF568DAE7AB899805EDD4A86DFFF7CF
:101F900042FFE9E70023099320238DF82930CDF88B
:101FA0000C803023DFF8C0818DF82A304FF0010912
:101FB00023469A4613F8012B0AB1252AF9D1BAEB28
:101FC000040B0BD05B46224629463046FFF793FFB1
:101FD000013000F0AA80099A5A4409929AF8003018
:101FE000002B00F0A28000234FF0FF32CDE9052343
:101FF0000AF1010A049307938DF853301A9354465B
:10200000052214F8011B5848FEF7C2F8049AD8B903
:10201000D10644BF20238DF85330130744BF2B2330
:102020008DF853309AF800302A2B15D0079A544671
:1020300000204FF00A0C214611F8013B303B092BE0
:102040004ED9B0B1079214E0A0EB080309FA03F3EC
:1020500013430493A246D2E7039B191D1B68039107
:10206000002BBBBF5B4242F0020207930793B8BF4D
:10207000049223782E2B0CD163782A2B35D1039B25
:102080001A1D1B680392002BB8BF4FF0FF330234B8
:102090000593DFF8D8A0217803225046FEF778F8A0
:1020A00040B14023A0EB0A0003FA00F0049B034375
:1020B0000134049314F8011B2D488DF828100622D2
:1020C000FEF766F800283FD02A4B1BBB039B073363
:1020D00023F0070308330393099B3B44099367E705
:1020E0000CFB02320C460120A5E7002301340593C6
:1020F00019464FF00A0C204610F8012B303A092AF5
:1021000003D9002BC5D00591C3E70CFB0121044680
:102110000123F0E703AB00932A46174B04A930468E
:10212000AFF300800746781CD6D16B6ED90705D473
:10213000AB899A0502D4A86DFFF76DFEAB895B06EB
:102140003FF512AF099811E703AB00932A460A4BFB
:1021500004A9304600F042FBE4E700BF902B0008E2
:10216000B02B0008702B0008D02B0008D62B0008DD
:10217000DA2B000800000000F71E000838B5064DF5
:102180000023044608462B60FFF7A6FC431C02D13F
:102190002B6803B1236038BD2004002010B50C4625
:1021A000B1F90E1000F040FC0028ABBF636DA389AD
:1021B0001B1823F48053ACBF6365A38110BD2DE9C8
:1021C000F0411F468B89DB0505460C46164605D5B2
:1021D000B1F90E100223002200F0C4F9A389B4F96A
:1021E0000E1023F48053A38132463B462846BDE8B7
:1021F000F04100F069B810B50C46B1F90E1000F0CE
:10220000B1F9431CA38915BF606523F4805343F4DF
:102210008053A38118BFA38110BDB1F90E1000F047
:10222000D3B80000F8B50E461446054618B18369C8
:102230000BB9FFF751FD214B9C422BD16C68A36970
:10224000A360A3891A072FD523696BB3236920687C
:10225000C01A6369F6B28342374604DC2146284639
:1022600000F044F930BBA368013BA36023685A1C0B
:1022700022601E7063690130834204D0A389DB07AA
:1022800006D50A2E04D12146284600F02FF988B938
:102290003846F8BD0A4B9C4201D1AC68CFE7094BE8
:1022A0009C4208BFEC68CAE72146284600F01EF8A9
:1022B0000028CBD04FF0FF37EAE700BF902B000893
:1022C000B02B0008702B000838B5074D04460846AF
:1022D000114600222A601A4600F002FC431C02D17B
:1022E0002B6803B1236038BD20040020324B70B549
:1022F0001D6806460C4625B1AB6913B92846FFF7A1
:10230000EBFC2E4B9C420FD16C68A389B4F90C20D6
:1023100019072CD4DD0611D40923336042F04003A1
:10232000A3814FF0FF303EE0254B9C4201D1AC68C9
:10233000EBE7244B9C4208BFEC68E6E7580712D550
:10234000616B41B104F14403994202D0304600F080
:102350008DF900236363A38923F02403A381002361
:10236000636023692360A38943F00803A381236981
:102370004BB9A38903F42073B3F5007F03D0214642
:10238000304600F027F9A089B4F90C2010F00103C1
:102390000AD00023A36063695B42A361236943B948
:1023A00010F08000BAD170BD810758BF6369A36087
:1023B000F4E70020F7E700BF00000020902B0008A2
:1023C000B02B0008702B000838B5064D00230446DA
:1023D00008462B6000F05CFB431C02D12B6803B164
:1023E000236038BD200400208A89F8B5054610070F
:1023F0000C4657D44B68002B04DC0B6C002B01DC23
:102400000020F8BDE66A002EFAD0002312F48052B4
:102410002F682B6032D0606DA3895A0705D5636899
:10242000C01A636B0BB1236CC01A00230246E66A24
:10243000216A2846B047431CA38906D129681D2973
:102440002CD8294ACA40D60728D500226260D90470
:102450002269226004D5421C01D12B6803B9606552
:10246000616B2F600029CBD004F14403994202D064
:10247000284600F0FBF800206063C2E7216A0123D0
:102480002846B047411CC7D12B68002BC4D01D2B58
:1024900001D0162B01D12F60B2E7A38943F040038E
:1024A000A381AEE70F69002FAAD093070E6808BF7B
:1024B0004B690F6018BF0023F61B8B60002E9FDD59
:1024C000216AD4F828C033463A462846E047002817
:1024D00006DCA38943F04003A3814FF0FF3090E76F
:1024E0000744361AEAE700BF0100402038B50B69FF
:1024F00005460C4613B90025284638BD18B1836936
:102500000BB9FFF7E9FB144B9C421BD16C68B4F983
:102510000C30002BEFD0626ED00704D4990502D4A2
:10252000A06DFFF777FC28462146FFF75DFF636E3D
:10253000DA070546E0D4A3899B05DDD4A06DFFF73B
:102540006AFCD9E7054B9C4201D1AC68DFE7044B3C
:102550009C4208BFEC68DAE7902B0008B02B00081B
:10256000702B000838B5074D044608461146002276
:102570002A601A4600F0A4FA431C02D12B6803B16A
:10258000236038BD2004002070B50E46B1F90E104E
:10259000002996B014461D4608DAB6F90C30002220
:1025A0002A601A0610D44FF480630EE06A4600F0E9
:1025B0004DFA0028F1DB019A02F47042A2F50053B3
:1025C0005A425A412A60EEE740230020236016B0A9
:1025D00070BD00008B8973B59D0706460C4607D574
:1025E00004F14703236023610123636102B070BDDE
:1025F00001AB6A46FFF7C8FF009905463046FFF772
:102600000BFC48B9B4F90C309A05EFD423F003035E
:1026100043F00203A381E3E70D4BB362A38920607B
:1026200043F08003A381009B6361019B20615BB148
:10263000B4F90E10304600F01BFA28B1A38923F03C
:10264000030343F00103A381A0890543A581CDE7DE
:10265000711C00080148FFF7DDBB00BF1404002017
:102660000148FFF7D8BB00BF1404002038B5054669
:10267000002941D051F8043C0C1F002BB8BFE418CE
:10268000FFF7E8FF1D4A136833B9636014602846FA
:10269000BDE83840FFF7E4BFA34208D920682118FD
:1026A0008B4201BF19685B6809182160EDE71A4683
:1026B0005B680BB1A342FAD911685018A0420BD144
:1026C00020680144501883421160E0D118685B68AB
:1026D000536001441160DAE702D90C232B60D6E77E
:1026E000206821188B4204BF19685B68636004BFCF
:1026F000091821605460CAE738BD00BF18040020E3
:102700002DE9F047164699468A680B69DDF8208066
:102710009342B8BF1346336091F8432007460C46F6
:102720000AB1013333602368990642BF336802332C
:102730003360256815F0060506D104F1190AE3682F
:1027400032689B1AAB4226DC94F84320131E2268A1
:1027500018BF012392062BD404F1430249463846A0
:10276000C04701301ED02368E568326803F00603D5
:10277000042B08BFAD1AA36822690CBF25EAE575D2
:1027800000259342C4BF9B1AED1800261A34B542A7
:102790001AD1002008E00123524649463846C04776
:1027A000013003D14FF0FF30BDE8F0870135C6E7B7
:1027B000E1185A1C302081F84300224494F8451057
:1027C00082F843100233C7E70123224649463846C0
:1027D000C0470130E6D00136D9E700002DE9FF47B8
:1027E0000F7E0C9D782F914680460C469A4601F14B
:1027F000430207D8622F0AD8002F00F0D880582F44
:1028000000F0A38004F1420584F842703AE0A7F199
:102810006303152BF6D801A151F823F075280008A1
:102820008928000805280008052800080528000850
:102830000528000889280008052800080528000840
:10284000052800080528000895290008B92800086F
:10285000772900080528000805280008B72900087E
:1028600005280008B92800080528000805280008E0
:102870007F2900082B681A1D1B682A6004F1420595
:1028800084F842300123A3E020682968060601F19C
:1028900004030AD50E682B60002E03DA2D2376423E
:1028A00084F843305E480A2319E00E682B6010F06C
:1028B000400F18BF36B2EFE72B682068191D29605A
:1028C000010601D51E6802E04606FBD51E88544865
:1028D0006F2F0CBF08230A23002184F8431065687A
:1028E000A560002DA2BF216821F0040121600EB96E
:1028F000002D4DD01546B6FBF3F103FB1167C75D04
:1029000005F8017D3746BB420E46F4D9082B0BD1A2
:102910002368DE0708D5236961689942DEBF30234A
:1029200005F8013C05F1FF35521B2261CDF800A0EE
:102930004B4603AA21464046FFF7E2FE01304CD148
:102940004FF0FF3004B0BDE8F087354881F845709E
:102950002968236851F8046B29601D0614D5DF0728
:1029600044BF43F0200323601EB9236823F02003F3
:1029700023601023B0E7236843F02003236078230B
:10298000284884F84530E3E7590648BFB6B2E6E781
:102990001546BBE72B6826686169181D2860350657
:1029A0001B6801D5196002E07006FBD51980002371
:1029B00023611546BAE72B681A1D2A601D686268F4
:1029C00000212846FDF7E4FB08B1401B6060636806
:1029D0002361002384F84330A8E723692A46494647
:1029E0004046D0470130ABD023689B0713D4E06842
:1029F000039B9842B8BF1846A4E7012332464946D4
:102A00004046D04701309BD00135E36803995B1AFB
:102A1000AB42F2DCEBE7002504F11906F5E700BF55
:102A2000E12B0008F22B000838B5074D0446084694
:102A3000114600222A601A4600F04AF8431C02D1CF
:102A40002B6803B1236038BD2004002038B5074D42
:102A500000230446084611462B6000F021F8431C71
:102A600002D12B6803B1236038BD00BF20040020D1
:102A700038B5064D0023044608462B6000F018F8D0
:102A8000431C02D12B6803B1236038BD2004002011
:102A9000024B58221A604FF0FF307047200400208C
:102AA000024B58221A604FF0FF307047200400207C
:102AB000024B58221A600020704700BF20040020FB
:102AC000024B58221A604FF0FF307047200400205C
:102AD000024B58221A604FF0FF307047200400204C
:102AE000024B58221A604FF0FF307047200400203C
:102AF000F8B500BFF8BC08BC9E467047F8B500BFEB
:082B0000F8BC08BC9E467047BA
:102B08000103070F1F3E3D3B372F1E3C3933270E6D
:102B18001D3A352B162C18302102050B172E1C38A0
:102B28003123060D1B362D1A303132333435363702
:102B38003839414243444546040802253038780A6A
:102B48000025642061667465722073626F780A00DC
:102B5800256420616674657220726F777065726D86
:102B68000A0000000400002000000000000000002F
:102B7800000000000000000000000000000000004D
:102B8800000000000000000000000000000000003D
:102B9800000000000000000000000000000000002D
:102BA800000000000000000000000000000000001D
:102BB800000000000000000000000000000000000D
:102BC8000000000000000000232D302B2000686C5E
:102BD8004C00656667454647003031323334353638
:102BE8003738394142434445460030313233343571
:0C2BF8003637383961626364656600009E
:042C0400550200086D
:042C0800310200088D
:102C0C000400002000000000902B0008B02B0008EE
:102C1C00702B000800000000000000000000000005
:102C2C000000000000000000000000000000000098
:102C3C000000000000000000000000000000000088
:102C4C000000000000000000000000000000000078
:102C5C000000000000000000000000000000000068
:042C6C000000000064
:0400000508001B0DC7
:00000001FF
