:100000000C94F4000C9415010C9415010C9415013A
:100010000C9415010C9415010C9415010C94150108
:100020000C9415010C9415010C9415010C941501F8
:100030000C9415010C9415010C9415010C941501E8
:100040000C9415010C9415010C9415010C941501D8
:100050000C9415010C9415010C9415010C941501C8
:100060000C9415010C9415010C9415010C941501B8
:100070000C9415010C9415010C9415010C941501A8
:100080000C9415010C9415010C9415010C94150198
:100090000C9415010C9415010C9415010C94150188
:1000A0000C9415010C9415010C9415010C94150178
:1000B0000C9415010C9415010C9415010C94150168
:1000C0000C9415010C9415010C9415010C94150158
:1000D0000C9415010C9415010C9415010C94150148
:1000E0000C9415010C9415010C9415010C94150138
:1000F0000C9415010C9415010C9415010C94150128
:100100000C9415010C9415010C9415010C94150117
:100110000C9415010C9415010C9415010C94150107
:100120000C9415010C9415010C9415010C941501F7
:100130000C9415010C9415010C9415010C941501E7
:100140000C9415010C9415010C9415010C941501D7
:100150000C9415010C9415010C9415010C941501C7
:100160000C9415010C9415010C9415010C941501B7
:100170000C9415010C9415010C9415010C941501A7
:100180000C9415010C9415010C9415010C94150197
:100190000C9415010C9415010C9415010C94150187
:1001A0000C9415010C9415010C9415010C94150177
:1001B0000C9415010C9415010C9415010C94150167
:1001C0000C9415010C9415010C9453070C944107E1
:1001D0000C94DC080C9430070C94F0080C94110873
:1001E0000C9425070C94000811241FBECFEFCDBF3F
:1001F000DFE3DEBF00E00CBF10E2A0E0B0E2EEE91A
:10020000F6E100E00BBF02C007900D92A833B107E2
:10021000D9F724E2A8E3B0E201C01D92AC3AB207DC
:10022000E1F70E94DC0A0C944D0B0C9400004F92F5
:100230005F926F927F928F929F92AF92BF92CF9276
:10024000DF92EF92FF920F931F93CF93DF9300D033
:100250000F92CDB7DEB74B015C0183E0440F551F11
:100260008A95E1F793E0220F331F9A95E1F763E057
:10027000000F111F6A95E1F7D70173E0AA0FBB1FAA
:100280007A95E1F770E060E090E080E019821A82F0
:100290001B821C82FB0131962401350104C0769437
:1002A000679457944794EA95D2F7E1E04E2255249B
:1002B00066247724F901E80FF91F04C0440C551C8B
:1002C000661C771CEA95D2F7FB0132967501640132
:1002D00004C0F694E794D794C794EA95D2F7E1E086
:1002E000CE22DD24EE24FF24F801E80FF91F04C01C
:1002F000CC0CDD1CEE1CFF1CEA95D2F74C285D28C7
:100300006E287F2875016401062E04C0F694E794D8
:10031000D794C7940A94D2F7E1E0CE22DD24EE24EC
:10032000FF24FA01E80FF91F04C0CC0CDD1CEE1C01
:10033000FF1CEA95D2F74C285D286E287F28FB0128
:1003400033967501640104C0F694E794D794C7947A
:10035000EA95D2F7E1E0CE22DD24EE24FF24FD0170
:10036000E80FF91F04C0CC0CDD1CEE1CFF1CEA9545
:10037000D2F74C285D286E287F28C980DA80EB8070
:10038000FC80C428D528E628F728C982DA82EB82C7
:10039000FC8201966C5F7F4F8830910509F07ACF1F
:1003A000C701B6012496CDBFDEBFDF91CF911F916B
:1003B0000F91FF90EF90DF90CF90BF90AF909F9004
:1003C0008F907F906F905F904F9008952F923F9203
:1003D0004F925F926F927F928F929F92AF92BF9255
:1003E000CF92DF92EF92FF920F931F93CF93DF9301
:1003F000CDB7DEB7E297CDBFDEBFDC01FB01498799
:100400005A878D909D90AD90BC901397C501B40113
:100410000E941D0B4B015C0114962D913D914D9155
:100420005C911797CA01B9010E941D0B69837A83F9
:100430008B839C8318964D915D916D917C911B9758
:10044000CB01BA010E941D0B2B013C011C966D9142
:100450007D918D919C911F976D837E838F8398876B
:100460000E941D0B8B019C0180819181B82FA92FC7
:10047000AF87B88B82819381582F492F498B5A8B34
:100480002480358032242324322486819781782F5A
:10049000692F6D837E8380859185B82FA92FAF8BBF
:1004A000B88F82859385582F492F4D8B5E8B64853D
:1004B000758576276727762769AB7AABC684D7849C
:1004C000DC24CD24DC2480E090E28B8B9C8BD30158
:1004D000C20188219921AA21BB2149815A816B81BE
:1004E0007C8184279527A627B727AC01BD0140232F
:1004F000512362237323482559256A257B254B8781
:100500005C876D877E87482B592B6A2B7B2B442574
:1005100055256625772504271527262737274C01DB
:100520005D0180269126A226B32689829A82AB821B
:10053000BC828B859C85AD85BE8588219921AA21A9
:10054000BB214C015D0184269526A626B726898EFF
:100550009A8EAB8EBC8EB901A801409550956095DE
:1005600070954D8F5E8F6F8F78A3EE24E394F12CFE
:1005700002E010E023E030E050E040E06D8D7E8D41
:100580008F8D98A10E9417014B015C0192E0E92E2A
:10059000F12C03E010E030E020E041E050E0698120
:1005A0007A818B819C810E94170169837A838B8376
:1005B0009C8323E0E22EF12C10E000E021E030E00B
:1005C00042E050E0698D7A8D8B8D9C8D0E941701E1
:1005D0002B013C01F12CE12C01E010E022E030E0A5
:1005E00043E050E06B857C858D859E850E941701D8
:1005F0006B877C878D879E87C101B0E0A0E0DC011E
:1006000099278827ED81FE81AF0170E060E08E2B95
:10061000952BA62BB72B482659266A267B2629A977
:100620003AA9C901B0E0A0E0DC0199278827A6011A
:1006300070E060E08C29952BA62BB72B49815A815D
:100640006B817C81482759276A277B2749835A83F6
:100650006B837C83AB89BC898D91AB8BBC8B0B8509
:100660001C852D853E85082730589F8588895AA985
:100670005295550F550F507C49A946954695542BD8
:100680005F8749A94295440F440F407C5AA956956B
:100690005695452B488B59894A897C2D72957F70D8
:1006A0006D2D6295607F762B7A8B6D2D62956F70C4
:1006B0007C2D7295707F672B698BCD88DE88EF89E2
:1006C000F88DE9ABFAAB6D817E816D8B7E8B2F8AC5
:1006D000388E5D834E83292E382EA852B04209F001
:1006E000F6CEC501B4010E941D0BA985BA856D9394
:1006F0007D938D939C93139769817A818B819C81E3
:100700000E941D0BFD016483758386839783C3015B
:10071000B2010E941D0B18966D937D938D939C934F
:100720001B97C901B8010E941D0B648775878687D6
:100730009787E296CDBFDEBFDF91CF911F910F91DA
:10074000FF90EF90DF90CF90BF90AF909F908F90F1
:100750007F906F905F904F903F902F900895CF9330
:10076000DF93FB01DA01EC01260F371FE217F307D5
:1007700019F4DF91CF91089581919D9189278993F3
:10078000F5CFCF92DF92EF92FF920F931F93CF930B
:10079000DF93CDB7DEB76097CDBFDEBFDB01BA0117
:1007A0009E012F5F3F4FAD01485F5F4FF22E032F39
:1007B000D42EC52E1D91FB01E190BF011E25F9012C
:1007C00011939F014A175B07A9F728E0ED2DFC2D37
:1007D000DE01199601900D922A95E1F720E1EF2DA7
:1007E000F02FDC0101900D922A95E1F76096CDBFC4
:1007F000DEBFDF91CF911F910F91FF90EF90DF90BF
:10080000CF900895EF92FF920F931F93CF93DF93B2
:10081000CDB7DEB72897CDBFDEBFF82EE92E9B01FE
:10082000FB01BE016F5F7F4F8901095F1F4F562F8C
:10083000972F41918081881F8827881F440F482B5C
:10084000DB014D93BD010E171F0799F7F901408198
:10085000441F4427441F8BE1489F402D11242781CA
:10086000220F2427288788E0E52FF92FAF2DBE2DF2
:1008700001900D928A95E1F72896CDBFDEBFDF91FA
:10088000CF911F910F91FF90EF900895EF92FF92FB
:100890000F931F93CF93DF93CDB7DEB72897CDBFCC
:1008A000DEBF7C018B01CE0101960E940204F8019B
:1008B000BE016F5F7F4F9701A801485F5F4F819135
:1008C000DB019D91BD018927D9018D939D01E4171D
:1008D000F507A9F72896CDBFDEBFDF91CF911F9115
:1008E0000F91FF90EF900895CF92DF92EF92FF92D9
:1008F0000F931F93CF93DF93CDB7DEB7A097CDBFF4
:10090000DEBF6C017B01BA018901F701389688E0EE
:10091000DE01119601900D928A95E1F7F701DE0153
:100920001996C701079621913081331F3327331F52
:10093000220F232B2D93E817F907A9F7D7018C91E4
:10094000881F8827881F17962C911797220F282B0E
:10095000288B80E1FE01319601900D928A95E1F796
:100960000115110539F5FE0132968FE0DF011D9268
:100970008A95E9F780E8898380E1FE013196DE01FE
:10098000519601900D928A95E1F720E130E0AE0199
:100990004F5E5F4FB701C6010E94AF03A096CDBF67
:1009A000DEBFDF91CF911F910F91FF90EF90DF900D
:1009B000CF90089500311105F1F0A801CE01019604
:1009C0000E943D0BE1E0F0E0EC0FFD1FE00FF11F96
:1009D00080E880834FE050E0401B510B0F5F1F4FBA
:1009E00070E060E081E090E08C0F9D1F800F911F10
:1009F0000E94460BC1CF80E1FB01DE011196019000
:100A00000D928A95E1F7B8CF2F923F924F925F9265
:100A10006F927F928F929F92AF92BF92CF92DF920E
:100A2000EF92FF920F931F93CF93DF93CDB7DEB773
:100A3000AC97CDBFDEBF4C01362E272EFA0139010F
:100A40000BA71CA727017601A9A6BAA689A59AA576
:100A5000892B41F490E1C916D10408F435C180E135
:100A6000E81AF10880E18E010F5F1F4FD801019055
:100A70000D928A95E1F7AE014F5E5F4F632D722DA7
:100A8000C8010E94E60188E0FE017196DE019196A0
:100A900001900D928A95E1F7CBA4DCA491E1C916EF
:100AA000D10408F093C05E0181E2A80EB11CB5012B
:100AB000C5010E944604C6018F709927892B21F435
:100AC0008BA59CA5892B21F4B501C5010E94460484
:100AD000E114F10441F4B501C5010E944604B501D9
:100AE000C5010E9446049601A301BE016F5E7F4FBF
:100AF000C8010E947404A501B801C8010E94C10385
:100B0000AE014F5E5F4F632D722DC8010E94E6015A
:100B1000670181E1C816D10408F07DC0EF2889F192
:100B2000B501C5010E944604C6018F709927892B23
:100B300021F0B501C5010E94460489A59AA5960138
:100B4000A201BE016F5E7F4F892B09F49CC0C401D6
:100B50000E94AF039601A201BE016F5E7F4FC801E4
:100B60000E9474048C0C9D1CA501B801C8010E9450
:100B7000C103AE014F5E5F4F632D722DC8010E940D
:100B8000E60189A59AA5892B09F48BC080E1FE01B5
:100B90007196D40101900D928A95E1F790E080E082
:100BA000AC96CDBFDEBFDF91CF911F910F91FF902B
:100BB000EF90DF90CF90BF90AF909F908F907F90FD
:100BC0006F905F904F903F902F90089520E130E01C
:100BD000A301BE016F5E7F4FC8010E947404BE0175
:100BE0006F5D7F4FCB010E940204AE014F5D5F4FEE
:100BF000B801C8010E94C103AE014F5E5F4F632D73
:100C0000722DC8010E94E60190E1690E711C80E11D
:100C1000C81AD10843CFB501C5010E94020489A5B5
:100C20009AA520E130E0A201BE016F5E7F4F892BC3
:100C300019F1C4010E94AF0320E130E0A201BE011E
:100C40006F5E7F4FC8010E947404A501B801C801FE
:100C50000E94C103AE014F5E5F4F632D722DC8012C
:100C60000E94E60190E1490E511C80E1880E911C22
:100C700090E1C91AD1084DCFC4010E94AF0320E111
:100C800030E0A401DCCFC4010E94AF039601A401AF
:100C9000BE016F5E7F4FC8010E9474044C0C5D1C46
:100CA00063CF40E150E0BE016F5E7F4FC2010E9402
:100CB000300B21E030E0892B11F430E020E0882770
:100CC0009927821B930B6CCF8FEF9FEF69CFAF9269
:100CD000BF92CF92DF92EF92FF920F931F93AA24BD
:100CE000A394B12C0E9404051F910F91FF90EF90E7
:100CF000DF90CF90BF90AF900895AF92BF92CF9208
:100D0000DF92EF92FF920F931F93B12CA12C0E94C0
:100D100004051F910F91FF90EF90DF90CF90BF904F
:100D2000AF9008955F926F927F928F929F92AF9251
:100D3000BF92CF92DF92EF92FF920F931F93CF93C8
:100D4000DF93CDB7DEB74C01FB01542E652EA70112
:100D5000B801C9017A2CBB2D0B891C899601A0E131
:100D60000E94240B208331834283538364837583E1
:100D700086839783AA24A394B12CE52CF62C272DE7
:100D80003B2F4D8D5E8D6F8D78A1C4010E940405AF
:100D900090E080E0DF91CF911F910F91FF90EF9055
:100DA000DF90CF90BF90AF909F908F907F906F908B
:100DB0005F9008953F924F925F926F927F928F92D1
:100DC0009F92AF92BF92CF92DF92EF92FF920F93DA
:100DD0001F93CF93DF93CDB7DEB72C01FB01322EEB
:100DE000632E7A2CBB2DA601B701C8010D891E897F
:100DF0002A2D3B2DA0EF0E94240B208331834283B8
:100E000053836483758386839783B12CA12CC72C6D
:100E1000DB2EE32CF62C94014D8D5E8D6F8D78A129
:100E2000C2010E940405DF91CF911F910F91FF90A5
:100E3000EF90DF90CF90BF90AF909F908F907F907A
:100E40006F905F904F903F900895FC01A8E3B0E24F
:100E5000409621912D93E817F907D9F780E008957E
:100E6000FC018081918198278927982780934824C5
:100E7000909349248034910510F083E0089580E038
:100E800008959C01DC01ED9180E1E89FF0011124BF
:100E9000E85BFF4D2F5E3F4F8D918193A217B30703
:100EA000D9F780E008957F928F929F92AF92BF9280
:100EB000CF92DF92EF92FF920F931F93CF93DF9326
:100EC000CDB7DEB7CA51D440CDBFDEBF19821A827A
:100ED000FE0133962EE034E0DF01A9011D9241505E
:100EE0005040E1F7CF5EDB4F1882C151D440CE5E57
:100EF000DB4F1882C251D440CD5EDB4F1882C35104
:100F0000D440CC5EDB4F1882C451D440CB5EDB4F63
:100F10001882C551D440CA5EDB4F1882C651D440F6
:100F2000C95EDB4F1882C751D440C85EDB4F1882C0
:100F3000C851D440812C26E0922E77247394D4019A
:100F400015967C920091482410914924E8E3F0E240
:100F5000FF93EF939F938F931F921F921F921F9265
:100F60001F921F921F921F921F921F92B12CA12CB1
:100F70006801E12CF12C00E010E020E030E048E4D2
:100F800050E2BE016F5E7B4FCE0101960E94920639
:100F9000F4017682CF5EDB4F88819981C151D440C4
:100FA000982789279827C75EDB4F88839983C95183
:100FB000D440AE01475E5B4F62E082E70E94AD081D
:100FC000AE014F5F5F4FCF5EDB4F6881C151D440B0
:100FD00082E70E94AD08CDBFDEBF80E0C65EDB4F7A
:100FE000CDBFDEBFDF91CF911F910F91FF90EF90AA
:100FF000DF90CF90BF90AF909F908F907F9008959B
:10100000CF93DF93EC01109248241092492460E1C1
:101010000E94250760E0CE014096DF91CF910C94AD
:10102000530781E00895282F80E046EA615008F4D4
:101030000895E22FF92F9191892728E030E087FF6A
:1010400008C0880F842721503109C9F72E2F9F2F00
:10105000EDCF880FF8CF9C01FA01DB0150E040E0B2
:10106000421753071CF090E080E008958C91119690
:101070009C91119760ED690F6A3078F4608390ED70
:10108000980F9A30D0F48295807F9081892B80834D
:101090004F5F5F4F31961296E3CF6FEB690F66306B
:1010A00018F497539083EBCF6FE9690F663018F00F
:1010B00081E090E008959755F5CF9FEB980F96301B
:1010C00040F48753990B64E0880F991F6A95E1F704
:1010D000DCCF9FE9980F963058F78755990BF3CFDF
:1010E000DB016091AA247091AB2460317105D4F4C6
:1010F000A03CB105B8F496E0969FF001979FF00DE3
:101100001124E65BFB4D8083A183B2834383548328
:1011100025836F5F7F4F6093AA247093AB2490E088
:1011200080E0089581E090E0089520E00C9470083C
:1011300041E158E070E060E086E70E94950840EFEA
:1011400058E070E060E087E70E9495084CED58E0B9
:1011500070E060E089E70C949508FF920F931F936D
:10116000CF93DF93162FF42E052F0E94310ACF2D37
:10117000D02FCE01810F911D8C01C017D10741F4F2
:101180008AE0DF91CF911F910F91FF900C94310A6B
:10119000E991E295EF70F0E0E85DFF4D80810E94FB
:1011A000310AFE013197E081EF70F0E0E85DFF4D1C
:1011B00080810E94310AE1CFCF93DF930F92CDB7A8
:1011C000DEB78091AA248983AE014F5F5F4F61E053
:1011D00082E70E94AD0880E00F90DF91CF910895E3
:1011E000CF93DF93CDB7DEB7E097CDBFDEBF2091C1
:1011F000AA243091AB24B901772740E056E0842F30
:1012000090E08617970784F0622F660F620FAE0199
:101210004F5F5F4F82E70E94AD0880E0E096CDBF50
:10122000DEBFDF91CF910895FC01EE0FFF1FE80FA5
:10123000F91FA1E0B0E0AC0FBD1FEA0FFB1F589FE4
:10124000D001599FB00D1124A65BBB4D8C918083BA
:1012500011968C911197818315968C9182834F5FA3
:10126000CECFAF92BF92CF92DF92EF92FF920F93C9
:101270001F93CF93DF93CDB7DEB7C154D240CDBF1C
:10128000DEBF0E942A0A4091AA245091AB242AE48E
:1012900034E210E000E0041715070CF48EC040178C
:1012A000510709F47BC026E0209FC001219F900DCB
:1012B00011249C01265B3B4D7901D90115968C9137
:1012C00080FF21C0CF57DE4F1882C158D1400E9405
:1012D0002A0A89830E942A0A8A83AE014F575E4FE9
:1012E000BE016F5F7F4F81E090E00E942B08892B49
:1012F00009F054C0CF57DE4F8881C158D14090E0EB
:10130000F701818392839E012F5F3F4F5901F12C9A
:10131000E12C26E0209FC001219F900D1124DC01CB
:10132000A55BBB4D6D01D6018D919C91880F991FD6
:10133000E816F90608F44CC00E942A0A8A3011F017
:101340008D3061F526E0209FC001219F900D112472
:101350008C01065B1B4DF801F180AE014F575E4FCB
:10136000BE016F5F7F4F8F2D92810E942B08892BCA
:10137000A9F4D8011396ED91FC916F2DCE018F57F2
:101380009E4F1995CF5BDD4F8883C154D240AE018B
:101390004F5B5D4F61E08AE70E94AD08CF5BDD4F98
:1013A000CDBFDEBFDF91CF911F910F91FF90EF90E6
:1013B000DF90CF90BF90AF9008952A5F3F4FF90123
:1013C00036979081981709F46ECF0F5F1F4F63CF48
:1013D0000E942A0A8A3011F38D3001F3F5018193BE
:1013E0005F01FFEFEF1AFF0A9ECFE0E4F6E088E02E
:1013F000818384E08283E0EAF8E083E085838BE008
:101400008683178284818061848384818860848359
:101410000895CF93DF930F920F92CDB7DEB7FC0103
:1014200069837A8390E080E029813A81281739071F
:1014300011F480E008C02091A10827FF09C0809125
:10144000A008808381E00F900F90DF91CF910895E5
:101450000196EACF8091A10887FFFCCF8091A00878
:1014600008959091A10895FFFCCF8093A00808955E
:10147000FC01608371834283148613861686158669
:101480000895FC0162830895FC01958526859F5F80
:10149000937081E0921301C080E008951F93CF9371
:1014A000DF93EC01162F0E94440A882379F09D8572
:1014B000FE01E90FF11D17839F5F93709D87E881FF
:1014C000F98193819C7F2A81922B9383DF91CF9125
:1014D0001F910895FC012385948581E0291301C0A3
:1014E00080E00895FC018485DF01A80FB11D1396EB
:1014F0008C9194859F5F937094870895FC018385F8
:101500008F5F83702485A081B1819C91821749F0FF
:101510002385DF01A20FB11D13969C93838781E081
:10152000089580E00895CF93DF93FC01868595852B
:10153000A081B181981309C013968C9113978C7F69
:1015400013968C93DF91CF9108958685EF01C80F94
:10155000D11D8F818C9386858F5F83708687F2CFB4
:10156000FC01CB01248170FF04C0216024838083AF
:1015700008952E7FFBCFFC01848180FF04C0808111
:1015800090E091600895808190E00895109252005B
:101590001092550080915000886080935000809197
:1015A000510083FFFCCF88ED84BF83E0809340002F
:1015B00088E08093500008950E94C60A0E94F509B1
:1015C00081E08093010688E60E94310A85E60E9448
:1015D000310A8CE60E94310A8CE60E94310A8FE6BD
:1015E0000E94310A8AE00E94310A0E94980840E075
:1015F00058E060E270E085E60E94950845E257E019
:1016000060E170E08BE60E94950840E357E062E0FD
:1016100070E08CE60E94950841E457E061E170E0DB
:1016200080E70E94950843E557E060E170E08EE6B0
:101630000E9495080E943109FDCF692796276927E6
:1016400078278727782708950024A7FD00942A0F7C
:10165000301D401D501D601D701D801D901D089582
:10166000FB01DC0104C08D910190801921F44150EF
:101670005040C8F7881B990B0895FB01DC0102C09C
:1016800001900D9241505040D8F70895DC0101C0FF
:0E1690006D9341505040E0F70895F894FFCF5D
:10169E000103070F1F3E3D3B372F1E3C3933270EEC
:1016AE001D3A352B162C18302102050B172E1C381F
:1016BE003123060D1B362D1A303132333435363781
:0816CE0038394142434445460E
:00000001FF
