:020000040800F2
:100000000030002029290008712900087129000802
:1000100071290008712900087129000800000000FA
:10002000000000000000000000000000712900082E
:1000300071290008000000007129000871290008DA
:1000400000000000000000000000000000000000B0
:1000500000000000000000000000000000000000A0
:100060000000000000000000000000000000000090
:100070000000000000000000000000000000000080
:100080000000000000000000000000000000000070
:100090000000000000000000000000000000000060
:1000A0000000000000000000000000000000000050
:1000B0000000000000000000000000000000000040
:1000C0000000000000000000000000000000000030
:1000D0000000000000000000000000000000000020
:1000E0000000000000000000000000000000000010
:1000F0000000000000000000000000000000000000
:1001000000000000000000000000000000000000EF
:1001100000000000000000000000000000000000DF
:1001200000000000000000000000000000000000CF
:1001300000000000000000000000000000000000BF
:1001400000000000000000000000000000000000AF
:10015000000000000000000000000000000000009F
:10016000000000000000000000000000000000008F
:10017000000000000000000000000000000000007F
:08018000000000000000000077
:1001880010B5054C237833B9044B13B10448AFF3C9
:1001980000800123237010BDF80300200000000038
:1001A800B82B000808B5034B1BB103490348AFF34C
:1001B800008008BD00000000FC030020B82B0008E8
:1001C800F0B59E080024B44204D123F003049C42F5
:1001D80009D3F0BD51F8245052F824707D4040F8FE
:1001E80024500134EFE70D5D165D75400555013467
:1001F800EDE7F3B4D0E90047FD0745EA5405E40705
:1002080044EA5704069E01940095C71D0024A342A2
:100218000FD106B10A46014602B0F0BCFFF7D0BFC5
:1002280012F804C017F8015F85EA0C050D55013472
:10023800EDE7082CF4D16F46A342EAD912F804C0BE
:1002480017F8015B85EA0C050D550134F4E72DE933
:10025800F84312F10F0643F10003360946EA037624
:1002680004460F4615464FF00008013E464507EB89
:1002780008191BD820464FEA061807EB061700F0A6
:10028800A9F9A5EB08033A4621462046FFF798FF4F
:100298000F2B9EBFE25C82F00102E2549DF8202001
:1002A800E37F83EA4213E377BDE8F883204600F052
:1002B80091F910234A4621462046FFF781FF08F1AD
:1002C8000108D3E72DE9F74F0C9F0D9B17F10F0598
:1002D80043F100032D0945EA037504468846924612
:1002E8000026013DB54208EB06190AEB061B1ED88D
:1002F800204600F06FF92E010F9A00920AEB051ABA
:1003080008EB0518BB1B524641462046FFF771FF14
:100318000F2B9EBFE25C82F00102E2549DF8382068
:10032800E37F83EA4213E37703B0BDE8F08F20460A
:1003380000F050F90F9B00935A4610234946204677
:10034800FFF757FF0136CDE738B50C460546084696
:1003580000F040F92146284604F1100351F8042B17
:1003680040F8042B9942F9D138BD2DE9F04F8DB0F2
:10037800DDE916451D9E9146DDE91A2380460F46A4
:1003880000EB040A0DF1100E06F1100B30687168CD
:10039800F446ACE8030008365E45E646F6D11E9EF4
:1003A8000DF1200E06F1100B30687168F446ACE8C8
:1003B800030008365E45E646F6D144EA020145EAFE
:1003C8000300014311D19DF82F3004A983F02003C5
:1003D80050468DF82F30FFF7B7FF10240025002076
:1003E800C7E900450DB0BDE8F08F54EA050002F0FA
:1003F8000F0126D0002914BF0220012052EA03066B
:1004080004F00F0122D000290090189904A80CBF0D
:1004180001260226FFF71BFF54EA050309D0002333
:10042800CDE90263CDE900454A46414604A8FFF7F5
:1004380049FF04A95046FFF787FF103445F100052E
:10044800CDE7002914BF04200320D7E709B9052602
:10045800E2E70626E3E72DE9F04F93B0DDE91CB6A5
:100468009A46DDE9207300241C22814688460BA8A1
:10047800214605930A9402F0D1FABBF1100FABF1B3
:10048800100576F10002CDE90644CDE90844059B44
:10049800554402D24FF0FF353BE0229ABBF11004DD
:1004A80046F1FF360DF1280E02F1100B1068516865
:1004B800F446ACE8030008325A45E646F6D1239ADA
:1004C8000DF1380E02F1100B10685168F446ACE8D3
:1004D800030008325A45E646F6D157EA03021CD112
:1004E80054EA060219D19DF847300AA983F020037F
:1004F80006A88DF84730FFF727FF2946102206A8DF
:1005080002F06EFA05460028C4D100220023C8E98B
:100518000023284613B0BDE8F08F54EA060107F01F
:100528000F0237D0002A14BF0221012157EA030025
:1005380004F00F0233D0002A00913A461E990AA807
:100548000CBF4FF0010B4FF0020BFFF780FE54EA8F
:1005580006032BD0204602F033FA0746B0B3012336
:100568000146CDE902B3CDE9004652460AA8FFF795
:10057800A9FE0AA906A8FFF7E7FE2946102206A841
:1005880002F02EFA054698B1002F83D0384602F0C3
:100598001FFA7FE7002A14BF04210321C6E712B916
:1005A8004FF0050BD3E74FF0060BD3E70027E0E742
:1005B80054EA060307D022463946484602F020FA94
:1005C800384602F005FAC8E90046A2E76FF00105CF
:1005D8009FE70000026882EA920303F00C335A4056
:1005E80082EA830282EA121303F0F0135A4082EA85
:1005F800031282EA122303F47F435A4082EA032259
:1006080082EA520303F022335A4082EA430282EA22
:10061800920303F00C335A4082EA830282EA1213EF
:100628002DE9F04F03F0F013456884685A4082EAD8
:10063800031285EA950303F00C335D4085EA8305D0
:1006480085EA151303F0F0135D4085EA031585EA82
:10065800152303F47F435D4085EA032585EA5503A6
:1006680003F022335D4085EA430585EA950303F0EC
:100678000C335D4085EA830585EA151303F0F01312
:100688005D4085EA031584EA940303F00C335C406B
:1006980084EA830484EA141303F0F0135C4084EAC8
:1006A800031484EA142303F47F435C4084EA03249C
:1006B80084EA540303F022335C4084EA430484EA66
:1006C800940303F00C335C4084EA830484EA141333
:1006D800834603F0F013C068DBF81470DBF8186089
:1006E8005C4084EA031480EA900303F00C3358401A
:1006F80080EA830080EA101303F0F013584080EA80
:10070800031080EA102303F47F43584080EA032053
:1007180080EA500303F02233584080EA430080EA1D
:10072800900303F00C33584080EA830080EA1013EA
:1007380003F0F013584080EA0310DBF8103083EA26
:10074800930101F00C314B4083EA810383EA1311D2
:1007580001F0F0114B4083EA011383EA132101F4FD
:100768007F414B4083EA012383EA530101F02231A0
:100778004B4083EA410383EA930101F00C314B407B
:1007880083EA810383EA131101F0F0114B4083EAF5
:10079800011387EA970101F00C314F4087EA81077E
:1007A80087EA171101F0F0114F4087EA011787EA2D
:1007B800172101F47F414F4087EA012787EA570153
:1007C80001F022314F4087EA410787EA970101F09B
:1007D8000C314F4087EA810787EA171101F0F011C1
:1007E8004F4087EA011786EA960101F00C314E4026
:1007F80086EA810686EA161101F0F0114E4086EA73
:10080800011686EA162101F47F414E4086EA012648
:1008180086EA560101F022314E4086EA410686EA10
:10082800960101F00C314E4086EA810686EA1611DF
:1008380001F0F0114E4086EA0116DBF81C1081EA3F
:10084800910C0CF00C3C81EA0C0181EA8C0181EAE4
:10085800111C0CF0F01C81EA0C0181EA0C1181EAF0
:10086800112C0CF47F4C81EA0C0181EA0C2181EAFD
:10087800510C0CF0223C81EA0C0181EA4C0181EA1E
:10088800910C0CF00C3C81EA0C0181EA8C0181EAA4
:10089800111C0CF0F01C81EA0C0181EA0C1EDFF837
:1008A800F0C082EA054101EA0C014A4085EA11419B
:1008B80084EA004505EA0C056C4080EA154582EAA1
:1008C800122000F47F40424082EA002281EA11208F
:1008D80000F47F40414081EA002184EA142000F4BA
:1008E8007F40444084EA002485EA152000F47F40D4
:1008F800454085EA002582EA044000EA0C004240AF
:1009080084EA104481EA054000EA0C00414085EA87
:10091800104583EA074000EA0C00434087EA10408C
:1009280083EA132707F47F477B4083EA072386EA95
:100938000E4A80EA102707F47F470AEA0C0A86EA7B
:100948000A06784080EA072086EA162707F47F47D8
:100958008EEA1A4A7E4086EA07268AEA1A2707F4A8
:100968007F478AEA070A8AEA072A83EA064707EAE4
:100978000C0783EA0709AFB086EA174680EA0A47F8
:1009880007EA0C07034B009378408AEA174A03E00A
:100998000000FFFFD02B0008009B1F6857409A6893
:1009A8004A4019699B6980EA030C009B58685040CB
:1009B8006040009CE46802EA00035C406C4000EA86
:1009C80004035A4087EA040387EA020E5840174393
:1009D80087EA00026FEA0E0555400192009A019FCE
:1009E800526960EA0E0E00988CEA0202C06956400D
:1009F8000CEA060281EA090142404FEA570982EAF5
:100A08000A0284EA0E04C7F3462A09F0800907940B
:100A180049EA0A071897079F4FEA5709C7F3462A72
:100A280009F0800949EA0A074FEA5509C5F3462A39
:100A380009F080090E9749EA0A070F97019F4FEAC4
:100A48009729C7F3854A09F0C00949EA0A071297A6
:100A5800079F06EA02004FEA972981EA02048CEA16
:100A6800000CC7F3854A09F0C00981EA0C0E6640FC
:100A780049EA0A0741EA0C014FEA95297140C5F392
:100A8800854A6FEA0E0009F0C00966EA0E0E019E5B
:100A9800119749EA0A0782EA0E0210974FEA166E82
:100AA800019F079E4FEA4E1E4FEA166C4EEAD76E1C
:100AB800EEB25FFA8EF706962E0E1B977601079F09
:100AC80046EAD5664FEA4C1C25015FFA86F94CEADE
:100AD800D76CC4F3031605F0F0055FFA8CF745EA06
:100AE800060C0D01C1F3031605F0F0053543139705
:100AF800149515014840C2F3031605F0F00545EAC0
:100B0800060E0501C0F3031605F0F00545EA060ACE
:100B18006509C4F3423605F0F805354319954D09C2
:100B2800C1F3423605F0F805354308955509C2F377
:100B3800423605F0F805354309954509C0F34236B4
:100B480005F0F80535430A95A50BC4F3815605F061
:100B5800FC0535431A958D0BC1F3815605F0FC054C
:100B680035430B95950BC2F3815605F0FC053543CB
:100B78000295850BC0F3815605F0FC0535430C95AD
:100B8800250E6D0045EAD475ECB226940C0E64006F
:100B980044EAD174E1B20391110E490041EAD271DD
:100BA800CAB20492020E520042EAD072D2B2580877
:100BB800059200F4FF40C3F3462210430F9A0A9CA3
:100BC80050409A0AC3F3854102F47F520A431099B0
:100BD8004A40D2B223921B9A82EA09018CEA0A029D
:100BE800D2B21C92199A6240D2B21592099A624006
:100BF800D2B22992DDE90B246240D2B2029C1D9246
:100C08001A9A6240D2B24FEA13682792069A4FEABC
:100C1800481848EAD3685340089A89EA03035340BE
:100C28000F9A53401C9A53400E9A5340099A5340C6
:100C3800239A5FFA88F8634088EA070553401D9AAB
:100C4800049C089F6B405340269A5440DDE90426D3
:100C580072401E921E9E039A5640069A82EA080225
:100C68008AEA02027A40109F7A400E9F4A407A40F0
:100C78001E9FDBB27A40279F63407A400693019F0C
:100C8800149B5F40129B5F4081EA0703C0B2D2B257
:100C98001F924340299A634053407340DBB2279A1E
:100CA80028930C9B5340289A5340DBB2059A0D9326
:100CB800189B5340079A5340119A8EEA03035340F6
:100CC8005D40159B059F5D401D9B5D406E40F3B2E6
:100CD8000193149B0C9E83EA0A051A9B7340DBB2AE
:100CE8001693029B7340DBB22A930B9B0F9E89EAF3
:100CF80003038CEA030373400A9EEDB27340119E0E
:100D08006B407340039E8CEA0E0186EA070C3E4650
:100D180066402B960B9E109F8AEA06067E40049F2B
:100D280088EA09027E405640119F8CEA06067E40FA
:100D3800029F7E407040159E0D9F70401F9E7E4012
:100D480017963E46019F7E402096209F069EDBB266
:100D580063407B40C9B248402193179BC0B24340CF
:100D68000793189B0898DDF8048043401B9843407C
:100D78005D40239B12985D402A9B5D402B9B5D4004
:100D8800179B5D407E40EDB286EA05030F93139BE7
:100D9800059F83EA0C0343400E984340099843405B
:100DA8005940169B0A985940019B5940C9B286EA96
:100DB80001030E93089B099E5840199B5E40269B91
:100DC8007B401893039F199B5F40109B8AEA070793
:100DD8005F40139B5F400C9B5F40069B83EA0803C0
:100DE800C0B222934346DDF85C80474083EA08039B
:100DF800FFB22C9387EA08031093039B139FDDF837
:100E08003C8089EA03037B400A9F7B40049F7B4028
:100E18001C9F7B40239F7B40169FF6B27B400D9F13
:100E280073407B40229F7B40219F87EA0808109FE0
:100E38006940DBB24F4083EA0803239710930B9F66
:100E4800129B079D7B40149F7B401E9F53407B4015
:100E580058402C9B1B9F584088EA00004D40C0B268
:100E680085EA00031993189B8EEA03037B40119FC0
:100E78007B40029F7B405E40229B5E400E9B5E4013
:100E8800F6B285EA06031193059B1A9D89EA0303C6
:100E98006B400A9D8EEA03036B401D9D6B401F9DAE
:100EA800019F7D402495069D0E9FDBB26B40079DF8
:100EB8007D40259587EA08052D958EEA0202189D42
:100EC800199F8AEA02026A40159D6A40289D6A4075
:100ED800069D6A400F9D6A40259D6A40239D4640B5
:100EE80088EA03037D407340D2B2289382EA05035F
:100EF8001293039A1B9B10981A955A40089B5A40C4
:100F08001C9B5A401D9B5A40209B5A402D9B5A407F
:100F18006A407040D2B280EA0203049D1B93139B7F
:100F28006B40149D6B40099D6B40279D6B40249D31
:100F38006B40259D6B40119D6B40DBB280EA030935
:100F480008980C9D8EEA000E029880EA0E0E2698EC
:100F58008AEA00006840099D8CEA00000EF0FF0E46
:100F6800684084EA0E0E019C0E9DC0B260400D9C44
:100F780084EA0E0E219C84EA050A079C6040DDE99C
:100F880010456C401D942C461A9D6C40279468406F
:100F98001C9C169D6C40299D6C402B9D6C40249D8B
:100FA8006C40079D6C400F9D6C401D9D7C406C40C3
:100FB8001B9F289D53407D405840269084EA050099
:100FC800129A139014980B9C189F6040159C8CEAF9
:100FD80000006040414006984140279841406940E0
:100FE8005A40C9B282EA01001C901D988EEA0A0E86
:100FF8008EEA000E89EA0E0E82EA0E020598149215
:101008000A9A82EA0004029A119854401F9A54409E
:10101800229A54400E9AE4B25440239A82EA000C71
:10102800109A5440129A82EA090084EA0502299229
:10103800159A1C9C57402A9A57402C9A5740109A48
:101048008AEA07075740199A57401B9A574087EA78
:1010580000028EEA01011592269A0A9162401399BC
:101068000A9C299F61406740159C29975440039F1B
:101078001594089C7C40169F7C40079F7C40229FCB
:101088007C40664089EA060675405540EDB281EA23
:101098000504049E22940B9C7440099E7440179E7C
:1010A80074400F9E74408CEA04046040149C6040B5
:1010B800C0B241400891DDE9021481EA04060D99A5
:1010C800049CF6B24E400C9981EA04070199129CDF
:1010D8004F4021994F4025994F401199FFB24F40F9
:1010E8006740DDE9134E199988EA060684EA0E047A
:1010F8004540DDF878E04E402899DDF8588015988D
:10110800574068408EEA080E7D40DDF89080189FB1
:1011180002950B9D88EA0E0EDDF8B4807D40069F8F
:1011280088EA0E0E8CEA0E0C7D40DDF848E0259F1B
:10113800DDF888808EEA0C0C7D40DDF86CE0109FAD
:101148008EEA0C0C7D40DDF870E06B40149D8EEA51
:101158000C0CDDF8A4E06B408EEA08085A4088EAD7
:101168000202D2B281EA090180EA02034E400993E1
:10117800089B089D66405E4080EA06030B9318981A
:10118800209B84EA0C0C58400D9C059B6340239CD3
:1011980063400E9C63401D9C6340279C8AEA0000C4
:1011A8006040139C89EA03036340159C81EA000EA2
:1011B80013996C40059481EA0E0E1C9902980F9DB4
:1011C80081EA0E0E229981EA0E0E0999564048408E
:1011D8001F9A219942EA0122239942EA0142289959
:1011E80084EA0E0E42EA0162DDE9061441EA0424AB
:1011F800129944EA074444EA01640D990E9F41EAB2
:101208000521199D41EA05411B9D41EA0561019DA2
:1012180045EA0725119F45EA074545EA0965269FDE
:10122800DDF8A49047EA0929029F88EA03038CEABB
:10123800080C734049EA07498CEA060A49EA036937
:10124800159E139B229F43EA06261C9B46EA0C46E2
:1012580043EA072C099B249F4CEA034C039B5F40FD
:10126800079B5F401D9B5F40129B5F400A9B5F404E
:10127800089B5F4088EA0708149B089F8EEA000EC7
:1012880080EA08008AEA00004CEA006043EA072C7A
:101298000B9B069F4CEA034C049B5F400F9B5F40EF
:1012A8001A9B5F401B9B5F40269B5F40149B5F40DF
:1012B800059B5F400B9B5F40009B203300938AEAAD
:1012C800070AEF4B009FBB4246EA0E664CEA0A6AE1
:1012D8007FF462ABEB4F82EA044808EA070888EA21
:1012E800020284EA184881EA05443C40614085EAE4
:1012F800144482EA122505F47F456A4082EA0522F1
:1013080088EA182505F47F4588EA050888EA05284B
:1013180081EA112505F47F45694081EA052184EABF
:10132800142505F47F456C4084EA052482EA0145CA
:101338003D4082EA050E88EA04423A4081EA154CAB
:1013480084EA124488EA020589EA06423A4089EAB0
:10135800020386EA124280EA0A463E4086EA000113
:1013680083EA132000F47F40434083EA002082EAA6
:10137800122303F47F435A4082EA032281EA1123AD
:1013880003F47F438AEA1646594081EA032186EA34
:10139800162303F47F435E4086EA032680EA01436E
:1013A8003B40584081EA134182EA06433B408EEABB
:1013B8001E1707F0F0175A4086EA13438EEA07060D
:1013C80086EA071686EA960707F00C377E4086EA13
:1013D800870686EA560707F022377E4086EA4706E0
:1013E80086EA162707F47F477E4086EA072686EABC
:1013F800161707F0F0177E4086EA071686EA960762
:1014080007F00C377E4086EA87068CEA1C1707F03F
:10141800F017CBF800608CEA070686EA071686EA1A
:10142800960707F00C377E4086EA870686EA560755
:1014380007F022377E4086EA470686EA162707F431
:101448007F477E4086EA072686EA161707F0F017D8
:101458007E4086EA071686EA960707F00C377E4034
:1014680086EA8706CBF8046085EA151606F0F016BA
:10147800754085EA061585EA950606F00C3675402E
:1014880085EA860585EA550606F02236754085EA1E
:10149800460585EA152606F47F46754085EA062541
:1014A80085EA151606F0F016754085EA061585EAF0
:1014B800950606F00C36754085EA8605CBF8085087
:1014C80084EA141505F0F0156C4084EA051484EAE2
:1014D800940505F00C356C4084EA850484EA5405CB
:1014E80005F022356C4084EA450484EA142505F4A5
:1014F8007F456C4084EA052484EA141505F0F0154C
:101508006C4084EA051484EA940505F00C356C40B7
:1015180084EA8504CBF80C4080EA101404F0F01437
:10152800604080EA041080EA900404F00C346040C3
:1015380080EA840080EA500404F02234604080EAA3
:10154800440080EA102404F47F44604080EA0420C8
:1015580080EA101404F0F014604080EA041080EA75
:10156800900404F00C34604080EA8400CBF810004A
:1015780081EA111000F0F010414081EA001181EA7F
:10158800910000F00C30414081EA800181EA51006D
:1015980000F02230414081EA400181EA112000F444
:1015A8007F40414081EA002181EA111000F0F010EB
:1015B800414081EA001181EA910000F00C3041407D
:1015C80081EA8001CBF8141082EA121101F0F011BF
:1015D8004A4082EA011282EA920101F00C314A4043
:1015E80082EA810282EA520101F022314A4082EA0B
:1015F800410282EA122101F47F414A4082EA012233
:1016080082EA121101F0F0114A4082EA011282EADC
:10161800920101F00C314A4082EA8102CBF818208D
:1016280083EA131202F0F012534083EA021383EAAA
:10163800930202F00C32534083EA820383EA530296
:1016480002F02232534083EA420383EA132202F46F
:101658007F42534083EA022383EA131202F0F01216
:10166800534083EA021383EA930202F00C32534098
:1016780083EA8203CBF81C302FB0BDE8F08F00BF9F
:10168800502D00080000FFFF024B002018805880F2
:10169800704700BF64000020054A431E0F3013F84E
:1016A800011F02F8011B8342F9D10020704700BFD7
:1016B8006800002070B5094904780B46051933F80D
:1016C800142B1344A84203D122440A80002070BD81
:1016D80010F8016F03F8016BF4E700BF6400002005
:1016E80070B5094904784B8801F58A721A440519BE
:1016F800A84203D123444B80002070BD10F8016F2D
:1017080002F8016BF4E700BF6400002030B5002444
:10171800ADF5137D214605464FF403720FA80E94CC
:1017280001F07CF900220023CDE90C2300F096FAA1
:10173800144A0694131DCDE907535388CDE90434A0
:1017480002F58A73029313880CA9CDE90034143288
:101758000EA8FEF70AFE00F088FABDF830300BAA92
:101768005BBA02217220ADF82C3000F01BF99DF80D
:1017780030100EAA722000F015F920460DF5137DE1
:1017880030BD00BF6400002038B5074B0025044673
:1017980010211D805D80FFF77FFF294604F11000AE
:1017A800BDE83840FFF7B2BF6400002030B5002420
:1017B800ADF50D7D214605464FF4FE720DA80C943B
:1017C80001F02CF900220023CDE90A2300F046FAA3
:1017D800144B1A1DCDE906525A88CDE9042403F5A5
:1017E8008A7202921A880AA9CDE900241433224683
:1017F8000CA8FEF730FE00F038FABDF8283009AA28
:101808005BBA02217220ADF8243000F0CBF89DF8C5
:1018180028100CAA722000F0C5F820460DF50D7DA1
:1018280030BD00BF6400002008B500F075F900F075
:10183800B3F900F0EFF9682000F038FA652000F0FD
:1018480035FA6C2000F032FA6C2000F02FFA6F2085
:1018580000F02CFA0A2000F029FA00F08DF8134A5B
:101868000021722000F084F8114A2021652000F040
:101878007FF8104A10216B2000F07AF80E4A1121E7
:10188800702000F075F80D4A1121612000F070F801
:101898000B4A10216E2000F06BF80A4A10216420D0
:1018A80000F066F800F0D8F8FCE700BF91160008D1
:1018B80091170008A1160008BD160008E9160008CF
:1018C80015170008B517000801207047F0B5002566
:1018D8004F1C854201DB002021E017F8154011F864
:1018E8001530A4F13006F6B2092E0CD81670A3F103
:1018F8003004E6B2092E15D8137843EA041313709E
:1019080001350132E5E7A4F14106052E02D8373C3E
:101918001470ECE7A4F16106052E01D90120F0BD91
:10192800573CF5E7A3F14104052C02D8A3F137048D
:10193800E2E7A3F16104052CF0D81478573B44EA98
:101948000313DCE770B5094E34680F2C0BDCBF2994
:1019580009D806EB0415C5E90212013428712B7465
:101968003460002070BD0120FCE700BF7802002031
:101978000023FFF7E7BF000008B5074A00217620DB
:10198800FFF7F6FF054A7720FFF7F2FFBDE80840AA
:10199800034A7920FFF7ECBFD1180008111A000894
:1019A800ED190008F8B514460E4600F07FF90C4F03
:1019B800651EC4F1010463199E4204DCBDE8F840C9
:1019C8000A2000F073B915F8013F1B09F85C00F014
:1019D8006DF92B7803F00F03F85C00F067F9EAE77C
:1019E800502D000807B5074B0DF107021B688DF84D
:1019F800073001217220FFF7D5FF002003B05DF802
:101A080004FB00BF7802002070B5124C21688CB02E
:101A1800CDB20020C3B2AB4200F1010009DB01EBFB
:101A280041016A46C9B27220FFF7BCFF00200CB022
:101A380070BD03EB4302303204EB03136A441E7992
:101A480002F8306C9E681B7C02F82F6C02F82E3C62
:101A5800E0E700BF780200202DE9F0412D4DADF5FB
:101A6800127D00F009F92A46002352F8041B994216
:101A780040DC3BD005EB03141E01237CDB0713D5A8
:101A880000238DF8083000F0F7F88DF8C80000F052
:101A9800F3F802AA8DF8C90032A90120FFF716FF52
:101AA80020BB9DF80830A36032AF002405EB060880
:101AB800D8F80830B4EB430F22D300F0DDF80A2839
:101AC80001D00D2812D1354402AAAC6832A92046AB
:101AD800FFF7FCFE50B9E1B2EB6802A8984701AAEB
:101AE8008DF8040001217A20FFF75CFF0DF5127DC7
:101AF800BDE8F0811C01A45C8442BBD00133B6E789
:101B080000F0BAF80A28F1D00D28EFD007F8010B39
:101B18000134CDE77802002070B596B00024032682
:101B28004FF4A0230CA80125CDE90C63109414945C
:101B380000F0D4F80F23214602A8CDE90235CDE9FB
:101B48000444069400F026FB114B5A6942F4002223
:101B58005A615B69CDE9094603F400230D4C0193F2
:101B6800019B07A94FF4C0432046CDE9073500F093
:101B7800B7FB2A4620464FF4005100F073FC2A4672
:101B88004FF48041204600F06DFC16B070BD00BFD8
:101B9800001002400008004810B54FF4C06288B039
:101BA8000223CDE9032301210323CDE90513164CB4
:101BB80007230793636943F400336361636903F49C
:101BC8000033019303A94FF09040019B00F088FB7C
:101BD8000E48DFF83CC04FF41643C0E900C30023A9
:101BE800C0E90233036183610C234361A36943F4B1
:101BF8008043A361A36903F480430293029B00F02E
:101C080089FD08B010BD00BF001002407C03002011
:101C180000380140104B30B55A6942F400325A611D
:101C28005B6987B003F400330093009B4FF4805442
:101C38000123CDE901430025032301A94FF090407A
:101C4800CDE9035300F04CFB2A4621464FF0904063
:101C580000F008FC07B030BD0010024001224FF42C
:101C680080514FF0904000F0FDBB00224FF48051AE
:101C78004FF0904000F0F6BB37B50A4D0A4C41F2E0
:101C8800883301220DF10701284600F0C3FD18B979
:101C98009DF8070003B030BD236A43F008032362B0
:101CA800EDE700BF7C0300200038014007B541F292
:101CB80088338DF8070001220DF10701024800F072
:101CC80053FD03B05DF804FB7C030020024B186849
:101CD800421C1A60704700BFEC03002003682DE91E
:101CE800F743D907044611D423689A0700F1868080
:101CF80023681E0700F1F48023685D0700F13B812B
:101D0800E269002A40F0C281002021E0B6494B6810
:101D180003F00C03042B07D04B6803F00C03082BCB
:101D280019D14B68DB0316D54FF4003393FAA3F2AD
:101D3800096893FAA3F3B3FA83F303F01F030122AC
:101D480002FA03F30B42CFD06368002BCCD10120F9
:101D580003B0BDE8F0836268B2F5803F24D10B6818
:101D680043F480330B60CB6AA06823F00F0303436E
:101D7800CB624AB3FFF7AAFF4FF4003605460127A6
:101D880096FAA6F30A6896FAA6F3B3FA83F303F071
:101D98001F0307FA03F31342A6D1FFF797FF431B6C
:101DA800642BEDD90320D3E70B6832B923F48033D1
:101DB8000B600B6823F48023D4E7B2F5A02FF5D18C
:101DC80043F480230B60CAE7FFF780FF4FF4003627
:101DD8000546012796FAA6F30A6896FAA6F3B3FA17
:101DE80083F303F01F0307FA03F313423FF47CAFB6
:101DF800FFF76CFF431B642BECD9D3E77A494B6898
:101E080013F00C0F07D04B6803F00C03082B21D1FB
:101E18004B68DF031ED4022393FAA3F2086893FAEF
:101E2800A3F3B3FA83F303F01F03012202FA03F3C7
:101E3800034202D02369934289D10868F82292FAB2
:101E4800A2F26369B2FA82F2934020F0F8021343D7
:101E58000B604DE72269012502B395FAA5F3B3FAA1
:101E680083F303F1845303F584139B0002271D6059
:101E7800FFF72CFF064697FAA7F30A6897FAA7F325
:101E8800B3FA83F303F01F0305FA03F31342D4D123
:101E9800FFF71CFF831B022BEDD983E795FAA5F307
:101EA800B3FA83F303F1845303F584139B000227E9
:101EB8001A60FFF70BFF064697FAA7F30A6897FA26
:101EC800A7F3B3FA83F303F01F0305FA03F31342EE
:101ED8003FF40EAFFFF7FAFE831B022BECD961E744
:101EE800A269414D4148012112B391FAA1F3B3FA15
:101EF80083F303449B0002261960FFF7E7FE0746B9
:101F080096FAA6F396FAA6F396FAA6F36A6A96FAEA
:101F1800A6F3B3FA83F303F01F0301FA03F31342A2
:101F28007FF4EAAEFFF7D2FEC31B022BE8D939E7EC
:101F380091FAA1F3B3FA83F303449B0002261A60D3
:101F4800FFF7C4FE074696FAA6F396FAA6F396FAA2
:101F5800A6F36A6A96FAA6F3B3FA83F303F01F03AB
:101F680001FA03F313423FF4C7AEFFF7AFFEC31BFA
:101F7800022BE8D916E71C49CB69D8003AD4CB69BB
:101F880043F08053CB61CB6903F080530193019BED
:101F98000125174E3368DA052ED5E368012B3BD1AE
:101FA8000B6A43F001030B62FFF790FE0226074617
:101FB8004FF0010841F2883996FAA6F396FAA6F38B
:101FC8000A6A96FAA6F3B3FA83F303F01F0308FA32
:101FD80003F3134254D0002D3FF492AECB6923F0A3
:101FE8008053CB618CE600BF001002402081901026
:101FF800007000400025CCE7336843F480733360F9
:10200800FFF764FE07463368DB05C6D4FFF75EFEBC
:10201800C01B6428F7D9C5E623BB0B6A23F001036C
:102028000B620B6A23F004030B62FFF74FFE0226D4
:1020380007464FF0010841F2883996FAA6F396FA56
:10204800A6F30A6A96FAA6F3B3FA83F303F01F031A
:1020580008FA03F31342BED0FFF738FEC01B484509
:10206800EBD99FE6052B0B6A03D143F004030B62FF
:1020780096E723F001030B620B6A23F0040392E74F
:10208800FFF724FEC01B484596D98BE640494B68AC
:1020980003F00C03082B3FF45AAE022A4FF080736A
:1020A80051D193FAA3F3B3FA83F303F1845303F5FD
:1020B80084139B0000221A60FFF708FE4FF0007798
:1020C8000646012597FAA7F30A6897FAA7F3B3FA21
:1020D80083F303F01F0305FA03F313422DD1D4E968
:1020E80008034A68034322F4741213434B604FF009
:1020F800807393FAA3F3B3FA83F303F1845303F5DC
:1021080084139B0001261D60FFF7E0FD4FF000756A
:10211800044695FAA5F30A6895FAA5F3B3FA83F38A
:1021280003F01F0306FA03F313427FF4EDADFFF744
:10213800CDFD001B0228ECD934E6FFF7C7FD831B51
:10214800022BBFD92EE693FAA3F3B3FA83F303F174
:10215800845303F584139B0000221A60FFF7B6FD31
:102168004FF000750446012695FAA5F30A6895FA1A
:10217800A5F3B3FA83F303F01F0306FA03F313423C
:102188003FF4C2ADFFF7A2FD001B0228ECD909E617
:1021980000100240504AF8B5136803F007038B4259
:1021A80004461BD32268900724D4D2072AD44A4A6B
:1021B800136803F007038B427AD82068430700F1BD
:1021C800828010F0080014D0444A2169536823F42F
:1021D800605343EAC103536000200AE0136823F008
:1021E80007030B431360136803F007038B42D9D02E
:1021F8000120F8BD3948A568436823F0F0032B4354
:102208004360D2E76268354D012A27D14FF4003385
:1022180093FAA3F0286893FAA3F3B3FA83F303F0CD
:102228001F0302FA03F30342E2D06B6823F00303AF
:1022380013436B60FFF74AFD6368012B064641F2C2
:1022480088371ED16B6803F00C03042BAFD0FFF75F
:102258003DFD801BB842F5D90320CAE7022A0CBF0E
:102268004FF00073022393FAA3F02E6893FAA3F3B6
:10227800B3FA83F303F01F03012000FA03F3334298
:10228800D2E7022B0FD16B6803F00C03082B8ED01A
:10229800FFF71CFD801BB842F5D9DDE7FFF716FDF7
:1022A800801BB842D8D86B6813F00C0FF6D17EE7C4
:1022B800136823F007030B431360136803F0070345
:1022C8008B4295D179E70549E3684A6822F4E062D0
:1022D8001A434A6075E700BF002002400010024020
:1022E8002DE9F74FDFF870815C4C00234FF00109AE
:1022F8000A6832FA03F502D103B0BDE8F08F09FA93
:1023080003FA1AEA020200F09D804D6825F0100ECB
:10231800BEF1020F14D14FEAD30C00EB8C0C03F082
:10232800070BDCF820604FEA8B0B0F2707FA0BF737
:1023380026EA07070E6906FA0BF63E43CCF820603A
:10234800D0F800B04FEA430C032606FA0CF72BEA44
:10235800070BFE4305F0030707FA0CF70EF1FF3EE3
:1023680047EA0B07BEF1010F076010D8876806EA35
:10237800070ECF6807FA0CF747EA0E078760476829
:1023880027EA0A0E2F099F4047EA0E074760C768E9
:1023980037408E6806FA0CF63E43C660EE0051D50B
:1023A800D8F8186046F00106C8F81860D8F8186020
:1023B80023F0030707F1804706F0010607F5803789
:1023C800019603F0030E019EBE684FEA8E0E4FF091
:1023D8000F0C0CFA0EFCB0F1904F26EA0C0C33D01F
:1023E8001F4EB04232D006F58066B04230D006F5B6
:1023F8008066B0422ED006F58066B0420CBF042637
:10240800052606FA0EF646EA0C06BE602668D7438D
:1024180015F4803F0CBF3E4016432660666815F4ED
:10242800003F0CBF3E4016436660A66815F4801F47
:102438000CBF3E401643A660E668AD0254BF3E405E
:102448001643E660013353E70026DAE70126D8E7AA
:102458000226D6E70326D4E7001002400004014014
:10246800000400480AB1816170478162704700002A
:1024780002688168C36930B50569146829434569EC
:1024880024F41644294324F00C0419432143116011
:102498005168C468056A21F4405121435160946829
:1024A800816924F4306429432143916062498A4256
:1024B80016D101F55841096B01F0030101390229D0
:1024C80000F2B2805D4CB3F5004F615C77D108290A
:1024D80072D8DFE801F0ACAC2471AC717171A40062
:1024E80057498A422CD101F5E631096B01F4403194
:1024F800B1F5003F00F090800BD8002900F09480DF
:10250800B1F5803F00F09080B3F5004F54D0012022
:1025180015E0B1F5403FF7D1B3F5004F66D14168FA
:102528004B0803F1F47303F59043B3FBF1F3002078
:102538009BB223F00F01C3F342030B43D36030BDBA
:1025480040498A4210D101F5E431096B01F4402178
:10255800B1F5002F60D004D8002965D0B1F5802FDF
:10256800D0E7B1F5402FD6E737498A4210D101F5B7
:10257800E231096B01F44011B1F5001F4CD004D8C9
:10258800002951D0B1F5801FBCE7B1F5401FC2E763
:102598002E498A42B8D101F5E031096B01F44001B6
:1025A800B1F5000F38D004D800293DD0B1F5800F1F
:1025B800A8E7B1F5400FAEE701200023B9E70829E5
:1025C800A5D801A353F821F00D2600080D26000810
:1025D800F5250008172500080D260008172500080E
:1025E80017250008172500081726000841684B081A
:1025F80003F5740303F51053B3FBF1F39BB2D360F7
:1026080000209CE741684B0803F5E103F4E74168C3
:102618004B0803F50043EFE7B3F5004FF7D14168E6
:102628004B0803F5803380E7B3F5004FEAD14168E2
:102638004B0803F5610378E700380140602D000876
:102648000044004000480040004C0040005000405A
:102658002DE9F041DDF81880044616461F46256826
:10266800EB6931EA03030CBF01230023B34201D015
:10267800002016E0B8F1FF3FF2D0B8F1000F12D1F8
:102688002B6823F4D0732B60AB6823F00103AB6095
:10269800202384F8693084F86A30002384F868308D
:1026A8000320BDE8F081FFF711FBC01B4045D6D9D8
:1026B800E6E773B504460021C166FFF707FB266805
:1026C80033681A07054616D433685B070AD56FF0D6
:1026D8007E43009300222B464FF480012046FFF7EB
:1026E800B7FFA0B92023002084F8693084F8680077
:1026F80084F86A300CE06FF07E4300930A46034684
:102708004FF400112046FFF7A3FF0028DCD0032078
:1027180002B070BD38B5044620B390F8693003F0B4
:10272800FF020BB980F868202568242384F86930F3
:102738002B6823F001032B602046FFF799FE012840
:1027480010D06B6823F490436B60AB6823F02A03C6
:10275800AB602B6843F001032B602046BDE838408E
:10276800FFF7A7BF012038BDF7B51E4690F86930BE
:10277800202B0D46044611464AD1002D46D0002A8A
:1027880044D090F86830012B42D0012380F868309B
:102798000023C366212380F86930FFF797FAA4F86D
:1027A80050100746A4F85210B4F8522092B262B9F9
:1027B80000963B4640212046FFF74AFF98B9202360
:1027C80084F8693084F868000EE0B4F85220009666
:1027D800013A92B2A4F852203B46002280212046BA
:1027E800FFF736FF10B1032003B0F0BDA3682268DD
:1027F800B3F5805F07D123692BB935F8023BC3F3E2
:1028080008031385D0E715F8013BFAE70120EBE749
:102818000220E9E72DE9F3411E4690F86A30202BA3
:102828000D46044611465CD1002D58D0002A56D0DA
:1028380090F86830012B54D0012380F86830036881
:102848004FF0FF321A620023C366222380F86A30F1
:10285800FFF73CFAA368A4F85810B3F5805F8046E8
:10286800A4F85A1015D123698BB940F2FF13A4F8C4
:102878005C30B4F85C70B4F85A0080B280B9202398
:1028880084F86A3084F8680002B0BDE8F081FF235C
:10289800EDE7002BEDD12369002BF8D07F23E6E785
:1028A800B4F85A200096013A92B2A4F85A20434646
:1028B800002220212046FFF7CBFEA0B9A26823689A
:1028C800B2F5805F06D1226922B99B8C3B4025F87E
:1028D800023BD0E79B8C3B4005F8013BCBE701204E
:1028E800D2E70220D0E70320CEE700000A4A1168A9
:1028F80008B5034609B909491160106869460344D7
:102908008B4206D900F032F80C2303604FF0FF30F9
:1029180008BD1360FCE700BFF40300202804002072
:10292800002103E00B4B5B58435004310A480B4B22
:1029380042189A42F6D30A4A02E00023136004328E
:10294800084B9A42F9D3AFF3008000F015F8FEF770
:102958006BFFFEE76C2D00080000002064000020DB
:102968006400002024040020FEE70000014B1868E2
:10297800704700BF0000002070B50D4D0D4C641B62
:10298800A4100026A64209D10B4D0C4C00F010F9FA
:10299800641BA4100026A64205D170BD55F8043B5F
:1029A80098470136EEE755F8043B98470136F2E7B9
:1029B800642D0008642D0008642D0008682D0008A7
:1029C800024B0146186800F07BB800BF00000020E9
:1029D800024B0146186800F029B800BF000000202B
:1029E80010B501390244904201D1002005E0037876
:1029F80011F8014FA34201D0181B10BD0130F2E7B6
:102A08000A44914200F1FF3300D1704710B511F824
:102A1800014B03F8014F9142F9D110BD024403461E
:102A2800934200D1704703F8011BF9E738B5054612
:102A3800002941D051F8043C0C1F002BB8BFE41802
:102A480000F0AAF81D4A136833B963601460284679
:102A5800BDE8384000F0A6B8A34208D9206821187C
:102A68008B4201BF19685B6809182160EDE71A46B7
:102A78005B680BB1A342FAD911685018A0420BD178
:102A880020680144501883421160E0D118685B68DF
:102A9800536001441160DAE702D90C232B60D6E7B2
:102AA800206821188B4204BF19685B68636004BF03
:102AB800091821605460CAE738BD00BF140400201B
:102AC800F8B5CD1C25F0030508350C2D38BF0C25AD
:102AD800002D064601DBA94203D90C2333600020F0
:102AE800F8BD00F059F821490A6814469CB9204FEE
:102AF8003B6823B92146304600F03CF83860294647
:102B0800304600F037F8431C23D10C23336030469D
:102B180000F048F8E3E723685B1B17D40B2B03D9B5
:102B280023601C44256004E06368A2420CBF0B606C
:102B38005360304600F036F804F10B00231D20F0F6
:102B48000700C21ACCD01B1AA350C9E722466468F2
:102B5800CCE7C41C24F00304A042E3D0211A304679
:102B680000F008F80130DDD1CFE700BF14040020E1
:102B78001804002038B5064D0023044608462B608B
:102B8800FFF7B4FE431C02D12B6803B1236038BDA4
:102B980020040020704770470148FFF7FBBF00BFC3
:102BA8001C0400200148FFF7F6BF00BF1C040020EA
:102BB800F8B500BFF8BC08BC9E467047F8B500BF22
:082BC800F8BC08BC9E467047F2
:102BD00001000000000001010000000100000000F1
:102BE00000010101010100000101010001010101D9
:102BF00001000000010100000000000100000000D1
:102C000000010101000001010101010001010101B8
:102C100001000000010100000101010000000000AE
:102C2000000101010000010100000001010101019A
:102C30000001010101010000010101000101010188
:102C40000100000000000101000000010000000080
:102C5000010000000000010101010100010101016A
:102C6000000101010101000000000001000000005E
:102C7000010000000101000000000001010101014C
:102C8000000101010000010101010100000000003C
:102C9000000101010101000001010100000000002C
:102CA000010000000000010100000001010101011C
:102CB0000001010100000101010101000101010108
:102CC0000100000001010000000000010000000000
:102CD00001000000000001010000000101010101EC
:102CE00000010101010100000101010000000000DC
:102CF00000010101010100000000000100000000CE
:102D000001000000000001010101010001010101B9
:102D100001000000000001010101010000000000AD
:102D20000001010101010000000000010101010199
:102D30000001010101010000000000010101010189
:102D4000010000000000010101010100000000007D
:102D500030313233343536373839414243444546D1
:042D60000408020061
:042D6400AD010008B5
:042D680089010008D5
:102D6C000400002000000000000000000000000033
:102D7C000000000000000000000000000000000047
:102D8C000000000000000000000000000000000037
:102D9C000000000000000000000000000000000027
:102DAC000000000000000000000000000000000017
:102DBC000000000000000000000000000000000007
:042DCC000000000003
:04000005080029299D
:00000001FF
