:100000000C94F2000C9413010C9413010C94130142
:100010000C9413010C9413010C9413010C94130110
:100020000C9413010C9413010C9413010C94130100
:100030000C9413010C9413010C9413010C941301F0
:100040000C9413010C9413010C9413010C941301E0
:100050000C9413010C9413010C9413010C941301D0
:100060000C9413010C9413010C9413010C941301C0
:100070000C9413010C9413010C9413010C941301B0
:100080000C9413010C9413010C9413010C941301A0
:100090000C9413010C9413010C9413010C94130190
:1000A0000C9413010C9413010C9413010C94130180
:1000B0000C9413010C9413010C9413010C94130170
:1000C0000C9413010C9413010C9413010C94130160
:1000D0000C9413010C9413010C9413010C94130150
:1000E0000C9413010C9413010C9413010C94130140
:1000F0000C9413010C9413010C9413010C94130130
:100100000C9413010C9413010C9413010C9413011F
:100110000C9413010C9413010C9413010C9413010F
:100120000C9413010C9413010C9413010C941301FF
:100130000C9413010C9413010C9413010C941301EF
:100140000C9413010C9413010C9413010C941301DF
:100150000C9413010C9413010C9413010C941301CF
:100160000C9413010C9413010C9413010C941301BF
:100170000C9413010C9413010C9413010C941301AF
:100180000C9413010C9413010C9413010C9413019F
:100190000C9413010C9413010C9413010C9413018F
:1001A0000C9413010C9413010C9413010C9413017F
:1001B0000C9413010C9413010C9413010C9413016F
:1001C0000C9413010C9413010C94D8010C94D201DB
:1001D0000C9453030C944E020C94DE010C943F03D8
:1001E0000C94740211241FBECFEFCDBFDFE3DEBF3E
:1001F00000E00CBF10E2A0E0B0E2E0E0F8E100E0D7
:100200000BBF02C007900D92A031B107D9F720E2D1
:10021000A0E1B0E201C01D92A637B207E1F70E944B
:10022000A50B0C94FE0B0C9400002F923F924F9262
:100230005F926F927F928F929F92AF92BF92CF9276
:10024000DF92EF92FF920F931F93CF93DF930F9262
:10025000CDB7DEB74B01BA017C2C2D2C3E2CF98298
:10026000402E522E632E95010F89CBA0DCA0E9A071
:10027000FAA0472D0E941A0B272D322D432D5981AC
:10028000642D712F852D962DA0E10E94DF0BF401C6
:10029000208331834283538364837583868397836A
:1002A00090E080E00F90DF91CF911F910F91FF9030
:1002B000EF90DF90CF90BF90AF909F908F907F9006
:1002C0006F905F904F903F902F9008952F923F92A4
:1002D0004F925F926F927F928F929F92AF92BF9256
:1002E000CF92DF92EF92FF920F931F93CF93DF9302
:1002F0000F920F92CDB7DEB72C013B01F22FE32F07
:10030000302EB92D088D9501A601B701832D912FAF
:10031000AFE00E94EB0B09F100F1A0EF0E94DF0BB0
:10032000122FB32E942E252E362EA72E89839A8334
:10033000CAA0DBA0E8A0F9A0282D3B2F412F6F2FEA
:100340007E2FC2010E94560B882351F0412F5B2D56
:1003500070E060E0C2010E94F70B8FEF9FEF0DC0CD
:10036000F3011083B182928223823482A582898133
:1003700086838A81878390E080E00F900F90DF91E1
:10038000CF911F910F91FF90EF90DF90CF90BF9092
:10039000AF909F908F907F906F905F904F903F9025
:1003A0002F900895809312209093132080E0089559
:1003B000809310209093112080E008957F928F9277
:1003C0009F92AF92BF92CF92DF92EF92FF920F93E4
:1003D0001F93CF93DF93CDB7DEB7A897CDBFDEBF16
:1003E000AC01C62E19821A82FE0133968EE1DF011E
:1003F0001D928A95E9F719A21AA21BA21CA21DA29E
:100400001EA21FA218A6812C86E0982E7724739432
:10041000F4017582809113208F93809112208F9325
:10042000809111208F93809110208F931F921F92A3
:100430001F921F921F921F921F921F921F921F9234
:10044000B12CA12CD12CE12CF12C00E010E020E00B
:1004500030E0BE016F5D7F4FCE0101960E94150115
:10046000D40116967C92AE014F5F5F4F69A182E77F
:100470000E941003CDBFDEBF80E0A896CDBFDEBFD7
:10048000DF91CF911F910F91FF90EF90DF90CF9070
:10049000BF90AF909F908F907F900895CF93DF9300
:1004A000CDB7DEB76097CDBFDEBF9C0119821A823F
:1004B000FE0133968EE0DF011D928A95E9F72093C5
:1004C000122030931320205F3F4F20931020309351
:1004D000112060E0CE0101960E94DE016096CDBF42
:1004E000DEBFDF91CF91089581E00895282F80E04D
:1004F00046EA615008F40895E22FF92F9191892777
:1005000028E030E087FF08C0880F84272150310998
:10051000C9F72E2F9F2FEDCF880FF8CF9C01FA013E
:10052000DB0150E040E0421753071CF090E080E010
:1005300008958C9111969C91119760ED690F6A3026
:1005400078F4608390ED980F9A30D0F48295807F94
:100550009081892B80834F5F5F4F31961296E3CF56
:100560006FEB690F663018F497539083EBCF6FE908
:10057000690F663018F081E090E008959755F5CF47
:100580009FEB980F963040F48753990B64E0880FE7
:10059000991F6A95E1F7DCCF9FE9980F963058F7DD
:1005A0008755990BF3CFDB01609174207091752012
:1005B00060317105D4F4A03CB105B8F496E0969F83
:1005C000F001979FF00D1124EC5EFF4D8083A18315
:1005D000B2834383548325836F5F7F4F609374207E
:1005E0007093752090E080E0089581E090E0089598
:1005F00020E00C94D30244E752E070E060E086E72C
:100600000E94F80243E553E070E060E087E70E9453
:10061000F8024FE353E070E060E089E70C94F802E1
:10062000FF920F931F93CF93DF93162FF42E052F76
:100630000E949404CF2DD02FCE01810F911D8C01EB
:10064000C017D10741F48AE0DF91CF911F910F913C
:10065000FF900C949404E991E295EF70F0E0E05083
:10066000F04E80810E949404FE013197E081EF708A
:10067000F0E0E050F04E80810E949404E1CFCF93EF
:10068000DF930F92CDB7DEB7809174208983AE01DE
:100690004F5F5F4F61E082E70E94100380E00F90A0
:1006A000DF91CF910895CF93DF93CDB7DEB7E09779
:1006B000CDBFDEBF2091742030917520B90177271E
:1006C00040E056E0842F90E08617970784F0622F71
:1006D000660F620FAE014F5F5F4F82E70E9410030B
:1006E00080E0E096CDBFDEBFDF91CF910895FC01A1
:1006F000EE0FFF1FE80FF91FA1E0B0E0AC0FBD1F28
:10070000EA0FFB1F589FD001599FB00D1124AC5E1A
:10071000BF4D8C91808311968C9111978183159692
:100720008C9182834F5FCECFAF92BF92CF92DF92F8
:10073000EF92FF920F931F93CF93DF93CDB7DEB766
:10074000C154D240CDBFDEBF0E948D0440917420C1
:100750005091752024E130E210E000E00417150705
:100760000CF48EC04017510709F47BC026E0209F8F
:10077000C001219F900D11249C012C5E3F4D7901F9
:10078000D90115968C9180FF21C0CF57DE4F18827A
:10079000C158D1400E948D0489830E948D048A83B0
:1007A000AE014F575E4FBE016F5F7F4F81E090E01B
:1007B0000E948E02892B09F054C0CF57DE4F8881EA
:1007C000C158D14090E0F701818392839E012F5F51
:1007D0003F4F5901F12CE12C26E0209FC001219FC1
:1007E000900D1124DC01AB5EBF4D6D01D6018D91E2
:1007F0009C91880F991FE816F90608F44CC00E94D6
:100800008D048A3011F08D3061F526E0209FC00103
:10081000219F900D11248C010C5E1F4DF801F18079
:10082000AE014F575E4FBE016F5F7F4F8F2D92819C
:100830000E948E02892BA9F4D8011396ED91FC91A8
:100840006F2DCE018F579E4F1995CF5BDD4F88835B
:10085000C154D240AE014F5B5D4F61E08AE70E9418
:100860001003CF5BDD4FCDBFDEBFDF91CF911F9176
:100870000F91FF90EF90DF90CF90BF90AF900895D1
:100880002A5F3F4FF90136979081981709F46ECF90
:100890000F5F1F4F63CF0E948D048A3011F38D309C
:1008A00001F3F50181935F01FFEFEF1AFF0A9ECF7D
:1008B000E0E4F6E088E0818384E08283E0EAF8E027
:1008C00083E085838BE086831782848180618483C3
:1008D0008481886084830895CF93DF930F920F9271
:1008E000CDB7DEB7FC0169837A8390E080E029818F
:1008F0003A812817390711F480E008C02091A10837
:1009000027FF09C08091A008808381E00F900F909D
:10091000DF91CF9108950196EACF8091A10887FFDA
:10092000FCCF8091A00808959091A10895FFFCCF7D
:100930008093A0080895FC0160837183428314862C
:100940001386168615860895FC0162830895FC01BE
:10095000958526859F5F937081E0921301C080E0AA
:1009600008951F93CF93DF93EC01162F0E94A704E5
:10097000882379F09D85FE01E90FF11D17839F5FA4
:1009800093709D87E881F98193819C7F2A81922BC6
:100990009383DF91CF911F910895FC012385948566
:1009A00081E0291301C080E00895FC018485DF0106
:1009B000A80FB11D13968C9194859F5F93709487B7
:1009C0000895FC0183858F5F83702485A081B181A8
:1009D0009C91821749F02385DF01A20FB11D139668
:1009E0009C93838781E0089580E00895CF93DF93FF
:1009F000FC0186859585A081B181981309C0139665
:100A00008C9113978C7F13968C93DF91CF910895DF
:100A10008685EF01C80FD11D8F818C9386858F5FEE
:100A200083708687F2CFFC01CB01248170FF04C064
:100A300021602483808308952E7FFBCFFC01848175
:100A400080FF04C0808190E091600895808190E0F3
:100A500008951092520010925500809150008860C5
:100A6000809350008091510083FFFCCF88ED84BFBC
:100A700083E08093400088E080935000089554E024
:100A80000D910795C7940795D7940795E794079517
:100A9000F7940795C7940795D7940795E79407951A
:100AA000F7945A9569F7089554E0C7940795D79439
:100AB0000795E7940795F7940795C7940795D794FA
:100AC0000795E7940795F794079509935A9569F761
:100AD000089544E0D4DFC992D992E992F9924A95F7
:100AE000C9F7089544E0CD90DD90ED90FD90DCDFF6
:100AF0004A95C9F70895F4E1E4E46CE0BB24B394AB
:100B0000A6E7B0E28590CD90DD90ED90FD90149732
:100B1000879408F4CB24879408F4DB24879408F4A2
:100B2000EB24879408F4FB24DE249E2C9D20F924DA
:100B30009F2CFD20FE24AF2CFC24F094EF2CAC283D
:100B4000C924DC24ED28E924DA24FD24CD92DD92A9
:100B5000ED92FD92CD90DD90ED90FD9014978794ED
:100B600008F4CB24879408F4DB24879408F4EB245E
:100B7000879408F4FB24DE249E2C9D20F9249F2CCE
:100B8000FD20FE24AF2CFC24F094EF2CAC28C924CB
:100B9000DC24ED28E924DA24FD24C0FAC694C7F841
:100BA000D0FAD694D7F8E0FAE694E7F8F0FAF6949B
:100BB000F7F8CD92DD92ED92FD928590CD90DD908B
:100BC000ED90FD901497879408F4CB24879408F453
:100BD000DB24879408F4EB24879408F4FB24DE24B8
:100BE0009E2C9D20F9249F2CFD20FE24AF2CFC245C
:100BF000F094EF2CAC28C924DC24ED28E924DA2475
:100C0000FD24C0FAC694C7F8D0FAD694D7F8E0FA13
:100C1000E694E7F8F0FAF694F7F8C0FAC694C7F845
:100C2000D0FAD694D7F8E0FAE694E7F8F0FAF6941A
:100C3000F7F8CD92DD92ED92FD92CD90DD90ED90A2
:100C4000FD901497879408F4CB24879408F4DB2450
:100C5000879408F4EB24879408F4FB24DE249E2C6C
:100C60009D20F9249F2CFD20FE24AF2CFC24F09421
:100C7000EF2CAC28C924DC24ED28E924DA24FD2457
:100C8000C294D294E294F294C7FACC0CC0F8D7FA8A
:100C9000DD0CD0F8E7FAEE0CE0F8F7FAFF0CF0F80C
:100CA000CD92DD92ED92FD928590CD90DD90ED900C
:100CB000FD901497879408F4CB24879408F4DB24E0
:100CC000879408F4EB24879408F4FB24DE249E2CFC
:100CD0009D20F9249F2CFD20FE24AF2CFC24F094B1
:100CE000EF2CAC28C924DC24ED28E924DA24FD24E7
:100CF000C294D294E294F294CD92DD92ED92FD9260
:100D0000CD90DD90ED90FD901497879408F4CB245E
:100D1000879408F4DB24879408F4EB24879408F480
:100D2000FB24DE249E2C9D20F9249F2CFD20FE24F4
:100D3000AF2CFC24F094EF2CAC28C924DC24ED2843
:100D4000E924DA24FD24C294D294E294F294C0FA05
:100D5000C694C7F8D0FAD694D7F8E0FAE694E7F844
:100D6000F0FAF694F7F8CD92DD92ED92FD9285902F
:100D7000CD90DD90ED90FD901497879408F4CB24EE
:100D8000879408F4DB24879408F4EB24879408F410
:100D9000FB24DE249E2C9D20F9249F2CFD20FE2484
:100DA000AF2CFC24F094EF2CAC28C924DC24ED28D3
:100DB000E924DA24FD24C7FACC0CC0F8D7FADD0CFC
:100DC000D0F8E7FAEE0CE0F8F7FAFF0CF0F8C7FA03
:100DD000CC0CC0F8D7FADD0CD0F8E7FAEE0CE0F84E
:100DE000F7FAFF0CF0F8CD92DD92ED92FD92CD90E6
:100DF000DD90ED90FD901497879408F4CB248794B0
:100E000008F4DB24879408F4EB24879408F4FB248B
:100E1000DE249E2C9D20F9249F2CFD20FE24AF2C47
:100E2000FC24F094EF2CAC28C924DC24ED28E92420
:100E3000DA24FD24C7FACC0CC0F8D7FADD0CD0F8C0
:100E4000E7FAEE0CE0F8F7FAFF0CF0F8CD92DD923D
:100E5000ED92FD92B0E2A6E7ED01CC24DD24EE2474
:100E6000FF24BD90AD909D908D90B824C824DB24C4
:100E7000EA24F924BD90AD909D908D90B8248924EA
:100E8000C924D824EB24FA24BD90AD909D908D9078
:100E9000B824C824DB24EA24F924BD90AD909D90A9
:100EA0008D90A8249B248924BA24CB24D824EA2416
:100EB000F924BD90AD909D908D90B824C824DB247A
:100EC000EA24F924BD90AD909D908D90B82489249A
:100ED0009A24CA24D924E824FB24BD90AD909D9087
:100EE0008D90A824B9249A248B24CB24D924E824D7
:100EF000FA24BD90AD909D908D90B9249824A9249A
:100F00008A24AB24C924DB24EA24F824DE01CD9210
:100F1000DD92ED92FD92CC24DD24EE24FF24BD90E1
:100F2000AD909D908D90B824C824DB24EA24F92448
:100F3000BD90AD909D908D90B8248924C924D8246B
:100F4000EB24FA24BD90AD909D908D90B824C824D8
:100F5000DB24EA24F924BD90AD909D908D90A824C7
:100F60009B248924BA24CB24D824EA24F924BD90D4
:100F7000AD909D908D90B824C824DB24EA24F924F8
:100F8000BD90AD909D908D90B82489249A24CA2458
:100F9000D924E824FB24BD90AD909D908D90A82489
:100FA000B9249A248B24CB24D924E824FA24DE0102
:100FB000BD90AD909D908D90B9249824A9248A2449
:100FC000AB24C924DB24EA24F824CD92DD92ED92EF
:100FD000FD92CC24DD24EE24FF24BD90AD909D90A5
:100FE0008D90B824C824DB24EA24F924BD90AD9068
:100FF0009D908D90B8248924C924D824EB24FA2408
:10100000BD90AD909D908D90B824C824DB24EA2437
:10101000F924BD90AD909D908D90A8249B248924A7
:10102000BA24CB24D824EA24F924BD90AD909D9015
:101030008D90B824C824DB24EA24F924BD90AD9017
:101040009D908D90B82489249A24CA24D924E82418
:10105000FB24DE01BD90AD909D908D90A824B92415
:101060009A248B24CB24D924E824FA24BD90AD9073
:101070009D908D90B9249824A9248A24AB24C92456
:10108000DB24EA24F824CD92DD92ED92FD92CC246B
:10109000DD24EE24FF24BD90AD909D908D90B8246A
:1010A000C824DB24EA24F924BD90AD909D908D9056
:1010B000B8248924C924D824EB24FA24BD90AD9007
:1010C0009D908D90B824C824DB24EA24F924BD9097
:1010D000AD909D908D90A8249B248924BA24CB2484
:1010E000D824EA24F924BD90AD909D908D90B82429
:1010F000C824DB24EA24F924DE01BD90AD909D9044
:101100008D90B82489249A24CA24D924E824FB2465
:10111000BD90AD909D908D90A824B9249A248B24E5
:10112000CB24D924E824FA24BD90AD909D908D90D5
:10113000B9249824A9248A24AB24C924DB24EA24D2
:10114000F824CD92DD92ED92FD92CC24DD24EE24A4
:10115000FF24BD90AD909D908D90B824C824DB24D1
:10116000EA24F924BD90AD909D908D90B8248924F7
:10117000C924D824EB24FA24BD90AD909D908D9085
:10118000B824C824DB24EA24F924BD90AD909D90B6
:101190008D90A8249B248924BA24CB24D824EA2423
:1011A000F924DE01BD90AD909D908D90B824C824A7
:1011B000DB24EA24F924BD90AD909D908D90B82455
:1011C00089249A24CA24D924E824FB24BD90AD9014
:1011D0009D908D90A824B9249A248B24CB24D924C3
:1011E000E824FA24BD90AD909D908D90B924982468
:1011F000A9248A24AB24C924DB24EA24F824CD9230
:10120000DD92ED92FD92CC24DD24EE24FF24BD90EE
:10121000AD909D908D90B824C824DB24EA24F92455
:10122000BD90AD909D908D90B8248924C924D82478
:10123000EB24FA24BD90AD909D908D90B824C824E5
:10124000DB24EA24F924DE01BD90AD909D908D90C1
:10125000A8249B248924BA24CB24D824EA24F92462
:10126000BD90AD909D908D90B824C824DB24EA24D5
:10127000F924BD90AD909D908D90B82489249A2436
:10128000CA24D924E824FB24BD90AD909D908D9074
:10129000A824B9249A248B24CB24D924E824FA2422
:1012A000BD90AD909D908D90B9249824A9248A2456
:1012B000AB24C924DB24EA24F824CD92DD92ED92FC
:1012C000FD92CC24DD24EE24FF24BD90AD909D90B2
:1012D0008D90B824C824DB24EA24F924BD90AD9075
:1012E0009D908D90B8248924C924D824EB24FA2415
:1012F000DE01BD90AD909D908D90B824C824DB2474
:10130000EA24F924BD90AD909D908D90A8249B2453
:101310008924BA24CB24D824EA24F924BD90AD90A2
:101320009D908D90B824C824DB24EA24F924BD9034
:10133000AD909D908D90B82489249A24CA24D924F4
:10134000E824FB24BD90AD909D908D90A824B924F5
:101350009A248B24CB24D924E824FA24BD90AD9080
:101360009D908D90B9249824A9248A24AB24C92463
:10137000DB24EA24F824CD92DD92ED92FD92CC2478
:10138000DD24EE24FF24BD90AD909D908D90B82477
:10139000C824DB24EA24F924DE01BD90AD909D90A1
:1013A0008D90B8248924C924D824EB24FA24BD9034
:1013B000AD909D908D90B824C824DB24EA24F924B4
:1013C000BD90AD909D908D90A8249B248924BA2433
:1013D000CB24D824EA24F924BD90AD909D908D9023
:1013E000B824C824DB24EA24F924BD90AD909D9054
:1013F0008D90B82489249A24CA24D924E824FB2473
:10140000BD90AD909D908D90A824B9249A248B24F2
:10141000CB24D924E824FA24BD90AD909D908D90E2
:10142000B9249824A9248A24AB24C924DB24EA24DF
:10143000F824CD92DD92ED92FD926A9511F00C9414
:101440007E0508950162FE9D2340DCBF670498FB82
:10145000FE9D0162CDAE3251ABC85437761589EA94
:10146000DCBF234089EA76153251CDAE4526BAD984
:10147000BAD94526D0E2C3E900E853E0479518F40D
:10148000C880C026C88221965A95C1F70895D0E237
:10149000C6E7412F4A95F3DA08810C2509930881A4
:1014A0000D25099308810E25099308810F250993BD
:1014B000445088F70895D0E2C4EB512F0D91099361
:1014C0005A954A95D9F701E009935A9521F00027DA
:1014D00009935A95E9F7B0E2A4EB08951D010BDBDF
:1014E000D101131720F4D3DF1D01311BF8CF3117C1
:1014F00011F0432FE0DF3327CADF472FBBDF08950A
:10150000FADAB0E2A6E7E201EDDA0895A12EA2161A
:1015100008F0A22EB0E2A6E7D0E2C4EAE3DAD101F5
:10152000F201289748E0421708F0422F241B8990C7
:10153000CD90C824C1924A95D1F72130D0F048E02F
:10154000421708F0422F241BD0E2C4EA888080FAB8
:1015500027968880879487F8888257E08A908794B6
:1015600088825A95D9F78990CD90C824C1924A951E
:10157000D1F7112031F4D101A11640F44A2D9BDF9F
:1015800005C0D201A11610F44A2D95DF80DF002797
:101590002A0C301E4A0C501E0895F0919620E091BE
:1015A0009720B0919820A09199201D012F01A3DAD6
:1015B000ADDF2130E0F7482F5DDF0895D0E2C6E7C8
:1015C000B091A020A091A12084DAB091A220A09196
:1015D000A3207FDA71E081E0332379F0222309F43C
:1015E00073E0032F0F7009F07395B0919C20A091C8
:1015F0009D2074DF222381F003C085E0222331F097
:10160000022F0F7009F08395C8DF13C0D0E2C3E941
:10161000C88000E8C026C882112031F4F0919620DD
:10162000E09197202F0105C0F0919820E09199203A
:101630001F0108952F923F924F925F926F927F9277
:101640008F929F92AF92BF92CF92DF92EF92FF92D2
:101650000F931F93CF93DF93B0E2A6E99D938D93F1
:101660007D936D935D934D933D932D931D930D93BA
:10167000FD92ED92DD92CD92242F302F10E11124B6
:101680009DDF3EDFDF91CF911F910F91FF90EF9093
:10169000DF90CF90BF90AF909F908F907F906F9092
:1016A0005F904F903F902F90112408952F923F927A
:1016B0004F925F926F927F928F929F92AF92BF9262
:1016C000CF92DF92EF92FF920F931F93CF93DF930E
:1016D000B0E2A6E99D938D937D936D935D934D93B9
:1016E0003D932D931D930D93FD92ED92DD92CD923E
:1016F000242F302F10E11124139460DFD0E2C4EACC
:101700002E01FEDE6097D10140E18990CD908C14CE
:1017100019F44A95D1F703C09FEF8FEF02C09927C4
:101720008827DF91CF911F910F91FF90EF90DF906D
:10173000CF90BF90AF909F908F907F906F905F9071
:101740004F903F902F90112408950E9429050E94E8
:10175000580481E08093010688E60E94940485E69F
:101760000E9494048CE60E9494048CE60E949404E7
:101770008FE60E9494048AE00E9494040E94FB0277
:1017800042ED51E060E170E08BE60E94F80248ED26
:1017900051E060E170E08EE60E94F8024EED51E00B
:1017A00060E170E080E70E94F8024EE452E060E2FF
:1017B00070E085E60E94F8020E949403FDCF0024A9
:1017C000A7FD00942A0F301D401D501D601D701D87
:1017D000801D901D08950024A7FD00942A17300550
:1017E0004005500560057005800590050895DC01F1
:1017F00001C06D9341505040E0F70895F894FFCF39
:101800003031323334353637383941424344454636
:00000001FF
