:020000040800F2
:10000000003000207D180008C5180008C518000839
:10001000C5180008C5180008C51800080000000031
:10002000000000000000000000000000C5180008EB
:10003000C518000800000000C5180008C518000811
:1000400000000000000000000000000000000000B0
:1000500000000000000000000000000000000000A0
:100060000000000000000000000000000000000090
:100070000000000000000000000000000000000080
:100080000000000000000000000000000000000070
:100090000000000000000000000000000000000060
:1000A0000000000000000000000000000000000050
:1000B0000000000000000000000000000000000040
:1000C0000000000000000000000000000000000030
:1000D0000000000000000000000000000000000020
:1000E0000000000000000000000000000000000010
:1000F0000000000000000000000000000000000000
:1001000000000000000000000000000000000000EF
:1001100000000000000000000000000000000000DF
:1001200000000000000000000000000000000000CF
:1001300000000000000000000000000000000000BF
:1001400000000000000000000000000000000000AF
:10015000000000000000000000000000000000009F
:10016000000000000000000000000000000000008F
:10017000000000000000000000000000000000007F
:08018000000000000000000077
:1001900001F0FF01102A2BDB10F0070F08D010F838
:1001A000013B013A8B422DD010F0070F42B3F6D13C
:1001B000F0B441EA012141EA014122F007047FF055
:1001C00000070023F0E80256083C85EA010586EAAC
:1001D000010685FA47F5A3FA87F586FA47F6A5FAE8
:1001E00087F68EB9EED1F0BC01F0FF0102F00702F4
:1001F00032B110F8013B013A83EA010313B1F8D19F
:100200000020704701387047002D06BF354603387F
:10021000073815F0010F07D1013015F4807F02BFB8
:10022000013015F4C03F0130F0BC0138704700BF09
:1002300010B5054C237833B9044B13B10448AFF320
:1002400000800123237010BDFC010020000000008D
:10025000DC28000808B5034B1BB103490348AFF382
:10026000008008BD0000000000020020DC2800081B
:1002700070B500249C4200D170BD0D5D165D7540C7
:1002800005550134F6E72DE9F84312F10F0643F165
:100290000003360946EA037604460F4615464FF03A
:1002A0000008013E464507EB08191BD820464FEAD7
:1002B000061807EB061700F0F1F9A5EB08033A461C
:1002C00021462046FFF7D4FF0F2B9EBFE25C82F051
:1002D0000102E2549DF82020E37F83EA4213E37792
:1002E000BDE8F883204600F0D9F910234A4621469C
:1002F0002046FFF7BDFF08F10108D3E72DE9F743DA
:100300000024CDE900446F46DDF828C00478864615
:10031000C51DB8469EF800601EF8019F760846EAA3
:10032000C916754508F8016BF4D1C679E40144EAB1
:1003300056048DF807400024A34212D1BCF1000FEF
:1003400000D00A46014603B0BDE8F043FFF790BF76
:1003500012F804E015F8016F86EA0E060E55013416
:10036000EAE7082CF4D1A342E8D9165D17F8015B3F
:1003700075400D550134F6E72DE9F74F0C9F0D9BA5
:1003800017F10F0543F100032D0945EA03750446F3
:10039000884692460026013DB54208EB06190AEB55
:1003A000061B1ED8204600F079F92E010F9A009204
:1003B0000AEB051A08EB0518BB1B524641462046BE
:1003C000FFF79CFF0F2B9EBFE25C82F00102E2541C
:1003D0009DF83820E37F83EA4213E37703B0BDE85A
:1003E000F08F204600F05AF90F9B00935A461023D5
:1003F00049462046FFF782FF0136CDE738B50C4667
:100400000546084600F04AF92146284604F1100343
:1004100051F8042B40F8042B9942F9D138BD2DE94D
:10042000F04F8DB0DDE916451D9E9146DDE91A239A
:1004300080460F4600EB040A0DF1100E06F1100B7A
:1004400030687168F446ACE8030008365E45E6465D
:10045000F6D11E9E0DF1200E06F1100B306871686A
:10046000F446ACE8030008365E45E646F6D144EAB9
:10047000020145EA0300014311D19DF82F3004A980
:1004800083F0200350468DF82F30FFF7B7FF10247C
:1004900000250020C7E900450DB0BDE8F08F54EA03
:1004A000050002F00F0126D0002914BF0220012010
:1004B00052EA030604F00F0122D000290090189997
:1004C00004A80CBF01260226FFF7DDFE54EA05034F
:1004D00009D00023CDE90263CDE900454A464146F3
:1004E00004A8FFF749FF04A95046FFF787FF10341F
:1004F00045F10005CDE7002914BF04200320D7E70C
:1005000009B90526E2E70626E3E710B500231A46F7
:1005100041FA03F4E40748BF424000F008044000F9
:10052000C0B20CB180F003000133042BF0D102F013
:100530000F0010BDF8B50B4F441E00F13F0504F14C
:10054000080614F8011F384601F094FAB442F8D1B5
:100550000A2001F0A7FAA542F1D1BDE8F8400A202F
:1005600001F0A0BAA9290008084A30B500231144B7
:100570000C2505FB03F210F833408A5C624000F85A
:1005800033200133082BF4D130BD00BFF42800081C
:1005900010B50749431E3F3003F1080213F8014F1D
:1005A0000C5D1C709342F9D19842F5D110BD00BF8B
:1005B0000000002037B50123044604EBC30554F8BE
:1005C000330069686A4603C20022991801F00701E6
:1005D0000831694411F8081CA9540132082AF4D1E1
:1005E0000133082BE9D103B030BD00002DE9F74FEE
:1005F000044600F1080AE846C14600260FE014F858
:1006000037101BF8010BFFF780FF01374540082F1B
:10061000EDB2F4D10136082E09F8015B05D00A4B82
:10062000002503EBC60B2F46E9E7002318F8012B42
:1006300004F833200133082BF8D101345445DAD1C2
:1006400003B0BDE8F08F00BF54290008F8B5124F81
:1006500004460E460025B54200DBF8BD2946384663
:1006600001F008FA29462046FFF77EFFFFF762FFF8
:100670002046FFF78DFF2046FFF75CFF2046FFF77F
:1006800099FF2046FFF756FF2046FFF7AFFF2046B1
:10069000FFF750FF0135DEE7AE29000810B5002353
:1006A00090B0044623F00702403203F007016A4489
:1006B0000A44591003F00100615C800001410133DC
:1006C00001F00F01402B02F8401CEBD10C216846D1
:1006D000FFF7BCFF20220021204601F01FF9002374
:1006E00023F00702403203F007016A440A4458101D
:1006F00012F8402C03F00101890002F00F028A4039
:10070000215C01330A43402B2254E9D110B010BDC3
:10071000014B18600020704774000020014B5860A6
:1007200000207047740000202DE97043002494B02D
:1007300005460E461C2221464FF000084FF00009E6
:100740000DA80C9401F0EAF8CDE90A8900F034FA1A
:100750000D4B1A6808925B680294CDE906432A465D
:100760000AA9CDE90489CDE900640CA8FFF757FE7A
:1007700000F029FA9DF828100CAA722000F0C0F8A9
:10078000204614B0BDE87083740000201FB5074BED
:1007900018601030002158606846CDE90011CDE99D
:1007A0000211FFF7C1FF05B05DF804FB74000020E3
:1007B00008B500F05FF900F09DF900F0D9F9682064
:1007C00000F022FA652000F01FFA6C2000F01CFAFD
:1007D0006C2000F019FA6F2000F016FA0A2000F0E1
:1007E00013FA00F077F80B4A10216B2000F06EF836
:1007F000094A10216E2000F069F8084A1021702083
:1008000000F064F8064A2021652000F05FF800F04F
:10081000D1F8FCE7110700081D07000829070008A8
:100820008D07000801207047F0B500254F1C854258
:1008300001DB002021E017F8154011F81530A4F174
:100840003006F6B2092E0CD81670A3F13004E6B2C9
:10085000092E15D8137843EA0413137001350132B9
:10086000E5E7A4F14106052E02D8373C1470ECE709
:10087000A4F16106052E01D90120F0BD573CF5E732
:10088000A3F14104052C02D8A3F13704E2E7A3F158
:100890006104052CF0D81478573B44EA0313DCE7D5
:1008A00070B5094E34680F2C0BDCBF2909D806EB54
:1008B0000415C5E90212013428712B74346000203C
:1008C00070BD0120FCE700BF7C0000200023FFF783
:1008D000E7BF000008B5074A00217620FFF7F6FFC2
:1008E000054A7720FFF7F2FFBDE80840034A792068
:1008F000FFF7ECBF2508000865090008410900085A
:10090000F8B514460E4600F07FF90C4F651EC4F191
:10091000010463199E4204DCBDE8F8400A2000F09F
:1009200073B915F8013F1B09F85C00F06DF92B78DD
:1009300003F00F03F85C00F067F9EAE79629000876
:1009400007B5074B0DF107021B688DF80730012131
:100950007220FFF7D5FF002003B05DF804FB00BF55
:100960007C00002070B5124C21688CB0CDB2002004
:10097000C3B2AB4200F1010009DB01EB41016A4661
:10098000C9B27220FFF7BCFF00200CB070BD03EBB2
:100990004302303204EB03136A441E7902F8306CD0
:1009A0009E681B7C02F82F6C02F82E3CE0E700BF2B
:1009B0007C0000202DE9F0412D4DADF5127D00F0B9
:1009C00009F92A46002352F8041B994240DC3BD027
:1009D00005EB03141E01237CDB0713D500238DF8E0
:1009E000083000F0F7F88DF8C80000F0F3F802AA1C
:1009F0008DF8C90032A90120FFF716FF20BB9DF832
:100A00000830A36032AF002405EB0608D8F80830A0
:100A1000B4EB430F22D300F0DDF80A2801D00D28F3
:100A200012D1354402AAAC6832A92046FFF7FCFE79
:100A300050B9E1B2EB6802A8984701AA8DF804000A
:100A400001217A20FFF75CFF0DF5127DBDE8F081F2
:100A50001C01A45C8442BBD00133B6E700F0BAF8B5
:100A60000A28F1D00D28EFD007F8010B0134CDE7AB
:100A70007C00002070B596B0002403264FF4A0231C
:100A80000CA80125CDE90C631094149400F0D4F85F
:100A90000F23214602A8CDE90235CDE9044406948E
:100AA00000F026FB114B5A6942F400225A615B693F
:100AB000CDE9094603F400230D4C0193019B07A9DE
:100AC0004FF4C0432046CDE9073500F0B7FB2A4676
:100AD00020464FF4005100F073FC2A464FF4804149
:100AE000204600F06DFC16B070BD00BF0010024043
:100AF0000008004810B54FF4C06288B00223CDE969
:100B0000032301210323CDE90513164C0723079383
:100B1000636943F400336361636903F40033019351
:100B200003A94FF09040019B00F088FB0E48DFF8CE
:100B30003CC04FF41643C0E900C30023C0E90233B0
:100B4000036183610C234361A36943F48043A36180
:100B5000A36903F480430293029B00F089FD08B06F
:100B600010BD00BF0010024080010020003801408D
:100B7000104B30B55A6942F400325A615B6987B054
:100B800003F400330093009B4FF480540123CDE91C
:100B900001430025032301A94FF09040CDE9035301
:100BA00000F04CFB2A4621464FF0904000F008FC34
:100BB00007B030BD0010024001224FF480514FF0C9
:100BC000904000F0FDBB00224FF480514FF0904068
:100BD00000F0F6BB37B50A4D0A4C41F288330122CA
:100BE0000DF10701284600F0C3FD18B99DF8070074
:100BF00003B030BD236A43F008032362EDE700BF72
:100C0000800100200038014007B541F288338DF89B
:100C1000070001220DF10701024800F053FD03B067
:100C20005DF804FB80010020024B1868421C1A602A
:100C3000704700BFF001002003682DE9F743D90792
:100C4000044611D423689A0700F1868023681E07A2
:100C500000F1F48023685D0700F13B81E269002A1E
:100C600040F0C281002021E0B6494B6803F00C033C
:100C7000042B07D04B6803F00C03082B19D14B68E9
:100C8000DB0316D54FF4003393FAA3F2096893FA05
:100C9000A3F3B3FA83F303F01F03012202FA03F371
:100CA0000B42CFD06368002BCCD1012003B0BDE84C
:100CB000F0836268B2F5803F24D10B6843F480333F
:100CC0000B60CB6AA06823F00F030343CB624AB3E7
:100CD000FFF7AAFF4FF400360546012796FAA6F360
:100CE0000A6896FAA6F3B3FA83F303F01F0307FA30
:100CF00003F31342A6D1FFF797FF431B642BEDD9F3
:100D00000320D3E70B6832B923F480330B600B6800
:100D100023F48023D4E7B2F5A02FF5D143F4802348
:100D20000B60CAE7FFF780FF4FF400360546012746
:100D300096FAA6F30A6896FAA6F3B3FA83F303F0D9
:100D40001F0307FA03F313423FF47CAFFFF76CFF76
:100D5000431B642BECD9D3E77A494B6813F00C0F93
:100D600007D04B6803F00C03082B21D14B68DF033D
:100D70001ED4022393FAA3F2086893FAA3F3B3FAFA
:100D800083F303F01F03012202FA03F3034202D0AC
:100D90002369934289D10868F82292FAA2F2636922
:100DA000B2FA82F2934020F0F80213430B604DE751
:100DB0002269012502B395FAA5F3B3FA83F303F18F
:100DC000845303F584139B0002271D60FFF72CFF5B
:100DD000064697FAA7F30A6897FAA7F3B3FA83F3DC
:100DE00003F01F0305FA03F31342D4D1FFF71CFFEE
:100DF000831B022BEDD983E795FAA5F3B3FA83F3AE
:100E000003F1845303F584139B0002271A60FFF754
:100E10000BFF064697FAA7F30A6897FAA7F3B3FA07
:100E200083F303F01F0305FA03F313423FF40EAFFD
:100E3000FFF7FAFE831B022BECD961E7A269414D53
:100E40004148012112B391FAA1F3B3FA83F30344A9
:100E50009B0002261960FFF7E7FE074696FAA6F305
:100E600096FAA6F396FAA6F36A6A96FAA6F3B3FA86
:100E700083F303F01F0301FA03F313427FF4EAAE96
:100E8000FFF7D2FEC31B022BE8D939E791FAA1F391
:100E9000B3FA83F303449B0002261A60FFF7C4FEF3
:100EA000074696FAA6F396FAA6F396FAA6F36A6AA6
:100EB00096FAA6F3B3FA83F303F01F0301FA03F3E0
:100EC00013423FF4C7AEFFF7AFFEC31B022BE8D9B6
:100ED00016E71C49CB69D8003AD4CB6943F080535C
:100EE000CB61CB6903F080530193019B0125174E21
:100EF0003368DA052ED5E368012B3BD10B6A43F04A
:100F000001030B62FFF790FE022607464FF001082F
:100F100041F2883996FAA6F396FAA6F30A6A96FA87
:100F2000A6F3B3FA83F303F01F0308FA03F31342A3
:100F300054D0002D3FF492AECB6923F08053CB61A7
:100F40008CE600BF0010024020819010007000402D
:100F50000025CCE7336843F480733360FFF764FE09
:100F600007463368DB05C6D4FFF75EFEC01B642866
:100F7000F7D9C5E623BB0B6A23F001030B620B6AAA
:100F800023F004030B62FFF74FFE022607464FF0E3
:100F9000010841F2883996FAA6F396FAA6F30A6A8E
:100FA00096FAA6F3B3FA83F303F01F0308FA03F3E8
:100FB0001342BED0FFF738FEC01B4845EBD99FE671
:100FC000052B0B6A03D143F004030B6296E723F071
:100FD00001030B620B6A23F0040392E7FFF724FE80
:100FE000C01B484596D98BE640494B6803F00C037B
:100FF000082B3FF45AAE022A4FF0807351D193FA76
:10100000A3F3B3FA83F303F1845303F584139B0032
:1010100000221A60FFF708FE4FF000770646012510
:1010200097FAA7F30A6897FAA7F3B3FA83F303F0E2
:101030001F0305FA03F313422DD1D4E908034A68CC
:10104000034322F4741213434B604FF0807393FAFE
:10105000A3F3B3FA83F303F1845303F584139B00E2
:1010600001261D60FFF7E0FD4FF00075044695FA7C
:10107000A5F30A6895FAA5F3B3FA83F303F01F0307
:1010800006FA03F313427FF4EDADFFF7CDFD001B2D
:101090000228ECD934E6FFF7C7FD831B022BBFD92A
:1010A0002EE693FAA3F3B3FA83F303F1845303F523
:1010B00084139B0000221A60FFF7B6FD4FF0007505
:1010C0000446012695FAA5F30A6895FAA5F3B3FA42
:1010D00083F303F01F0306FA03F313423FF4C2AD98
:1010E000FFF7A2FD001B0228ECD909E60010024020
:1010F000504AF8B5136803F007038B4204461BD32C
:101100002268900724D4D2072AD44A4A136803F0ED
:1011100007038B427AD82068430700F1828010F0E1
:10112000080014D0444A2169536823F4605343EA09
:10113000C103536000200AE0136823F007030B4348
:101140001360136803F007038B42D9D00120F8BD68
:101150003948A568436823F0F0032B434360D2E786
:101160006268354D012A27D14FF4003393FAA3F07A
:10117000286893FAA3F3B3FA83F303F01F0302FA88
:1011800003F30342E2D06B6823F0030313436B6065
:10119000FFF74AFD6368012B064641F288371ED1EE
:1011A0006B6803F00C03042BAFD0FFF73DFD801BF1
:1011B000B842F5D90320CAE7022A0CBF4FF00073EA
:1011C000022393FAA3F02E6893FAA3F3B3FA83F3FE
:1011D00003F01F03012000FA03F33342D2E7022B8E
:1011E0000FD16B6803F00C03082B8ED0FFF71CFDAA
:1011F000801BB842F5D9DDE7FFF716FD801BB8422A
:10120000D8D86B6813F00C0FF6D17EE7136823F083
:1012100007030B431360136803F007038B4295D158
:1012200079E70549E3684A6822F4E0621A434A60B4
:1012300075E700BF00200240001002402DE9F74F83
:10124000DFF870815C4C00234FF001090A6832FA24
:1012500003F502D103B0BDE8F08F09FA03FA1AEAE8
:10126000020200F09D804D6825F0100EBEF1020FC5
:1012700014D14FEAD30C00EB8C0C03F0070BDCF815
:1012800020604FEA8B0B0F2707FA0BF726EA0707B8
:101290000E6906FA0BF63E43CCF82060D0F800B099
:1012A0004FEA430C032606FA0CF72BEA070BFE4322
:1012B00005F0030707FA0CF70EF1FF3E47EA0B07AC
:1012C000BEF1010F076010D8876806EA070ECF68E5
:1012D00007FA0CF747EA0E078760476827EA0A0E05
:1012E0002F099F4047EA0E074760C76837408E685E
:1012F00006FA0CF63E43C660EE0051D5D8F81860E9
:1013000046F00106C8F81860D8F8186023F0030703
:1013100007F1804706F0010607F58037019603F0D4
:10132000030E019EBE684FEA8E0E4FF00F0C0CFAB2
:101330000EFCB0F1904F26EA0C0C33D01F4EB04299
:1013400032D006F58066B04230D006F58066B042F5
:101350002ED006F58066B0420CBF0426052606FA9C
:101360000EF646EA0C06BE602668D74315F4803FA9
:101370000CBF3E4016432660666815F4003F0CBF64
:101380003E4016436660A66815F4801F0CBF3E40C1
:101390001643A660E668AD0254BF3E401643E660C1
:1013A000013353E70026DAE70126D8E70226D6E71D
:1013B0000326D4E700100240000401400004004866
:1013C0000AB18161704781627047000002688168DC
:1013D000C36930B5056914682943456924F4164486
:1013E000294324F00C041943214311605168C46857
:1013F000056A21F44051214351609468816924F4C5
:10140000306429432143916062498A4216D101F533
:101410005841096B01F003010139022900F2B28041
:101420005D4CB3F5004F615C77D1082972D8DFE8D5
:1014300001F0ACAC2471AC717171A40057498A42BF
:101440002CD101F5E631096B01F44031B1F5003FD3
:1014500000F090800BD8002900F09480B1F5803F17
:1014600000F09080B3F5004F54D0012015E0B1F5A5
:10147000403FF7D1B3F5004F66D141684B0803F107
:10148000F47303F59043B3FBF1F300209BB223F018
:101490000F01C3F342030B43D36030BD40498A427E
:1014A00010D101F5E431096B01F44021B1F5002FB1
:1014B00060D004D8002965D0B1F5802FD0E7B1F510
:1014C000402FD6E737498A4210D101F5E231096B46
:1014D00001F44011B1F5001F4CD004D8002951D0BF
:1014E000B1F5801FBCE7B1F5401FC2E72E498A4223
:1014F000B8D101F5E031096B01F44001B1F5000FFD
:1015000038D004D800293DD0B1F5800FA8E7B1F557
:10151000400FAEE701200023B9E70829A5D801A3B1
:1015200053F821F0611500086115000849150008FD
:101530006B140008611500086B1400086B14000898
:101540006B1400086B15000841684B0803F5740321
:1015500003F51053B3FBF1F39BB2D36000209CE77B
:1015600041684B0803F5E103F4E741684B0803F5D4
:101570000043EFE7B3F5004FF7D141684B0803F59F
:10158000803380E7B3F5004FEAD141684B0803F59B
:10159000610378E700380140A629000800440040B4
:1015A00000480040004C0040005000402DE9F04150
:1015B000DDF81880044616461F462568EB6931EAB7
:1015C00003030CBF01230023B34201D0002016E027
:1015D000B8F1FF3FF2D0B8F1000F12D12B6823F41D
:1015E000D0732B60AB6823F00103AB60202384F839
:1015F000693084F86A30002384F868300320BDE83D
:10160000F081FFF711FBC01B4045D6D9E6E773B563
:1016100004460021C166FFF707FB266833681A07F6
:10162000054616D433685B070AD56FF07E430093F6
:1016300000222B464FF480012046FFF7B7FFA0B9E8
:101640002023002084F8693084F8680084F86A3028
:101650000CE06FF07E4300930A4603464FF40011FE
:101660002046FFF7A3FF0028DCD0032002B070BDA6
:1016700038B5044620B390F8693003F0FF020BB987
:1016800080F868202568242384F869302B6823F0CB
:1016900001032B602046FFF799FE012810D06B68EC
:1016A00023F490436B60AB6823F02A03AB602B6894
:1016B00043F001032B602046BDE83840FFF7A7BF89
:1016C000012038BDF7B51E4690F86930202B0D4635
:1016D000044611464AD1002D46D0002A44D090F845
:1016E0006830012B42D0012380F868300023C366A4
:1016F000212380F86930FFF797FAA4F850100746C5
:10170000A4F85210B4F8522092B262B900963B4647
:1017100040212046FFF74AFF98B9202384F869301A
:1017200084F868000EE0B4F852200096013A92B2B4
:10173000A4F852203B46002280212046FFF736FFC6
:1017400010B1032003B0F0BDA3682268B3F5805F39
:1017500007D123692BB935F8023BC3F3080313857E
:10176000D0E715F8013BFAE70120EBE70220E9E7B3
:101770002DE9F3411E4690F86A30202B0D460446B1
:1017800011465CD1002D58D0002A56D090F8683010
:10179000012B54D0012380F8683003684FF0FF32EA
:1017A0001A620023C366222380F86A30FFF73CFAEE
:1017B000A368A4F85810B3F5805F8046A4F85A10C7
:1017C00015D123698BB940F2FF13A4F85C30B4F84B
:1017D0005C70B4F85A0080B280B9202384F86A3073
:1017E00084F8680002B0BDE8F081FF23EDE7002B2C
:1017F000EDD12369002BF8D07F23E6E7B4F85A2017
:101800000096013A92B2A4F85A20434600222021C1
:101810002046FFF7CBFEA0B9A2682368B2F5805F2F
:1018200006D1226922B99B8C3B4025F8023BD0E7C8
:101830009B8C3B4005F8013BCBE70120D2E702201F
:10184000D0E70320CEE700000A4A116808B5034636
:1018500009B9094911601068694603448B4206D9E9
:1018600000F032F80C2303604FF0FF3008BD136026
:10187000FCE700BFF801002028020020002103E05F
:101880000B4B5B58435004310A480B4B42189A42A9
:10189000F6D30A4A02E0002313600432084B9A424E
:1018A000F9D3AFF3008000F015F8FEF781FFFEE7F3
:1018B000602A00080000002074000020740000204E
:1018C00028020020FEE70000014B1868704700BFA7
:1018D0001000002070B50D4D0D4C641BA4100026A7
:1018E000A64209D10B4D0C4C00F0F8FF641BA4106C
:1018F0000026A64205D170BD55F8043B9847013635
:10190000EEE755F8043B98470136F2E7582A0008FD
:10191000582A0008582A00085C2A00080244034696
:10192000934200D1704703F8011BF9E738B505462B
:10193000002941D051F8043C0C1F002BB8BFE4181B
:1019400000F0F8FB1D4A136833B963601460284641
:10195000BDE8384000F0F4BBA34208D92068211844
:101960008B4201BF19685B6809182160EDE71A46D0
:101970005B680BB1A342FAD911685018A0420BD191
:1019800020680144501883421160E0D118685B68F8
:10199000536001441160DAE702D90C232B60D6E7CB
:1019A000206821188B4204BF19685B68636004BF1C
:1019B000091821605460CAE738BD00BF1802002032
:1019C000F8B5CD1C25F0030508350C2D38BF0C25C6
:1019D000002D064601DBA94203D90C233360002009
:1019E000F8BD00F0A7FB21490A6814469CB9204FB6
:1019F0003B6823B92146304600F0B0F838602946EC
:101A0000304600F0ABF8431C23D10C233360304642
:101A100000F096FBE3E723685B1B17D40B2B03D97D
:101A200023601C44256004E06368A2420CBF0B6085
:101A30005360304600F084FB04F10B00231D20F0BE
:101A40000700C21ACCD01B1AA350C9E7224664680B
:101A5000CCE7C41C24F00304A042E3D0211A304692
:101A600000F07CF80130DDD1CFE700BF1802002084
:101A70001C0200200FB40A4B13B51C6824B1A369E3
:101A800013B9204600F050FA05AB049AA1680193FF
:101A9000204600F083FB02B0BDE8104004B0704760
:101AA0001000002038B5084B1C68054624B1A36916
:101AB00013B9204600F038FAA26829462046BDE84E
:101AC000384000F003B800BF1000002070B50D468C
:101AD0001446064618B183690BB900F025FA1C4B71
:101AE0009C4224D17468636ED80705D4A3899905F4
:101AF00002D4A06D00F0B6FAA368013B002BA360EE
:101B000005DAA26993421CDBEBB20A2B19D02368D9
:101B10005A1C22601D70EDB2636EDA0705D4A389EA
:101B20009B0502D4A06D00F09EFA284670BD094BBB
:101B30009C4201D1B468D6E7074B9C4208BFF468C9
:101B4000D1E729462246304600F018F80546E3E77B
:101B5000E4290008042A0008C429000838B5064D05
:101B60000023044608462B60FFF76EFE431C02D19B
:101B70002B6803B1236038BD24020020F8B50E465F
:101B80001446054618B183690BB900F0CDF9214B15
:101B90009C422BD16C68A369A360A3891A072FD537
:101BA00023696BB323692068C01A6369F6B2834264
:101BB000374604DC2146284600F022F930BBA368F2
:101BC000013BA36023685A1C22601E7063690130C8
:101BD000834204D0A389DB0706D50A2E04D121460F
:101BE000284600F00DF988B93846F8BD0A4B9C42EA
:101BF00001D1AC68CFE7094B9C4208BFEC68CAE74B
:101C00002146284600F00CF80028CBD04FF0FF37D3
:101C1000EAE700BFE4290008042A0008C4290008F4
:101C2000324B70B51D6806460C4625B1AB6913B939
:101C3000284600F079F92E4B9C420FD16C68A3899D
:101C4000B4F90C2019072CD4DD0611D40923336014
:101C500042F04003A3814FF0FF303EE0254B9C4211
:101C600001D1AC68EBE7244B9C4208BFEC68E6E787
:101C7000580712D5616B41B104F14403994202D077
:101C80003046FFF753FE00236363A38923F0240348
:101C9000A3810023636023692360A38943F00803C1
:101CA000A38123694BB9A38903F42073B3F5007FA3
:101CB00003D02146304600F0FDF9A089B4F90C208C
:101CC00010F001030AD00023A36063695B42A361A3
:101CD000236943B910F08000BAD170BD810758BFA5
:101CE0006369A360F4E70020F7E700BF100000205D
:101CF000E4290008042A0008C42900088A89F8B5E4
:101D0000054610070C4657D44B68002B04DC0B6CBF
:101D1000002B01DC0020F8BDE66A002EFAD000237B
:101D200012F480522F682B6032D0606DA3895A075D
:101D300005D56368C01A636B0BB1236CC01A00230E
:101D40000246E66A216A2846B047431CA38906D1A9
:101D500029681D292CD8294ACA40D60728D500222F
:101D60006260D9042269226004D5421C01D12B682B
:101D700003B96065616B2F600029CBD004F1440387
:101D8000994202D02846FFF7D1FD00206063C2E7E8
:101D9000216A01232846B047411CC7D12B68002B7C
:101DA000C4D01D2B01D0162B01D12F60B2E7A3891F
:101DB00043F04003A381AEE70F69002FAAD0930739
:101DC0000E6808BF4B690F6018BF0023F61B8B60BD
:101DD000002E9FDD216AD4F828C033463A462846B3
:101DE000E047002806DCA38943F04003A3814FF0BD
:101DF000FF3090E70744361AEAE700BF01004020B1
:101E000038B50B6905460C4613B90025284638BD80
:101E100018B183690BB900F087F8144B9C421BD1B1
:101E20006C68B4F90C30002BEFD0626ED00704D48C
:101E3000990502D4A06D00F015F928462146FFF758
:101E40005DFF636EDA070546E0D4A3899B05DDD408
:101E5000A06D00F008F9D9E7054B9C4201D1AC68B0
:101E6000DFE7044B9C4208BFEC68DAE7E42900088E
:101E7000042A0008C4290008002310B50446C0E95C
:101E80000033C0E90433836081814366C28183618A
:101E9000194608225C30FFF741FD054B6362054B94
:101EA000A362054BE362054B2462236310BD00BFB0
:101EB000FD2300081F240008572400087B24000885
:101EC000014900F0AFB800BF011E000870B56822DC
:101ED0004D1E55430E4605F17401FFF771FD044692
:101EE00040B10021C0E900160C30A06005F1680285
:101EF000FFF714FD204670BD014800F0B3B800BFE5
:101F000021020020014800F0AEB800BF21020020ED
:101F1000014800F0A7B800BF22020020014800F0ED
:101F2000A2B800BF2202002010B50446FFF7F0FF60
:101F3000A3691BB1BDE81040FFF7F0BFC4E912333D
:101F40002365134B134A1B68A262A34204BF0123FB
:101F5000A361204600F020F86060204600F01CF8E5
:101F6000A060204600F018F80022E06004216068BC
:101F7000FFF782FFA06801220921FFF77DFFE068DB
:101F800002221221FFF778FF0123A361D2E700BFED
:101F9000C0290008C11E0008F8B50746FFF7ACFFCE
:101FA0001E4B1E68B36913B93046FFF7BDFF4836B4
:101FB000D6E90134013B03D533680BB33668F7E744
:101FC000B4F90C50D5B9164BE36004F158006566BE
:101FD00000F047F8FFF796FFC4E90155C4E904553E
:101FE0002560A5610822294604F15C00FFF796FCF4
:101FF000C4E90D55C4E912552046F8BD6834D9E747
:1020000004213846FFF762FF044630600028D5D12E
:10201000FFF778FF0C233B60EEE700BFC029000804
:102020000100FFFF2DE9F8430646884600F1480409
:102030000027D4E90195B9F1010905D52468002CE0
:10204000F7D13846BDE8F883AB89012B07D9B5F93C
:102050000E30013303D029463046C0470743683568
:10206000E9E770477047704770B50E46B1F90E103A
:10207000002996B014461D4608DAB6F90C30002245
:102080002A601A0610D44FF480630EE06A4600F00E
:102090001BFA0028F1DB019A02F47042A2F500530A
:1020A0005A425A412A60EEE740230020236016B0CE
:1020B00070BD00008B8973B59D0706460C4607D599
:1020C00004F14703236023610123636102B070BD03
:1020D00001AB6A46FFF7C8FF009905463046FFF797
:1020E0006FFC48B9B4F90C309A05EFD423F0030320
:1020F00043F00203A381E3E70D4BB362A3892060A1
:1021000043F08003A381009B6361019B20615BB16D
:10211000B4F90E10304600F0E9F928B1A38923F094
:10212000030343F00103A381A0890543A581CDE703
:10213000C11E00080148FFF795BF00BF2002002024
:102140000148FFF790BF00BF200200209368013BC9
:10215000002B10B4936007DA9469A34201DB0A29CB
:1021600002D110BCFFF70ABD1368581C106019702B
:10217000084610BC7047F8B506460F461446D518F9
:10218000AC4201D1002007E014F8011B3A4630466A
:10219000FFF7DCFF431CF3D1F8BD00002DE9F04F41
:1021A0000D469DB014469846064618B183690BB992
:1021B000FFF7BAFE894B9D421BD175686B6ED9073C
:1021C00005D4AB899A0502D4A86DFFF74BFFAB8904
:1021D0001B0701D52B69EBB929463046FFF720FDD7
:1021E000C0B16B6EDC070ED54FF0FF301DB0BDE8FF
:1021F000F08F7B4B9D4201D1B568DFE7794B9D4263
:1022000008BFF568DAE7AB899805EDD4A86DFFF74C
:102210002AFFE9E70023099320238DF82930CDF820
:102220000C803023DFF8C0818DF82A304FF001098F
:1022300023469A4613F8012B0AB1252AF9D1BAEBA5
:10224000040B0BD05B46224629463046FFF793FF2E
:10225000013000F0AA80099A5A4409929AF8003095
:10226000002B00F0A28000234FF0FF32CDE90523C0
:102270000AF1010A049307938DF853301A935446D8
:10228000052214F8011B5848FDF782FF049AD8B9BB
:10229000D10644BF20238DF85330130744BF2B23AE
:1022A0008DF853309AF800302A2B15D0079A5446EF
:1022B00000204FF00A0C214611F8013B303B092B5E
:1022C0004ED9B0B1079214E0A0EB080309FA03F36A
:1022D00013430493A246D2E7039B191D1B68039185
:1022E000002BBBBF5B4242F0020207930793B8BFCB
:1022F000049223782E2B0CD163782A2B35D1039BA3
:102300001A1D1B680392002BB8BF4FF0FF33023435
:102310000593DFF8D8A0217803225046FDF738FF57
:1023200040B14023A0EB0A0003FA00F0049B0343F2
:102330000134049314F8011B2D488DF8281006224F
:10234000FDF726FF00283FD02A4B1BBB039B07331A
:1023500023F0070308330393099B3B44099367E782
:102360000CFB02320C460120A5E700230134059343
:1023700019464FF00A0C204610F8012B303A092A72
:1023800003D9002BC5D00591C3E70CFB01210446FE
:102390000123F0E703AB00932A46174B04A930460C
:1023A000AFF300800746781CD6D16B6ED90705D4F1
:1023B000AB899A0502D4A86DFFF755FEAB895B0681
:1023C0003FF512AF099811E703AB00932A460A4B79
:1023D00004A9304600F01AF9E4E700BFE429000838
:1023E000042A0008C4290008242A00082A2A000810
:1023F0002E2A0008000000007721000810B50C46C6
:10240000B1F90E1000F028FA0028ABBF636DA38964
:102410001B1823F48053ACBF6365A38110BD2DE965
:10242000F0411F468B89DB0505460C46164605D54F
:10243000B1F90E100223002200F068F8A389B4F964
:102440000E1023F48053A38132463B462846BDE854
:10245000F04100F017B810B50C46B1F90E1000F0BD
:1024600055F8431CA38915BF606523F4805343F4DA
:102470008053A38118BFA38110BDB1F90E1000F0E5
:1024800013B8000038B5074D04460846114600222F
:102490002A601A4600F01AFA431C02D12B6803B1D5
:1024A000236038BD2402002038B5064D00230446C1
:1024B00008462B6000F0E2F9431C02D12B6803B1FF
:1024C000236038BD2402002038B5074D00230446A0
:1024D000084611462B6000F0D9F9431C02D12B6845
:1024E00003B1236038BD00BF2402002038B5064D7B
:1024F0000023044608462B6000F0D0F9431C02D1AB
:102500002B6803B1236038BD2402002038B5074D85
:1025100004460846114600222A601A4600F0C6F911
:10252000431C02D12B6803B1236038BD2402002074
:102530002DE9F047164699468A680B69DDF8208038
:102540009342B8BF1346336091F8432007460C46C8
:102550000AB1013333602368990642BF33680233FE
:102560003360256815F0060506D104F1190AE36801
:1025700032689B1AAB4226DC94F84320131E226873
:1025800018BF012392062BD404F143024946384672
:10259000C04701301ED02368E568326803F00603A7
:1025A000042B08BFAD1AA36822690CBF25EAE575A4
:1025B00000259342C4BF9B1AED1800261A34B54279
:1025C0001AD1002008E00123524649463846C04748
:1025D000013003D14FF0FF30BDE8F0870135C6E789
:1025E000E1185A1C302081F84300224494F8451029
:1025F00082F843100233C7E7012322464946384692
:10260000C0470130E6D00136D9E700002DE9FF4789
:102610000F7E0C9D782F914680460C469A4601F11C
:10262000430207D8622F0AD8002F00F0D880582F15
:1026300000F0A38004F1420584F842703AE0A7F16B
:102640006303152BF6D801A151F823F0A526000845
:10265000B92600083526000835260008352600086A
:1026600035260008B926000835260008352600085A
:102670003526000835260008C5270008E926000889
:10268000A72700083526000835260008E727000898
:1026900035260008E92600083526000835260008FA
:1026A000AF2700082B681A1D1B682A6004F1420539
:1026B00084F842300123A3E020682968060601F16E
:1026C00004030AD50E682B60002E03DA2D23764210
:1026D00084F843305E480A2319E00E682B6010F03E
:1026E000400F18BF36B2EFE72B682068191D29602C
:1026F000010601D51E6802E04606FBD51E88544837
:102700006F2F0CBF08230A23002184F8431065684B
:10271000A560002DA2BF216821F0040121600EB93F
:10272000002D4DD01546B6FBF3F103FB1167C75DD5
:1027300005F8017D3746BB420E46F4D9082B0BD174
:102740002368DE0708D5236961689942DEBF30231C
:1027500005F8013C05F1FF35521B2261CDF800A0C0
:102760004B4603AA21464046FFF7E2FE01304CD11A
:102770004FF0FF3004B0BDE8F087354881F8457070
:102780002968236851F8046B29601D0614D5DF07FA
:1027900044BF43F0200323601EB9236823F02003C5
:1027A00023601023B0E7236843F0200323607823DD
:1027B000284884F84530E3E7590648BFB6B2E6E753
:1027C0001546BBE72B6826686169181D2860350629
:1027D0001B6801D5196002E07006FBD51980002343
:1027E00023611546BAE72B681A1D2A601D686268C6
:1027F00000212846FDF7CCFC08B1401B60606368EF
:102800002361002384F84330A8E723692A46494618
:102810004046D0470130ABD023689B0713D4E06813
:10282000039B9842B8BF1846A4E7012332464946A5
:102830004046D04701309BD00135E36803995B1ACD
:10284000AB42F2DCEBE7002504F11906F5E700BF27
:10285000352A0008462A000838B5074D04460846C0
:10286000114600222A601A4600F028F8431C02D1C3
:102870002B6803B1236038BD24020020024B58228C
:102880001A604FF0FF30704724020020024B58229C
:102890001A604FF0FF30704724020020024B58228C
:1028A0001A600020704700BF24020020024B58220B
:1028B0001A604FF0FF30704724020020024B58226C
:1028C0001A604FF0FF30704724020020024B58225C
:1028D0001A604FF0FF30704724020020F8B500BFA7
:1028E000F8BC08BC9E467047F8B500BFF8BC08BCF1
:0428F0009E46704749
:1028F4000103070E0D0B060C0902050A0002060F60
:102904000C0A070D0803040B0200040D0E08050F42
:102914000A010609060400090A0C010B0E05020D42
:102924000E0C080102040903060D0A050F0D090027
:1029340003050802070C0B040D0F0B0201070A0024
:10294400050E0906090B0F0605030E04010A0D0204
:102954000204020B020805060C09080D070705020C
:1029640004040D0D09040D09010605010C0D0F0EDB
:102974000F0C090D0E050E0D090E050F040C0906AA
:102984000C02020A0301010E0F010D0A050A0203DB
:102994000F0330313233343536373839414243440A
:1029A400454604080225325820002D2D2D20526F53
:1029B400756E64202564202D2D2D0A00140000203E
:1029C4000000000000000000000000000000000003
:1029D40000000000000000000000000000000000F3
:1029E40000000000000000000000000000000000E3
:1029F40000000000000000000000000000000000D3
:102A040000000000000000000000000000000000C2
:102A140000000000000000000000000000000000B2
:102A2400232D302B2000686C4C00656667454647B3
:102A34000030313233343536373839414243444536
:102A440046003031323334353637383961626364A5
:042A540065660000B3
:042A5800550200081B
:042A5C00310200083B
:102A60000C05060B09000A0D030E0F0804070102EE
:102A70001400002000000000E4290008042A0008D7
:102A8000C429000800000000000000000000000051
:102A90000000000000000000000000000000000036
:102AA0000000000000000000000000000000000026
:102AB0000000000000000000000000000000000016
:102AC0000000000000000000000000000000000006
:042AD0000000000002
:040000050800187D5A
:00000001FF
