:020000040800F2
:1000000000300020ED7700083578000835780008CA
:1000100035780008357800083578000800000000C1
:10002000000000000000000000000000357800081B
:1000300035780008000000003578000835780008A1
:1000400000000000000000000000000000000000B0
:1000500000000000000000000000000000000000A0
:100060000000000000000000000000000000000090
:100070000000000000000000000000000000000080
:100080000000000000000000000000000000000070
:100090000000000000000000000000000000000060
:1000A0000000000000000000000000000000000050
:1000B0000000000000000000000000000000000040
:1000C0000000000000000000000000000000000030
:1000D0000000000000000000000000000000000020
:1000E0000000000000000000000000000000000010
:1000F0000000000000000000000000000000000000
:1001000000000000000000000000000000000000EF
:1001100000000000000000000000000000000000DF
:1001200000000000000000000000000000000000CF
:1001300000000000000000000000000000000000BF
:1001400000000000000000000000000000000000AF
:10015000000000000000000000000000000000009F
:10016000000000000000000000000000000000008F
:10017000000000000000000000000000000000007F
:08018000000000000000000077
:1001880010B5054C237833B9044B13B10448AFF3C9
:1001980000800123237010BDC80500200000000066
:1001A8009078000808B5034B1BB103490348AFF327
:1001B800008008BD00000000CC05002090780008F1
:1001C800D0E90223F0B5D0E9004650084FEA540CB4
:1001D80000F07F350CF07F3C04F080307708E401B4
:1001E8004CEA000C04F0803406F0803007F07F37CA
:1001F8008CEA040C47EA0004F00100F0803060400B
:10020800486002F08030D2014FEA530E02F080328B
:10021800284350400EF07F3E03F08032DB014EEA67
:10022800020203F080335340C1F800C08860CB60FD
:10023800F0BD00BF2DE9F04F87B08446109CD4E98B
:1002480000764FEA570B07F080390BF07F3BFF0130
:10025800D4E902854BEA090B4FEA560A07F08039C0
:100268008BEA09070AF07F3A06F080394AEA090A58
:100278004FEAC6194FEA580009F080398AEA090698
:1002880000F07F3008F080394FEAC8188E4640EAFF
:100298000900690808F0803880EA080001F07F3119
:1002A80005F08038ED0141EA080105F0803581EA62
:1002B8000508DEF80010DCF80050C1E90076C1E955
:1002C80002082E682068DDF858809DF84870704054
:1002D80020606E68606870406060AE68A0687040BA
:1002E800A060EE68E0687040E0602E6820460C6808
:1002F80074400C60DDE9149A4C686E6874404C6078
:10030800AE688C6874408C60ED68CC686C40CC60DA
:10031800119C00941031CEF80010D3E90045DCF8A8
:1003280000101031CCF8001015F4000118BF952109
:1003380081EA4401E40F44EA45045C6019605168AD
:10034800039191680491D1681268DF710591029256
:1003580041461A46D8F8C04202ABA047B9F110008E
:100368006AF1000107B0BDE8F08F00BF2DE9F04F3A
:100378008BB08446189D14980C689046002D1A4638
:100388009DF8583003938E46DCF8003000F35C810A
:1003980000238DF8183000238DF8193000238DF8CC
:1003A8001A3000238DF81B3000238DF81C300023F1
:1003B8008DF81D3000238DF81E3000238DF81F3076
:1003C80000238DF8203000238DF8213000238DF88C
:1003D800223000238DF8233000238DF824300023A9
:1003E8008DF8253000238DF8263005F00F038DF8A1
:1003F8002730D0E90263D0E900174FEA560909F01F
:100408007F39CDF810904FEA53094FEA510B09F0A4
:100418007F39CDF814900BF07F3B01F08039C9018A
:100428004BEA090901F080314FEA570A89EA0101CC
:1004380021600AF07F3A07F08031FF0107F080372A
:100448004AEA01017940049F616006F08031F601B3
:10045800394306F080367140059EA16003F0803173
:10046800DB01314303F080334B40E360D0E90036D1
:10047800069987684B400360079BC1685E40089BEC
:1004880046605F40099B87604B40002DC36040F386
:1004980039819DF81830217859402346012D03F8F9
:1004A800011B40F333819DF819306178022D83EAEE
:1004B8000103637004F1020340F32B81A3789DF8D4
:1004C8001A10032D83EA0103A37004F1030340F318
:1004D8002381E3789DF81B10042D83EA0103E37060
:1004E80004F1040340F31B8123799DF81C10052DAA
:1004F80083EA0103237104F1050340F3138163794F
:100508009DF81D10062D83EA0103637104F10603AB
:1005180040F30B81A3799DF81E10072D83EA010390
:10052800A37104F1070340F30381E3799DF81F10D9
:10053800082D83EA0103E37104F1080340F3FC800A
:10054800237A9DF82010092D83EA0103237204F110
:10055800090340F3F580637A9DF821100A2D83EA98
:100568000103637204F10A0340F3EE80A37A9DF855
:1005780022100B2D83EA0103A37204F10B0340F34D
:10058800E780E37A9DF823100C2D83EA0103E372D8
:1005980004F10C0340F3E080237B9DF824100D2D1B
:1005A80083EA0103237304F10D0340F3D980637BCD
:1005B8009DF825100E2D83EA0103637304F10E06DE
:1005C80040F3D280A37B9DF826104B40A3730F2DD8
:1005D800C8BF9DF8273004F10F01CABFE47B002390
:1005E80063400B70159B0093DEF800302B44CEF867
:1005F8000030D2E90014DCF800302B44CCF800308D
:1006080014F4000318BF952383EA4103C90F41EA94
:10061800440151601360D8F804300793D8F80830C3
:100628000893D8F80C300993D8F800300693039B48
:10063800D3711A9B1A99D3F8C04206ABA047002081
:1006480000210BB0BDE8F08F19788DF81810012D36
:100658003FF4A1AE59788DF81910022D3FF49EAEE3
:1006680099788DF81A10032D3FF49BAED9788DF840
:100678001B10042D3FF498AE19798DF81C10052D28
:100688003FF495AE59798DF81D10062D3FF492AEC2
:1006980099798DF81E10072D3FF48FAED9798DF812
:1006A8001F10082D3FF48CAE197A8DF82010092DF3
:1006B8003FF489AE597A8DF821100A2D3FF486AEA1
:1006C800997A8DF822100B2D3FF483AED97A8DF8E4
:1006D80023100C2D3FF480AE197B8DF824100D2DBE
:1006E8003FF47DAE597B8DF825100E2D3FF47AAE80
:1006F800997B8DF826100F2D3FF477AEDB7B8DF8B4
:10070800273076E62346002103F8011B00211970E3
:10071800A31C00211970E31C00211970231D00215E
:100728001970631D00211970A31D00211970E31DA4
:100738000021197004F108030021197004F109035C
:100748000021197004F10A030021197004F10B0348
:100758000021197004F10C030021197004F10D0334
:100768000021197004F10E06002304F10F01337003
:1007780037E700BF2DE9F04F8DB094461A46DDE902
:100788001A438846102C9DF86010049173F10001FB
:100798008646169857D3B4F1100143F1FF330793F7
:1007A800D8F80030069119788DF8201059788DF80E
:1007B80021101024DEF8001003949D788DF8225043
:1007C800032C52D0DD788DF82350042C50D01D799D
:1007D8008DF82450052C4ED05D798DF82550062CC7
:1007E8004CD09D798DF82650072C4AD0DD798DF8AC
:1007F8002750082C48D01D7A8DF82850092C46D04F
:100808005D7A8DF829500A2C44D09D7A8DF82A50AB
:100818000B2C42D0DD7A8DF82B500C2C40D01D7B50
:100828008DF82C500D2C3ED05D7B8DF82D500E2C64
:100838003CD09D7B8DF82E50102C40F06782DB7BDE
:100848008DF82F3037E0DEF80010D8F80030039428
:10085800002C40F04B828DF8204000238DF8213089
:100868000023CDE906338DF8223000238DF823309C
:1008780000238DF8243000238DF8253000238DF8CF
:10088800263000238DF8273000238DF828300023E8
:100898008DF8293000238DF82A3000238DF82B306D
:1008A80000238DF82C3000238DF82D3000238DF88F
:1008B8002E308DF82F40D0E9026ACDF808A04FEA13
:1008C800560AD0E900570AF07F33DDF808A04FEA4E
:1008D8005A0A4FEA550B0AF07F3ACDF814A00BF0EC
:1008E8007F3B05F0803AED014FEA57094BEA0A0AC7
:1008F80005F080358AEA050509F07F3907F0803A66
:10090800FF0149EA0A0A07F080378AEA07074F60B9
:1009180006F08037F6011F4306F0803677408F6077
:10092800029F059B0D6007F080361E43FB0103F014
:1009380080335E40CE6006789DF82030002C40F071
:10094800CF8073400D46064606F8013B05F8014B7B
:1009580047789DF821307B40337000232B708578D1
:100968009DF82230871C8E1C6B403B70002333702F
:10097800C5789DF82330C71CCE1C6B403B70002304
:10098800337005799DF82430071D0E1D6B403B70B0
:100998000023337045799DF82530471D4E1D6B4067
:1009A8003B700023337085799DF82630871D8E1D96
:1009B8006B403B7000233370C5799DF82730C71D05
:1009C800CE1D6B403B7000233370057A9DF82830AC
:1009D80000F1080701F108066B403B7000233370F3
:1009E800457A9DF8293000F1090701F109066B40A5
:1009F8003B7000233370857A9DF82A3000F10A078E
:100A080001F10A066B403B7000233370C57A9DF8EC
:100A18002B3000F10B0701F10B066B403B700023F4
:100A28003370057B9DF82C3000F10C0701F10C06A2
:100A38006B403B7000233370457B9DF82D3000F1EF
:100A48000D0701F10D066B403B7000233370857B69
:100A58009DF82E3000F10E0601F10E076B40337041
:100A680000233B70C37B9DF82F5001F10F0600F166
:100A78000F076B403B700025179B35700093D8F823
:100A88000030039D2B44C8F80030D2E90014DEF88A
:100A980000302B44CEF8003014F4000318BF95231F
:100AA80083EA4103C90F41EA440151601360DCF84D
:100AB80004300993DCF808300A93DCF80C300B9307
:100AC800DCF80030049908931C9BD171D3F8C0421C
:100AD800194608ABA047DDE906010DB0BDE8F08F67
:100AE8005E4075400646012C06F8015B0F780D46FE
:100AF80083EA070305F8013B47789DF821303FF466
:100B08002AAF4D785F407D4045704D786B404B7003
:100B1800022C85789DF8223000F1020701F10206C7
:100B28003FF422AF8E785D406E4086708D786B40C2
:100B38008B70032CC5789DF8233000F1030701F171
:100B480003063FF41AAFCE785D406E40C670CD788C
:100B58006B40CB70042C05799DF8243000F1040714
:100B680001F104063FF412AF0E795D406E40067144
:100B78000D796B400B71052C45799DF8253000F1F6
:100B8800050701F105063FF40AAF4E795D406E4056
:100B980046714D796B404B71062C85799DF826304E
:100BA80000F1060701F106063FF402AF8E795D40B9
:100BB8006E4086718D796B408B71072CC5799DF8D5
:100BC800273000F1070701F107063FF4FAAECE79A6
:100BD8005D406E40C671CD796B40CB71082C057AAB
:100BE8009DF8283000F1080701F108063FF4F4AE3B
:100BF8000E7A5D406E4006720D7A6B400B72092CBE
:100C0800457A9DF8293000F1090701F109063FF4FA
:100C1800EEAE4E7A5D406E4046724D7A6B404B7236
:100C28000A2C857A9DF82A3000F10A0701F10A0694
:100C38003FF4E8AE8E7A5D406E4086728D7A6B40E6
:100C48008B720B2CC57A9DF82B3000F10B0701F144
:100C58000B063FF4E2AECE7A5D406E40C672CD7AA6
:100C68006B40CB720C2C057B9DF82C3000F10C07E7
:100C780001F10C063FF4DCAE0E7B5D407540057358
:100C88000D7B6B400B730D2C457B9DF82D3000F1CF
:100C98000D0701F10D063FF4D6AE4E7B5D40754061
:100CA80045734D7B6B404B730E2C857B9DF82E3026
:100CB80000F10E0601F10E073FF4D0AE8E7B5D40C9
:100CC800754085738D7B6B408B73102CC37B9DF8AF
:100CD8002F5000F10F0701F10F067FF4CAAECC7B4D
:100CE8006B406340C373CB7B5D40C5E61D788DF8D0
:100CF8002050012C3FF4B1AD5D788DF82150022CC5
:100D08003FF4AEAD0025CDE9065556E50F24D0E5F4
:100D180084462DE9F041DCF8003008461C68096873
:100D2800614001605C684168614041609C6881681D
:100D38006140816086B0DC68C16861400E9CC1601A
:100D4800D4E9007818F4000E18BF4FF0950E8EEA1B
:100D5800470EFF0F47EA4807C4F800E067601F69BD
:100D680002975F6903979F690497203353F8047CBF
:100D78001099CCF800309DF83C300597DDE90C65FA
:100D8800E3710092D1F8C07202AB2246B847D4E9A9
:100D9800003111F4000218BF952282EA4302B6F12D
:100DA80020004FEAD37343EA410365F10001226052
:100DB800636006B0BDE8F0818446F0B5DCF8005009
:100DC80008462E680968714001606E684168714084
:100DD8004160AE68816871408160EE68C16887B023
:100DE80071400E9CC160D4E900170C9B103B17F4AE
:100DF800000E18BF4FF0950E8EEA4106C90F41EA62
:100E08004701002B05F11007CCF80070C4E9006118
:100E18009DF83C6010994BDC00258DF808500025A2
:100E28008DF8095000258DF80A5000258DF80B50D3
:100E380000258DF80C5000258DF80D5000258DF8F3
:100E48000E5000258DF80F5000258DF81050002504
:100E58008DF8115000258DF8125000258DF813508B
:100E680000258DF8145000258DF8155000258DF8B3
:100E7800165003F00F058DF817501F44CCF800707A
:100E8800E671D1F8C052009202AB2246A847D4E9D5
:100E9800000111F4000318BF9523C20F83EA400331
:100EA80042EA410200200021C4E9003207B0F0BD47
:100EB80095F810E08DF808E0012BB0D095F811E016
:100EC8008DF809E0022BADD095F812E08DF80AE014
:100ED800032BAAD095F813E08DF80BE0042BA7D0CC
:100EE80095F814E08DF80CE0052BA4D095F815E0E2
:100EF8008DF80DE0062BA1D095F816E08DF80EE0E0
:100F0800072B9ED095F817E08DF80FE0082B9BD0A3
:100F180095F818E08DF810E0092B98D095F819E0AD
:100F28008DF811E00A2B95D095F81AE08DF812E0AB
:100F38000B2B92D095F81BE08DF813E00C2B8FD07B
:100F480095F81CE08DF814E00D2B8CD095F81DE079
:100F58008DF815E00E2B89D095F81EE08DF816E077
:100F68000F2B86D0ED7F8DF8175086E72DE9F04FCF
:100F7800ADF5497D0023DDE9D689CDE90F33CDE90B
:100F8800113317AF0E93D49B0B93AC4BC7F8C032F9
:100F980001230D9358EA0903DDE9D245DDE9D96B50
:100FA80009908A460C9200F0BD814346A0461C4633
:100FB800102C79F10001A4F11003A4F120021FD331
:100FC80053EA090300F06181202C79F10003C0F095
:100FD800398152EA090200F08981082303930DAB95
:100FE800CDE90049049702935A460FA90BA8FFF7C9
:100FF8008FFE0446894654EA0903D9D1444668E07D
:101008002346444698460B9BB8F1010F1A788DF891
:101018004C2040F0B68000228DF84D2000228DF83B
:101028004E2000228DF84F2000228DF850200022FB
:101038008DF8512000228DF8522000228DF853207F
:1010480000228DF8542000228DF8552000228DF8BA
:10105800562000228DF8572000228DF858200022B3
:101068008DF8592013988DF85A200F9A8DF85B80C7
:1010780042400F921498109ACDF800B04240109256
:101088001598119A434442400B9316981192DDE942
:101098000D31129A4240129211F4000218BF9522A3
:1010A80082EA4302DB0F43EA41030E937368149309
:1010B800B3681593F368169333680D9213931A2245
:1010C80013AB8DF83B20D7F8C0C20DAA39460FA83C
:1010D800E04714F11003CAF80030594BC7F8C03282
:1010E8004FF001024FF00003CDE90D2345F1000355
:1010F800CAF8043054EA050300F02A8120464FF06C
:10110800040A4FF010084FF000095C46294612E027
:101118000B4330D0CDE904010697CDF808A00FABFA
:10112800009301940DAB324609A90CA8FFF782F889
:1011380050EA010316D0102871F10002A0F1100343
:10114800E6D20FAB00931523CDE90401029306976D
:101158000DAB0194324609A90CA8FFF707F950EA2C
:101168000103E8D10FA80999FFF72AF800200DF527
:10117800497DBDE8F08F1423CDE9048906970293D1
:10118800CDE75A788DF84D20B8F1020F3FF446AFFD
:101198009A788DF84E20B8F1030F3FF442AFDA7811
:1011A8008DF84F20B8F1040F3FF43EAF1A798DF84F
:1011B8005020B8F1050F3FF43AAF5A798DF8512015
:1011C800B8F1060F3FF436AF9A798DF85220B8F18E
:1011D800070F3FF432AFDA798DF85320B8F1080FD2
:1011E8003FF42EAF1A7A8DF85420B8F1090F3FF466
:1011F8002AAF5A7A8DF85520B8F10A0F3FF426AF76
:101208009A7A8DF85620B8F10B0F3FF422AFDA7AAC
:101218008DF85720B8F10C0F3FF41EAF1A7B8DF8EC
:101228005820B8F10D0F3FF41AAF5A7B8DF85920AA
:10123800B8F10F0F40F0A2809A7B13E7D55B000846
:10124800695C0008082303930DABCDE900490293BC
:1012580004975A460FA90BA8FFF7AEFDCDF800B0CA
:1012680073681493B3681593F368169333681393EC
:10127800044689461A238DF83B30D7F8C0C213AB11
:101288000DAA39460FA8E047B5E60B9B4446D3E9BB
:1012980002C0D3E9008E10330B930F9BCDF800B03A
:1012A80083EA08030F93109B83EA0E031093119BA4
:1012B80083EA0C03DDE90D211193129B434012933D
:1012C80011F4000318BF952383EA42030D93736852
:1012D8001493B3681593D20FF368169342EA410248
:1012E80033680E921393182213ABEAE620230024E6
:1012F800CDE90034082303930DAB029304975A46B3
:101308000FA90BA8FFF704FDCDF800B0736814937C
:10131800B3681593F36816933368139304468946A4
:101328001823A8E7CDF800B073681493B368159331
:101338000222F36816930D92336813931A228DF8DC
:101348003B2013AB0DAA39460FA804F03FFCC0E6BA
:10135800CDF800B073681493B36815930222F3684C
:1013680016930D923368139315228DF83B20394656
:1013780013AB0DAA0FA804F073FCF3E6002271E684
:101388002DE9F04FADF54B7DDDE9D87A0B93D49B71
:101398000993D59B0A930023CDE91133CDE9133383
:1013A80019AD1093D69B0D93B84BC5F8C0320123E5
:1013B8000F9357EA0A03DDE9DA890E460E9000F02A
:1013C800F681534615AC4FF0080B8A461E46102F7F
:1013D80076F10001A7F11003A7F120021CD33343D3
:1013E80000F02081202F76F10003C0F0EF80324317
:1013F80000F04E810FABCDE90076CDE903B502933D
:101408004A4611A90DA8FFF783FC07460E4657EA7E
:101418000603DCD1564659E00D9B012F1A7822703D
:10142800564640F09080002262700022A27000228E
:10143800E27000222271002262710022A271002251
:10144800E27100222272002262720022A27200223D
:10145800E2720022227300226273A273E773CDF84E
:1014680000902068119A424011926068129A424096
:101478001292A068139A3B4442400D93E06813927D
:10148800DDE90F31149A4240149211F4000218BF9A
:10149800952282EA4302DB0F43EA41031093D8F80E
:1014A80004306360D8F80830A360D8F80C30E360E3
:1014B800D8F8003023600F921A238DF84330D5F8FE
:1014C800C07223460FAA294611A8B84709980A9B53
:1014D800103843F1FF3101220023CDE90F2350EAF0
:1014E8000103C6E9000100F0478123464FF0040AD2
:1014F8004C464FF0140B10260027994614E00B4376
:1015080000F08A80CDE904010695CDF808A011AB5A
:10151800019400930FAB42460BA90EA8FFF72AF9D6
:1015280050EA010300F0D680102871F10002A0F102
:101538001003E4D211AB00931523CDE904010695FD
:1015480001940293E6E75A786270022F3FF46DAF78
:101558009A78A270032F3FF46AAFDA78E270042F0A
:101568003FF467AF1A792271052F3FF464AF5A79B7
:101578006271062F3FF461AF9A79A271072F3FF489
:101588005EAFDA79E271082F3FF45BAF1A7A227204
:10159800092F3FF458AF5A7A62720A2F3FF455AFB9
:1015A8009A7AA2720B2F3FF452AFDA7AE2720C2FBA
:1015B8003FF44FAF1A7B22730D2F3FF44CAF5A7B89
:1015C80062730F2F40F00E819A7B46E70FABCDE98F
:1015D80000760293CDE903B54A4611A90DA8FFF795
:1015E800EBFBCDF80090D8F804306360D8F80830E9
:1015F800A360D8F80C30E360D8F8003023601A23D1
:1016080007460E468DF84330D5F8C0C223460FAAC8
:10161800294611A8E047FAE6CDE904670695CDF812
:1016280008B074E70D99D1E900C7D1E902E010319B
:101638000D911199CDF8009081EA0C011191129940
:1016480079401291139981EA0E01DDE90F32139165
:1016580014994140149112F4000118BF952181EAB0
:101668004301DB0F43EA42031093D8F80430636068
:10167800D8F80830A360D8F80C30E360D8F8003008
:10168800236056460F91182317E700BFD55B000863
:1016980020220023CDE900230FAB0293CDE903B547
:1016A8004A4611A90DA8FFF733FBCDF800904FF07B
:1016B80018038DF84330D8F804306360D8F8083040
:1016C800A360D8F80C30E360D8F8003023600746F0
:1016D8000E4699E74C46214611A8FEF771FD0B9B73
:1016E80022781978914241D15978627891423DD156
:1016F8009978A278914239D1D978E278914235D156
:1017080019792279914231D15979627991422DD151
:101718009979A279914229D1D979E279914225D151
:10172800197A227A914221D1597A627A91421DD14D
:10173800997AA27A914219D1E17ADA7A914215D14D
:10174800197B227B914211D1617B5A7B91420DD149
:10175800997BA27B914209D1E07BDB7BC01A18BF41
:101768004FF0FF300DF54B7DBDE8F08F4FF0FF30A7
:101778000DF54B7DBDE8F08FCDF80090D8F804301A
:101788006360D8F80830A360D8F80C30E360D8F864
:101798000030236002230F9315238DF84330D5F8CA
:1017A800C0620FAA2946234611A8B04793E7CDF88F
:1017B800009015ACD8F804306360D8F80830A360FE
:1017C800D8F80C30E360D8F80030236002230F9378
:1017D8001A238DF843300FAA2346294611A804F08E
:1017E800F5F973E6002238E62DE9F007D0F8101075
:1017F800D0F81420D0F81830D0F81C404FF0FE373D
:101808004FF00138D0F88091D0F884A189EA010915
:101818008AEA020AC0F84090C0F844A01D4626464D
:101828000B46144696FA86F14FEA012165F31741F3
:101838004FEA152565F3070195FA95F266F3174205
:101848004FEA164666F30F2207EA410508EAD11661
:1018580008EA511181EA060181EA050107EA420511
:1018680008EAD21608EA521282EA060282EA050259
:10187800D0F88891D0F88CA189EA01098AEA020A8D
:10188800C0F84890C0F84CA01D4626460B461446A2
:1018980096FA86F14FEA012165F317414FEA1525BB
:1018A80065F3070195FA95F266F317424FEA164673
:1018B80066F30F2207EA410508EAD11608EA511132
:1018C80081EA060181EA050107EA420508EAD2161B
:1018D80008EA521282EA060282EA0502D0F89091DA
:1018E800D0F894A189EA01098AEA020AC0F850905E
:1018F800C0F854A01D4626460B46144696FA86F1B3
:101908004FEA012165F317414FEA152565F30701F1
:1019180095FA95F266F317424FEA164666F30F22D8
:1019280007EA410508EAD11608EA511181EA0601D9
:1019380081EA050107EA420508EAD21608EA5212C6
:1019480082EA060282EA0502D0F89891D0F89CA1B2
:1019580089EA01098AEA020AC0F85890C0F85CA02E
:101968001D4626460B46144696FA86F14FEA012193
:1019780065F317414FEA152565F3070195FA95F2C6
:1019880066F317424FEA164666F30F2207EA410547
:1019980008EAD11608EA511181EA060181EA05012F
:1019A80007EA420508EAD21608EA521282EA060253
:1019B80082EA0502D0F8A091D0F8A4A189EA010929
:1019C8008AEA020AC0F86090C0F864A01D4626465C
:1019D8000B46144696FA86F14FEA012165F3174142
:1019E8004FEA152565F3070195FA95F266F3174254
:1019F8004FEA164666F30F2207EA410508EAD116B0
:101A080008EA511181EA060181EA050107EA42055F
:101A180008EAD21608EA521282EA060282EA0502A7
:101A2800D0F8A891D0F8ACA189EA01098AEA020A9B
:101A3800C0F86890C0F86CA01D4626460B461446B0
:101A480096FA86F14FEA012165F317414FEA152509
:101A580065F3070195FA95F266F317424FEA1646C1
:101A680066F30F2207EA410508EAD11608EA511180
:101A780081EA060181EA050107EA420508EAD21669
:101A880008EA521282EA060282EA0502D0F8B09108
:101A9800D0F8B4A189EA01098AEA020AC0F870906C
:101AA800C0F874A01D4626460B46144696FA86F1E1
:101AB8004FEA012165F317414FEA152565F3070140
:101AC80095FA95F266F317424FEA164666F30F2227
:101AD80007EA410508EAD11608EA511181EA060128
:101AE80081EA050107EA420508EAD21608EA521215
:101AF80082EA060282EA0502D0F8B891D0F8BCA1C1
:101B080089EA01098AEA020AC0F87890C0F87CA03C
:101B18001D4626460B46144696FA86F14FEA0121E1
:101B280065F317414FEA152565F3070195FA95F214
:101B380066F317424FEA164666F30F2207EA410595
:101B480008EAD11608EA511181EA060181EA05017D
:101B580007EA420508EAD21608EA521282EA0602A1
:101B680082EA0502D0F8C091D0F8C4A189EA010937
:101B78008AEA020AC0F88090C0F884A01D4626466A
:101B88000B46144696FA86F14FEA012165F3174190
:101B98004FEA152565F3070195FA95F266F31742A2
:101BA8004FEA164666F30F2207EA410508EAD116FE
:101BB80008EA511181EA060181EA050107EA4205AE
:101BC80008EAD21608EA521282EA060282EA0502F6
:101BD800D0F8C891D0F8CCA189EA01098AEA020AAA
:101BE800C0F88890C0F88CA01D4626460B461446BF
:101BF80096FA86F14FEA012165F317414FEA152558
:101C080065F3070195FA95F266F317424FEA16460F
:101C180066F30F2207EA410508EAD11608EA5111CE
:101C280081EA060181EA050107EA420508EAD216B7
:101C380008EA521282EA060282EA0502D0F8D09136
:101C4800D0F8D4A189EA01098AEA020AC0F890907A
:101C5800C0F894A01D4626460B46144696FA86F10F
:101C68004FEA012165F317414FEA152565F307018E
:101C780095FA95F266F317424FEA164666F30F2275
:101C880007EA410508EAD11608EA511181EA060176
:101C980081EA050107EA420508EAD21608EA521263
:101CA80082EA060282EA0502D0F8D891D0F8DCA1CF
:101CB80089EA01098AEA020AC0F89890C0F89CA04B
:101CC8001D4626460B46144696FA86F14FEA012130
:101CD80065F317414FEA152565F3070195FA95F263
:101CE80066F317424FEA164666F30F2207EA4105E4
:101CF80008EAD11608EA511181EA060181EA0501CC
:101D080007EA420508EAD21608EA521282EA0602EF
:101D180082EA0502D0F8E091D0F8E4A189EA010945
:101D28008AEA020AC0F8A090C0F8A4A01D46264678
:101D38000B46144696FA86F14FEA012165F31741DE
:101D48004FEA152565F3070195FA95F266F31742F0
:101D58004FEA164666F30F2207EA410508EAD1164C
:101D680008EA511181EA060181EA050107EA4205FC
:101D780008EAD21608EA521282EA060282EA050244
:101D8800D0F8E891D0F8ECA189EA01098AEA020AB8
:101D9800C0F8A890C0F8ACA01D4626460B461446CD
:101DA80096FA86F14FEA012165F317414FEA1525A6
:101DB80065F3070195FA95F266F317424FEA16465E
:101DC80066F30F2207EA410508EAD11608EA51111D
:101DD80081EA060181EA050107EA420508EAD21606
:101DE80008EA521282EA060282EA0502D0F8F09165
:101DF800D0F8F4A189EA01098AEA020AC0F8B09089
:101E0800C0F8B4A01D4626460B46144696FA86F13D
:101E18004FEA012165F317414FEA152565F30701DC
:101E280095FA95F266F317424FEA164666F30F22C3
:101E380007EA410508EAD11608EA511181EA0601C4
:101E480081EA050107EA420508EAD21608EA5212B1
:101E580082EA060282EA0502D0F8F891D0F8FCA1DD
:101E680089EA01098AEA020AC0F8B890C0F8BCA059
:101E78001D4626460B46144696FA86F14FEA01217E
:101E880065F317414FEA152565F3070195FA95F2B1
:101E980066F317424FEA164666F30F2207EA410532
:101EA80008EAD11608EA511181EA060181EA05011A
:101EB80007EA420508EAD21608EA521282EA06023E
:101EC80082EA0502D0F80092D0F804A289EA010952
:101ED8008AEA020AC0F8C090C0F8C4A01D46264687
:101EE8000B46144696FA86F14FEA012165F317412D
:101EF8004FEA152565F3070195FA95F266F317423F
:101F08004FEA164666F30F2207EA410508EAD1169A
:101F180008EA511181EA060181EA050107EA42054A
:101F280008EAD21608EA521282EA060282EA050292
:101F3800D0F80892D0F80CA289EA01098AEA020AC4
:101F4800C0F8C890C0F8CCA01D4626460B461446DB
:101F580096FA86F14FEA012165F317414FEA1525F4
:101F680065F3070195FA95F266F317424FEA1646AC
:101F780066F30F2207EA410508EAD11608EA51116B
:101F880081EA060181EA050107EA420508EAD21654
:101F980008EA521282EA060282EA0502D0F8109292
:101FA800D0F814A289EA01098AEA020AC0F8D09096
:101FB800C0F8D4A01D4626460B46144696FA86F16C
:101FC8004FEA012165F317414FEA152565F307012B
:101FD80095FA95F266F317424FEA164666F30F2212
:101FE80007EA410508EAD11608EA511181EA060113
:101FF80081EA050107EA420508EAD21608EA521200
:1020080082EA060282EA0502D0F81892D0F81CA2E9
:1020180089EA01098AEA020AC0F8D890C0F8DCA067
:102028001D4626460B46144696FA86F14FEA0121CC
:1020380065F317414FEA152565F3070195FA95F2FF
:1020480066F317424FEA164666F30F2207EA410580
:1020580008EAD11608EA511181EA060181EA050168
:1020680007EA420508EAD21608EA521282EA06028C
:1020780082EA0502D0F82092D0F824A289EA010960
:102088008AEA020AC0F8E090C0F8E4A01D46264695
:102098000B46144696FA86F14FEA012165F317417B
:1020A8004FEA152565F3070195FA95F266F317428D
:1020B8004FEA164666F30F2207EA410508EAD116E9
:1020C80008EA511181EA060181EA050107EA420599
:1020D80008EAD21608EA521282EA060282EA0502E1
:1020E800D0F82892D0F82CA289EA01098AEA020AD3
:1020F800C0F8E890C0F8ECA01D4626460B461446EA
:1021080096FA86F14FEA012165F317414FEA152542
:1021180065F3070195FA95F266F317424FEA1646FA
:1021280066F30F2207EA410508EAD11608EA5111B9
:1021380081EA060181EA050107EA420508EAD216A2
:1021480008EA521282EA060282EA0502D0F83092C0
:10215800D0F834A289EA01098AEA020AC0F8F090A4
:10216800C0F8F4A01D4626460B46144696FA86F19A
:102178004FEA012165F317414FEA152565F3070179
:1021880095FA95F266F317424FEA164666F30F2260
:1021980007EA410508EAD11608EA511181EA060161
:1021A80081EA050107EA420508EAD21608EA52124E
:1021B80082EA060282EA0502D0F83892D0F83CA2F8
:1021C80089EA01098AEA020AC0F8F890C0F8FCA076
:1021D8001D4626460B46144696FA86F14FEA01211B
:1021E80065F317414FEA152565F3070195FA95F24E
:1021F80066F317424FEA164666F30F2207EA4105CF
:1022080008EAD11608EA511181EA060181EA0501B6
:1022180007EA420508EAD21608EA521282EA0602DA
:1022280082EA0502D0F84092D0F844A289EA01096E
:102238008AEA020AC0F80091C0F804A11D462646A1
:102248000B46144696FA86F14FEA012165F31741C9
:102258004FEA152565F3070195FA95F266F31742DB
:102268004FEA164666F30F2207EA410508EAD11637
:1022780008EA511181EA060181EA050107EA4205E7
:1022880008EAD21608EA521282EA060282EA05022F
:10229800D0F84892D0F84CA289EA01098AEA020AE1
:1022A800C0F80891C0F80CA11D4626460B461446F6
:1022B80096FA86F14FEA012165F317414FEA152591
:1022C80065F3070195FA95F266F317424FEA164649
:1022D80066F30F2207EA410508EAD11608EA511108
:1022E80081EA060181EA050107EA420508EAD216F1
:1022F80008EA521282EA060282EA0502D0F85092EF
:10230800D0F854A289EA01098AEA020AC0F81091B1
:10231800C0F814A11D4626460B46144696FA86F1C7
:102328004FEA012165F317414FEA152565F30701C7
:1023380095FA95F266F317424FEA164666F30F22AE
:1023480007EA410508EAD11608EA511181EA0601AF
:1023580081EA050107EA420508EAD21608EA52129C
:1023680082EA060282EA0502D0F85892D0F85CA206
:1023780089EA01098AEA020AC0F81891C0F81CA182
:102388001D4626460B46144696FA86F14FEA012169
:1023980065F317414FEA152565F3070195FA95F29C
:1023A80066F317424FEA164666F30F2207EA41051D
:1023B80008EAD11608EA511181EA060181EA050105
:1023C80007EA420508EAD21608EA521282EA060229
:1023D80082EA0502D0F86092D0F864A289EA01097D
:1023E8008AEA020AC0F82091C0F824A11D462646B0
:1023F8000B46144696FA86F14FEA012165F3174118
:102408004FEA152565F3070195FA95F266F3174229
:102418004FEA164666F30F2207EA410508EAD11685
:1024280008EA511181EA060181EA050107EA420535
:1024380008EAD21608EA521282EA060282EA05027D
:10244800D0F86892D0F86CA289EA01098AEA020AEF
:10245800C0F82891C0F82CA11D4626460B46144604
:1024680096FA86F14FEA012165F317414FEA1525DF
:1024780065F3070195FA95F266F317424FEA164697
:1024880066F30F2207EA410508EAD11608EA511156
:1024980081EA060181EA050107EA420508EAD2163F
:1024A80008EA521282EA060282EA0502D0F870921D
:1024B800D0F874A289EA01098AEA020AC0F83091C0
:1024C800C0F834A11D4626460B46144696FA86F1F6
:1024D8004FEA012165F317414FEA152565F3070116
:1024E80095FA95F266F317424FEA164666F30F22FD
:1024F80007EA410508EAD11608EA511181EA0601FE
:1025080081EA050107EA420508EAD21608EA5212EA
:1025180082EA060282EA0502D0F87892D0F87CA214
:1025280089EA01098AEA020AC0F83891C0F83CA190
:102538001D4626460B46144696FA86F14FEA0121B7
:1025480065F317414FEA152565F3070195FA95F2EA
:1025580066F317424FEA164666F30F2207EA41056B
:1025680008EAD11608EA511181EA060181EA050153
:1025780007EA420508EAD21608EA521282EA060277
:1025880082EA0502D0F88092D0F884A289EA01098B
:102598008AEA020AC0F84091C0F844A11D462646BE
:1025A8000B46144696FA86F14FEA012165F3174166
:1025B8004FEA152565F3070195FA95F266F3174278
:1025C8004FEA164666F30F2207EA410508EAD116D4
:1025D80008EA511181EA060181EA050107EA420584
:1025E80008EAD21608EA521282EA060282EA0502CC
:1025F800D0F88892D0F88CA289EA01098AEA020AFE
:10260800C0F84891C0F84CA11D4626460B46144612
:1026180096FA86F14FEA012165F317414FEA15252D
:1026280065F3070195FA95F266F317424FEA1646E5
:1026380066F30F2207EA410508EAD11608EA5111A4
:1026480081EA060181EA050107EA420508EAD2168D
:1026580008EA521282EA060282EA0502D0F890924B
:10266800D0F894A289EA01098AEA020AC0F85091CE
:10267800C0F854A11D4626460B46144696FA86F124
:102688004FEA012165F317414FEA152565F3070164
:1026980095FA95F266F317424FEA164666F30F224B
:1026A80007EA410508EAD11608EA511181EA06014C
:1026B80081EA050107EA420508EAD21608EA521239
:1026C80082EA060282EA0502D0F89892D0F89CA223
:1026D80089EA01098AEA020AC0F85891C0F85CA19F
:1026E8001D4626460B46144696FA86F14FEA012106
:1026F80065F317414FEA152565F3070195FA95F239
:1027080066F317424FEA164666F30F2207EA4105B9
:1027180008EAD11608EA511181EA060181EA0501A1
:1027280007EA420508EAD21608EA521282EA0602C5
:1027380082EA0502D0F8A092D0F8A4A289EA010999
:102748008AEA020AC0F86091C0F864A11D462646CC
:102758000B46144696FA86F14FEA012165F31741B4
:102768004FEA152565F3070195FA95F266F31742C6
:102778004FEA164666F30F2207EA410508EAD11622
:1027880008EA511181EA060181EA050107EA4205D2
:1027980008EAD21608EA521282EA060282EA05021A
:1027A800D0F8A892D0F8ACA289EA01098AEA020A0C
:1027B800C0F86891C0F86CA11D4626460B46144621
:1027C80096FA86F14FEA012165F317414FEA15257C
:1027D80065F3070195FA95F266F317424FEA164634
:1027E80066F30F2207EA410508EAD11608EA5111F3
:1027F80081EA060181EA050107EA420508EAD216DC
:1028080008EA521282EA060282EA0502D0F8B09279
:10281800D0F8B4A289EA01098AEA020AC0F87091DC
:10282800C0F874A11D4626460B46144696FA86F152
:102838004FEA012165F317414FEA152565F30701B2
:1028480095FA95F266F317424FEA164666F30F2299
:1028580007EA410508EAD11608EA511181EA06019A
:1028680081EA050107EA420508EAD21608EA521287
:1028780082EA060282EA0502D0F8B892D0F8BCA231
:1028880089EA01098AEA020AC0F87891C0F87CA1AD
:10289800BDE8F007704700BF2DE9F003D0F820200D
:1028A800D0F82430D0F82840D0F82C504FF07F389A
:1028B8004FF0803991F8006083EA161706F00F068A
:1028C80086EA0206C0F88061C0F8847126462F4661
:1028D80014461D4697FA87F24FEA022266F317421A
:1028E8004FEA162666F3070296FA96F367F317433C
:1028F8004FEA174767F30F2308EA520609EAC21797
:1029080009EA420282EA070282EA060208EA530654
:1029180009EAC31709EA430383EA070383EA0603BC
:1029280091F8016083EA161706F00F0686EA020698
:10293800C0F88861C0F88C7126462F4614461D469B
:1029480097FA87F24FEA022266F317424FEA1626F1
:1029580066F3070296FA96F367F317434FEA1747A9
:1029680067F30F2308EA520609EAC21709EA420286
:1029780082EA070282EA060208EA530609EAC3174E
:1029880009EA430383EA070383EA060391F802602E
:1029980083EA161706F00F0686EA0206C0F8906169
:1029A800C0F8947126462F4614461D4697FA87F2BA
:1029B8004FEA022266F317424FEA162666F3070229
:1029C80096FA96F367F317434FEA174767F30F230F
:1029D80008EA520609EAC21709EA420282EA07022D
:1029E80082EA060208EA530609EAC31709EA43031A
:1029F80083EA070383EA060391F8036083EA16175C
:102A080006F00F0686EA0206C0F89861C0F89C71C5
:102A180026462F4614461D4697FA87F24FEA0222A9
:102A280066F317424FEA162666F3070296FA96F3FC
:102A380067F317434FEA174767F30F2308EA52066D
:102A480009EAC21709EA420282EA070282EA060292
:102A580008EA530609EAC31709EA430383EA0703A6
:102A680083EA060391F8046083EA161706F00F0656
:102A780086EA0206C0F8A061C0F8A47126462F466F
:102A880014461D4697FA87F24FEA022266F3174268
:102A98004FEA162666F3070296FA96F367F317438A
:102AA8004FEA174767F30F2308EA520609EAC217E5
:102AB80009EA420282EA070282EA060208EA5306A3
:102AC80009EAC31709EA430383EA070383EA06030B
:102AD80091F8056083EA161706F00F0686EA0206E3
:102AE800C0F8A861C0F8AC7126462F4614461D46AA
:102AF80097FA87F24FEA022266F317424FEA162640
:102B080066F3070296FA96F367F317434FEA1747F7
:102B180067F30F2308EA520609EAC21709EA4202D4
:102B280082EA070282EA060208EA530609EAC3179C
:102B380009EA430383EA070383EA060391F8066078
:102B480083EA161706F00F0686EA0206C0F8B06197
:102B5800C0F8B47126462F4614461D4697FA87F2E8
:102B68004FEA022266F317424FEA162666F3070277
:102B780096FA96F367F317434FEA174767F30F235D
:102B880008EA520609EAC21709EA420282EA07027B
:102B980082EA060208EA530609EAC31709EA430368
:102BA80083EA070383EA060391F8076083EA1617A6
:102BB80006F00F0686EA0206C0F8B861C0F8BC71D4
:102BC80026462F4614461D4697FA87F24FEA0222F8
:102BD80066F317424FEA162666F3070296FA96F34B
:102BE80067F317434FEA174767F30F2308EA5206BC
:102BF80009EAC21709EA420282EA070282EA0602E1
:102C080008EA530609EAC31709EA430383EA0703F4
:102C180083EA060391F8086083EA161706F00F06A0
:102C280086EA0206C0F8C061C0F8C47126462F467D
:102C380014461D4697FA87F24FEA022266F31742B6
:102C48004FEA162666F3070296FA96F367F31743D8
:102C58004FEA174767F30F2308EA520609EAC21733
:102C680009EA420282EA070282EA060208EA5306F1
:102C780009EAC31709EA430383EA070383EA060359
:102C880091F8096083EA161706F00F0686EA02062D
:102C9800C0F8C861C0F8CC7126462F4614461D46B8
:102CA80097FA87F24FEA022266F317424FEA16268E
:102CB80066F3070296FA96F367F317434FEA174746
:102CC80067F30F2308EA520609EAC21709EA420223
:102CD80082EA070282EA060208EA530609EAC317EB
:102CE80009EA430383EA070383EA060391F80A60C3
:102CF80083EA161706F00F0686EA0206C0F8D061C6
:102D0800C0F8D47126462F4614461D4697FA87F216
:102D18004FEA022266F317424FEA162666F30702C5
:102D280096FA96F367F317434FEA174767F30F23AB
:102D380008EA520609EAC21709EA420282EA0702C9
:102D480082EA060208EA530609EAC31709EA4303B6
:102D580083EA070383EA060391F80B6083EA1617F0
:102D680006F00F0686EA0206C0F8D861C0F8DC71E2
:102D780026462F4614461D4697FA87F24FEA022246
:102D880066F317424FEA162666F3070296FA96F399
:102D980067F317434FEA174767F30F2308EA52060A
:102DA80009EAC21709EA420282EA070282EA06022F
:102DB80008EA530609EAC31709EA430383EA070343
:102DC80083EA060391F80C6083EA161706F00F06EB
:102DD80086EA0206C0F8E061C0F8E47126462F468C
:102DE80014461D4697FA87F24FEA022266F3174205
:102DF8004FEA162666F3070296FA96F367F3174327
:102E08004FEA174767F30F2308EA520609EAC21781
:102E180009EA420282EA070282EA060208EA53063F
:102E280009EAC31709EA430383EA070383EA0603A7
:102E380091F80D6083EA161706F00F0686EA020677
:102E4800C0F8E861C0F8EC7126462F4614461D46C6
:102E580097FA87F24FEA022266F317424FEA1626DC
:102E680066F3070296FA96F367F317434FEA174794
:102E780067F30F2308EA520609EAC21709EA420271
:102E880082EA070282EA060208EA530609EAC31739
:102E980009EA430383EA070383EA060391F80E600D
:102EA80083EA161706F00F0686EA0206C0F8F061F4
:102EB800C0F8F47126462F4614461D4697FA87F245
:102EC8004FEA022266F317424FEA162666F3070214
:102ED80096FA96F367F317434FEA174767F30F23FA
:102EE80008EA520609EAC21709EA420282EA070218
:102EF80082EA060208EA530609EAC31709EA430305
:102F080083EA070383EA060391F80F6083EA16173A
:102F180006F00F0686EA0206C0F8F861C0F8FC71F0
:102F280026462F4614461D4697FA87F24FEA022294
:102F380066F317424FEA162666F3070296FA96F3E7
:102F480067F317434FEA174767F30F2308EA520658
:102F580009EAC21709EA420282EA070282EA06027D
:102F680008EA530609EAC31709EA430383EA070391
:102F780083EA060391F8106083EA161706F00F0635
:102F880086EA0206C0F80062C0F8047226462F4698
:102F980014461D4697FA87F24FEA022266F3174253
:102FA8004FEA162666F3070296FA96F367F3174375
:102FB8004FEA174767F30F2308EA520609EAC217D0
:102FC80009EA420282EA070282EA060208EA53068E
:102FD80009EAC31709EA430383EA070383EA0603F6
:102FE80091F8116083EA161706F00F0686EA0206C2
:102FF800C0F80862C0F80C7226462F4614461D46D3
:1030080097FA87F24FEA022266F317424FEA16262A
:1030180066F3070296FA96F367F317434FEA1747E2
:1030280067F30F2308EA520609EAC21709EA4202BF
:1030380082EA070282EA060208EA530609EAC31787
:1030480009EA430383EA070383EA060391F8126057
:1030580083EA161706F00F0686EA0206C0F8106221
:10306800C0F8147226462F4614461D4697FA87F272
:103078004FEA022266F317424FEA162666F3070262
:1030880096FA96F367F317434FEA174767F30F2348
:1030980008EA520609EAC21709EA420282EA070266
:1030A80082EA060208EA530609EAC31709EA430353
:1030B80083EA070383EA060391F8136083EA161785
:1030C80006F00F0686EA0206C0F81862C0F81C72FD
:1030D80026462F4614461D4697FA87F24FEA0222E3
:1030E80066F317424FEA162666F3070296FA96F336
:1030F80067F317434FEA174767F30F2308EA5206A7
:1031080009EAC21709EA420282EA070282EA0602CB
:1031180008EA530609EAC31709EA430383EA0703DF
:1031280083EA060391F8146083EA161706F00F067F
:1031380086EA0206C0F82062C0F8247226462F46A6
:1031480014461D4697FA87F24FEA022266F31742A1
:103158004FEA162666F3070296FA96F367F31743C3
:103168004FEA174767F30F2308EA520609EAC2171E
:1031780009EA420282EA070282EA060208EA5306DC
:1031880009EAC31709EA430383EA070383EA060344
:1031980091F8156083EA161706F00F0686EA02060C
:1031A800C0F82862C0F82C7226462F4614461D46E1
:1031B80097FA87F24FEA022266F317424FEA162679
:1031C80066F3070296FA96F367F317434FEA174731
:1031D80067F30F2308EA520609EAC21709EA42020E
:1031E80082EA070282EA060208EA530609EAC317D6
:1031F80009EA430383EA070383EA060391F81660A2
:1032080083EA161706F00F0686EA0206C0F830624F
:10321800C0F8347226462F4614461D4697FA87F2A0
:103228004FEA022266F317424FEA162666F30702B0
:1032380096FA96F367F317434FEA174767F30F2396
:1032480008EA520609EAC21709EA420282EA0702B4
:1032580082EA060208EA530609EAC31709EA4303A1
:1032680083EA070383EA060391F8176083EA1617CF
:1032780006F00F0686EA0206C0F83862C0F83C720B
:1032880026462F4614461D4697FA87F24FEA022231
:1032980066F317424FEA162666F3070296FA96F384
:1032A80067F317434FEA174767F30F2308EA5206F5
:1032B80009EAC21709EA420282EA070282EA06021A
:1032C80008EA530609EAC31709EA430383EA07032E
:1032D80083EA060391F8186083EA161706F00F06CA
:1032E80086EA0206C0F84062C0F8447226462F46B5
:1032F80014461D4697FA87F24FEA022266F31742F0
:103308004FEA162666F3070296FA96F367F3174311
:103318004FEA174767F30F2308EA520609EAC2176C
:1033280009EA420282EA070282EA060208EA53062A
:1033380009EAC31709EA430383EA070383EA060392
:1033480091F8196083EA161706F00F0686EA020656
:10335800C0F84862C0F84C7226462F4614461D46EF
:1033680097FA87F24FEA022266F317424FEA1626C7
:1033780066F3070296FA96F367F317434FEA17477F
:1033880067F30F2308EA520609EAC21709EA42025C
:1033980082EA070282EA060208EA530609EAC31724
:1033A80009EA430383EA070383EA060391F81A60EC
:1033B80083EA161706F00F0686EA0206C0F850627E
:1033C800C0F8547226462F4614461D4697FA87F2CF
:1033D8004FEA022266F317424FEA162666F30702FF
:1033E80096FA96F367F317434FEA174767F30F23E5
:1033F80008EA520609EAC21709EA420282EA070203
:1034080082EA060208EA530609EAC31709EA4303EF
:1034180083EA070383EA060391F81B6083EA161719
:1034280006F00F0686EA0206C0F85862C0F85C7219
:1034380026462F4614461D4697FA87F24FEA02227F
:1034480066F317424FEA162666F3070296FA96F3D2
:1034580067F317434FEA174767F30F2308EA520643
:1034680009EAC21709EA420282EA070282EA060268
:1034780008EA530609EAC31709EA430383EA07037C
:1034880083EA060391F81C6083EA161706F00F0614
:1034980086EA0206C0F86062C0F8647226462F46C3
:1034A80014461D4697FA87F24FEA022266F317423E
:1034B8004FEA162666F3070296FA96F367F3174360
:1034C8004FEA174767F30F2308EA520609EAC217BB
:1034D80009EA420282EA070282EA060208EA530679
:1034E80009EAC31709EA430383EA070383EA0603E1
:1034F80091F81D6083EA161706F00F0686EA0206A1
:10350800C0F86862C0F86C7226462F4614461D46FD
:1035180097FA87F24FEA022266F317424FEA162615
:1035280066F3070296FA96F367F317434FEA1747CD
:1035380067F30F2308EA520609EAC21709EA4202AA
:1035480082EA070282EA060208EA530609EAC31772
:1035580009EA430383EA070383EA060391F81E6036
:1035680083EA161706F00F0686EA0206C0F87062AC
:10357800C0F8747226462F4614461D4697FA87F2FD
:103588004FEA022266F317424FEA162666F307024D
:1035980096FA96F367F317434FEA174767F30F2333
:1035A80008EA520609EAC21709EA420282EA070251
:1035B80082EA060208EA530609EAC31709EA43033E
:1035C80083EA070383EA060391F81F6083EA161764
:1035D80006F00F0686EA0206C0F87862C0F87C7228
:1035E80026462F4614461D4697FA87F24FEA0222CE
:1035F80066F317424FEA162666F3070296FA96F321
:1036080067F317434FEA174767F30F2308EA520691
:1036180009EAC21709EA420282EA070282EA0602B6
:1036280008EA530609EAC31709EA430383EA0703CA
:1036380083EA060391F8206083EA161706F00F065E
:1036480086EA0206C0F88062C0F8847226462F46D1
:1036580014461D4697FA87F24FEA022266F317428C
:103668004FEA162666F3070296FA96F367F31743AE
:103678004FEA174767F30F2308EA520609EAC21709
:1036880009EA420282EA070282EA060208EA5306C7
:1036980009EAC31709EA430383EA070383EA06032F
:1036A80091F8216083EA161706F00F0686EA0206EB
:1036B800C0F88862C0F88C7226462F4614461D460C
:1036C80097FA87F24FEA022266F317424FEA162664
:1036D80066F3070296FA96F367F317434FEA17471C
:1036E80067F30F2308EA520609EAC21709EA4202F9
:1036F80082EA070282EA060208EA530609EAC317C1
:1037080009EA430383EA070383EA060391F8226080
:1037180083EA161706F00F0686EA0206C0F89062DA
:10372800C0F8947226462F4614461D4697FA87F22B
:103738004FEA022266F317424FEA162666F307029B
:1037480096FA96F367F317434FEA174767F30F2381
:1037580008EA520609EAC21709EA420282EA07029F
:1037680082EA060208EA530609EAC31709EA43038C
:1037780083EA070383EA060391F8236083EA1617AE
:1037880006F00F0686EA0206C0F89862C0F89C7236
:1037980026462F4614461D4697FA87F24FEA02221C
:1037A80066F317424FEA162666F3070296FA96F36F
:1037B80067F317434FEA174767F30F2308EA5206E0
:1037C80009EAC21709EA420282EA070282EA060205
:1037D80008EA530609EAC31709EA430383EA070319
:1037E80083EA060391F8246083EA161706F00F06A9
:1037F80086EA0206C0F8A062C0F8A47226462F46E0
:1038080014461D4697FA87F24FEA022266F31742DA
:103818004FEA162666F3070296FA96F367F31743FC
:103828004FEA174767F30F2308EA520609EAC21757
:1038380009EA420282EA070282EA060208EA530615
:1038480009EAC31709EA430383EA070383EA06037D
:1038580091F8256083EA161706F00F0686EA020635
:10386800C0F8A862C0F8AC7226462F4614461D461A
:1038780097FA87F24FEA022266F317424FEA1626B2
:1038880066F3070296FA96F367F317434FEA17476A
:1038980067F30F2308EA520609EAC21709EA420247
:1038A80082EA070282EA060208EA530609EAC3170F
:1038B80009EA430383EA070383EA060391F82660CB
:1038C80083EA161706F00F0686EA0206C0F8B06209
:1038D800C0F8B47226462F4614461D4697FA87F25A
:1038E8004FEA022266F317424FEA162666F30702EA
:1038F80096FA96F367F317434FEA174767F30F23D0
:1039080008EA520609EAC21709EA420282EA0702ED
:1039180082EA060208EA530609EAC31709EA4303DA
:1039280083EA070383EA060391F8276083EA1617F8
:1039380006F00F0686EA0206C0F8B862C0F8BC7244
:10394800BDE8F003704700BF2DE9F05F4DF8040DA6
:1039580091E8180094FA84F54FEA052563F31745B2
:103968004FEA132363F3070593FA93F664F31746B4
:103978004FEA144464F30F26C1F80850C1F80C60EC
:1039880096FA86F34FEA032365F317434FEA1525A2
:1039980065F3070395FA95F466F317444FEA16465C
:1039A80066F30F24C1F81030C1F8144094FA84F576
:1039B8004FEA052563F317454FEA132363F3070519
:1039C80093FA93F664F317464FEA144464F30F2608
:1039D800C1F81850C1F81C6096FA86F34FEA032321
:1039E80065F317434FEA152565F3070395FA95F430
:1039F80066F317444FEA164666F30F24C1F82030E1
:103A0800C1F8244094FA84F54FEA052563F3174575
:103A18004FEA132363F3070593FA93F664F3174603
:103A28004FEA144464F30F26C1F82850C1F82C60FB
:103A380096FA86F34FEA032365F317434FEA1525F1
:103A480065F3070395FA95F466F317444FEA1646AB
:103A580066F30F24C1F83030C1F8344094FA84F585
:103A68004FEA052563F317454FEA132363F3070568
:103A780093FA93F664F317464FEA144464F30F2657
:103A8800C1F83850C1F83C6002F5807E90E87800B3
:103A98005FFAB3F95FFAA3F85FFA93F75FFA83F373
:103AA8005FFAA4FC5FFA94FB5FFA84FA5FFAB4F455
:103AB80012F8099012F8088012F8077012F803300B
:103AC80012F80CC012F80BB012F80AA012F8044051
:103AD80083EA072383EA084383EA096384EA0A241A
:103AE80084EA0B4484EA0C645FFA95F95FFA85F876
:103AF8005FFAB5F75FFAA5F55FFA86FC5FFAB6FBE1
:103B08005FFAA6FA5FFA96F612F809901EF808808E
:103B180012F8077012F8055012F80CC012F80BB022
:103B280012F80AA012F8066085EA072585EA084512
:103B380085EA096586EA0A2686EA0B4686EA0C665D
:103B4800D1F80090D1F804A0D1F840B0D1F844C021
:103B58008BEA090B8CEA0A0C83EA0B0884EA3C67B7
:103B680088EA050A87EA050986EA0A075FFAB7F5C7
:103B78005FFAA7F45FFA97F35FFA87F75FFAA8FC92
:103B88005FFA98FB5FFA88F65FFAB8F812F8055002
:103B980012F8044012F8033012F8077012F80CC03B
:103BA80012F80BB012F8066012F80880D1F8480035
:103BB80087EA032787EA044787EA056788EA062829
:103BC80088EA0B4888EA0C6887EA00045FFA99F5E6
:103BD8005FFA89F75FFAB9F35FFAA9F95FFA8AFC25
:103BE8005FFABAFB5FFAAAF65FFA9AFA12F805507A
:103BF8001EF8077012F8033012F8099012F80CC07A
:103C080012F80BB012F8066012F80AA0D1F84C00AE
:103C180089EA032989EA074989EA05698AEA062AB5
:103C28008AEA0B4A8AEA0C6A88EA306384EA090657
:103C380083EA09058AEA06035FFAB3F95FFAA3F88B
:103C48005FFA93F75FFA83F35FFAA4FC5FFA94FBD9
:103C58005FFA84FA5FFAB4F412F8099012F808804F
:103C680012F8077012F8033012F80CC012F80BB0F3
:103C780012F80AA012F8044083EA072383EA0843EB
:103C880083EA096384EA0A2484EA0B4484EA0C641C
:103C98005FFA95F95FFA85F85FFAB5F75FFAA5F567
:103CA8005FFA86FC5FFAB6FB5FFAA6FA5FFA96F649
:103CB80012F809901EF8088012F8077012F80550DB
:103CC80012F80CC012F80BB012F80AA012F806602D
:103CD80085EA072585EA084585EA096586EA0A2608
:103CE80086EA0B4686EA0C66D1F80890D1F80CA053
:103CF800D1F850B0D1F854C08BEA090B8CEA0A0C01
:103D080083EA0B0884EA3C6788EA050A87EA05091A
:103D180086EA0A075FFAB7F55FFAA7F45FFA97F33E
:103D28005FFA87F75FFAA8FC5FFA98FB5FFA88F6F4
:103D38005FFAB8F812F8055012F8044012F8033088
:103D480012F8077012F80CC012F80BB012F80660DF
:103D580012F80880D1F8580087EA032787EA044751
:103D680087EA056788EA062888EA0B4888EA0C6823
:103D780087EA00045FFA99F55FFA89F75FFAB9F301
:103D88005FFAA9F95FFA8AFC5FFABAFB5FFAAAF64A
:103D98005FFA9AFA12F805501EF8077012F8033005
:103DA80012F8099012F80CC012F80BB012F806605D
:103DB80012F80AA0D1F85C0089EA032989EA0749C0
:103DC80089EA05698AEA062A8AEA0B4A8AEA0C6AB3
:103DD80088EA306384EA090683EA09058AEA060361
:103DE8005FFAB3F95FFAA3F85FFA93F75FFA83F320
:103DF8005FFAA4FC5FFA94FB5FFA84FA5FFAB4F402
:103E080012F8099012F8088012F8077012F80330B7
:103E180012F80CC012F80BB012F80AA012F80440FD
:103E280083EA072383EA084383EA096384EA0A24C6
:103E380084EA0B4484EA0C645FFA95F95FFA85F822
:103E48005FFAB5F75FFAA5F55FFA86FC5FFAB6FB8D
:103E58005FFAA6FA5FFA96F612F809901EF808803B
:103E680012F8077012F8055012F80CC012F80BB0CF
:103E780012F80AA012F8066085EA072585EA0845BF
:103E880085EA096586EA0A2686EA0B4686EA0C660A
:103E9800D1F81090D1F814A0D1F860B0D1F864C06E
:103EA8008BEA090B8CEA0A0C83EA0B0884EA3C6764
:103EB80088EA050A87EA050986EA0A075FFAB7F574
:103EC8005FFAA7F45FFA97F35FFA87F75FFAA8FC3F
:103ED8005FFA98FB5FFA88F65FFAB8F812F80550AF
:103EE80012F8044012F8033012F8077012F80CC0E8
:103EF80012F80BB012F8066012F80880D1F86800C2
:103F080087EA032787EA044787EA056788EA0628D5
:103F180088EA0B4888EA0C6887EA00045FFA99F592
:103F28005FFA89F75FFAB9F35FFAA9F95FFA8AFCD1
:103F38005FFABAFB5FFAAAF65FFA9AFA12F8055026
:103F48001EF8077012F8033012F8099012F80CC026
:103F580012F80BB012F8066012F80AA0D1F86C003B
:103F680089EA032989EA074989EA05698AEA062A62
:103F78008AEA0B4A8AEA0C6A88EA306384EA090604
:103F880083EA09058AEA06035FFAB3F95FFAA3F838
:103F98005FFA93F75FFA83F35FFAA4FC5FFA94FB86
:103FA8005FFA84FA5FFAB4F412F8099012F80880FC
:103FB80012F8077012F8033012F80CC012F80BB0A0
:103FC80012F80AA012F8044083EA072383EA084398
:103FD80083EA096384EA0A2484EA0B4484EA0C64C9
:103FE8005FFA95F95FFA85F85FFAB5F75FFAA5F514
:103FF8005FFA86FC5FFAB6FB5FFAA6FA5FFA96F6F6
:1040080012F809901EF8088012F8077012F8055087
:1040180012F80CC012F80BB012F80AA012F80660D9
:1040280085EA072585EA084585EA096586EA0A26B4
:1040380086EA0B4686EA0C66D1F81890D1F81CA0DF
:10404800D1F870B0D1F874C08BEA090B8CEA0A0C6D
:1040580083EA0B0884EA3C6788EA050A87EA0509C7
:1040680086EA0A075FFAB7F55FFAA7F45FFA97F3EB
:104078005FFA87F75FFAA8FC5FFA98FB5FFA88F6A1
:104088005FFAB8F812F8055012F8044012F8033035
:1040980012F8077012F80CC012F80BB012F806608C
:1040A80012F80880D1F8780087EA032787EA0447DE
:1040B80087EA056788EA062888EA0B4888EA0C68D0
:1040C80087EA00045FFA99F55FFA89F75FFAB9F3AE
:1040D8005FFAA9F95FFA8AFC5FFABAFB5FFAAAF6F7
:1040E8005FFA9AFA12F805501EF8077012F80330B2
:1040F80012F8099012F80CC012F80BB012F806600A
:1041080012F80AA0D1F87C0089EA032989EA07494C
:1041180089EA05698AEA062A8AEA0B4A8AEA0C6A5F
:1041280088EA306384EA090683EA09058AEA06030D
:104138005FFAB3F95FFAA3F85FFA93F75FFA83F3CC
:104148005FFAA4FC5FFA94FB5FFA84FA5FFAB4F4AE
:1041580012F8099012F8088012F8077012F8033064
:1041680012F80CC012F80BB012F80AA012F80440AA
:1041780083EA072383EA084383EA096384EA0A2473
:1041880084EA0B4484EA0C645FFA95F95FFA85F8CF
:104198005FFAB5F75FFAA5F55FFA86FC5FFAB6FB3A
:1041A8005FFAA6FA5FFA96F612F809901EF80880E8
:1041B80012F8077012F8055012F80CC012F80BB07C
:1041C80012F80AA012F8066085EA072585EA08456C
:1041D80085EA096586EA0A2686EA0B4686EA0C66B7
:1041E800D1F82090D1F824A0D1F880B0D1F884C0BB
:1041F8008BEA090B8CEA0A0C83EA0B0884EA3C6711
:1042080088EA050A87EA050986EA0A075FFAB7F520
:104218005FFAA7F45FFA97F35FFA87F75FFAA8FCEB
:104228005FFA98FB5FFA88F65FFAB8F812F805505B
:1042380012F8044012F8033012F8077012F80CC094
:1042480012F80BB012F8066012F80880D1F888004E
:1042580087EA032787EA044787EA056788EA062882
:1042680088EA0B4888EA0C6887EA00045FFA99F53F
:104278005FFA89F75FFAB9F35FFAA9F95FFA8AFC7E
:104288005FFABAFB5FFAAAF65FFA9AFA12F80550D3
:104298001EF8077012F8033012F8099012F80CC0D3
:1042A80012F80BB012F8066012F80AA0D1F88C00C8
:1042B80089EA032989EA074989EA05698AEA062A0F
:1042C8008AEA0B4A8AEA0C6A88EA306384EA0906B1
:1042D80083EA09058AEA06035FFAB3F95FFAA3F8E5
:1042E8005FFA93F75FFA83F35FFAA4FC5FFA94FB33
:1042F8005FFA84FA5FFAB4F412F8099012F80880A9
:1043080012F8077012F8033012F80CC012F80BB04C
:1043180012F80AA012F8044083EA072383EA084344
:1043280083EA096384EA0A2484EA0B4484EA0C6475
:104338005FFA95F95FFA85F85FFAB5F75FFAA5F5C0
:104348005FFA86FC5FFAB6FB5FFAA6FA5FFA96F6A2
:1043580012F809901EF8088012F8077012F8055034
:1043680012F80CC012F80BB012F80AA012F8066086
:1043780085EA072585EA084585EA096586EA0A2661
:1043880086EA0B4686EA0C66D1F82890D1F82CA06C
:10439800D1F890B0D1F894C08BEA090B8CEA0A0CDA
:1043A80083EA0B0884EA3C6788EA050A87EA050974
:1043B80086EA0A075FFAB7F55FFAA7F45FFA97F398
:1043C8005FFA87F75FFAA8FC5FFA98FB5FFA88F64E
:1043D8005FFAB8F812F8055012F8044012F80330E2
:1043E80012F8077012F80CC012F80BB012F8066039
:1043F80012F80880D1F8980087EA032787EA04476B
:1044080087EA056788EA062888EA0B4888EA0C687C
:1044180087EA00045FFA99F55FFA89F75FFAB9F35A
:104428005FFAA9F95FFA8AFC5FFABAFB5FFAAAF6A3
:104438005FFA9AFA12F805501EF8077012F803305E
:1044480012F8099012F80CC012F80BB012F80660B6
:1044580012F80AA0D1F89C0089EA032989EA0749D9
:1044680089EA05698AEA062A8AEA0B4A8AEA0C6A0C
:1044780088EA306384EA090683EA09058AEA0603BA
:104488005FFAB3F95FFAA3F85FFA93F75FFA83F379
:104498005FFAA4FC5FFA94FB5FFA84FA5FFAB4F45B
:1044A80012F8099012F8088012F8077012F8033011
:1044B80012F80CC012F80BB012F80AA012F8044057
:1044C80083EA072383EA084383EA096384EA0A2420
:1044D80084EA0B4484EA0C645FFA95F95FFA85F87C
:1044E8005FFAB5F75FFAA5F55FFA86FC5FFAB6FBE7
:1044F8005FFAA6FA5FFA96F612F809901EF8088095
:1045080012F8077012F8055012F80CC012F80BB028
:1045180012F80AA012F8066085EA072585EA084518
:1045280085EA096586EA0A2686EA0B4686EA0C6663
:10453800D1F83090D1F834A0D1F8A0B0D1F8A4C007
:104548008BEA090B8CEA0A0C83EA0B0884EA3C67BD
:1045580088EA050A87EA050986EA0A075FFAB7F5CD
:104568005FFAA7F45FFA97F35FFA87F75FFAA8FC98
:104578005FFA98FB5FFA88F65FFAB8F812F8055008
:1045880012F8044012F8033012F8077012F80CC041
:1045980012F80BB012F8066012F80880D1F8A800DB
:1045A80087EA032787EA044787EA056788EA06282F
:1045B80088EA0B4888EA0C6887EA00045FFA99F5EC
:1045C8005FFA89F75FFAB9F35FFAA9F95FFA8AFC2B
:1045D8005FFABAFB5FFAAAF65FFA9AFA12F8055080
:1045E8001EF8077012F8033012F8099012F80CC080
:1045F80012F80BB012F8066012F80AA0D1F8AC0055
:1046080089EA032989EA074989EA05698AEA062ABB
:104618008AEA0B4A8AEA0C6A88EA306384EA09065D
:1046280083EA09058AEA06035FFAB3F95FFAA3F891
:104638005FFA93F75FFA83F35FFAA4FC5FFA94FBDF
:104648005FFA84FA5FFAB4F412F8099012F8088055
:1046580012F8077012F8033012F80CC012F80BB0F9
:1046680012F80AA012F8044083EA072383EA0843F1
:1046780083EA096384EA0A2484EA0B4484EA0C6422
:104688005FFA95F95FFA85F85FFAB5F75FFAA5F56D
:104698005FFA86FC5FFAB6FB5FFAA6FA5FFA96F64F
:1046A80012F809901EF8088012F8077012F80550E1
:1046B80012F80CC012F80BB012F80AA012F8066033
:1046C80085EA072585EA084585EA096586EA0A260E
:1046D80086EA0B4686EA0C66D1F83890D1F83CA0F9
:1046E800D1F8B0B0D1F8B4C08BEA090B8CEA0A0C47
:1046F80083EA0B0884EA3C6788EA050A87EA050921
:1047080086EA0A075FFAB7F55FFAA7F45FFA97F344
:104718005FFA87F75FFAA8FC5FFA98FB5FFA88F6FA
:104728005FFAB8F812F8055012F8044012F803308E
:1047380012F8077012F80CC012F80BB012F80660E5
:1047480012F80880D1F8B80087EA032787EA0447F7
:1047580087EA056788EA062888EA0B4888EA0C6829
:1047680087EA00045FFA99F55FFA89F75FFAB9F307
:104778005FFAA9F95FFA8AFC5FFABAFB5FFAAAF650
:104788005FFA9AFA12F805501EF8077012F803300B
:1047980012F8099012F80CC012F80BB012F8066063
:1047A80012F80AA0D1F8BC0089EA032989EA074966
:1047B80089EA05698AEA062A8AEA0B4A8AEA0C6AB9
:1047C80088EA306384EA090683EA09058AEA060367
:1047D8005FFAB3F95FFAA3F85FFA93F75FFA83F326
:1047E8005FFAA4FC5FFA94FB5FFA84FA5FFAB4F408
:1047F80012F8099012F8088012F8077012F80330BE
:1048080012F80CC012F80BB012F80AA012F8044003
:1048180083EA072383EA084383EA096384EA0A24CC
:1048280084EA0B4484EA0C645FFA95F95FFA85F828
:104838005FFAB5F75FFAA5F55FFA86FC5FFAB6FB93
:104848005FFAA6FA5FFA96F612F809901EF8088041
:1048580012F8077012F8055012F80CC012F80BB0D5
:1048680012F80AA012F8066085EA072585EA0845C5
:1048780085EA096586EA0A2686EA0B4686EA0C6610
:10488800D1F80090D1F804A0D1F8C0B0D1F8C4C0D4
:104898008BEA090B8CEA0A0C83EA0B0884EA3C676A
:1048A80088EA050A87EA050986EA0A075FFAB7F57A
:1048B8005FFAA7F45FFA97F35FFA87F75FFAA8FC45
:1048C8005FFA98FB5FFA88F65FFAB8F812F80550B5
:1048D80012F8044012F8033012F8077012F80CC0EE
:1048E80012F80BB012F8066012F80880D1F8C80068
:1048F80087EA032787EA044787EA056788EA0628DC
:1049080088EA0B4888EA0C6887EA00045FFA99F598
:104918005FFA89F75FFAB9F35FFAA9F95FFA8AFCD7
:104928005FFABAFB5FFAAAF65FFA9AFA12F805502C
:104938001EF8077012F8033012F8099012F80CC02C
:1049480012F80BB012F8066012F80AA0D1F8CC00E1
:1049580089EA032989EA074989EA05698AEA062A68
:104968008AEA0B4A8AEA0C6A88EA306384EA09060A
:1049780083EA09058AEA06035FFAB3F95FFAA3F83E
:104988005FFA93F75FFA83F35FFAA4FC5FFA94FB8C
:104998005FFA84FA5FFAB4F412F8099012F8088002
:1049A80012F8077012F8033012F80CC012F80BB0A6
:1049B80012F80AA012F8044083EA072383EA08439E
:1049C80083EA096384EA0A2484EA0B4484EA0C64CF
:1049D8005FFA95F95FFA85F85FFAB5F75FFAA5F51A
:1049E8005FFA86FC5FFAB6FB5FFAA6FA5FFA96F6FC
:1049F80012F809901EF8088012F8077012F805508E
:104A080012F80CC012F80BB012F80AA012F80660DF
:104A180085EA072585EA084585EA096586EA0A26BA
:104A280086EA0B4686EA0C66D1F80890D1F80CA005
:104A3800D1F8D0B0D1F8D4C08BEA090B8CEA0A0CB3
:104A480083EA0B0884EA3C6788EA050A87EA0509CD
:104A580086EA0A075FFAB7F55FFAA7F45FFA97F3F1
:104A68005FFA87F75FFAA8FC5FFA98FB5FFA88F6A7
:104A78005FFAB8F812F8055012F8044012F803303B
:104A880012F8077012F80CC012F80BB012F8066092
:104A980012F80880D1F8D80087EA032787EA044784
:104AA80087EA056788EA062888EA0B4888EA0C68D6
:104AB80087EA00045FFA99F55FFA89F75FFAB9F3B4
:104AC8005FFAA9F95FFA8AFC5FFABAFB5FFAAAF6FD
:104AD8005FFA9AFA12F805501EF8077012F80330B8
:104AE80012F8099012F80CC012F80BB012F8066010
:104AF80012F80AA0D1F8DC0089EA032989EA0749F3
:104B080089EA05698AEA062A8AEA0B4A8AEA0C6A65
:104B180088EA306384EA090683EA09058AEA060313
:104B28005FFAB3F95FFAA3F85FFA93F75FFA83F3D2
:104B38005FFAA4FC5FFA94FB5FFA84FA5FFAB4F4B4
:104B480012F8099012F8088012F8077012F803306A
:104B580012F80CC012F80BB012F80AA012F80440B0
:104B680083EA072383EA084383EA096384EA0A2479
:104B780084EA0B4484EA0C645FFA95F95FFA85F8D5
:104B88005FFAB5F75FFAA5F55FFA86FC5FFAB6FB40
:104B98005FFAA6FA5FFA96F612F809901EF80880EE
:104BA80012F8077012F8055012F80CC012F80BB082
:104BB80012F80AA012F8066085EA072585EA084572
:104BC80085EA096586EA0A2686EA0B4686EA0C66BD
:104BD800D1F81090D1F814A0D1F8E0B0D1F8E4C021
:104BE8008BEA090B8CEA0A0C83EA0B0884EA3C6717
:104BF80088EA050A87EA050986EA0A075FFAB7F527
:104C08005FFAA7F45FFA97F35FFA87F75FFAA8FCF1
:104C18005FFA98FB5FFA88F65FFAB8F812F8055061
:104C280012F8044012F8033012F8077012F80CC09A
:104C380012F80BB012F8066012F80880D1F8E800F4
:104C480087EA032787EA044787EA056788EA062888
:104C580088EA0B4888EA0C6887EA00045FFA99F545
:104C68005FFA89F75FFAB9F35FFAA9F95FFA8AFC84
:104C78005FFABAFB5FFAAAF65FFA9AFA12F80550D9
:104C88001EF8077012F8033012F8099012F80CC0D9
:104C980012F80BB012F8066012F80AA0D1F8EC006E
:104CA80089EA032989EA074989EA05698AEA062A15
:104CB8008AEA0B4A8AEA0C6A88EA306384EA0906B7
:104CC80083EA09058AEA06035FFAB3F95FFAA3F8EB
:104CD8005FFA93F75FFA83F35FFAA4FC5FFA94FB39
:104CE8005FFA84FA5FFAB4F412F8099012F80880AF
:104CF80012F8077012F8033012F80CC012F80BB053
:104D080012F80AA012F8044083EA072383EA08434A
:104D180083EA096384EA0A2484EA0B4484EA0C647B
:104D28005FFA95F95FFA85F85FFAB5F75FFAA5F5C6
:104D38005FFA86FC5FFAB6FB5FFAA6FA5FFA96F6A8
:104D480012F809901EF8088012F8077012F805503A
:104D580012F80CC012F80BB012F80AA012F806608C
:104D680085EA072585EA084585EA096586EA0A2667
:104D780086EA0B4686EA0C66D1F81890D1F81CA092
:104D8800D1F8F0B0D1F8F4C08BEA090B8CEA0A0C20
:104D980083EA0B0884EA3C6788EA050A87EA05097A
:104DA80086EA0A075FFAB7F55FFAA7F45FFA97F39E
:104DB8005FFA87F75FFAA8FC5FFA98FB5FFA88F654
:104DC8005FFAB8F812F8055012F8044012F80330E8
:104DD80012F8077012F80CC012F80BB012F806603F
:104DE80012F80880D1F8F80087EA032787EA044711
:104DF80087EA056788EA062888EA0B4888EA0C6883
:104E080087EA00045FFA99F55FFA89F75FFAB9F360
:104E18005FFAA9F95FFA8AFC5FFABAFB5FFAAAF6A9
:104E28005FFA9AFA12F805501EF8077012F8033064
:104E380012F8099012F80CC012F80BB012F80660BC
:104E480012F80AA0D1F8FC0089EA032989EA07497F
:104E580089EA05698AEA062A8AEA0B4A8AEA0C6A12
:104E680088EA306384EA090683EA09058AEA0603C0
:104E78005FFAB3F95FFAA3F85FFA93F75FFA83F37F
:104E88005FFAA4FC5FFA94FB5FFA84FA5FFAB4F461
:104E980012F8099012F8088012F8077012F8033017
:104EA80012F80CC012F80BB012F80AA012F804405D
:104EB80083EA072383EA084383EA096384EA0A2426
:104EC80084EA0B4484EA0C645FFA95F95FFA85F882
:104ED8005FFAB5F75FFAA5F55FFA86FC5FFAB6FBED
:104EE8005FFAA6FA5FFA96F612F809901EF808809B
:104EF80012F8077012F8055012F80CC012F80BB02F
:104F080012F80AA012F8066085EA072585EA08451E
:104F180085EA096586EA0A2686EA0B4686EA0C6669
:104F2800D1F82090D1F824A0D1F800B1D1F804C16B
:104F38008BEA090B8CEA0A0C83EA0B0884EA3C67C3
:104F480088EA050A87EA050986EA0A075FFAB7F5D3
:104F58005FFAA7F45FFA97F35FFA87F75FFAA8FC9E
:104F68005FFA98FB5FFA88F65FFAB8F812F805500E
:104F780012F8044012F8033012F8077012F80CC047
:104F880012F80BB012F8066012F80880D1F8080180
:104F980087EA032787EA044787EA056788EA062835
:104FA80088EA0B4888EA0C6887EA00045FFA99F5F2
:104FB8005FFA89F75FFAB9F35FFAA9F95FFA8AFC31
:104FC8005FFABAFB5FFAAAF65FFA9AFA12F8055086
:104FD8001EF8077012F8033012F8099012F80CC086
:104FE80012F80BB012F8066012F80AA0D1F80C01FA
:104FF80089EA032989EA074989EA05698AEA062AC2
:105008008AEA0B4A8AEA0C6A88EA306384EA090663
:1050180083EA09058AEA06035FFAB3F95FFAA3F897
:105028005FFA93F75FFA83F35FFAA4FC5FFA94FBE5
:105038005FFA84FA5FFAB4F412F8099012F808805B
:1050480012F8077012F8033012F80CC012F80BB0FF
:1050580012F80AA012F8044083EA072383EA0843F7
:1050680083EA096384EA0A2484EA0B4484EA0C6428
:105078005FFA95F95FFA85F85FFAB5F75FFAA5F573
:105088005FFA86FC5FFAB6FB5FFAA6FA5FFA96F655
:1050980012F809901EF8088012F8077012F80550E7
:1050A80012F80CC012F80BB012F80AA012F8066039
:1050B80085EA072585EA084585EA096586EA0A2614
:1050C80086EA0B4686EA0C66D1F82890D1F82CA01F
:1050D800D1F810B1D1F814C18BEA090B8CEA0A0C8B
:1050E80083EA0B0884EA3C6788EA050A87EA050927
:1050F80086EA0A075FFAB7F55FFAA7F45FFA97F34B
:105108005FFA87F75FFAA8FC5FFA98FB5FFA88F600
:105118005FFAB8F812F8055012F8044012F8033094
:1051280012F8077012F80CC012F80BB012F80660EB
:1051380012F80880D1F8180187EA032787EA04479C
:1051480087EA056788EA062888EA0B4888EA0C682F
:1051580087EA00045FFA99F55FFA89F75FFAB9F30D
:105168005FFAA9F95FFA8AFC5FFABAFB5FFAAAF656
:105178005FFA9AFA12F805501EF8077012F8033011
:1051880012F8099012F80CC012F80BB012F8066069
:1051980012F80AA0D1F81C0189EA032989EA07490B
:1051A80089EA05698AEA062A8AEA0B4A8AEA0C6ABF
:1051B80088EA306384EA090683EA09058AEA06036D
:1051C8005FFAB3F95FFAA3F85FFA93F75FFA83F32C
:1051D8005FFAA4FC5FFA94FB5FFA84FA5FFAB4F40E
:1051E80012F8099012F8088012F8077012F80330C4
:1051F80012F80CC012F80BB012F80AA012F804400A
:1052080083EA072383EA084383EA096384EA0A24D2
:1052180084EA0B4484EA0C645FFA95F95FFA85F82E
:105228005FFAB5F75FFAA5F55FFA86FC5FFAB6FB99
:105238005FFAA6FA5FFA96F612F809901EF8088047
:1052480012F8077012F8055012F80CC012F80BB0DB
:1052580012F80AA012F8066085EA072585EA0845CB
:1052680085EA096586EA0A2686EA0B4686EA0C6616
:10527800D1F83090D1F834A0D1F820B1D1F824C1B8
:105288008BEA090B8CEA0A0C83EA0B0884EA3C6770
:1052980088EA050A87EA050986EA0A075FFAB7F580
:1052A8005FFAA7F45FFA97F35FFA87F75FFAA8FC4B
:1052B8005FFA98FB5FFA88F65FFAB8F812F80550BB
:1052C80012F8044012F8033012F8077012F80CC0F4
:1052D80012F80BB012F8066012F80880D1F828010D
:1052E80087EA032787EA044787EA056788EA0628E2
:1052F80088EA0B4888EA0C6887EA00045FFA99F59F
:105308005FFA89F75FFAB9F35FFAA9F95FFA8AFCDD
:105318005FFABAFB5FFAAAF65FFA9AFA12F8055032
:105328001EF8077012F8033012F8099012F80CC032
:1053380012F80BB012F8066012F80AA0D1F82C0186
:1053480089EA032989EA074989EA05698AEA062A6E
:105358008AEA0B4A8AEA0C6A88EA306384EA090610
:1053680083EA09058AEA06035FFAB3F95FFAA3F844
:105378005FFA93F75FFA83F35FFAA4FC5FFA94FB92
:105388005FFA84FA5FFAB4F412F8099012F8088008
:1053980012F8077012F8033012F80CC012F80BB0AC
:1053A80012F80AA012F8044083EA072383EA0843A4
:1053B80083EA096384EA0A2484EA0B4484EA0C64D5
:1053C8005FFA95F95FFA85F85FFAB5F75FFAA5F520
:1053D8005FFA86FC5FFAB6FB5FFAA6FA5FFA96F602
:1053E80012F809901EF8088012F8077012F8055094
:1053F80012F80CC012F80BB012F80AA012F80660E6
:1054080085EA072585EA084585EA096586EA0A26C0
:1054180086EA0B4686EA0C66D1F83890D1F83CA0AB
:10542800D1F830B1D1F834C18BEA090B8CEA0A0CF7
:1054380083EA0B0884EA3C6788EA050A87EA0509D3
:1054480086EA0A075FFAB7F55FFAA7F45FFA97F3F7
:105458005FFA87F75FFAA8FC5FFA98FB5FFA88F6AD
:105468005FFAB8F812F8055012F8044012F8033041
:1054780012F8077012F80CC012F80BB012F8066098
:1054880012F80880D1F8380187EA032787EA044729
:1054980087EA056788EA062888EA0B4888EA0C68DC
:1054A80087EA00045FFA99F55FFA89F75FFAB9F3BA
:1054B8005FFAA9F95FFA8AFC5FFABAFB5FFAAAF603
:1054C8005FFA9AFA12F805501EF8077012F80330BE
:1054D80012F8099012F80CC012F80BB012F8066016
:1054E80012F80AA0D1F83C0189EA032989EA074998
:1054F80089EA05698AEA062A8AEA0B4A8AEA0C6A6C
:1055080088EA306384EA090683EA09058AEA060319
:105518005FFAB3F95FFAA3F85FFA93F75FFA83F3D8
:105528005FFAA4FC5FFA94FB5FFA84FA5FFAB4F4BA
:1055380012F8099012F8088012F8077012F8033070
:1055480012F80CC012F80BB012F80AA012F80440B6
:1055580083EA072383EA084383EA096384EA0A247F
:1055680084EA0B4484EA0C645FFA95F95FFA85F8DB
:105578005FFAB5F75FFAA5F55FFA86FC5FFAB6FB46
:105588005FFAA6FA5FFA96F612F809901EF80880F4
:1055980012F8077012F8055012F80CC012F80BB088
:1055A80012F80AA012F8066085EA072585EA084578
:1055B80085EA096586EA0A2686EA0B4686EA0C66C3
:1055C800D1F80090D1F804A0D1F840B1D1F844C185
:1055D8008BEA090B8CEA0A0C83EA0B0884EA3C671D
:1055E80088EA050A87EA050986EA0A075FFAB7F52D
:1055F8005FFAA7F45FFA97F35FFA87F75FFAA8FCF8
:105608005FFA98FB5FFA88F65FFAB8F812F8055067
:1056180012F8044012F8033012F8077012F80CC0A0
:1056280012F80BB012F8066012F80880D1F8480199
:1056380087EA032787EA044787EA056788EA06288E
:1056480088EA0B4888EA0C6887EA00045FFA99F54B
:105658005FFA89F75FFAB9F35FFAA9F95FFA8AFC8A
:105668005FFABAFB5FFAAAF65FFA9AFA12F80550DF
:105678001EF8077012F8033012F8099012F80CC0DF
:1056880012F80BB012F8066012F80AA0D1F84C0113
:1056980089EA032989EA074989EA05698AEA062A1B
:1056A8008AEA0B4A8AEA0C6A88EA306384EA0906BD
:1056B80083EA09058AEA06035FFAB3F95FFAA3F8F1
:1056C8005FFA93F75FFA83F35FFAA4FC5FFA94FB3F
:1056D8005FFA84FA5FFAB4F412F8099012F80880B5
:1056E80012F8077012F8033012F80CC012F80BB059
:1056F80012F80AA012F8044083EA072383EA084351
:1057080083EA096384EA0A2484EA0B4484EA0C6481
:105718005FFA95F95FFA85F85FFAB5F75FFAA5F5CC
:105728005FFA86FC5FFAB6FB5FFAA6FA5FFA96F6AE
:1057380012F809901EF8088012F8077012F8055040
:1057480012F80CC012F80BB012F80AA012F8066092
:1057580085EA072585EA084585EA096586EA0A266D
:1057680086EA0B4686EA0C66D1F80890D1F80CA0B8
:10577800D1F850B1D1F854C18BEA090B8CEA0A0C64
:1057880083EA0B0884EA3C6788EA050A87EA050980
:1057980086EA0A075FFAB7F55FFAA7F45FFA97F3A4
:1057A8005FFA87F75FFAA8FC5FFA98FB5FFA88F65A
:1057B8005FFAB8F812F8055012F8044012F80330EE
:1057C80012F8077012F80CC012F80BB012F8066045
:1057D80012F80880D1F8580187EA032787EA0447B6
:1057E80087EA056788EA062888EA0B4888EA0C6889
:1057F80087EA00045FFA99F55FFA89F75FFAB9F367
:105808005FFAA9F95FFA8AFC5FFABAFB5FFAAAF6AF
:105818005FFA9AFA12F805501EF8077012F803306A
:1058280012F8099012F80CC012F80BB012F80660C2
:1058380012F80AA0D1F85C0189EA032989EA074924
:1058480089EA05698AEA062A8AEA0B4A8AEA0C6A18
:1058580088EA306384EA090683EA09058AEA0603C6
:105868005FFAB3F95FFAA3F85FFA93F75FFA83F385
:105878005FFAA4FC5FFA94FB5FFA84FA5FFAB4F467
:1058880012F8099012F8088012F8077012F803301D
:1058980012F80CC012F80BB012F80AA012F8044063
:1058A80083EA072383EA084383EA096384EA0A242C
:1058B80084EA0B4484EA0C645FFA95F95FFA85F888
:1058C8005FFAB5F75FFAA5F55FFA86FC5FFAB6FBF3
:1058D8005FFAA6FA5FFA96F612F809901EF80880A1
:1058E80012F8077012F8055012F80CC012F80BB035
:1058F80012F80AA012F8066085EA072585EA084525
:1059080085EA096586EA0A2686EA0B4686EA0C666F
:10591800D1F81090D1F814A0D1F860B1D1F864C1D1
:105928008BEA090B8CEA0A0C83EA0B0884EA3C67C9
:1059380088EA050A87EA050986EA0A075FFAB7F5D9
:105948005FFAA7F45FFA97F35FFA87F75FFAA8FCA4
:105958005FFA98FB5FFA88F65FFAB8F812F8055014
:1059680012F8044012F8033012F8077012F80CC04D
:1059780012F80BB012F8066012F80880D1F8680126
:1059880087EA032787EA044787EA056788EA06283B
:1059980088EA0B4888EA0C6887EA00045FFA99F5F8
:1059A8005FFA89F75FFAB9F35FFAA9F95FFA8AFC37
:1059B8005FFABAFB5FFAAAF65FFA9AFA12F805508C
:1059C8001EF8077012F8033012F8099012F80CC08C
:1059D80012F80BB012F8066012F80AA0D1F86C01A0
:1059E80089EA032989EA074989EA05698AEA062AC8
:1059F8008AEA0B4A8AEA0C6A88EA306384EA09066A
:105A080083EA09058AEA06035FFAB3F95FFAA3F89D
:105A18005FFA93F75FFA83F35FFAA4FC5FFA94FBEB
:105A28005FFA84FA5FFAB4F412F8099012F8088061
:105A380012F8077012F8033012F80CC012F80BB005
:105A480012F80AA012F8044083EA072383EA0843FD
:105A580083EA096384EA0A2484EA0B4484EA0C642E
:105A68005FFA95F95FFA85F85FFAB5F75FFAA5F579
:105A78005FFA86FC5FFAB6FB5FFAA6FA5FFA96F65B
:105A880012F809901EF8088012F8077012F80550ED
:105A980012F80CC012F80BB012F80AA012F806603F
:105AA80085EA072585EA084585EA096586EA0A261A
:105AB80086EA0B4686EA0C66D1F81890D1F81CA045
:105AC800D1F870B1D1F874C18BEA090B8CEA0A0CD1
