:100000000C94F2000C9413010C9413010C94130142
:100010000C9413010C9413010C9413010C94130110
:100020000C9413010C9413010C9413010C94130100
:100030000C9413010C9413010C9413010C941301F0
:100040000C9413010C9413010C9413010C941301E0
:100050000C9413010C9413010C9413010C941301D0
:100060000C9413010C9413010C9413010C941301C0
:100070000C9413010C9413010C9413010C941301B0
:100080000C9413010C9413010C9413010C941301A0
:100090000C9413010C9413010C9413010C94130190
:1000A0000C9413010C9413010C9413010C94130180
:1000B0000C9413010C9413010C9413010C94130170
:1000C0000C9413010C9413010C9413010C94130160
:1000D0000C9413010C9413010C9413010C94130150
:1000E0000C9413010C9413010C9413010C94130140
:1000F0000C9413010C9413010C9413010C94130130
:100100000C9413010C9413010C9413010C9413011F
:100110000C9413010C9413010C9413010C9413010F
:100120000C9413010C9413010C9413010C941301FF
:100130000C9413010C9413010C9413010C941301EF
:100140000C9413010C9413010C9413010C941301DF
:100150000C9413010C9413010C9413010C941301CF
:100160000C9413010C9413010C9413010C941301BF
:100170000C9413010C9413010C9413010C941301AF
:100180000C9413010C9413010C9413010C9413019F
:100190000C9413010C9413010C9413010C9413018F
:1001A0000C9413010C9413010C9413010C9413017F
:1001B0000C9413010C9413010C9413010C9413016F
:1001C0000C9413010C9413010C94B60B0C94D70AE5
:1001D0000C94040A0C94A20B0C94B10A0C94F80928
:1001E0000C94FE0911241FBECFEFCDBFDFE3DEBFAD
:1001F00000E00CBF11E2A0E0B0E2E2E7FCE100E0C9
:100200000BBF02C007900D92AE35B107D9F721E2BE
:10021000AEE5B1E201C01D92A43CB207E1F70E9435
:10022000A20D0C94370E0C9400002F923F924F9227
:100230005F926F927F928F929F92AF92BF92CF9276
:10024000DF92EF92FF920F931F93CF93DF930F9262
:100250000F92CDB7DEB7E88DE983E98DEA83EA8DA9
:10026000FB8DAC8DBD8D9E8C8F8C78A069A05AA023
:100270004BA03CA02DA02F923F924F925F926F9285
:100280007F928F929F92BF93AF93FF93EF93EA81F8
:10029000EF93E981EF930E944A09CDBFDEBF0F9033
:1002A0000F90DF91CF911F910F91FF90EF90DF9012
:1002B000CF90BF90AF909F908F907F906F905F9006
:1002C0004F903F902F9008954F925F927F928F9220
:1002D0009F92AF92BF92CF92DF92EF92FF920F93D5
:1002E0001F93CF93DF93CDB7DEB7E097CDBFDEBFCF
:1002F0006B01FC018B019C012C5F3F4F7B01622F46
:10030000932F8191D7017D917D01AF01415051091A
:1003100087271F967C911F9787275F967C91872759
:10032000DA018C93E217F30761F7E62FF92FB60194
:100330006C5F7F4F9F012C5F3F4F8191DB019D914F
:10034000BD01AF014150510989271F969C911F970C
:1003500089275F969C918927DA018C93E217F3072E
:1003600061F78091022090910320609104207091A8
:1003700005200E94DC0D9E012F5F3F4F7901C601D1
:10038000B0E0A0E050E040E0A617B70724F1690113
:10039000A8E0CA0ED11C5EC0F50171905F01F72D77
:1003A000F695F695E72DE3707E2EE4E0FE9F2001A2
:1003B0001124F201E80FF91FE70DF11D7080F4011F
:1003C00071924F01F1E0CF1AD10831F74C5F5F4FC6
:1003D0004031510559F0FA01E25DFF4D5F014A01DC
:1003E0008E0C9F1CE4E0CE2ED12CD6CF11964096D9
:1003F000F0E1EF0EF11CC6CF41305105E1F49089D8
:1004000095FBBB24B0F8892F880F8B29991F99275A
:10041000991F8927808B8FEFE81AF80A319684E0BC
:10042000E816F10449F71496CA16DB0689F0FD01B7
:10043000F12CE12CE1CF4230510569F780A1982FD2
:1004400090FB979597F9880F8078892780A3E3CF51
:100450004F5F5F4F4617570714F4D901E8CFF12CCF
:10046000E12C8091022090910320609104207091F2
:1004700005200E94DC0DE616F7067CF480E1F90108
:10048000D80101900D928A95E1F7BFEFEB1AFB0AB4
:10049000005F1F4F205F3F4FE4CFE096CDBFDEBF30
:1004A000DF91CF911F910F91FF90EF90DF90CF9050
:1004B000BF90AF909F908F907F905F904F900895E6
:1004C000FC01DB01AA5FBF4D8C91282F2F7090811A
:1004D0009227908382958370948189278483808575
:1004E00092E0892780870895CF93DF93FC019C01D8
:1004F000205F3F4FCF010496A191EF012197B0E01B
:10050000A25BBF4D4C914883E817F907A9F72E1756
:100510003F0781F7DF91CF910895FC018781968194
:100520009783958196839481958384838085928532
:100530009087828781859385918783878485958538
:100540009487968595879785968787870895FC0178
:10055000AC014C5F5F4FDF018085248128273196F5
:100560009C9189279385982783872783DF018E9124
:1005700083839C93E417F50771F70895EF92FF9238
:100580000F931F93CF93DF93CDB7DEB7C054D1093C
:10059000CDBFDEBF8C01DB019C0190E080E0BC019F
:1005A00063707727F90141919F01FC01EC7FEE24F4
:1005B000E394F12CEC0EFD1EEE0DFF1DE60FF71F70
:1005C00040AB4D9140831F964C911F97408B5F9697
:1005D0004C915F9740A301968031910501F7F12C72
:1005E000E12C8091002090910120E816F9061CF181
:1005F00090E080E09C0123703327FC01EC7FEE2427
:10060000E394F12CEC0EFD1EEE0DFF1DE20FF31F27
:1006100020A9F80121938F0101968031910551F7AE
:10062000C05CDF4FCDBFDEBFDF91CF911F910F9137
:10063000FF90EF900895CE01C1960E947402B70119
:10064000CE01C1960E946002BE016F5F7F4FCE0156
:10065000C1960E946401CE01C1960E948D02CE0116
:10066000C1960E94A7024FEFE41AF40ABACF0C9485
:10067000BE02EF92FF920F931F93CF93DF937C0103
:10068000FA01A901DB0190E080E0BF01615071092E
:10069000322F3F708E179F073CF0DF91CF911F9153
:1006A0000F91FF90EF9008958417950744F4870108
:1006B000080F191FE80128812D930196EBCF232FF6
:1006C00068177907C9F320E0F7CFFC01DB01AC0123
:1006D000405F5F4F2191822F8695922F90788927D6
:1006E00090E8299F9001112482278D934E175F0770
:1006F00089F70895EF92FF920F931F93CF93DF93A3
:10070000CDB7DEB76097CDBFDEBF7B0189019A010F
:10071000A801BE016F5F7F4F0E943903F701BE0140
:100720006F5F7F4F90E080E08017910754F06096F4
:10073000CDBFDEBFDF91CF911F910F91FF90EF9062
:1007400008952191DB013D91BD01AF014150510957
:100750002327DA012C930196E7CF8F929F92AF92D5
:10076000BF92CF92DF92EF92FF920F931F93CF939E
:10077000DF93CDB7DEB76097CDBFDEBF4B015A0127
:1007800079016801A801BE016F5F7F4F0E943903A4
:10079000B401C5010E9465038401D501CE01019613
:1007A00050E040E04C155D0584F06096CDBFDEBFA3
:1007B000DF91CF911F910F91FF90EF90DF90CF903D
:1007C000BF90AF909F908F9008953D91FC01219133
:1007D000CF01BD01615071093227FB0130834E15F5
:1007E0005F054CF4F80130812327F80121938F0134
:1007F0004F5F5F4FD7CF20E0F8CF8F929F92AF929D
:10080000BF92CF92DF92EF92FF920F931F93CF93FD
:10081000DF93CDB7DEB76097CDBFDEBF4C01CB0114
:100820005A0179016801A801BE016F5F7F4F0E94E4
:100830003903B401C5010E946503F401B5018E01BD
:100840000F5F1F4F30E020E02C153D0584F06096CF
:10085000CDBFDEBFDF91CF911F910F91FF90EF9041
:10086000DF90CF90BF90AF909F908F900895DB0165
:100870008C91D8019D918D0189272E153F0514F487
:1008800040818427DB018D93BD0180E02E153F055B
:1008900014F48081892781932F5F3F4FD5CFFC01CE
:1008A00081E0808311821282138214821582168263
:1008B0000895FC0126819581392F331F3327331F7B
:1008C000822F880F832B86838481382F331F332711
:1008D000331F990F932B95839381392F331F332720
:1008E000331F880F832B84838281382F331F332754
:1008F000331F990F932B93839181392F331F332704
:10090000331F880F832B82838081382F331F332737
:10091000331F990F932B880F27FF02C025E98227E9
:10092000918380830895EF92FF920F931F93CF934B
:10093000DF93FC01C701D901EF01295F3F4F1D91F2
:100940001993A217B307D9F7078328E0DF01189698
:10095000ED0119922A95E9F7DA01EF01609630E08E
:1009600020E02817390794F0DB014096E80FF91FC3
:10097000CB0140962D9121938A179B07D9F7DF91E0
:10098000CF911F910F91FF90EF9008954D91499352
:100990002F5F3F4FE6CFDF92EF92FF920F931F93AF
:1009A000CF93DF93CDB7DEB7E097CDBFDEBFD82EB4
:1009B000192FCE0101960E949304BE016F5F7F4FF5
:1009C0008D2D912F0E943703E096CDBFDEBFDF91C2
:1009D000CF911F910F91FF90EF90DF9008956F924C
:1009E0007F928F929F92AF92BF92CF92DF92EF92BF
:1009F000FF920F931F93CF93DF93CDB7DEB760972E
:100A0000CDBFDEBF3B015A01490168010E2DA60191
:100A1000D7FE02C040E050E0BC01CE0101960E942A
:100A20002E0E76019301AE014F5F5F4FB401C501F9
:100A30000E94CB046096CDBFDEBFDF91CF911F91A6
:100A40000F91FF90EF90DF90CF90BF90AF909F906D
:100A50008F907F906F900895EF92FF920F931F9366
:100A6000CF93DF93EC01CB018A0179016881798111
:100A70000E946503F70180819181081B190B888111
:100A80009981800F911F88839983DF91CF911F9166
:100A90000F91FF90EF9008952F923F924F925F92A7
:100AA0006F927F928F929F92AF92BF92CF92DF927E
:100AB000EF92FF920F931F93CF93DF93CDB7DEB7E3
:100AC0006597CDBFDEBF89839A836B837C83488B18
:100AD000598B2D873E870D831E83EA8AFB8AD601B8
:100AE000AC8ABD8A8F86FBA5ECA58DA58F838EA5CC
:100AF00088878FA5898788A98A8789A98B878AA9EA
:100B00008C87960140E050E060E070E080E090E08B
:100B1000AF2EBE2ECF80D884E984FA840B851C8545
:100B20000E94050E11F008F062C02F2F3E2FA60183
:100B3000B701C8015D01C12CD12CE12CF12C00E0E2
:100B400010E00E94FC0DD22EF32E1A012B013C0165
:100B50004D01E981FA8180819181EB81FC81A08046
:100B6000B1802BA98D0121114DC094014D815E8171
:100B7000B5010E94AD03EB81FC8180819181880DDC
:100B8000991D80839183E981FA8180819181880D0B
:100B9000991D808391838D859E850E945904EF84E1
:100BA0000C891D892A893B894D815E816D857E85F1
:100BB000888999890E94EF042D2D3F2DA101B20152
:100BC000C3016596CDBFDEBFDF91CF911F910F911D
:100BD000FF90EF90DF90CF90BF90AF909F908F905D
:100BE0007F906F905F904F903F902F9008958F2E41
:100BF0009E2ED12CF12C212C312C412C512C612CEE
:100C0000712CA7CF94014D815E81BC01C5010E946A
:100C1000FD03B1CF2F923F924F925F926F927F92DE
:100C20008F929F92AF92BF92CF92DF92EF92FF92FC
:100C30000F931F93CF93DF93CDB7DEB7A597CDBFAB
:100C4000DEBF898B9A8B69A37AA34CA35DA3FC2D8D
:100C5000ED2DBE2DAF2D0D8F1E8F2F8F38A3AB8E98
:100C6000BC8E8BA22BAD3CAD190140E050E060E0A2
:100C700070E080E090E0AC2CBD2CCE2CDF2C780115
:100C80000F8D18A10E94050E11F008F0B4C02F2F8F
:100C90003E2F4B2F5A2FB701C8015101C12CD12C27
:100CA000E12CF12C00E010E00E94FC0D49013A011A
:100CB000562E472E382E292E0BAD1CAD2BAD3CAD3C
:100CC000A80169A17AA1E989FA89808191810E94AC
:100CD0007A03E989FA8980819181800F911F80834D
:100CE00091838B8D9C8D0E9459049401A301652DE5
:100CF000742D832D922DA0E00E940E0E09F45FC08A
:100D00004DAD5EAD9A0150E040E060E070E0CB0197
:100D10002B8B3C8B4D8B5E8B6F8B788F898F9A8F53
:100D200040E050E060E070E080E090E0540163015A
:100D3000E52CF42C032D122D0E94050E11F008F065
:100D400065C09401A301652D742D832D922DAB8870
:100D5000BC88C12CD12CE12CF12C00E010E00E94C9
:100D6000FC0D49013A01562E472E382E292E0DAD85
:100D70001EAD98014DAD5EADBE016F5F7F4FE9893D
:100D8000FA89808191810E943903E989FA898081F9
:100D90009181800F911F80839183EDACFEAC0BA1FC
:100DA0002B8D3C8DAE014F5F5F4F6CA17DA189A162
:100DB0009AA10E94CB048B8D9C8D0E9459049401B2
:100DC000A301652D742D832D922DA596CDBFDEBF79
:100DD000DF91CF911F910F91FF90EF90DF90CF9017
:100DE000BF90AF909F908F907F906F905F904F904B
:100DF0003F902F9008950F2F1E2F812C912C612C46
:100E0000712C512C412C312C212C58CF8401812C58
:100E1000912C612C712C512C412C312C212CA9CFDF
:100E20002F923F924F925F926F927F928F929F92FA
:100E3000AF92BF92CF92DF92EF92FF920F931F93E8
:100E4000CF93DF93CDB7DEB7E997CDBFDEBF8CA7D9
:100E50009DA768AF79AFC8AAD9AAEAAAFBAA0CAB2A
:100E60001DAB2EAB3FAB6096CFAC60976196DFAC0D
:100E7000619762962FAC62976396FFAC6397649616
:100E80003FAC649765966FAC659766967FAC669746
:100E900067969FAC67976D964EAC5FAC6D97AAA6B0
:100EA000BBA648A759A7CE0141968EA79FA780E170
:100EB000EEA5FFA511928A95E9F7CE0181960E94D1
:100EC0004F049601422D5F2D632D762D872D992D90
:100ED000A0E00E940E0E09F094C0CE0181960E94FF
:100EE00059048AE1E82E00E110E09201AE014F5E64
:100EF0005F4FBE016F5D7F4F6B968EAD9FAD6B9761
:100F00000E94EF048E010F5D1F4FC8010E944F0425
:100F1000902E712E6E969FAD6E9728A939A94AA979
:100F20005BA96CA97DA98EA9911112C19FA9A0E10D
:100F30000E94F00DE8ADF9AD2083318342835383E5
:100F4000648375838683978328A939A94AA95BA9F5
:100F50006CA97DA98EA99FA9A0E00E940E0E09F0A0
:100F600004C1892D972D0E94590455E1E52E00E119
:100F700010E09201AE014F5E5F4F692D772D6B96A9
:100F80008EAD9FAD6B970E94EF046E969FAD6E97EE
:100F9000913009F070C18E010F5F1F4FD12CC12C11
:100FA000F02E912E6F2D792DCE0141960E94650372
:100FB000F80191918F01E8A5F9A5EC0DFD1D808147
:100FC000981365C1FFEFCF1ADF0A80E1C816D1047C
:100FD00049F790E080E0E996CDBFDEBFDF91CF9189
:100FE0001F910F91FF90EF90DF90CF90BF90AF9047
:100FF0009F908F907F906F905F904F903F902F9039
:1010000008959601422D5F2D632D762D872D992D04
:10101000AFE00E940E0E09F0E8F51F9280E18F9379
:101020001F928F93A8E08A2ECE0181965C01E22C5C
:10103000032D162D272D392DA201BE016F5E7F4F86
:1010400009960E940A066901242EF52E362E672E77
:10105000782E992EBAE1EB2E00E110E09201AE015C
:101060004F5E5F4FB5016B968EAD9FAD6B970E9443
:10107000EF040F900F900F900F909601422D5F2D6F
:10108000632D762D872D992DA0E00E940E0E09F07C
:10109000B8CF38CFA0E10E940E0E29F51F9280E153
:1010A0008F931F928F9318E0812EFE01B1965F01FE
:1010B00000E1C02ED12CE12CF12C00E010E020E06A
:1010C00030E0A201BE016F5E7F4FCE018A960E9482
:1010D0000A066901242EF52E362E672E782E992EBB
:1010E00078E1E72EB9CFAFE10E940E0E09F008F4C7
:1010F00094CFA0E20E940E0E69F41F9280E18F93BC
:101100001F928F93E8E08E2EFE01B1965F01F0E210
:10111000CF2ED0CF1F9280E18F931F928F9368E0E4
:10112000862ECE0181965C01E22C032D162D272DF3
:10113000392DA201BE016F5E7F4F09960E940A06FB
:101140006901242EF52E362E672E782E992E91CFFA
:101150009FA9A0EF0E94F00D28AB39AB4AAB5BAB67
:101160006CAB7DAB8EAB9FABE5CE28A939A94AA964
:101170005BA96CA97DA98EA99FA9AFE00E940E0E64
:1011800011F008F045C06E96FFAD6E97FF938FA9E2
:101190008F939EA99F93EDA9EF93FCA9FF938BA931
:1011A0008F939AA99F93E9A9EF93F8A9FF9345E13B
:1011B000842E80E1A82EB12C90E1C92ED12C720191
:1011C0008E010F5E1F4F292D372D6B964EAD5FADF3
:1011D0006B97BE01645D7F4FCE0188960E944C05DF
:1011E00028AB39AB4AAB5BAB6CAB7DAB8EAB9FAB8B
:1011F000CDBFDEBF28A939A94AA95BA96CA97DA9E1
:101200008EA99FA9A0E00E940E0E09F0AECFBDCE20
:1012100028A939A94AA95BA96CA97DA98EA99FA96A
:10122000A0E10E940E0E81F46E969FAD6E979F9383
:101230001F921F921F921F921F921F921F9280E176
:101240008F9334E1832EB5CF6E96FFAD6E97FF93EB
:101250008FA98F939EA99F93EDA9EF93FCA9FF936C
:101260008BA98F939AA99F93E9A9EF93F8A9FF936C
:1012700024E0822E9ECF28AD39AD40E150E0BE0182
:101280006F5E7F4FCE018C960E942C05A2CE8FEF11
:101290009FEFA1CE2F923F924F925F926F927F92DB
:1012A0008F929F92AF92BF92CF92DF92EF92FF9276
:1012B0000F931F93CF93DF930F920F92CDB7DEB7AB
:1012C000E88DE983E98DEA83EA8DFB8DAC8DBD8DD8
:1012D0009E8C8F8C78A069A05AA04BA03CA02DA01A
:1012E0001F922F923F924F925F926F927F928F92B6
:1012F0009F92BF93AF93FF93EF93EA81EF93E981BE
:10130000EF930E941007CDBFDEBF0F900F90DF91CB
:10131000CF911F910F91FF90EF90DF90CF90BF90F2
:10132000AF909F908F907F906F905F904F903F9085
:101330002F9008952F923F924F925F926F927F92DB
:101340008F929F92AF92BF92CF92DF92EF92FF92D5
:101350000F931F93CF93DF9300D0CDB7DEB7742EDA
:10136000652EA901AA2DFB2DEC2DD982EA822F2C06
:1013700098015401B98DBB831A8D0B8DFC8CED8CBB
:10138000DE8CCF8C98A089A05AA04BA03CA0B1E0E5
:10139000BF933F924F925F928F926F927F929F92F4
:1013A000CF92DF92EF92FF920F931F93BB81BF9377
:1013B000CA2EDF2EEE2EF9800A81122D0E94100710
:1013C000CDBFDEBF2396CDBFDEBFDF91CF911F9192
:1013D0000F91FF90EF90DF90CF90BF90AF909F90D4
:1013E0008F907F906F905F904F903F902F900895D7
:1013F000809360219093612180E0089580935E2125
:1014000090935F2180E008955F926F927F928F9218
:101410009F92AF92BF92CF92DF92EF92FF920F9383
:101420001F93CF93DF93CDB7DEB7A897CDBFDEBFB5
:101430004C01C62E19821A82FE0133968EE1DF011D
:101440001D928A95E9F719A21AA21BA21CA21DA23D
:101450001EA21FA218A689E60E94F70C83E70E942D
:10146000F70C8BE30E94F70CE0916021F091612171
:10147000808182958F70805D0E94F70CE0916021E1
:10148000F091612180818F70805D0E94F70C8BE369
:101490000E94F70CE0915E21F0915F21808182959E
:1014A0008F70805D0E94F70CE0915E21F0915F21CA
:1014B00080818F70805D0E94F70C8BE30E94F70C97
:1014C000612C86E0782E55245394F3015582809147
:1014D00061218F93809160218F9380915F218F9301
:1014E00080915E218F931F921F921F921F921F92D5
:1014F0001F921F921F921F921F92B12CA12CD12CD0
:10150000E12CF12C00E010E020E030E0A401BE016D
:101510006F5D7F4FCE0101960E941501D301169693
:101520005C928FE60E94F70CAE014F5F5F4F69A19E
:1015300082E70E94730BCDBFDEBF80E0A896CDBFCF
:10154000DEBFDF91CF911F910F91FF90EF90DF9061
:10155000CF90BF90AF909F908F907F906F905F9053
:101560000895CF93DF93CDB7DEB76097CDBFDEBFD1
:101570009C0119821A82FE0133968EE0DF011D92D2
:101580008A95E9F72093602130936121205F3F4FD6
:1015900020935E2130935F2160E0CE0101960E948E
:1015A000040A6096CDBFDEBFDF91CF91089581E040
:1015B0000895282F80E046EA615008F40895E22F4C
:1015C000F92F9191892728E030E087FF08C0880F24
:1015D000842721503109C9F72E2F9F2FEDCF880F77
:1015E000F8CF9C01FA01DB0150E040E042175307BD
:1015F0001CF090E080E008958C9111969C911197D9
:1016000060ED690F6A3078F4608390ED980F9A303E
:10161000D0F48295807F9081892B80834F5F5F4FCC
:1016200031961296E3CF6FEB690F663018F497533B
:101630009083EBCF6FE9690F663018F081E090E09E
:1016400008959755F5CF9FEB980F963040F4875348
:10165000990B64E0880F991F6A95E1F7DCCF9FE949
:10166000980F963058F78755990BF3CFDB016091AF
:10167000C2217091C32160317105D4F4A03CB10541
:10168000B8F496E0969FF001979FF00D1124EE5963
:10169000FE4D8083A183B2834383548325836F5F90
:1016A0007F4F6093C2217093C32190E080E0089542
:1016B00081E090E0089520E00C94360B47ED5AE06D
:1016C00070E060E086E70E945B0B46EB5BE070E059
:1016D00060E087E70E945B0B42EA5BE070E060E05D
:1016E00089E70C945B0BFF920F931F93CF93DF93CB
:1016F000162FF42E052F0E94F70CCF2DD02FCE01E0
:10170000810F911D8C01C017D10741F48AE0DF9150
:10171000CF911F910F91FF900C94F70CE991E295F6
:10172000EF70F0E0E25BFE4D80810E94F70CFE015D
:101730003197E081EF70F0E0E25BFE4D80810E9426
:10174000F70CE1CFCF93DF930F92CDB7DEB7809147
:10175000C2218983AE014F5F5F4F61E082E70E9443
:10176000730B80E00F90DF91CF910895CF93DF93BB
:10177000CDB7DEB7E097CDBFDEBF2091C22130915B
:10178000C321B901772740E056E0842F90E0861707
:10179000970784F0622F660F620FAE014F5F5F4FB5
:1017A00082E70E94730B80E0E096CDBFDEBFDF9141
:1017B000CF910895FC01EE0FFF1FE80FF91FA1E084
:1017C000B0E0AC0FBD1FEA0FFB1F589FD001599F1F
:1017D000B00D1124AE59BE4D8C91808311968C9121
:1017E0001197818315968C9182834F5FCECFAF92F4
:1017F000BF92CF92DF92EF92FF920F931F93CF93FE
:10180000DF93CDB7DEB7C154D240CDBFDEBF0E945B
:10181000F00C4091C2215091C32122E631E210E048
:1018200000E0041715070CF48EC04017510709F4A7
:101830007BC026E0209FC001219F900D11249C01B8
:101840002E593E4D7901D90115968C9180FF21C00A
:10185000CF57DE4F1882C158D1400E94F00C8983C7
:101860000E94F00C8A83AE014F575E4FBE016F5F3E
:101870007F4F81E090E00E94F10A892B09F054C06B
:10188000CF57DE4F8881C158D14090E0F701818366
:1018900092839E012F5F3F4F5901F12CE12C26E0EE
:1018A000209FC001219F900D1124DC01AD59BE4D38
:1018B0006D01D6018D919C91880F991FE816F9064C
:1018C00008F44CC00E94F00C8A3011F08D3061F5A4
:1018D00026E0209FC001219F900D11248C010E59FC
:1018E0001E4DF801F180AE014F575E4FBE016F5F94
:1018F0007F4F8F2D92810E94F10A892BA9F4D80184
:101900001396ED91FC916F2DCE018F579E4F199537
:10191000CF5BDD4F8883C154D240AE014F5B5D4F3A
:1019200061E08AE70E94730BCF5BDD4FCDBFDEBF66
:10193000DF91CF911F910F91FF90EF90DF90CF90AB
:10194000BF90AF9008952A5F3F4FF901369790817D
:10195000981709F46ECF0F5F1F4F63CF0E94F00CF2
:101960008A3011F38D3001F3F50181935F01FFEFB0
:10197000EF1AFF0A9ECFE0E4F6E088E0818384E07E
:101980008283E0EAF8E083E085838BE08683178238
:101990008481806184838481886084830895CF9367
:1019A000DF930F920F92CDB7DEB7FC0169837A8384
:1019B00090E080E029813A812817390711F480E00E
:1019C00008C02091A10827FF09C08091A00880834A
:1019D00081E00F900F90DF91CF9108950196EACFAB
:1019E0008091A10887FFFCCF8091A0080895909175
:1019F000A10895FFFCCF8093A0080895FC016083A7
:101A00007183428314861386168615860895FC0119
:101A100062830895FC01958526859F5F937081E020
:101A2000921301C080E008951F93CF93DF93EC01E0
:101A3000162F0E940A0D882379F09D85FE01E90F7B
:101A4000F11D17839F5F93709D87E881F9819381D2
:101A50009C7F2A81922B9383DF91CF911F910895D0
:101A6000FC012385948581E0291301C080E008955D
:101A7000FC018485DF01A80FB11D13968C9194851C
:101A80009F5F937094870895FC0183858F5F8370B7
:101A90002485A081B1819C91821749F02385DF01C3
:101AA000A20FB11D13969C93838781E0089580E077
:101AB0000895CF93DF93FC0186859585A081B18140
:101AC000981309C013968C9113978C7F13968C935F
:101AD000DF91CF9108958685EF01C80FD11D8F81C9
:101AE0008C9386858F5F83708687F2CFFC01CB0154
:101AF000248170FF04C021602483808308952E7F99
:101B0000FBCFFC01848180FF04C0808190E0916064
:101B10000895808190E0089510925200109255002F
:101B2000809150008860809350008091510083FF25
:101B3000FCCF88ED84BF83E08093400088E08093F1
:101B4000500008950E948C0D0E94BB0C81E0809390
:101B5000010688E60E94F70C85E60E94F70C8CE6E9
:101B60000E94F70C8CE60E94F70C8FE60E94F70C9F
:101B70008AE00E94F70C0E945E0B48EF59E060E19A
:101B800070E08BE60E945B0B4EEF59E060E170E085
:101B90008EE60E945B0B44E05AE060E170E080E773
:101BA0000E945B0B41EB5AE060E270E085E60E9428
:101BB0005B0B0E94F70BFDCF97FB072E16F40094EA
:101BC00007D077FD09D00E941A0E07FC05D03EF41D
:101BD000909581959F4F0895709561957F4F0895D9
:101BE0000024A7FD00942A0F301D401D501D601DCC
:101BF000701D801D901D08952A193B094C095D092F
:101C00006E097F09800B910B08952A153B054C0541
:101C10005D056E057F058007910708950024A7FDE7
:101C200000942A17300540055005600570058005B1
:101C300090050895AA1BBB1B51E107C0AA1FBB1F3B
:101C4000A617B70710F0A61BB70B881F991F5A9548
:101C5000A9F780959095BC01CD010895FB01DC01A9
:101C600002C001900D9241505040D8F70895F89469
:021C7000FFCFA4
:101C72002800800180000103070F1F3E3D3B372FE4
:101C82001E3C3933270E1D3A352B162C18302102F3
:101C9200050B172E1C383123060D1B362D1A090F82
:101CA200080D0A0E0C0B00010203040506070001D1
:101CB2000203070405060A0B08090D0E0F0C654CFA
:101CC2006A424B63436B55755A7A53735B7B358C0F
:101CD2003A818933803B9525982A9023992BE5CC2C
:101CE200E8C1C9E0C0E9D5F5D8F8D0F0D9F9A51C0A
:101CF200A8121BA013A905B50AB803B00BB9328804
:101D02003C858D34843D91229C2C94249D2D624AE5
:101D12006C454D64446D52725C7C54745D7DA11AB5
:101D2200AC151DA414AD02B10CBC04B40DBDE1C8C8
:101D3200ECC5CDE4C4EDD1F1DCFCD4F4DDFD368E8E
:101D420038828B30833996269A2893209B29664EB7
:101D52006841496040695676587850705979A61E94
:101D6200AA1119A310AB06B608BA00B309BBE6CE96
:101D7200EAC2CBE3C3EBD6F6DAFAD3F3DBFB318A62
:101D82003E868F37873F92219E2E97279F2F61484D
:101D92006E464F67476F51715E7E57775F7FA2181D
:101DA200AE161FA717AF01B20EBE07B70FBFE2CA2A
:101DB200EEC6CFE7C7EFD2F2DEFED7F7DFFF303154
:0E1DC2003233343536373839414243444546D2
:00000001FF
