:020000040800F2
:10000000003000209D610008E5610008E5610008FE
:10001000E5610008E5610008E561000800000000F6
:10002000000000000000000000000000E561000882
:10003000E561000800000000E5610008E5610008D6
:1000400000000000000000000000000000000000B0
:1000500000000000000000000000000000000000A0
:100060000000000000000000000000000000000090
:100070000000000000000000000000000000000080
:100080000000000000000000000000000000000070
:100090000000000000000000000000000000000060
:1000A0000000000000000000000000000000000050
:1000B0000000000000000000000000000000000040
:1000C0000000000000000000000000000000000030
:1000D0000000000000000000000000000000000020
:1000E0000000000000000000000000000000000010
:1000F0000000000000000000000000000000000000
:1001000000000000000000000000000000000000EF
:1001100000000000000000000000000000000000DF
:1001200000000000000000000000000000000000CF
:1001300000000000000000000000000000000000BF
:1001400000000000000000000000000000000000AF
:10015000000000000000000000000000000000009F
:10016000000000000000000000000000000000008F
:10017000000000000000000000000000000000007F
:08018000000000000000000077
:1001880010B5054C237833B9044B13B10448AFF3C9
:1001980000800123237010BDC80500200000000066
:1001A8004062000808B5034B1BB103490348AFF38D
:1001B800008008BD00000000CC0500204062000857
:1001C800F0B50024551E03F00F07944200DBF0BD84
:1001D8009C4203DA065D0E550134F6E7A5420CBFD2
:1001E8003E460026F7E770B5D0E900657308D0E908
:1001F800024203F07F3306F08030F601034306F035
:10020800803673400B606B0805F0803003F07F3355
:10021800ED01034305F080356B404B60630804F043
:10022800803003F07F33E401034304F080346340FB
:100238008B60530802F0803003F07F33D201034310
:1002480002F080325340CB6070BD70B5D0E90045F4
:10025800D0E90232600804F0803600F07F30E40113
:10026800304304F080344440680800F07F3005F0E3
:1002780080360643E80100F080305D08704005F0E4
:100288007F3503F08036DB01354303F080335D4072
:10029800530802F0803603F07F33D20102F0803237
:1002A80033435340220A4A70220C8A70020A4A7168
:1002B800020C8A712A0A4A722A0C8A722A0ECA7297
:1002C8001A0A0C700871240E000E0B734A731A0C6C
:1002D8001B0ECC70C8710D728A73CB7370BD026827
:1002E8000B6853400B6042684B6853404B60826810
:1002F8008B6853408B60C268CB685340CB607047B3
:100308001FB50C46134669461022FFF759FF2368AC
:10031800009A53402360019A636853406360029ACD
:10032800A3685340A360039AE3685340E36004B0B2
:1003380010BD70B5144606461046FFF754FF3268E4
:100348002368534023607268636853406360B268EF
:10035800A3685340A360F268E3685340E3603268DF
:100368000B6853400B6072684B6853404B60B2682F
:100378008B6853408B60F268CB685340CB6070BD8C
:10038800F0B585B014460A9E0F4632466946FFF717
:1003980017FF394620461D46FFF725FF2368009AB8
:1003A80053402360019A636853406360029AA368CC
:1003B8005340A360039AE3685340E360791E00202A
:1003C800B04201DB05B0F0BDA842BBBF4C781DF8B8
:1003D800003000245C4001F8014F0130F0E72DE9BE
:1003E800FF41DDF82880054614460846424669461E
:1003F800FFF7E6FE294620461F466E46FFF7F3FE46
:10040800691E601E0025454502DB04B0BDE8F08189
:10041800BD4216F8013B4478B8BF4A7884EA030421
:10042800B4BF5440E4B200F8014FBD42B6BF4A78A9
:100438000023534001F8013F0135E4E7D0E90031DA
:1004480011F4000218BF952282EA4302DB0F43EA47
:10045800410302604360704730B40C46029902942D
:10046800D1F8C0421546A4461A462B4630BC604710
:1004780030B5044687B00D46194623680293636871
:100488000393A3680493E36805939DF82830EB7100
:100498000B9B009310462B4602AAFFF7DDFF07B01F
:1004A80030BD70B504461E46084621681546FFF75C
:1004B800CCFE3368ED1A23682B44236070BD2DE908
:1004C800F347DDF828A00E46096805461746006878
:1004D80052469846DDE90E49FFF72BFF103131608F
:1004E8002B6810332B604046FFF7A8FF109B019341
:1004F8009DF830300093414638460B9B5246FFF733
:10050800B7FFB4F1100069F1000102B0BDE8F0874F
:100518002DE9F743DDF83880DDF828901F461023D1
:1005280000930D460446164643464A460968006845
:10053800FFF726FF2B6843442B6021684144216064
:100548003846FFF77BFF109B01939DF830300093EE
:10055800394630460B9B4A46FFF78AFF00200021A8
:1005680003B0BDE8F0832DE9F74FDDE91045102C05
:100578009A4675F10003DDF830B006460F469146FD
:100588004FF0100324D3B4F1100845F1FF351C4691
:100598003968306800935A462346FFF720FF3B68C6
:1005A80023443B603368234433605046FFF746FFDB
:1005B800129B01939DF838300093514648460D9B95
:1005C8005A46FFF755FF4046294603B0BDE8F08F6D
:1005D8004FF000084546DBE72DE9F04786B0046890
:1005E800109E074620469246DDE90E59FFF777FE32
:1005F80030468846FFF722FF236902936369039315
:10060800A3690493E369059320349DF844303C6062
:10061800F371129B00935146334602AA4046FFF7F6
:100628001BFF3046FFF70AFFB5F1200069F1000112
:1006380006B0BDE8F0872DE9F04387B004460068AE
:10064800109E0E9B00F11009B3F110059046FFF7BC
:1006580046FE3046C4F800900F46FFF7EFFE02A9A9
:100668002B4648461022FFF7ABFD4B4423609DF80C
:100678004430F371129B00930A463346414638468C
:10068800FFF7EAFE3046FFF7D9FE0020002107B049
:10069800BDE8F08338B5044600681546FFF71FFE2D
:1006A800103020602846FFF7C9FE0020002138BD21
:1006B80038B50546006814460444FFF721FE04983F
:1006C8002C60FFF7BBFE0020002138BD2DE9F04F5C
:1006D800ADF5457DDDE9D2A7D09B0990CDE90B3278
:1006E800744BC39301220023CDE90F33CDE91133B5
:1006F800CDE90D235AEA0703DDE9CE45DDE9D586C4
:1007080089460DF14C0B3BD10DA8FFF797FE1A2334
:1007180000930146CDF804B033460FAA4046FFF7D0
:10072800A7FE0DF14C0A644BCAF8C032012200231F
:10073800CDE90D2314F1100245F10003C9E90023A6
:1007480054EA05030FAF00F083804FF0140B102C10
:1007580075F1000380F094801523CDE90163CDE99C
:100768000445CDF818A000970DAB424609A90CA87E
:10077800FFF7CEFE50EA010304460D46E7D174E0C8
:10078800BAF1100F77F1000317D20DAB0093524660
:100798003B460FA90BA8FFF78BFF13AB82460F460A
:1007A80001931A2300930FAA33460DA94046FFF779
:1007B8005FFE5AEA0703E3D1B3E7AAF110033B430C
:1007C8000AD10DAA0FA90BA8FFF764FF13AB824645
:1007D8000F4601931823E5E7BAF1200F77F10003DC
:1007E8000DF14C0B11D2082303930DABCDE900A7F3
:1007F800CDF810B0029332460FA90BA8FFF71BFFE4
:10080800CDF804B082460F46CBE7AAF120033B435C
:100818004FF0080303930DABCDF810B002930DD140
:1008280020220023CDE900230FA932460BA8FFF7A9
:10083800D3FECDF804B082460F46CBE7CDE900A73A
:1008480032460FA90BA8FFF7C7FE82460F46B0E74E
:100858000DA8FFF7F3FD152300930146CDF804A07A
:1008680033463A464046FFF703FE09A84B46102296
:100878003946FFF716FE00200DF5457DBDE8F08FDF
:10088800A4F110032B43CDF818A00ED11023002497
:10089800CDE90434CDF808B0CDE900760DAB424679
:1008A80009A90CA8FFF70BFE64E70423CDE904456A
:1008B8000293F1E78D4E0008214F00082DE9F04F13
:1008C800ADF5497DDDE9D6540993D49B8A46CDE937
:1008D8000B300021714BC79310220FA8DDE9D267B6
:1008E800DDE9D89805F0A0FC00230121CDE90D131E
:1008F80055EA04030DF15C0B39D10DA8FFF79EFDF5
:100908001A2300930146CDF804B043460FAA48467F
:10091800FFF7AEFDB6F110004FF0000347F1FF31CD
:100928000122CDE90D2350EA0103CAE9000117AD00
:100938000FAC00F0828004264FF0100A4FF0000B35
:100948001427102871F1000380F09780CDE9040185
:100958001523069502930DABCDE900484A4609A92F
:100968000CA8FFF700FE50EA0103EAD171E0102D50
:1009780074F1000317D20DAB00932A4623460FA942
:100988000BA8FFF795FE17AB05460C4601931A23F3
:1009980000930FAA43460DA94846FFF769FD55EA9B
:1009A8000403E4D1B6E7A5F1100323430AD10DAA45
:1009B8000FA90BA8FFF76EFE17AB05460C4601936F
:1009C8001823E5E7202D74F100030DF15C0B11D21B
:1009D800082303930DABCDE90054CDF810B0029372
:1009E80042460FA90BA8FFF726FECDF804B005462E
:1009F8000C46CCE7A5F1200323434FF008030393EB
:100A08000DABCDF810B002930DD120230024CDE911
:100A1800003442460FA90BA8FFF7DEFDCDF804B05D
:100A280005460C46CCE7CDE9005442460FA90BA871
:100A3800FFF7D2FD05460C46B1E70DA8FFF7FEFC0F
:100A48001523009301460195434622464846FFF781
:100A58000FFD13A92046FFF7F8FB099B5A1E0F3319
:100A680011F8010B12F8014F844213D19342F7D1C8
:100A780000200DF5497DBDE8F08FA0F110030B4370
:100A8800069503D1CDE904AB029764E7CDE90401EB
:100A9800029660E74FF0FF30EBE700BF8D4E00088D
:100AA8002DE9F007D0F81010D0F81420D0F818303D
:100AB800D0F81C404FF0FE374FF00138D0F8809145
:100AC800D0F884A189EA01098AEA020AC0F84090AC
:100AD800C0F844A01D4626460B46144696FA86F1F1
:100AE8004FEA012165F317414FEA152565F3070120
:100AF80095FA95F266F317424FEA164666F30F2207
:100B080007EA410508EAD11608EA511181EA060107
:100B180081EA050107EA420508EAD21608EA5212F4
:100B280082EA060282EA0502D0F88891D0F88CA100
:100B380089EA01098AEA020AC0F84890C0F84CA07C
:100B48001D4626460B46144696FA86F14FEA0121C1
:100B580065F317414FEA152565F3070195FA95F2F4
:100B680066F317424FEA164666F30F2207EA410575
:100B780008EAD11608EA511181EA060181EA05015D
:100B880007EA420508EAD21608EA521282EA060281
:100B980082EA0502D0F89091D0F894A189EA010977
:100BA8008AEA020AC0F85090C0F854A01D462646AA
:100BB8000B46144696FA86F14FEA012165F3174170
:100BC8004FEA152565F3070195FA95F266F3174282
:100BD8004FEA164666F30F2207EA410508EAD116DE
:100BE80008EA511181EA060181EA050107EA42058E
:100BF80008EAD21608EA521282EA060282EA0502D6
:100C0800D0F89891D0F89CA189EA01098AEA020AE9
:100C1800C0F85890C0F85CA01D4626460B461446FE
:100C280096FA86F14FEA012165F317414FEA152537
:100C380065F3070195FA95F266F317424FEA1646EF
:100C480066F30F2207EA410508EAD11608EA5111AE
:100C580081EA060181EA050107EA420508EAD21697
:100C680008EA521282EA060282EA0502D0F8A09146
:100C7800D0F8A4A189EA01098AEA020AC0F86090BA
:100C8800C0F864A01D4626460B46144696FA86F11F
:100C98004FEA012165F317414FEA152565F307016E
:100CA80095FA95F266F317424FEA164666F30F2255
:100CB80007EA410508EAD11608EA511181EA060156
:100CC80081EA050107EA420508EAD21608EA521243
:100CD80082EA060282EA0502D0F8A891D0F8ACA10F
:100CE80089EA01098AEA020AC0F86890C0F86CA08B
:100CF8001D4626460B46144696FA86F14FEA012110
:100D080065F317414FEA152565F3070195FA95F242
:100D180066F317424FEA164666F30F2207EA4105C3
:100D280008EAD11608EA511181EA060181EA0501AB
:100D380007EA420508EAD21608EA521282EA0602CF
:100D480082EA0502D0F8B091D0F8B4A189EA010985
:100D58008AEA020AC0F87090C0F874A01D462646B8
:100D68000B46144696FA86F14FEA012165F31741BE
:100D78004FEA152565F3070195FA95F266F31742D0
:100D88004FEA164666F30F2207EA410508EAD1162C
:100D980008EA511181EA060181EA050107EA4205DC
:100DA80008EAD21608EA521282EA060282EA050224
:100DB800D0F8B891D0F8BCA189EA01098AEA020AF8
:100DC800C0F87890C0F87CA01D4626460B4614460D
:100DD80096FA86F14FEA012165F317414FEA152586
:100DE80065F3070195FA95F266F317424FEA16463E
:100DF80066F30F2207EA410508EAD11608EA5111FD
:100E080081EA060181EA050107EA420508EAD216E5
:100E180008EA521282EA060282EA0502D0F8C09174
:100E2800D0F8C4A189EA01098AEA020AC0F88090C8
:100E3800C0F884A01D4626460B46144696FA86F14D
:100E48004FEA012165F317414FEA152565F30701BC
:100E580095FA95F266F317424FEA164666F30F22A3
:100E680007EA410508EAD11608EA511181EA0601A4
:100E780081EA050107EA420508EAD21608EA521291
:100E880082EA060282EA0502D0F8C891D0F8CCA11D
:100E980089EA01098AEA020AC0F88890C0F88CA099
:100EA8001D4626460B46144696FA86F14FEA01215E
:100EB80065F317414FEA152565F3070195FA95F291
:100EC80066F317424FEA164666F30F2207EA410512
:100ED80008EAD11608EA511181EA060181EA0501FA
:100EE80007EA420508EAD21608EA521282EA06021E
:100EF80082EA0502D0F8D091D0F8D4A189EA010994
:100F08008AEA020AC0F89090C0F894A01D462646C6
:100F18000B46144696FA86F14FEA012165F317410C
:100F28004FEA152565F3070195FA95F266F317421E
:100F38004FEA164666F30F2207EA410508EAD1167A
:100F480008EA511181EA060181EA050107EA42052A
:100F580008EAD21608EA521282EA060282EA050272
:100F6800D0F8D891D0F8DCA189EA01098AEA020A06
:100F7800C0F89890C0F89CA01D4626460B4614461B
:100F880096FA86F14FEA012165F317414FEA1525D4
:100F980065F3070195FA95F266F317424FEA16468C
:100FA80066F30F2207EA410508EAD11608EA51114B
:100FB80081EA060181EA050107EA420508EAD21634
:100FC80008EA521282EA060282EA0502D0F8E091A3
:100FD800D0F8E4A189EA01098AEA020AC0F8A090D7
:100FE800C0F8A4A01D4626460B46144696FA86F17C
:100FF8004FEA012165F317414FEA152565F307010B
:1010080095FA95F266F317424FEA164666F30F22F1
:1010180007EA410508EAD11608EA511181EA0601F2
:1010280081EA050107EA420508EAD21608EA5212DF
:1010380082EA060282EA0502D0F8E891D0F8ECA12B
:1010480089EA01098AEA020AC0F8A890C0F8ACA0A7
:101058001D4626460B46144696FA86F14FEA0121AC
:1010680065F317414FEA152565F3070195FA95F2DF
:1010780066F317424FEA164666F30F2207EA410560
:1010880008EAD11608EA511181EA060181EA050148
:1010980007EA420508EAD21608EA521282EA06026C
:1010A80082EA0502D0F8F091D0F8F4A189EA0109A2
:1010B8008AEA020AC0F8B090C0F8B4A01D462646D5
:1010C8000B46144696FA86F14FEA012165F317415B
:1010D8004FEA152565F3070195FA95F266F317426D
:1010E8004FEA164666F30F2207EA410508EAD116C9
:1010F80008EA511181EA060181EA050107EA420579
:1011080008EAD21608EA521282EA060282EA0502C0
:10111800D0F8F891D0F8FCA189EA01098AEA020A14
:10112800C0F8B890C0F8BCA01D4626460B46144629
:1011380096FA86F14FEA012165F317414FEA152522
:1011480065F3070195FA95F266F317424FEA1646DA
:1011580066F30F2207EA410508EAD11608EA511199
:1011680081EA060181EA050107EA420508EAD21682
:1011780008EA521282EA060282EA0502D0F80092D0
:10118800D0F804A289EA01098AEA020AC0F8C090E4
:10119800C0F8C4A01D4626460B46144696FA86F1AA
:1011A8004FEA012165F317414FEA152565F3070159
:1011B80095FA95F266F317424FEA164666F30F2240
:1011C80007EA410508EAD11608EA511181EA060141
:1011D80081EA050107EA420508EAD21608EA52122E
:1011E80082EA060282EA0502D0F80892D0F80CA238
:1011F80089EA01098AEA020AC0F8C890C0F8CCA0B6
:101208001D4626460B46144696FA86F14FEA0121FA
:1012180065F317414FEA152565F3070195FA95F22D
:1012280066F317424FEA164666F30F2207EA4105AE
:1012380008EAD11608EA511181EA060181EA050196
:1012480007EA420508EAD21608EA521282EA0602BA
:1012580082EA0502D0F81092D0F814A289EA0109AE
:101268008AEA020AC0F8D090C0F8D4A01D462646E3
:101278000B46144696FA86F14FEA012165F31741A9
:101288004FEA152565F3070195FA95F266F31742BB
:101298004FEA164666F30F2207EA410508EAD11617
:1012A80008EA511181EA060181EA050107EA4205C7
:1012B80008EAD21608EA521282EA060282EA05020F
:1012C800D0F81892D0F81CA289EA01098AEA020A21
:1012D800C0F8D890C0F8DCA01D4626460B46144638
:1012E80096FA86F14FEA012165F317414FEA152571
:1012F80065F3070195FA95F266F317424FEA164629
:1013080066F30F2207EA410508EAD11608EA5111E7
:1013180081EA060181EA050107EA420508EAD216D0
:1013280008EA521282EA060282EA0502D0F82092FE
:10133800D0F824A289EA01098AEA020AC0F8E090F2
:10134800C0F8E4A01D4626460B46144696FA86F1D8
:101358004FEA012165F317414FEA152565F30701A7
:1013680095FA95F266F317424FEA164666F30F228E
:1013780007EA410508EAD11608EA511181EA06018F
:1013880081EA050107EA420508EAD21608EA52127C
:1013980082EA060282EA0502D0F82892D0F82CA246
:1013A80089EA01098AEA020AC0F8E890C0F8ECA0C4
:1013B8001D4626460B46144696FA86F14FEA012149
:1013C80065F317414FEA152565F3070195FA95F27C
:1013D80066F317424FEA164666F30F2207EA4105FD
:1013E80008EAD11608EA511181EA060181EA0501E5
:1013F80007EA420508EAD21608EA521282EA060209
:1014080082EA0502D0F83092D0F834A289EA0109BC
:101418008AEA020AC0F8F090C0F8F4A01D462646F1
:101428000B46144696FA86F14FEA012165F31741F7
:101438004FEA152565F3070195FA95F266F3174209
:101448004FEA164666F30F2207EA410508EAD11665
:1014580008EA511181EA060181EA050107EA420515
:1014680008EAD21608EA521282EA060282EA05025D
:10147800D0F83892D0F83CA289EA01098AEA020A2F
:10148800C0F8F890C0F8FCA01D4626460B46144646
:1014980096FA86F14FEA012165F317414FEA1525BF
:1014A80065F3070195FA95F266F317424FEA164677
:1014B80066F30F2207EA410508EAD11608EA511136
:1014C80081EA060181EA050107EA420508EAD2161F
:1014D80008EA521282EA060282EA0502D0F840922D
:1014E800D0F844A289EA01098AEA020AC0F8009100
:1014F800C0F804A11D4626460B46144696FA86F106
:101508004FEA012165F317414FEA152565F30701F5
:1015180095FA95F266F317424FEA164666F30F22DC
:1015280007EA410508EAD11608EA511181EA0601DD
:1015380081EA050107EA420508EAD21608EA5212CA
:1015480082EA060282EA0502D0F84892D0F84CA254
:1015580089EA01098AEA020AC0F80891C0F80CA1D0
:101568001D4626460B46144696FA86F14FEA012197
:1015780065F317414FEA152565F3070195FA95F2CA
:1015880066F317424FEA164666F30F2207EA41054B
:1015980008EAD11608EA511181EA060181EA050133
:1015A80007EA420508EAD21608EA521282EA060257
:1015B80082EA0502D0F85092D0F854A289EA0109CB
:1015C8008AEA020AC0F81091C0F814A11D462646FE
:1015D8000B46144696FA86F14FEA012165F3174146
:1015E8004FEA152565F3070195FA95F266F3174258
:1015F8004FEA164666F30F2207EA410508EAD116B4
:1016080008EA511181EA060181EA050107EA420563
:1016180008EAD21608EA521282EA060282EA0502AB
:10162800D0F85892D0F85CA289EA01098AEA020A3D
:10163800C0F81891C0F81CA11D4626460B46144652
:1016480096FA86F14FEA012165F317414FEA15250D
:1016580065F3070195FA95F266F317424FEA1646C5
:1016680066F30F2207EA410508EAD11608EA511184
:1016780081EA060181EA050107EA420508EAD2166D
:1016880008EA521282EA060282EA0502D0F860925B
:10169800D0F864A289EA01098AEA020AC0F820910E
:1016A800C0F824A11D4626460B46144696FA86F134
:1016B8004FEA012165F317414FEA152565F3070144
:1016C80095FA95F266F317424FEA164666F30F222B
:1016D80007EA410508EAD11608EA511181EA06012C
:1016E80081EA050107EA420508EAD21608EA521219
:1016F80082EA060282EA0502D0F86892D0F86CA263
:1017080089EA01098AEA020AC0F82891C0F82CA1DE
:101718001D4626460B46144696FA86F14FEA0121E5
:1017280065F317414FEA152565F3070195FA95F218
:1017380066F317424FEA164666F30F2207EA410599
:1017480008EAD11608EA511181EA060181EA050181
:1017580007EA420508EAD21608EA521282EA0602A5
:1017680082EA0502D0F87092D0F874A289EA0109D9
:101778008AEA020AC0F83091C0F834A11D4626460C
:101788000B46144696FA86F14FEA012165F3174194
:101798004FEA152565F3070195FA95F266F31742A6
:1017A8004FEA164666F30F2207EA410508EAD11602
:1017B80008EA511181EA060181EA050107EA4205B2
:1017C80008EAD21608EA521282EA060282EA0502FA
:1017D800D0F87892D0F87CA289EA01098AEA020A4C
:1017E800C0F83891C0F83CA11D4626460B46144661
:1017F80096FA86F14FEA012165F317414FEA15255C
:1018080065F3070195FA95F266F317424FEA164613
:1018180066F30F2207EA410508EAD11608EA5111D2
:1018280081EA060181EA050107EA420508EAD216BB
:1018380008EA521282EA060282EA0502D0F8809289
:10184800D0F884A289EA01098AEA020AC0F840911C
:10185800C0F844A11D4626460B46144696FA86F162
:101868004FEA012165F317414FEA152565F3070192
:1018780095FA95F266F317424FEA164666F30F2279
:1018880007EA410508EAD11608EA511181EA06017A
:1018980081EA050107EA420508EAD21608EA521267
:1018A80082EA060282EA0502D0F88892D0F88CA271
:1018B80089EA01098AEA020AC0F84891C0F84CA1ED
:1018C8001D4626460B46144696FA86F14FEA012134
:1018D80065F317414FEA152565F3070195FA95F267
:1018E80066F317424FEA164666F30F2207EA4105E8
:1018F80008EAD11608EA511181EA060181EA0501D0
:1019080007EA420508EAD21608EA521282EA0602F3
:1019180082EA0502D0F89092D0F894A289EA0109E7
:101928008AEA020AC0F85091C0F854A11D4626461A
:101938000B46144696FA86F14FEA012165F31741E2
:101948004FEA152565F3070195FA95F266F31742F4
:101958004FEA164666F30F2207EA410508EAD11650
:1019680008EA511181EA060181EA050107EA420500
:1019780008EAD21608EA521282EA060282EA050248
:10198800D0F89892D0F89CA289EA01098AEA020A5A
:10199800C0F85891C0F85CA11D4626460B4614466F
:1019A80096FA86F14FEA012165F317414FEA1525AA
:1019B80065F3070195FA95F266F317424FEA164662
:1019C80066F30F2207EA410508EAD11608EA511121
:1019D80081EA060181EA050107EA420508EAD2160A
:1019E80008EA521282EA060282EA0502D0F8A092B8
:1019F800D0F8A4A289EA01098AEA020AC0F860912B
:101A0800C0F864A11D4626460B46144696FA86F190
:101A18004FEA012165F317414FEA152565F30701E0
:101A280095FA95F266F317424FEA164666F30F22C7
:101A380007EA410508EAD11608EA511181EA0601C8
:101A480081EA050107EA420508EAD21608EA5212B5
:101A580082EA060282EA0502D0F8A892D0F8ACA27F
:101A680089EA01098AEA020AC0F86891C0F86CA1FB
:101A78001D4626460B46144696FA86F14FEA012182
:101A880065F317414FEA152565F3070195FA95F2B5
:101A980066F317424FEA164666F30F2207EA410536
:101AA80008EAD11608EA511181EA060181EA05011E
:101AB80007EA420508EAD21608EA521282EA060242
:101AC80082EA0502D0F8B092D0F8B4A289EA0109F6
:101AD8008AEA020AC0F87091C0F874A11D46264629
:101AE8000B46144696FA86F14FEA012165F3174131
:101AF8004FEA152565F3070195FA95F266F3174243
:101B08004FEA164666F30F2207EA410508EAD1169E
:101B180008EA511181EA060181EA050107EA42054E
:101B280008EAD21608EA521282EA060282EA050296
:101B3800D0F8B892D0F8BCA289EA01098AEA020A68
:101B4800C0F87891C0F87CA1BDE8F007704700BFE5
:101B58002DE9F003D0F82020D0F82430D0F8284020
:101B6800D0F82C504FF07F384FF0803991F8006052
:101B780083EA161706F00F0686EA0206C0F88061A7
:101B8800C0F8847126462F4614461D4697FA87F2F8
:101B98004FEA022266F317424FEA162666F3070257
:101BA80096FA96F367F317434FEA174767F30F233D
:101BB80008EA520609EAC21709EA420282EA07025B
:101BC80082EA060208EA530609EAC31709EA430348
:101BD80083EA070383EA060391F8016083EA16178C
:101BE80006F00F0686EA0206C0F88861C0F88C7114
:101BF80026462F4614461D4697FA87F24FEA0222D8
:101C080066F317424FEA162666F3070296FA96F32A
:101C180067F317434FEA174767F30F2308EA52069B
:101C280009EAC21709EA420282EA070282EA0602C0
:101C380008EA530609EAC31709EA430383EA0703D4
:101C480083EA060391F8026083EA161706F00F0686
:101C580086EA0206C0F89061C0F8947126462F46BD
:101C680014461D4697FA87F24FEA022266F3174296
:101C78004FEA162666F3070296FA96F367F31743B8
:101C88004FEA174767F30F2308EA520609EAC21713
:101C980009EA420282EA070282EA060208EA5306D1
:101CA80009EAC31709EA430383EA070383EA060339
:101CB80091F8036083EA161706F00F0686EA020613
:101CC800C0F89861C0F89C7126462F4614461D46F8
:101CD80097FA87F24FEA022266F317424FEA16266E
:101CE80066F3070296FA96F367F317434FEA174726
:101CF80067F30F2308EA520609EAC21709EA420203
:101D080082EA070282EA060208EA530609EAC317CA
:101D180009EA430383EA070383EA060391F80460A8
:101D280083EA161706F00F0686EA0206C0F8A061D5
:101D3800C0F8A47126462F4614461D4697FA87F226
:101D48004FEA022266F317424FEA162666F30702A5
:101D580096FA96F367F317434FEA174767F30F238B
:101D680008EA520609EAC21709EA420282EA0702A9
:101D780082EA060208EA530609EAC31709EA430396
:101D880083EA070383EA060391F8056083EA1617D6
:101D980006F00F0686EA0206C0F8A861C0F8AC7122
:101DA80026462F4614461D4697FA87F24FEA022226
:101DB80066F317424FEA162666F3070296FA96F379
:101DC80067F317434FEA174767F30F2308EA5206EA
:101DD80009EAC21709EA420282EA070282EA06020F
:101DE80008EA530609EAC31709EA430383EA070323
:101DF80083EA060391F8066083EA161706F00F06D1
:101E080086EA0206C0F8B061C0F8B47126462F46CB
:101E180014461D4697FA87F24FEA022266F31742E4
:101E28004FEA162666F3070296FA96F367F3174306
:101E38004FEA174767F30F2308EA520609EAC21761
:101E480009EA420282EA070282EA060208EA53061F
:101E580009EAC31709EA430383EA070383EA060387
:101E680091F8076083EA161706F00F0686EA02065D
:101E7800C0F8B861C0F8BC7126462F4614461D4606
:101E880097FA87F24FEA022266F317424FEA1626BC
:101E980066F3070296FA96F367F317434FEA174774
:101EA80067F30F2308EA520609EAC21709EA420251
:101EB80082EA070282EA060208EA530609EAC31719
:101EC80009EA430383EA070383EA060391F80860F3
:101ED80083EA161706F00F0686EA0206C0F8C06104
:101EE800C0F8C47126462F4614461D4697FA87F255
:101EF8004FEA022266F317424FEA162666F30702F4
:101F080096FA96F367F317434FEA174767F30F23D9
:101F180008EA520609EAC21709EA420282EA0702F7
:101F280082EA060208EA530609EAC31709EA4303E4
:101F380083EA070383EA060391F8096083EA161720
:101F480006F00F0686EA0206C0F8C861C0F8CC7130
:101F580026462F4614461D4697FA87F24FEA022274
:101F680066F317424FEA162666F3070296FA96F3C7
:101F780067F317434FEA174767F30F2308EA520638
:101F880009EAC21709EA420282EA070282EA06025D
:101F980008EA530609EAC31709EA430383EA070371
:101FA80083EA060391F80A6083EA161706F00F061B
:101FB80086EA0206C0F8D061C0F8D47126462F46DA
:101FC80014461D4697FA87F24FEA022266F3174233
:101FD8004FEA162666F3070296FA96F367F3174355
:101FE8004FEA174767F30F2308EA520609EAC217B0
:101FF80009EA420282EA070282EA060208EA53066E
:1020080009EAC31709EA430383EA070383EA0603D5
:1020180091F80B6083EA161706F00F0686EA0206A7
:10202800C0F8D861C0F8DC7126462F4614461D4614
:1020380097FA87F24FEA022266F317424FEA16260A
:1020480066F3070296FA96F367F317434FEA1747C2
:1020580067F30F2308EA520609EAC21709EA42029F
:1020680082EA070282EA060208EA530609EAC31767
:1020780009EA430383EA070383EA060391F80C603D
:1020880083EA161706F00F0686EA0206C0F8E06132
:10209800C0F8E47126462F4614461D4697FA87F283
:1020A8004FEA022266F317424FEA162666F3070242
:1020B80096FA96F367F317434FEA174767F30F2328
:1020C80008EA520609EAC21709EA420282EA070246
:1020D80082EA060208EA530609EAC31709EA430333
:1020E80083EA070383EA060391F80D6083EA16176B
:1020F80006F00F0686EA0206C0F8E861C0F8EC713F
:1021080026462F4614461D4697FA87F24FEA0222C2
:1021180066F317424FEA162666F3070296FA96F315
:1021280067F317434FEA174767F30F2308EA520686
:1021380009EAC21709EA420282EA070282EA0602AB
:1021480008EA530609EAC31709EA430383EA0703BF
:1021580083EA060391F80E6083EA161706F00F0665
:1021680086EA0206C0F8F061C0F8F47126462F46E8
:1021780014461D4697FA87F24FEA022266F3174281
:102188004FEA162666F3070296FA96F367F31743A3
:102198004FEA174767F30F2308EA520609EAC217FE
:1021A80009EA420282EA070282EA060208EA5306BC
:1021B80009EAC31709EA430383EA070383EA060324
:1021C80091F80F6083EA161706F00F0686EA0206F2
:1021D800C0F8F861C0F8FC7126462F4614461D4623
:1021E80097FA87F24FEA022266F317424FEA162659
:1021F80066F3070296FA96F367F317434FEA174711
:1022080067F30F2308EA520609EAC21709EA4202ED
:1022180082EA070282EA060208EA530609EAC317B5
:1022280009EA430383EA070383EA060391F8106087
:1022380083EA161706F00F0686EA0206C0F800625F
:10224800C0F8047226462F4614461D4697FA87F2B0
:102258004FEA022266F317424FEA162666F3070290
:1022680096FA96F367F317434FEA174767F30F2376
:1022780008EA520609EAC21709EA420282EA070294
:1022880082EA060208EA530609EAC31709EA430381
:1022980083EA070383EA060391F8116083EA1617B5
:1022A80006F00F0686EA0206C0F80862C0F80C724B
:1022B80026462F4614461D4697FA87F24FEA022211
:1022C80066F317424FEA162666F3070296FA96F364
:1022D80067F317434FEA174767F30F2308EA5206D5
:1022E80009EAC21709EA420282EA070282EA0602FA
:1022F80008EA530609EAC31709EA430383EA07030E
:1023080083EA060391F8126083EA161706F00F06AF
:1023180086EA0206C0F81062C0F8147226462F46F4
:1023280014461D4697FA87F24FEA022266F31742CF
:102338004FEA162666F3070296FA96F367F31743F1
:102348004FEA174767F30F2308EA520609EAC2174C
:1023580009EA420282EA070282EA060208EA53060A
:1023680009EAC31709EA430383EA070383EA060372
:1023780091F8136083EA161706F00F0686EA02063C
:10238800C0F81862C0F81C7226462F4614461D462F
:1023980097FA87F24FEA022266F317424FEA1626A7
:1023A80066F3070296FA96F367F317434FEA17475F
:1023B80067F30F2308EA520609EAC21709EA42023C
:1023C80082EA070282EA060208EA530609EAC31704
:1023D80009EA430383EA070383EA060391F81460D2
:1023E80083EA161706F00F0686EA0206C0F820628E
:1023F800C0F8247226462F4614461D4697FA87F2DF
:102408004FEA022266F317424FEA162666F30702DE
:1024180096FA96F367F317434FEA174767F30F23C4
:1024280008EA520609EAC21709EA420282EA0702E2
:1024380082EA060208EA530609EAC31709EA4303CF
:1024480083EA070383EA060391F8156083EA1617FF
:1024580006F00F0686EA0206C0F82862C0F82C7259
:1024680026462F4614461D4697FA87F24FEA02225F
:1024780066F317424FEA162666F3070296FA96F3B2
:1024880067F317434FEA174767F30F2308EA520623
:1024980009EAC21709EA420282EA070282EA060248
:1024A80008EA530609EAC31709EA430383EA07035C
:1024B80083EA060391F8166083EA161706F00F06FA
:1024C80086EA0206C0F83062C0F8347226462F4603
:1024D80014461D4697FA87F24FEA022266F317421E
:1024E8004FEA162666F3070296FA96F367F3174340
:1024F8004FEA174767F30F2308EA520609EAC2179B
:1025080009EA420282EA070282EA060208EA530658
:1025180009EAC31709EA430383EA070383EA0603C0
:1025280091F8176083EA161706F00F0686EA020686
:10253800C0F83862C0F83C7226462F4614461D463D
:1025480097FA87F24FEA022266F317424FEA1626F5
:1025580066F3070296FA96F367F317434FEA1747AD
:1025680067F30F2308EA520609EAC21709EA42028A
:1025780082EA070282EA060208EA530609EAC31752
:1025880009EA430383EA070383EA060391F818601C
:1025980083EA161706F00F0686EA0206C0F84062BC
:1025A800C0F8447226462F4614461D4697FA87F20D
:1025B8004FEA022266F317424FEA162666F307022D
:1025C80096FA96F367F317434FEA174767F30F2313
:1025D80008EA520609EAC21709EA420282EA070231
:1025E80082EA060208EA530609EAC31709EA43031E
:1025F80083EA070383EA060391F8196083EA16174A
:1026080006F00F0686EA0206C0F84862C0F84C7267
:1026180026462F4614461D4697FA87F24FEA0222AD
:1026280066F317424FEA162666F3070296FA96F300
:1026380067F317434FEA174767F30F2308EA520671
:1026480009EAC21709EA420282EA070282EA060296
:1026580008EA530609EAC31709EA430383EA0703AA
:1026680083EA060391F81A6083EA161706F00F0644
:1026780086EA0206C0F85062C0F8547226462F4611
:1026880014461D4697FA87F24FEA022266F317426C
:102698004FEA162666F3070296FA96F367F317438E
:1026A8004FEA174767F30F2308EA520609EAC217E9
:1026B80009EA420282EA070282EA060208EA5306A7
:1026C80009EAC31709EA430383EA070383EA06030F
:1026D80091F81B6083EA161706F00F0686EA0206D1
:1026E800C0F85862C0F85C7226462F4614461D464C
:1026F80097FA87F24FEA022266F317424FEA162644
:1027080066F3070296FA96F367F317434FEA1747FB
:1027180067F30F2308EA520609EAC21709EA4202D8
:1027280082EA070282EA060208EA530609EAC317A0
:1027380009EA430383EA070383EA060391F81C6066
:1027480083EA161706F00F0686EA0206C0F86062EA
:10275800C0F8647226462F4614461D4697FA87F23B
:102768004FEA022266F317424FEA162666F307027B
:1027780096FA96F367F317434FEA174767F30F2361
:1027880008EA520609EAC21709EA420282EA07027F
:1027980082EA060208EA530609EAC31709EA43036C
:1027A80083EA070383EA060391F81D6083EA161794
:1027B80006F00F0686EA0206C0F86862C0F86C7276
:1027C80026462F4614461D4697FA87F24FEA0222FC
:1027D80066F317424FEA162666F3070296FA96F34F
:1027E80067F317434FEA174767F30F2308EA5206C0
:1027F80009EAC21709EA420282EA070282EA0602E5
:1028080008EA530609EAC31709EA430383EA0703F8
:1028180083EA060391F81E6083EA161706F00F068E
:1028280086EA0206C0F87062C0F8747226462F461F
:1028380014461D4697FA87F24FEA022266F31742BA
:102848004FEA162666F3070296FA96F367F31743DC
:102858004FEA174767F30F2308EA520609EAC21737
:1028680009EA420282EA070282EA060208EA5306F5
:1028780009EAC31709EA430383EA070383EA06035D
:1028880091F81F6083EA161706F00F0686EA02061B
:10289800C0F87862C0F87C7226462F4614461D465A
:1028A80097FA87F24FEA022266F317424FEA162692
:1028B80066F3070296FA96F367F317434FEA17474A
:1028C80067F30F2308EA520609EAC21709EA420227
:1028D80082EA070282EA060208EA530609EAC317EF
:1028E80009EA430383EA070383EA060391F82060B1
:1028F80083EA161706F00F0686EA0206C0F8806219
:10290800C0F8847226462F4614461D4697FA87F269
:102918004FEA022266F317424FEA162666F30702C9
:1029280096FA96F367F317434FEA174767F30F23AF
:1029380008EA520609EAC21709EA420282EA0702CD
:1029480082EA060208EA530609EAC31709EA4303BA
:1029580083EA070383EA060391F8216083EA1617DE
:1029680006F00F0686EA0206C0F88862C0F88C7284
:1029780026462F4614461D4697FA87F24FEA02224A
:1029880066F317424FEA162666F3070296FA96F39D
:1029980067F317434FEA174767F30F2308EA52060E
:1029A80009EAC21709EA420282EA070282EA060233
:1029B80008EA530609EAC31709EA430383EA070347
:1029C80083EA060391F8226083EA161706F00F06D9
:1029D80086EA0206C0F89062C0F8947226462F462E
:1029E80014461D4697FA87F24FEA022266F3174209
:1029F8004FEA162666F3070296FA96F367F317432B
:102A08004FEA174767F30F2308EA520609EAC21785
:102A180009EA420282EA070282EA060208EA530643
:102A280009EAC31709EA430383EA070383EA0603AB
:102A380091F8236083EA161706F00F0686EA020665
:102A4800C0F89862C0F89C7226462F4614461D4668
:102A580097FA87F24FEA022266F317424FEA1626E0
:102A680066F3070296FA96F367F317434FEA174798
:102A780067F30F2308EA520609EAC21709EA420275
:102A880082EA070282EA060208EA530609EAC3173D
:102A980009EA430383EA070383EA060391F82460FB
:102AA80083EA161706F00F0686EA0206C0F8A06247
:102AB800C0F8A47226462F4614461D4697FA87F298
:102AC8004FEA022266F317424FEA162666F3070218
:102AD80096FA96F367F317434FEA174767F30F23FE
:102AE80008EA520609EAC21709EA420282EA07021C
:102AF80082EA060208EA530609EAC31709EA430309
:102B080083EA070383EA060391F8256083EA161728
:102B180006F00F0686EA0206C0F8A862C0F8AC7292
:102B280026462F4614461D4697FA87F24FEA022298
:102B380066F317424FEA162666F3070296FA96F3EB
:102B480067F317434FEA174767F30F2308EA52065C
:102B580009EAC21709EA420282EA070282EA060281
:102B680008EA530609EAC31709EA430383EA070395
:102B780083EA060391F8266083EA161706F00F0623
:102B880086EA0206C0F8B062C0F8B47226462F463C
:102B980014461D4697FA87F24FEA022266F3174257
:102BA8004FEA162666F3070296FA96F367F3174379
:102BB8004FEA174767F30F2308EA520609EAC217D4
:102BC80009EA420282EA070282EA060208EA530692
:102BD80009EAC31709EA430383EA070383EA0603FA
:102BE80091F8276083EA161706F00F0686EA0206B0
:102BF800C0F8B862C0F8BC72BDE8F003704700BF07
:102C08002DE9F05F4DF8040D91E8180094FA84F569
:102C18004FEA052563F317454FEA132363F30705C6
:102C280093FA93F664F317464FEA144464F30F26B5
:102C3800C1F80850C1F80C6096FA86F34FEA0323EE
:102C480065F317434FEA152565F3070395FA95F4DD
:102C580066F317444FEA164666F30F24C1F810309E
:102C6800C1F8144094FA84F54FEA052563F3174533
:102C78004FEA132363F3070593FA93F664F31746B1
:102C88004FEA144464F30F26C1F81850C1F81C60C9
:102C980096FA86F34FEA032365F317434FEA15259F
:102CA80065F3070395FA95F466F317444FEA164659
:102CB80066F30F24C1F82030C1F8244094FA84F553
:102CC8004FEA052563F317454FEA132363F3070516
:102CD80093FA93F664F317464FEA144464F30F2605
:102CE800C1F82850C1F82C6096FA86F34FEA0323FE
:102CF80065F317434FEA152565F3070395FA95F42D
:102D080066F317444FEA164666F30F24C1F83030CD
:102D1800C1F8344094FA84F54FEA052563F3174562
:102D28004FEA132363F3070593FA93F664F3174600
:102D38004FEA144464F30F26C1F83850C1F83C60D8
:102D480002F5807E90E878005FFAB3F95FFAA3F89D
:102D58005FFA93F75FFA83F35FFAA4FC5FFA94FBD8
:102D68005FFA84FA5FFAB4F412F8099012F808804E
:102D780012F8077012F8033012F80CC012F80BB0F2
:102D880012F80AA012F8044083EA072383EA0843EA
:102D980083EA096384EA0A2484EA0B4484EA0C641B
:102DA8005FFA95F95FFA85F85FFAB5F75FFAA5F566
:102DB8005FFA86FC5FFAB6FB5FFAA6FA5FFA96F648
:102DC80012F809901EF8088012F8077012F80550DA
:102DD80012F80CC012F80BB012F80AA012F806602C
:102DE80085EA072585EA084585EA096586EA0A2607
:102DF80086EA0B4686EA0C66D1F80090D1F804A062
:102E0800D1F840B0D1F844C08BEA090B8CEA0A0C1F
:102E180083EA0B0884EA3C6788EA050A87EA050919
:102E280086EA0A075FFAB7F55FFAA7F45FFA97F33D
:102E38005FFA87F75FFAA8FC5FFA98FB5FFA88F6F3
:102E48005FFAB8F812F8055012F8044012F8033087
:102E580012F8077012F80CC012F80BB012F80660DE
:102E680012F80880D1F8480087EA032787EA044760
:102E780087EA056788EA062888EA0B4888EA0C6822
:102E880087EA00045FFA99F55FFA89F75FFAB9F300
:102E98005FFAA9F95FFA8AFC5FFABAFB5FFAAAF649
:102EA8005FFA9AFA12F805501EF8077012F8033004
:102EB80012F8099012F80CC012F80BB012F806605C
:102EC80012F80AA0D1F84C0089EA032989EA0749CF
:102ED80089EA05698AEA062A8AEA0B4A8AEA0C6AB2
:102EE80088EA306384EA090683EA09058AEA060360
:102EF8005FFAB3F95FFAA3F85FFA93F75FFA83F31F
:102F08005FFAA4FC5FFA94FB5FFA84FA5FFAB4F400
:102F180012F8099012F8088012F8077012F80330B6
:102F280012F80CC012F80BB012F80AA012F80440FC
:102F380083EA072383EA084383EA096384EA0A24C5
:102F480084EA0B4484EA0C645FFA95F95FFA85F821
:102F58005FFAB5F75FFAA5F55FFA86FC5FFAB6FB8C
:102F68005FFAA6FA5FFA96F612F809901EF808803A
:102F780012F8077012F8055012F80CC012F80BB0CE
:102F880012F80AA012F8066085EA072585EA0845BE
:102F980085EA096586EA0A2686EA0B4686EA0C6609
:102FA800D1F80890D1F80CA0D1F850B0D1F854C09D
:102FB8008BEA090B8CEA0A0C83EA0B0884EA3C6763
:102FC80088EA050A87EA050986EA0A075FFAB7F573
:102FD8005FFAA7F45FFA97F35FFA87F75FFAA8FC3E
:102FE8005FFA98FB5FFA88F65FFAB8F812F80550AE
:102FF80012F8044012F8033012F8077012F80CC0E7
:1030080012F80BB012F8066012F80880D1F85800D0
:1030180087EA032787EA044787EA056788EA0628D4
:1030280088EA0B4888EA0C6887EA00045FFA99F591
:103038005FFA89F75FFAB9F35FFAA9F95FFA8AFCD0
:103048005FFABAFB5FFAAAF65FFA9AFA12F8055025
:103058001EF8077012F8033012F8099012F80CC025
:1030680012F80BB012F8066012F80AA0D1F85C004A
:1030780089EA032989EA074989EA05698AEA062A61
:103088008AEA0B4A8AEA0C6A88EA306384EA090603
:1030980083EA09058AEA06035FFAB3F95FFAA3F837
:1030A8005FFA93F75FFA83F35FFAA4FC5FFA94FB85
:1030B8005FFA84FA5FFAB4F412F8099012F80880FB
:1030C80012F8077012F8033012F80CC012F80BB09F
:1030D80012F80AA012F8044083EA072383EA084397
:1030E80083EA096384EA0A2484EA0B4484EA0C64C8
:1030F8005FFA95F95FFA85F85FFAB5F75FFAA5F513
:103108005FFA86FC5FFAB6FB5FFAA6FA5FFA96F6F4
:1031180012F809901EF8088012F8077012F8055086
:1031280012F80CC012F80BB012F80AA012F80660D8
:1031380085EA072585EA084585EA096586EA0A26B3
:1031480086EA0B4686EA0C66D1F81090D1F814A0EE
:10315800D1F860B0D1F864C08BEA090B8CEA0A0C8C
:1031680083EA0B0884EA3C6788EA050A87EA0509C6
:1031780086EA0A075FFAB7F55FFAA7F45FFA97F3EA
:103188005FFA87F75FFAA8FC5FFA98FB5FFA88F6A0
:103198005FFAB8F812F8055012F8044012F8033034
:1031A80012F8077012F80CC012F80BB012F806608B
:1031B80012F80880D1F8680087EA032787EA0447ED
:1031C80087EA056788EA062888EA0B4888EA0C68CF
:1031D80087EA00045FFA99F55FFA89F75FFAB9F3AD
:1031E8005FFAA9F95FFA8AFC5FFABAFB5FFAAAF6F6
:1031F8005FFA9AFA12F805501EF8077012F80330B1
:1032080012F8099012F80CC012F80BB012F8066008
:1032180012F80AA0D1F86C0089EA032989EA07495B
:1032280089EA05698AEA062A8AEA0B4A8AEA0C6A5E
:1032380088EA306384EA090683EA09058AEA06030C
:103248005FFAB3F95FFAA3F85FFA93F75FFA83F3CB
:103258005FFAA4FC5FFA94FB5FFA84FA5FFAB4F4AD
:1032680012F8099012F8088012F8077012F8033063
:1032780012F80CC012F80BB012F80AA012F80440A9
:1032880083EA072383EA084383EA096384EA0A2472
:1032980084EA0B4484EA0C645FFA95F95FFA85F8CE
:1032A8005FFAB5F75FFAA5F55FFA86FC5FFAB6FB39
:1032B8005FFAA6FA5FFA96F612F809901EF80880E7
:1032C80012F8077012F8055012F80CC012F80BB07B
:1032D80012F80AA012F8066085EA072585EA08456B
:1032E80085EA096586EA0A2686EA0B4686EA0C66B6
:1032F800D1F81890D1F81CA0D1F870B0D1F874C0EA
:103308008BEA090B8CEA0A0C83EA0B0884EA3C670F
:1033180088EA050A87EA050986EA0A075FFAB7F51F
:103328005FFAA7F45FFA97F35FFA87F75FFAA8FCEA
:103338005FFA98FB5FFA88F65FFAB8F812F805505A
:1033480012F8044012F8033012F8077012F80CC093
:1033580012F80BB012F8066012F80880D1F878005D
:1033680087EA032787EA044787EA056788EA062881
:1033780088EA0B4888EA0C6887EA00045FFA99F53E
:103388005FFA89F75FFAB9F35FFAA9F95FFA8AFC7D
:103398005FFABAFB5FFAAAF65FFA9AFA12F80550D2
:1033A8001EF8077012F8033012F8099012F80CC0D2
:1033B80012F80BB012F8066012F80AA0D1F87C00D7
:1033C80089EA032989EA074989EA05698AEA062A0E
:1033D8008AEA0B4A8AEA0C6A88EA306384EA0906B0
:1033E80083EA09058AEA06035FFAB3F95FFAA3F8E4
:1033F8005FFA93F75FFA83F35FFAA4FC5FFA94FB32
:103408005FFA84FA5FFAB4F412F8099012F80880A7
:1034180012F8077012F8033012F80CC012F80BB04B
:1034280012F80AA012F8044083EA072383EA084343
:1034380083EA096384EA0A2484EA0B4484EA0C6474
:103448005FFA95F95FFA85F85FFAB5F75FFAA5F5BF
:103458005FFA86FC5FFAB6FB5FFAA6FA5FFA96F6A1
:1034680012F809901EF8088012F8077012F8055033
:1034780012F80CC012F80BB012F80AA012F8066085
:1034880085EA072585EA084585EA096586EA0A2660
:1034980086EA0B4686EA0C66D1F82090D1F824A07B
:1034A800D1F880B0D1F884C08BEA090B8CEA0A0CF9
:1034B80083EA0B0884EA3C6788EA050A87EA050973
:1034C80086EA0A075FFAB7F55FFAA7F45FFA97F397
:1034D8005FFA87F75FFAA8FC5FFA98FB5FFA88F64D
:1034E8005FFAB8F812F8055012F8044012F80330E1
:1034F80012F8077012F80CC012F80BB012F8066038
:1035080012F80880D1F8880087EA032787EA044779
:1035180087EA056788EA062888EA0B4888EA0C687B
:1035280087EA00045FFA99F55FFA89F75FFAB9F359
:103538005FFAA9F95FFA8AFC5FFABAFB5FFAAAF6A2
:103548005FFA9AFA12F805501EF8077012F803305D
:1035580012F8099012F80CC012F80BB012F80660B5
:1035680012F80AA0D1F88C0089EA032989EA0749E8
:1035780089EA05698AEA062A8AEA0B4A8AEA0C6A0B
:1035880088EA306384EA090683EA09058AEA0603B9
:103598005FFAB3F95FFAA3F85FFA93F75FFA83F378
:1035A8005FFAA4FC5FFA94FB5FFA84FA5FFAB4F45A
:1035B80012F8099012F8088012F8077012F8033010
:1035C80012F80CC012F80BB012F80AA012F8044056
:1035D80083EA072383EA084383EA096384EA0A241F
:1035E80084EA0B4484EA0C645FFA95F95FFA85F87B
:1035F8005FFAB5F75FFAA5F55FFA86FC5FFAB6FBE6
:103608005FFAA6FA5FFA96F612F809901EF8088093
:1036180012F8077012F8055012F80CC012F80BB027
:1036280012F80AA012F8066085EA072585EA084517
:1036380085EA096586EA0A2686EA0B4686EA0C6662
:10364800D1F82890D1F82CA0D1F890B0D1F894C036
:103658008BEA090B8CEA0A0C83EA0B0884EA3C67BC
:1036680088EA050A87EA050986EA0A075FFAB7F5CC
:103678005FFAA7F45FFA97F35FFA87F75FFAA8FC97
:103688005FFA98FB5FFA88F65FFAB8F812F8055007
:1036980012F8044012F8033012F8077012F80CC040
:1036A80012F80BB012F8066012F80880D1F89800EA
:1036B80087EA032787EA044787EA056788EA06282E
:1036C80088EA0B4888EA0C6887EA00045FFA99F5EB
:1036D8005FFA89F75FFAB9F35FFAA9F95FFA8AFC2A
:1036E8005FFABAFB5FFAAAF65FFA9AFA12F805507F
:1036F8001EF8077012F8033012F8099012F80CC07F
:1037080012F80BB012F8066012F80AA0D1F89C0063
:1037180089EA032989EA074989EA05698AEA062ABA
:103728008AEA0B4A8AEA0C6A88EA306384EA09065C
:1037380083EA09058AEA06035FFAB3F95FFAA3F890
:103748005FFA93F75FFA83F35FFAA4FC5FFA94FBDE
:103758005FFA84FA5FFAB4F412F8099012F8088054
:1037680012F8077012F8033012F80CC012F80BB0F8
:1037780012F80AA012F8044083EA072383EA0843F0
:1037880083EA096384EA0A2484EA0B4484EA0C6421
:103798005FFA95F95FFA85F85FFAB5F75FFAA5F56C
:1037A8005FFA86FC5FFAB6FB5FFAA6FA5FFA96F64E
:1037B80012F809901EF8088012F8077012F80550E0
:1037C80012F80CC012F80BB012F80AA012F8066032
:1037D80085EA072585EA084585EA096586EA0A260D
:1037E80086EA0B4686EA0C66D1F83090D1F834A008
:1037F800D1F8A0B0D1F8A4C08BEA090B8CEA0A0C66
:1038080083EA0B0884EA3C6788EA050A87EA05091F
:1038180086EA0A075FFAB7F55FFAA7F45FFA97F343
:103828005FFA87F75FFAA8FC5FFA98FB5FFA88F6F9
:103838005FFAB8F812F8055012F8044012F803308D
:1038480012F8077012F80CC012F80BB012F80660E4
:1038580012F80880D1F8A80087EA032787EA044706
:1038680087EA056788EA062888EA0B4888EA0C6828
:1038780087EA00045FFA99F55FFA89F75FFAB9F306
:103888005FFAA9F95FFA8AFC5FFABAFB5FFAAAF64F
:103898005FFA9AFA12F805501EF8077012F803300A
:1038A80012F8099012F80CC012F80BB012F8066062
:1038B80012F80AA0D1F8AC0089EA032989EA074975
:1038C80089EA05698AEA062A8AEA0B4A8AEA0C6AB8
:1038D80088EA306384EA090683EA09058AEA060366
:1038E8005FFAB3F95FFAA3F85FFA93F75FFA83F325
:1038F8005FFAA4FC5FFA94FB5FFA84FA5FFAB4F407
:1039080012F8099012F8088012F8077012F80330BC
:1039180012F80CC012F80BB012F80AA012F8044002
:1039280083EA072383EA084383EA096384EA0A24CB
:1039380084EA0B4484EA0C645FFA95F95FFA85F827
:103948005FFAB5F75FFAA5F55FFA86FC5FFAB6FB92
:103958005FFAA6FA5FFA96F612F809901EF8088040
:1039680012F8077012F8055012F80CC012F80BB0D4
:1039780012F80AA012F8066085EA072585EA0845C4
:1039880085EA096586EA0A2686EA0B4686EA0C660F
:10399800D1F83890D1F83CA0D1F8B0B0D1F8B4C083
:1039A8008BEA090B8CEA0A0C83EA0B0884EA3C6769
:1039B80088EA050A87EA050986EA0A075FFAB7F579
:1039C8005FFAA7F45FFA97F35FFA87F75FFAA8FC44
:1039D8005FFA98FB5FFA88F65FFAB8F812F80550B4
:1039E80012F8044012F8033012F8077012F80CC0ED
:1039F80012F80BB012F8066012F80880D1F8B80077
:103A080087EA032787EA044787EA056788EA0628DA
:103A180088EA0B4888EA0C6887EA00045FFA99F597
:103A28005FFA89F75FFAB9F35FFAA9F95FFA8AFCD6
:103A38005FFABAFB5FFAAAF65FFA9AFA12F805502B
:103A48001EF8077012F8033012F8099012F80CC02B
:103A580012F80BB012F8066012F80AA0D1F8BC00F0
:103A680089EA032989EA074989EA05698AEA062A67
:103A78008AEA0B4A8AEA0C6A88EA306384EA090609
:103A880083EA09058AEA06035FFAB3F95FFAA3F83D
:103A98005FFA93F75FFA83F35FFAA4FC5FFA94FB8B
:103AA8005FFA84FA5FFAB4F412F8099012F8088001
:103AB80012F8077012F8033012F80CC012F80BB0A5
:103AC80012F80AA012F8044083EA072383EA08439D
:103AD80083EA096384EA0A2484EA0B4484EA0C64CE
:103AE8005FFA95F95FFA85F85FFAB5F75FFAA5F519
:103AF8005FFA86FC5FFAB6FB5FFAA6FA5FFA96F6FB
:103B080012F809901EF8088012F8077012F805508C
:103B180012F80CC012F80BB012F80AA012F80660DE
:103B280085EA072585EA084585EA096586EA0A26B9
:103B380086EA0B4686EA0C66D1F80090D1F804A014
:103B4800D1F8C0B0D1F8C4C08BEA090B8CEA0A0CD2
:103B580083EA0B0884EA3C6788EA050A87EA0509CC
:103B680086EA0A075FFAB7F55FFAA7F45FFA97F3F0
:103B78005FFA87F75FFAA8FC5FFA98FB5FFA88F6A6
:103B88005FFAB8F812F8055012F8044012F803303A
:103B980012F8077012F80CC012F80BB012F8066091
:103BA80012F80880D1F8C80087EA032787EA044793
:103BB80087EA056788EA062888EA0B4888EA0C68D5
:103BC80087EA00045FFA99F55FFA89F75FFAB9F3B3
:103BD8005FFAA9F95FFA8AFC5FFABAFB5FFAAAF6FC
:103BE8005FFA9AFA12F805501EF8077012F80330B7
:103BF80012F8099012F80CC012F80BB012F806600F
:103C080012F80AA0D1F8CC0089EA032989EA074901
:103C180089EA05698AEA062A8AEA0B4A8AEA0C6A64
:103C280088EA306384EA090683EA09058AEA060312
:103C38005FFAB3F95FFAA3F85FFA93F75FFA83F3D1
:103C48005FFAA4FC5FFA94FB5FFA84FA5FFAB4F4B3
:103C580012F8099012F8088012F8077012F8033069
:103C680012F80CC012F80BB012F80AA012F80440AF
:103C780083EA072383EA084383EA096384EA0A2478
:103C880084EA0B4484EA0C645FFA95F95FFA85F8D4
:103C98005FFAB5F75FFAA5F55FFA86FC5FFAB6FB3F
:103CA8005FFAA6FA5FFA96F612F809901EF80880ED
:103CB80012F8077012F8055012F80CC012F80BB081
:103CC80012F80AA012F8066085EA072585EA084571
:103CD80085EA096586EA0A2686EA0B4686EA0C66BC
:103CE800D1F80890D1F80CA0D1F8D0B0D1F8D4C050
:103CF8008BEA090B8CEA0A0C83EA0B0884EA3C6716
:103D080088EA050A87EA050986EA0A075FFAB7F525
:103D18005FFAA7F45FFA97F35FFA87F75FFAA8FCF0
:103D28005FFA98FB5FFA88F65FFAB8F812F8055060
:103D380012F8044012F8033012F8077012F80CC099
:103D480012F80BB012F8066012F80880D1F8D80003
:103D580087EA032787EA044787EA056788EA062887
:103D680088EA0B4888EA0C6887EA00045FFA99F544
:103D78005FFA89F75FFAB9F35FFAA9F95FFA8AFC83
:103D88005FFABAFB5FFAAAF65FFA9AFA12F80550D8
:103D98001EF8077012F8033012F8099012F80CC0D8
:103DA80012F80BB012F8066012F80AA0D1F8DC007D
:103DB80089EA032989EA074989EA05698AEA062A14
:103DC8008AEA0B4A8AEA0C6A88EA306384EA0906B6
:103DD80083EA09058AEA06035FFAB3F95FFAA3F8EA
:103DE8005FFA93F75FFA83F35FFAA4FC5FFA94FB38
:103DF8005FFA84FA5FFAB4F412F8099012F80880AE
:103E080012F8077012F8033012F80CC012F80BB051
:103E180012F80AA012F8044083EA072383EA084349
:103E280083EA096384EA0A2484EA0B4484EA0C647A
:103E38005FFA95F95FFA85F85FFAB5F75FFAA5F5C5
:103E48005FFA86FC5FFAB6FB5FFAA6FA5FFA96F6A7
:103E580012F809901EF8088012F8077012F8055039
:103E680012F80CC012F80BB012F80AA012F806608B
:103E780085EA072585EA084585EA096586EA0A2666
:103E880086EA0B4686EA0C66D1F81090D1F814A0A1
:103E9800D1F8E0B0D1F8E4C08BEA090B8CEA0A0C3F
:103EA80083EA0B0884EA3C6788EA050A87EA050979
:103EB80086EA0A075FFAB7F55FFAA7F45FFA97F39D
:103EC8005FFA87F75FFAA8FC5FFA98FB5FFA88F653
:103ED8005FFAB8F812F8055012F8044012F80330E7
:103EE80012F8077012F80CC012F80BB012F806603E
:103EF80012F80880D1F8E80087EA032787EA044720
:103F080087EA056788EA062888EA0B4888EA0C6881
:103F180087EA00045FFA99F55FFA89F75FFAB9F35F
:103F28005FFAA9F95FFA8AFC5FFABAFB5FFAAAF6A8
:103F38005FFA9AFA12F805501EF8077012F8033063
:103F480012F8099012F80CC012F80BB012F80660BB
:103F580012F80AA0D1F8EC0089EA032989EA07498E
:103F680089EA05698AEA062A8AEA0B4A8AEA0C6A11
:103F780088EA306384EA090683EA09058AEA0603BF
:103F88005FFAB3F95FFAA3F85FFA93F75FFA83F37E
:103F98005FFAA4FC5FFA94FB5FFA84FA5FFAB4F460
:103FA80012F8099012F8088012F8077012F8033016
:103FB80012F80CC012F80BB012F80AA012F804405C
:103FC80083EA072383EA084383EA096384EA0A2425
:103FD80084EA0B4484EA0C645FFA95F95FFA85F881
:103FE8005FFAB5F75FFAA5F55FFA86FC5FFAB6FBEC
:103FF8005FFAA6FA5FFA96F612F809901EF808809A
:1040080012F8077012F8055012F80CC012F80BB02D
:1040180012F80AA012F8066085EA072585EA08451D
:1040280085EA096586EA0A2686EA0B4686EA0C6668
:10403800D1F81890D1F81CA0D1F8F0B0D1F8F4C09C
:104048008BEA090B8CEA0A0C83EA0B0884EA3C67C2
:1040580088EA050A87EA050986EA0A075FFAB7F5D2
:104068005FFAA7F45FFA97F35FFA87F75FFAA8FC9D
:104078005FFA98FB5FFA88F65FFAB8F812F805500D
:1040880012F8044012F8033012F8077012F80CC046
:1040980012F80BB012F8066012F80880D1F8F80090
:1040A80087EA032787EA044787EA056788EA062834
:1040B80088EA0B4888EA0C6887EA00045FFA99F5F1
:1040C8005FFA89F75FFAB9F35FFAA9F95FFA8AFC30
:1040D8005FFABAFB5FFAAAF65FFA9AFA12F8055085
:1040E8001EF8077012F8033012F8099012F80CC085
:1040F80012F80BB012F8066012F80AA0D1F8FC000A
:1041080089EA032989EA074989EA05698AEA062AC0
:104118008AEA0B4A8AEA0C6A88EA306384EA090662
:1041280083EA09058AEA06035FFAB3F95FFAA3F896
:104138005FFA93F75FFA83F35FFAA4FC5FFA94FBE4
:104148005FFA84FA5FFAB4F412F8099012F808805A
:1041580012F8077012F8033012F80CC012F80BB0FE
:1041680012F80AA012F8044083EA072383EA0843F6
:1041780083EA096384EA0A2484EA0B4484EA0C6427
:104188005FFA95F95FFA85F85FFAB5F75FFAA5F572
:104198005FFA86FC5FFAB6FB5FFAA6FA5FFA96F654
:1041A80012F809901EF8088012F8077012F80550E6
:1041B80012F80CC012F80BB012F80AA012F8066038
:1041C80085EA072585EA084585EA096586EA0A2613
:1041D80086EA0B4686EA0C66D1F82090D1F824A02E
:1041E800D1F800B1D1F804C18BEA090B8CEA0A0CAA
:1041F80083EA0B0884EA3C6788EA050A87EA050926
:1042080086EA0A075FFAB7F55FFAA7F45FFA97F349
:104218005FFA87F75FFAA8FC5FFA98FB5FFA88F6FF
:104228005FFAB8F812F8055012F8044012F8033093
:1042380012F8077012F80CC012F80BB012F80660EA
:1042480012F80880D1F8080187EA032787EA0447AB
:1042580087EA056788EA062888EA0B4888EA0C682E
:1042680087EA00045FFA99F55FFA89F75FFAB9F30C
:104278005FFAA9F95FFA8AFC5FFABAFB5FFAAAF655
:104288005FFA9AFA12F805501EF8077012F8033010
:1042980012F8099012F80CC012F80BB012F8066068
:1042A80012F80AA0D1F80C0189EA032989EA07491A
:1042B80089EA05698AEA062A8AEA0B4A8AEA0C6ABE
:1042C80088EA306384EA090683EA09058AEA06036C
:1042D8005FFAB3F95FFAA3F85FFA93F75FFA83F32B
:1042E8005FFAA4FC5FFA94FB5FFA84FA5FFAB4F40D
:1042F80012F8099012F8088012F8077012F80330C3
:1043080012F80CC012F80BB012F80AA012F8044008
:1043180083EA072383EA084383EA096384EA0A24D1
:1043280084EA0B4484EA0C645FFA95F95FFA85F82D
:104338005FFAB5F75FFAA5F55FFA86FC5FFAB6FB98
:104348005FFAA6FA5FFA96F612F809901EF8088046
:1043580012F8077012F8055012F80CC012F80BB0DA
:1043680012F80AA012F8066085EA072585EA0845CA
:1043780085EA096586EA0A2686EA0B4686EA0C6615
:10438800D1F82890D1F82CA0D1F810B1D1F814C1E7
:104398008BEA090B8CEA0A0C83EA0B0884EA3C676F
:1043A80088EA050A87EA050986EA0A075FFAB7F57F
:1043B8005FFAA7F45FFA97F35FFA87F75FFAA8FC4A
:1043C8005FFA98FB5FFA88F65FFAB8F812F80550BA
:1043D80012F8044012F8033012F8077012F80CC0F3
:1043E80012F80BB012F8066012F80880D1F818011C
:1043F80087EA032787EA044787EA056788EA0628E1
:1044080088EA0B4888EA0C6887EA00045FFA99F59D
:104418005FFA89F75FFAB9F35FFAA9F95FFA8AFCDC
:104428005FFABAFB5FFAAAF65FFA9AFA12F8055031
:104438001EF8077012F8033012F8099012F80CC031
:1044480012F80BB012F8066012F80AA0D1F81C0195
:1044580089EA032989EA074989EA05698AEA062A6D
:104468008AEA0B4A8AEA0C6A88EA306384EA09060F
:1044780083EA09058AEA06035FFAB3F95FFAA3F843
:104488005FFA93F75FFA83F35FFAA4FC5FFA94FB91
:104498005FFA84FA5FFAB4F412F8099012F8088007
:1044A80012F8077012F8033012F80CC012F80BB0AB
:1044B80012F80AA012F8044083EA072383EA0843A3
:1044C80083EA096384EA0A2484EA0B4484EA0C64D4
:1044D8005FFA95F95FFA85F85FFAB5F75FFAA5F51F
:1044E8005FFA86FC5FFAB6FB5FFAA6FA5FFA96F601
:1044F80012F809901EF8088012F8077012F8055093
:1045080012F80CC012F80BB012F80AA012F80660E4
:1045180085EA072585EA084585EA096586EA0A26BF
:1045280086EA0B4686EA0C66D1F83090D1F834A0BA
:10453800D1F820B1D1F824C18BEA090B8CEA0A0C16
:1045480083EA0B0884EA3C6788EA050A87EA0509D2
:1045580086EA0A075FFAB7F55FFAA7F45FFA97F3F6
:104568005FFA87F75FFAA8FC5FFA98FB5FFA88F6AC
:104578005FFAB8F812F8055012F8044012F8033040
:1045880012F8077012F80CC012F80BB012F8066097
:1045980012F80880D1F8280187EA032787EA044738
:1045A80087EA056788EA062888EA0B4888EA0C68DB
:1045B80087EA00045FFA99F55FFA89F75FFAB9F3B9
:1045C8005FFAA9F95FFA8AFC5FFABAFB5FFAAAF602
:1045D8005FFA9AFA12F805501EF8077012F80330BD
:1045E80012F8099012F80CC012F80BB012F8066015
:1045F80012F80AA0D1F82C0189EA032989EA0749A7
:1046080089EA05698AEA062A8AEA0B4A8AEA0C6A6A
:1046180088EA306384EA090683EA09058AEA060318
:104628005FFAB3F95FFAA3F85FFA93F75FFA83F3D7
:104638005FFAA4FC5FFA94FB5FFA84FA5FFAB4F4B9
:1046480012F8099012F8088012F8077012F803306F
:1046580012F80CC012F80BB012F80AA012F80440B5
:1046680083EA072383EA084383EA096384EA0A247E
:1046780084EA0B4484EA0C645FFA95F95FFA85F8DA
:104688005FFAB5F75FFAA5F55FFA86FC5FFAB6FB45
:104698005FFAA6FA5FFA96F612F809901EF80880F3
:1046A80012F8077012F8055012F80CC012F80BB087
:1046B80012F80AA012F8066085EA072585EA084577
:1046C80085EA096586EA0A2686EA0B4686EA0C66C2
:1046D800D1F83890D1F83CA0D1F830B1D1F834C134
:1046E8008BEA090B8CEA0A0C83EA0B0884EA3C671C
:1046F80088EA050A87EA050986EA0A075FFAB7F52C
:104708005FFAA7F45FFA97F35FFA87F75FFAA8FCF6
:104718005FFA98FB5FFA88F65FFAB8F812F8055066
:1047280012F8044012F8033012F8077012F80CC09F
:1047380012F80BB012F8066012F80880D1F83801A8
:1047480087EA032787EA044787EA056788EA06288D
:1047580088EA0B4888EA0C6887EA00045FFA99F54A
:104768005FFA89F75FFAB9F35FFAA9F95FFA8AFC89
:104778005FFABAFB5FFAAAF65FFA9AFA12F80550DE
:104788001EF8077012F8033012F8099012F80CC0DE
:1047980012F80BB012F8066012F80AA0D1F83C0122
:1047A80089EA032989EA074989EA05698AEA062A1A
:1047B8008AEA0B4A8AEA0C6A88EA306384EA0906BC
:1047C80083EA09058AEA06035FFAB3F95FFAA3F8F0
:1047D8005FFA93F75FFA83F35FFAA4FC5FFA94FB3E
:1047E8005FFA84FA5FFAB4F412F8099012F80880B4
:1047F80012F8077012F8033012F80CC012F80BB058
:1048080012F80AA012F8044083EA072383EA08434F
:1048180083EA096384EA0A2484EA0B4484EA0C6480
:104828005FFA95F95FFA85F85FFAB5F75FFAA5F5CB
:104838005FFA86FC5FFAB6FB5FFAA6FA5FFA96F6AD
:1048480012F809901EF8088012F8077012F805503F
:1048580012F80CC012F80BB012F80AA012F8066091
:1048680085EA072585EA084585EA096586EA0A266C
:1048780086EA0B4686EA0C66D1F80090D1F804A0C7
:10488800D1F840B1D1F844C18BEA090B8CEA0A0C83
:1048980083EA0B0884EA3C6788EA050A87EA05097F
:1048A80086EA0A075FFAB7F55FFAA7F45FFA97F3A3
:1048B8005FFA87F75FFAA8FC5FFA98FB5FFA88F659
:1048C8005FFAB8F812F8055012F8044012F80330ED
:1048D80012F8077012F80CC012F80BB012F8066044
:1048E80012F80880D1F8480187EA032787EA0447C5
:1048F80087EA056788EA062888EA0B4888EA0C6888
:1049080087EA00045FFA99F55FFA89F75FFAB9F365
:104918005FFAA9F95FFA8AFC5FFABAFB5FFAAAF6AE
:104928005FFA9AFA12F805501EF8077012F8033069
:1049380012F8099012F80CC012F80BB012F80660C1
:1049480012F80AA0D1F84C0189EA032989EA074933
:1049580089EA05698AEA062A8AEA0B4A8AEA0C6A17
:1049680088EA306384EA090683EA09058AEA0603C5
:104978005FFAB3F95FFAA3F85FFA93F75FFA83F384
:104988005FFAA4FC5FFA94FB5FFA84FA5FFAB4F466
:1049980012F8099012F8088012F8077012F803301C
:1049A80012F80CC012F80BB012F80AA012F8044062
:1049B80083EA072383EA084383EA096384EA0A242B
:1049C80084EA0B4484EA0C645FFA95F95FFA85F887
:1049D8005FFAB5F75FFAA5F55FFA86FC5FFAB6FBF2
:1049E8005FFAA6FA5FFA96F612F809901EF80880A0
:1049F80012F8077012F8055012F80CC012F80BB034
:104A080012F80AA012F8066085EA072585EA084523
:104A180085EA096586EA0A2686EA0B4686EA0C666E
:104A2800D1F80890D1F80CA0D1F850B1D1F854C100
:104A38008BEA090B8CEA0A0C83EA0B0884EA3C67C8
:104A480088EA050A87EA050986EA0A075FFAB7F5D8
:104A58005FFAA7F45FFA97F35FFA87F75FFAA8FCA3
:104A68005FFA98FB5FFA88F65FFAB8F812F8055013
:104A780012F8044012F8033012F8077012F80CC04C
:104A880012F80BB012F8066012F80880D1F8580135
:104A980087EA032787EA044787EA056788EA06283A
:104AA80088EA0B4888EA0C6887EA00045FFA99F5F7
:104AB8005FFA89F75FFAB9F35FFAA9F95FFA8AFC36
:104AC8005FFABAFB5FFAAAF65FFA9AFA12F805508B
:104AD8001EF8077012F8033012F8099012F80CC08B
:104AE80012F80BB012F8066012F80AA0D1F85C01AF
:104AF80089EA032989EA074989EA05698AEA062AC7
:104B08008AEA0B4A8AEA0C6A88EA306384EA090668
:104B180083EA09058AEA06035FFAB3F95FFAA3F89C
:104B28005FFA93F75FFA83F35FFAA4FC5FFA94FBEA
:104B38005FFA84FA5FFAB4F412F8099012F8088060
:104B480012F8077012F8033012F80CC012F80BB004
:104B580012F80AA012F8044083EA072383EA0843FC
:104B680083EA096384EA0A2484EA0B4484EA0C642D
:104B78005FFA95F95FFA85F85FFAB5F75FFAA5F578
:104B88005FFA86FC5FFAB6FB5FFAA6FA5FFA96F65A
:104B980012F809901EF8088012F8077012F80550EC
:104BA80012F80CC012F80BB012F80AA012F806603E
:104BB80085EA072585EA084585EA096586EA0A2619
:104BC80086EA0B4686EA0C66D1F81090D1F814A054
:104BD800D1F860B1D1F864C18BEA090B8CEA0A0CF0
:104BE80083EA0B0884EA3C6788EA050A87EA05092C
:104BF80086EA0A075FFAB7F55FFAA7F45FFA97F350
:104C08005FFA87F75FFAA8FC5FFA98FB5FFA88F605
:104C18005FFAB8F812F8055012F8044012F8033099
:104C280012F8077012F80CC012F80BB012F80660F0
:104C380012F80880D1F8680187EA032787EA044751
:104C480087EA056788EA062888EA0B4888EA0C6834
:104C580087EA00045FFA99F55FFA89F75FFAB9F312
:104C68005FFAA9F95FFA8AFC5FFABAFB5FFAAAF65B
:104C78005FFA9AFA12F805501EF8077012F8033016
:104C880012F8099012F80CC012F80BB012F806606E
:104C980012F80AA0D1F86C0189EA032989EA0749C0
:104CA80089EA05698AEA062A8AEA0B4A8AEA0C6AC4
:104CB80088EA306384EA090683EA09058AEA060372
:104CC8005FFAB3F95FFAA3F85FFA93F75FFA83F331
:104CD8005FFAA4FC5FFA94FB5FFA84FA5FFAB4F413
:104CE80012F8099012F8088012F8077012F80330C9
:104CF80012F80CC012F80BB012F80AA012F804400F
:104D080083EA072383EA084383EA096384EA0A24D7
:104D180084EA0B4484EA0C645FFA95F95FFA85F833
:104D28005FFAB5F75FFAA5F55FFA86FC5FFAB6FB9E
:104D38005FFAA6FA5FFA96F612F809901EF808804C
:104D480012F8077012F8055012F80CC012F80BB0E0
:104D580012F80AA012F8066085EA072585EA0845D0
:104D680085EA096586EA0A2686EA0B4686EA0C661B
:104D7800D1F81890D1F81CA0D1F870B1D1F874C14D
:104D88008BEA090B8CEA0A0C83EA0B0884EA3C6775
:104D980088EA050A87EA050986EA0A075FFAB7F585
:104DA8005FFAA7F45FFA97F35FFA87F75FFAA8FC50
:104DB8005FFA98FB5FFA88F65FFAB8F812F80550C0
:104DC80012F8044012F8033012F8077012F80CC0F9
:104DD80012F80BB012F8066012F80880D1F87801C2
:104DE80087EA032787EA044787EA056788EA0628E7
:104DF80088EA0B4888EA0C6887EA00045FFA99F5A4
:104E08005FFA89F75FFAB9F35FFAA9F95FFA8AFCE2
:104E18005FFABAFB5FFAAAF65FFA9AFA12F8055037
:104E28001EF8077012F8033012F8099012F80CC037
:104E380012F80BB012F8066012F80AA0D1F87C013B
:104E480089EA032989EA074989EA05698AEA062A73
:104E58008AEA0B4A8AEA0C6A88EA306384EA090615
:104E680083EA09058AEA06035DF8040BC0F80030F6
:104E7800C0F80440C0F80850C0F80C60BDE8F05F06
:104E8800704700BF70B50C46054610682060526830
:104E980062601A6822615A6862619A68A261DB6876
:104EA8000499E3610B6823624B6863628B680A4E5E
:104EB800A362CB68E36231462046FCF749FE2046F0
:104EC800FBF7EEFD054B06F1380221462846FDF7B3
:104ED80097FEC4F8C03270BD00000020E94E0008FB
:104EE80038B50C4611682160526862601A68226100
:104EF8005A6862619A68A261DB68E36105462046E8
:104F0800FBF7CEFD21462846024ABDE83840FDF7AA
:104F180077BE00BF3800002010B414680C605268D7
:104F28004A6010BC014AFDF76BBE00BF3800002084
:104F3800024B002018805880704700BF38020020BC
:104F4800054A431E0F3013F8011F02F8011B834264
:104F5800F9D10020704700BF3C02002070B5094914
:104F680004780B46051933F8142B1344A84203D1CF
:104F780022440A80002070BD10F8016F03F8016B0D
:104F8800F4E700BF3802002070B5094904784B885F
:104F980001F58A721A440519A84203D123444B80AB
:104FA800002070BD10F8016F02F8016BF4E700BF34
:104FB8003802002030B50024ADF5137D21460546A2
:104FC8004FF403720FA80E9401F02EF9002200236B
:104FD800CDE90C2300F096FA144A0694131DCDE986
:104FE80007535388CDE9043402F58A730293138872
:104FF8000CA9CDE9003414320EA8FBF767FB00F0CA
:1050080088FABDF830300BAA5BBA02217220ADF8DD
:105018002C3000F01BF99DF830100EAA722000F019
:1050280015F920460DF5137D30BD00BF380200206C
:1050380038B5074B0025044610211D805D80FFF719
:105048007FFF294604F11000BDE83840FFF7B2BFE2
:105058003802002030B50024ADF50D7D2146054607
:105068004FF4FE720DA80C9401F0DEF80022002324
:10507800CDE90A2300F046FA144B1A1DCDE9065271
:105088005A88CDE9042403F58A7202921A880AA97B
:10509800CDE90024143322460CA8FBF70FFC00F0DE
:1050A80038FABDF8283009AA5BBA02217220ADF897
:1050B800243000F0CBF89DF828100CAA722000F0DC
:1050C800C5F820460DF50D7D30BD00BF3802002023
:1050D80008B500F075F900F0B3F900F0EFF96820B1
:1050E80000F038FA652000F035FA6C2000F032FA4A
:1050F8006C2000F02FFA6F2000F02CFA0A2000F044
:1051080029FA00F08DF8134A0021722000F084F883
:10511800114A2021652000F07FF8104A10216B20E9
:1051280000F07AF80E4A1121702000F075F80D4A47
:105138001121612000F070F80B4A10216E2000F058
:105148006BF80A4A1021642000F066F800F0D8F8DD
:10515800FCE700BF394F000839500008494F0008E4
:10516800654F0008914F0008BD4F00085D500008CA
:1051780001207047F0B500254F1C854201DB002057
:1051880021E017F8154011F81530A4F13006F6B2F1
:10519800092E0CD81670A3F13004E6B2092E15D8E2
:1051A800137843EA0413137001350132E5E7A4F1DB
:1051B8004106052E02D8373C1470ECE7A4F16106CD
:1051C800052E01D90120F0BD573CF5E7A3F14104B4
:1051D800052C02D8A3F13704E2E7A3F16104052CFA
:1051E800F0D81478573B44EA0313DCE770B5094E4E
:1051F80034680F2C0BDCBF2909D806EB0415C5E968
:105208000212013428712B743460002070BD012013
:10521800FCE700BF4C0400200023FFF7E7BF0000B5
:1052280008B5074A00217620FFF7F6FF054A7720E0
:10523800FFF7F2FFBDE80840034A7920FFF7ECBF0B
:1052480079510008B952000895520008F8B514467B
:105258000E4600F07FF90C4F651EC4F10104631976
:105268009E4204DCBDE8F8400A2000F073B915F846
:10527800013F1B09F85C00F06DF92B7803F00F0370
:10528800F85C00F067F9EAE75862000807B5074BD1
:105298000DF107021B688DF8073001217220FFF716
:1052A800D5FF002003B05DF804FB00BF4C040020CC
:1052B80070B5124C21688CB0CDB20020C3B2AB429D
:1052C80000F1010009DB01EB41016A46C9B2722015
:1052D800FFF7BCFF00200CB070BD03EB4302303277
:1052E80004EB03136A441E7902F8306C9E681B7C39
:1052F80002F82F6C02F82E3CE0E700BF4C040020B7
:105308002DE9F0412D4DADF5127D00F009F92A4641
:10531800002352F8041B994240DC3BD005EB0314F0
:105328001E01237CDB0713D500238DF8083000F01D
:10533800F7F88DF8C80000F0F3F802AA8DF8C90054
:1053480032A90120FFF716FF20BB9DF80830A360A3
:1053580032AF002405EB0608D8F80830B4EB430F49
:1053680022D300F0DDF80A2801D00D2812D13544E7
:1053780002AAAC6832A92046FFF7FCFE50B9E1B298
:10538800EB6802A8984701AA8DF8040001217A2049
:10539800FFF75CFF0DF5127DBDE8F0811C01A45CF0
:1053A8008442BBD00133B6E700F0BAF80A28F1D03E
:1053B8000D28EFD007F8010B0134CDE74C0400208D
:1053C80070B596B0002403264FF4A0230CA801253D
:1053D800CDE90C631094149400F0D4F80F232146FF
:1053E80002A8CDE90235CDE90444069400F026FB75
:1053F800114B5A6942F400225A615B69CDE90946AA
:1054080003F400230D4C0193019B07A94FF4C043FB
:105418002046CDE9073500F0B7FB2A4620464FF471
:10542800005100F073FC2A464FF48041204600F0FA
:105438006DFC16B070BD00BF0010024000080048A7
:1054480010B54FF4C06288B00223CDE903230121CF
:105458000323CDE90513164C07230793636943F427
:1054680000336361636903F40033019303A94FF0C8
:105478009040019B00F088FB0E48DFF83CC04FF4D9
:105488001643C0E900C30023C0E902330361836106
:105498000C234361A36943F48043A361A36903F424
:1054A80080430293029B00F089FD08B010BD00BF45
:1054B800001002405005002000380140104B30B564
:1054C8005A6942F400325A615B6987B003F40033C9
:1054D8000093009B4FF480540123CDE9014300253C
:1054E800032301A94FF09040CDE9035300F04CFB92
:1054F8002A4621464FF0904000F008FC07B030BD26
:105508000010024001224FF480514FF0904000F00B
:10551800FDBB00224FF480514FF0904000F0F6BBE5
:1055280037B50A4D0A4C41F2883301220DF10701C3
:10553800284600F0C3FD18B99DF8070003B030BD38
:10554800236A43F008032362EDE700BF50050020FB
:105558000038014007B541F288338DF80700012271
:105568000DF10701024800F053FD03B05DF804FB9C
:1055780050050020024B1868421C1A60704700BF93
:10558800C005002003682DE9F743D907044611D464
:1055980023689A0700F1868023681E0700F1F480CB
:1055A80023685D0700F13B81E269002A40F0C2816F
:1055B800002021E0B6494B6803F00C03042B07D008
:1055C8004B6803F00C03082B19D14B68DB0316D585
:1055D8004FF4003393FAA3F2096893FAA3F3B3FAEA
:1055E80083F303F01F03012202FA03F30B42CFD027
:1055F8006368002BCCD1012003B0BDE8F08362685A
:10560800B2F5803F24D10B6843F480330B60CB6A3A
:10561800A06823F00F030343CB624AB3FFF7AAFF46
:105628004FF400360546012796FAA6F30A6896FA5B
:10563800A6F3B3FA83F303F01F0307FA03F3134245
:10564800A6D1FFF797FF431B642BEDD90320D3E7BF
:105658000B6832B923F480330B600B6823F4802382
:10566800D4E7B2F5A02FF5D143F480230B60CAE745
:10567800FFF780FF4FF400360546012796FAA6F398
:105688000A6896FAA6F3B3FA83F303F01F0307FA3E
:1056980003F313423FF47CAFFFF76CFF431B642B0B
:1056A800ECD9D3E77A494B6813F00C0F07D04B6855
:1056B80003F00C03082B21D14B68DF031ED402230F
:1056C80093FAA3F2086893FAA3F3B3FA83F303F007
:1056D8001F03012202FA03F3034202D02369934213
:1056E80089D10868F82292FAA2F26369B2FA82F2C2
:1056F800934020F0F80213430B604DE7226901251F
:1057080002B395FAA5F3B3FA83F303F1845303F5CF
:1057180084139B0002271D60FFF72CFF064697FAAB
:10572800A7F30A6897FAA7F3B3FA83F303F01F0302
:1057380005FA03F31342D4D1FFF71CFF831B022B96
:10574800EDD983E795FAA5F3B3FA83F303F184530C
:1057580003F584139B0002271A60FFF70BFF064628
:1057680097FAA7F30A6897FAA7F3B3FA83F303F053
:105778001F0305FA03F313423FF40EAFFFF7FAFED7
:10578800831B022BECD961E7A269414D41480121F5
:1057980012B391FAA1F3B3FA83F303449B000226F0
:1057A8001960FFF7E7FE074696FAA6F396FAA6F3FE
:1057B80096FAA6F36A6A96FAA6F3B3FA83F303F0A5
:1057C8001F0301FA03F313427FF4EAAEFFF7D2FE98
:1057D800C31B022BE8D939E791FAA1F3B3FA83F393
:1057E80003449B0002261A60FFF7C4FE074696FA98
:1057F800A6F396FAA6F396FAA6F36A6A96FAA6F3B9
:10580800B3FA83F303F01F0301FA03F313423FF4DF
:10581800C7AEFFF7AFFEC31B022BE8D916E71C493A
:10582800CB69D8003AD4CB6943F08053CB61CB69BC
:1058380003F080530193019B0125174E3368DA0565
:105848002ED5E368012B3BD10B6A43F001030B62B1
:10585800FFF790FE022607464FF0010841F288390B
:1058680096FAA6F396FAA6F30A6A96FAA6F3B3FA94
:1058780083F303F01F0308FA03F3134254D0002DF7
:105888003FF492AECB6923F08053CB618CE600BF26
:105898000010024020819010007000400025CCE7E5
:1058A800336843F480733360FFF764FE0746336858
:1058B800DB05C6D4FFF75EFEC01B6428F7D9C5E632
:1058C80023BB0B6A23F001030B620B6A23F004036A
:1058D8000B62FFF74FFE022607464FF0010841F220
:1058E800883996FAA6F396FAA6F30A6A96FAA6F300
:1058F800B3FA83F303F01F0308FA03F31342BED08D
:10590800FFF738FEC01B4845EBD99FE6052B0B6A0D
:1059180003D143F004030B6296E723F001030B6203
:105928000B6A23F0040392E7FFF724FEC01B4845E7
:1059380096D98BE640494B6803F00C03082B3FF4DB
:105948005AAE022A4FF0807351D193FAA3F3B3FAF7
:1059580083F303F1845303F584139B0000221A6038
:10596800FFF708FE4FF000770646012597FAA7F3E0
:105978000A6897FAA7F3B3FA83F303F01F0305FA4B
:1059880003F313422DD1D4E908034A68034322F4F0
:10599800741213434B604FF0807393FAA3F3B3FA76
:1059A80083F303F1845303F584139B0001261D60E0
:1059B800FFF7E0FD4FF00075044695FAA5F30A6875
:1059C80095FAA5F3B3FA83F303F01F0306FA03F37A
:1059D80013427FF4EDADFFF7CDFD001B0228ECD993
:1059E80034E6FFF7C7FD831B022BBFD92EE693FAD7
:1059F800A3F3B3FA83F303F1845303F584139B00F1
:105A080000221A60FFF7B6FD4FF000750446012624
:105A180095FAA5F30A6895FAA5F3B3FA83F303F0A8
:105A28001F0306FA03F313423FF4C2ADFFF7A2FDCA
:105A3800001B0228ECD909E600100240504AF8B5CC
:105A4800136803F007038B4204461BD322689007B0
:105A580024D4D2072AD44A4A136803F007038B4296
:105A68007AD82068430700F1828010F0080014D02B
:105A7800444A2169536823F4605343EAC1035360DD
:105A880000200AE0136823F007030B431360136830
:105A980003F007038B42D9D00120F8BD3948A56827
:105AA800436823F0F0032B434360D2E76268354D27
:105AB800012A27D14FF4003393FAA3F0286893FA08
:105AC800A3F3B3FA83F303F01F0302FA03F30342C9
